:100000000C9455000C9472000C9472000C947200C5
:100010000C9472000C9472000C9472000C94720098
:100020000C9472000C9472000C9472000C94720088
:100030000C9472000C9472000C9472000C94720078
:100040000C9472000C9472000C94130C0C94470CDA
:100050000C9472000C94AD010C9472000C9472001C
:100060000C9472000C947200D406D806DC06E006EC
:10007000E406E806EC06500756075C0762076807C7
:1000800071077A078307890792079B07A407AA07C6
:10009000B307BC07DB07DF07E307E707EB07EF075B
:1000A000F307F707FB07FF07030811241FBECFEF75
:1000B000D8E0DEBFCDBF11E0A0E0B1E0ECEFF9E1A8
:1000C00002C005900D92A030B107D9F722E0A0E060
:1000D000B1E001C01D92AD3FB207E1F70E949E0C56
:1000E0000C94FC0C0C940000E0913001F091310173
:1000F000228126FD02C020642283FC01EE0FFF1F37
:10010000E75EFE4F808191810895EF92FF920F93F9
:100110001F93CF93DF93CDB7DEB7EE970FB6F8946A
:10012000DEBF0FBECDBF28960FAD289729961FAD15
:1001300029972B96EEACFFAC2B97CE0101960E942F
:1001400017038EE3FE013196ACE2B1E001900D920F
:100150008A95E1F7ECE2F1E0A085B18591964C91AA
:100160009197842F8F7791968C93F0920801E0926B
:1001700007011092060110920501109200010480FF
:10018000F581E02D84818F738483013019F0033071
:1001900051F012C0E0913001F0913101848180640E
:1001A000848351E00AC0E0913001F09131018481F3
:1001B000806C848353E001C050E0E0913001F09105
:1001C000310184818F7D84831E141F0494F4DE0129
:1001D000A55BBF4F80E090E02D913D91FC01EE0FBB
:1001E000FF1FE75FFE4F318320830196E816F90673
:1001F00099F7ECE2F1E0A481B58114968C91149703
:10020000807F14968C93A0910501B0910601AA0FEE
:10021000BB1FA75FBE4F8D919C91A481B5818F704C
:10022000992714969C911497892B14968C93A481EA
:10023000B58112968C911297806812968C93A48146
:10024000B58112968C911297806412968C93A4813A
:10025000B58112968C9112978F7D12968C93A48102
:10026000B58113968C911397887F13968C93A481F4
:10027000B58112968C911297886012968C930480A7
:10028000F581E02D8281887F8283103109F138F475
:10029000143061F0183099F01230F1F546C0103486
:1002A00049F1103881F11032B9F51BC0E0913001ED
:1002B000F091310182818260828324E037C0E09135
:1002C0003001F091310182818360828328E02EC069
:1002D000E0913001F091310182818460828320E1DC
:1002E00025C0E0913001F0913101828185608283E7
:1002F00020E21CC0E0913001F091310182818660E2
:10030000828320E413C0E0913001F09131018281B9
:100310008760828320E80AC0E0913001F0913101CA
:1003200082818760828320E801C022E0E09134016D
:10033000F0913501406841A3652F722F84E790E06A
:10034000EE960FB6F894DEBF0FBECDBFDF91CF9112
:100350001F910F91FF90EF9008951F920F920FB68B
:100360000F9211242F933F938F939F93AF93BF933B
:10037000EF93FF938091780090E090930201809337
:100380000101209179008091010190910201922B4D
:100390009093020180930101809100018430A0F4C8
:1003A000809100018F5F80930001209101013091C5
:1003B00002018091030190910401820F931F909399
:1003C0000401809303014DC0E0910501F091060105
:1003D0008091030190910401959587959595879556
:1003E000EE0FFF1FE75EFE4F9183808310920401A2
:1003F0001092030110920001209105013091060135
:1004000080910701909108012817390754F48091D1
:1004100005019091060101969093060180930501D4
:1004200004C01092060110920501ACE2B1E01496EE
:10043000ED91FC9115978481807F8483E091050183
:10044000F0910601EE0FFF1FE75FFE4F8081918163
:100450001496ED91FC9115978F7099279481892BB3
:100460008483FF91EF91BF91AF919F918F913F91C5
:100470002F910F900FBE0F901F901895E091720171
:10048000F09173018689982F9F70923069F018F46B
:10049000913031F015C0943059F0983069F010C0A7
:1004A0008E7F868B80E008958D7F868B81E0089516
:1004B0008B7F868B82E00895877F868B83E008950B
:1004C000807F868B80E00895882319F08130F9F0D1
:1004D0003CC0EAE6F1E0A685B78512968C911297AA
:1004E0008E7F12968C930684F785E02D86A58C7FEF
:1004F000623021F0633029F086A705C0826086A7AC
:1005000002C0836086A78281816082830895EAE6C3
:10051000F1E0A685B78512968C9112978D7F129681
:100520008C930684F785E02D86A5837F623021F0C9
:10053000633029F086A705C0886086A702C08C605A
:1005400086A78281826082830895E0917801F0918C
:10055000790112820895882319F0813049F010C082
:10056000E0917801F091790182818E7F82830895F4
:10057000E0917801F091790182818D7F82830895E5
:10058000E0917801F091790112820895CF93DF9381
:10059000CDB7DEB7C454D1090FB6F894DEBF0FBE95
:1005A000CDBFCE0107960E9417038EE3FE0137965A
:1005B000AAE6B1E001900D928A95E1F7E091780109
:1005C000F0917901128224E632E03A8329834BEAE2
:1005D00052E05C834B836EE372E07E836D833A81ED
:1005E0005C817E8180E090E0CC5BDF4F0FB6F894B9
:1005F000DEBF0FBECDBFDF91CF910895292F30E030
:10060000322F2227A901482BCA010895282F30E054
:10061000322F2227A901492BCA0108950895282FB6
:10062000892F922F08959827892798270895E8EA17
:10063000F1E01182108220E530E03383228328E745
:1006400030E03583248325E830E0378326832EE3AA
:1006500030E0318720872FE330E0338722872BE398
:1006600030E03787268726EC32E0318B208B23E27F
:1006700030E0338B228B26E230E0358B248B29E26D
:1006800030E0378B268B2CE430E0318F208F26E34F
:1006900030E0338F228F26E137E0358F248F25E33A
:1006A00030E0378F268F22E436E031A320A327E302
:1006B00030E033A322A32DE238E035A324A328EBB6
:1006C00030E037A326A328E539E031A720A720ECA6
:1006D00030E033A722A72FE63AE035A724A720E68B
:1006E00030E037A726A720E031E031AB20AB2EEF7A
:1006F00032E035AB24AB26E033E037AB26AB2EE05F
:1007000033E031AF20AF2FE033E033AF22AF23E14E
:1007100033E035AF24AF2EE3DC0101900D922A9532
:10072000E1F7089520912B01211171C0E6EEF1E06F
:10073000A68DB78D2FEF52962C93068CF78DE02D5A
:100740002089287F208B8830910501F158F483306F
:100750009105E1F18530910509F440C0019709F058
:1007600045C00CC0811521E0920701F1811524E0FC
:10077000920721F180349105C9F510C0E09104027F
:10078000F091050280898160808B37C0E09104027E
:10079000F091050280898260808B2FC0E091040275
:1007A000F091050280898360808B27C0E09104026C
:1007B000F091050280898460808B1FC0E091040263
:1007C000F091050280898560808B17C0E09104025A
:1007D000F091050280898660808B0FC0E091040251
:1007E000F091050280898760808B07C0E091040248
:1007F000F091050280898560808BE091EE01F09197
:10080000EF0181A1806881A381E080932B0108958D
:10081000E0910402F091050297859F7397878230DB
:1008200061F0833091F08130B9F4E0910402F091ED
:1008300005028785806487870895E0910402F0911E
:1008400005028785806887870895E0910402F0910A
:1008500005028785806C87870895E0910402F091F6
:10086000050297859F7C9787823061F0833091F0F5
:100870008130B9F4E0910402F0910502878580612E
:1008800087870895E0910402F091050287858062D0
:1008900087870895E0910402F091050287858063BF
:1008A00087870895E0910402F0910502828B0895F4
:1008B000E0910402F0910502838B0895E6EEF1E0E9
:1008C000A68DB78D50968C915097887F50968C93BB
:1008D000068CF78DE02D118A10922B010895EF926E
:1008E000FF920F931F93CF93DF93EC0190912A0116
:1008F000911172C006EE11E0D8015A96ED90FC906D
:100900005B97B2E5EB0EF11CD801DA96ED91FC9104
:10091000DB978FEF9FEF0995F70191838083D801D3
:100920005A962D913C915B97F901E55BFF4F8081D1
:10093000887F8083C830D105E1F048F4C330D10509
:1009400081F1C530D10599F12197B9F50CC0C115D8
:10095000B1E0DB07D1F0C115E4E0DE07E1F0C0341F
:10096000D10559F50CC0F901E55BFF4F816080832B
:1009700029C0F901E55BFF4F8260808323C0F90144
:10098000E55BFF4F836080831DC0F901E55BFF4F8E
:100990008460808317C0F901E55BFF4F8560808329
:1009A00011C0F901E55BFF4F866080830BC0F90140
:1009B000E55BFF4F8760808305C0F901E55BFF4F72
:1009C00085608083E091EE01F091EF0181A1806864
:1009D00081A381E080932A01DF91CF911F910F9134
:1009E000FF90EF9008952091000230910102F901EB
:1009F000E65BFF4F90819F73823061F0833081F01E
:100A0000813011F090830895F901E65BFF4F906407
:100A100090830895F901E65BFF4F906890830895F5
:100A2000F901E65BFF4F906C9083089520910002DE
:100A300030910102F901E65BFF4F90819F7C82308B
:100A400061F0833081F0813011F090830895F901D5
:100A5000E65BFF4F906190830895F901E65BFF4FDD
:100A6000906290830895F901E65BFF4F9063908355
:100A70000895CF93DF93E6EEF1E0C28DD38DCE5A89
:100A8000DF4F02ACF3ADE02D099599838883DF91A8
:100A9000CF910895CF93DF93E6EEF1E0C28DD38D31
:100AA000CC5ADF4F02ACF3ADE02D099599838883D2
:100AB000DF91CF910895CF93DF93E6EEF1E0828D41
:100AC000938DDC01A55BBF4F2C91287F2C93EC010B
:100AD000C25BDF4F02ACF3ADE02D80E090E0099502
:100AE0009983888310922A01DF91CF910895AC01F8
:100AF00080912901811160C0209108023091090282
:100B0000F901E458FF4F8FEF808332979081987FEF
:100B100090834034510549F150F448305105C9F0F3
:100B200040325105E1F041305105B9F50CC0411595
:100B300081E0580731F1411584E0580741F1403810
:100B4000510559F518C0F901E658FF4F916090839F
:100B500029C0F901E658FF4F9260908323C0F90144
:100B6000E658FF4F936090831DC0F901E658FF4F90
:100B70009460908317C0F901E658FF4F9560908309
:100B800011C0F901E658FF4F966090830BC0F90140
:100B9000E658FF4F9760908305C0F901E658FF4F74
:100BA00097609083E091EE01F091EF0181A1806860
:100BB00081A381E08093290108952091080230915A
:100BC0000902F901E758FF4F90819F73823061F06D
:100BD000833081F0813011F090830895F901E75856
:100BE000FF4F906490830895F901E758FF4F906894
:100BF00090830895F901E758FF4F906C9083089512
:100C00002091080230910902F901E758FF4F9081C5
:100C10009F7C823061F0833081F0813011F09083CD
:100C20000895F901E758FF4F906190830895F90105
:100C3000E758FF4F906290830895F901E758FF4FFE
:100C4000906390830895E0910802F0910902E458BE
:100C5000FF4F80830895E0910802F0910902E35864
:100C6000FF4F808308958091080290910902FC0152
:100C7000E658FF4F2081287F208331961082109202
:100C800029010895EF92FF920F931F93CF93DF9363
:100C9000CDB7DEB7EE970FB6F894DEBF0FBECDBF6F
:100CA0008C01E62EF42ECE0101960E9417038EE3EE
:100CB000FE013196A6EEB1E001900D928A95E1F722
:100CC00010922B01E6EEF1E0A68DB78D1F968C9168
:100CD0001F978C7F1F968C93068CF78DE02D808953
:100CE000877F808B83E0E81601F18E1538F0E1E014
:100CF000EE1659F0F2E0EF1681F040C085E0E816FC
:100D0000E1F0E7E0EE1651F139C0E0910402F09114
:100D1000050287858160878731C0E0910402F091E8
:100D2000050287858260878729C0E0910402F091DF
:100D3000050287858360878721C0E6EEF1E0A68DF6
:100D4000B78D1F968C911F9781601F968C93068C90
:100D5000F78DE02D80898860808B10C0E6EEF1E091
:100D6000A68DB78D1F968C911F9783601F968C93CD
:100D7000068CF78DE02D80898860808BA09104021D
:100D8000B0910502D9968C91D997887F4F2D50E06C
:100D9000FA013197E730F10520F4EC5CFF4F0C9439
:100DA000F60CD9968C931BC08160D9968C9317C092
:100DB0008260D9968C9313C08460D9968C930FC0AF
:100DC0008360D9968C930BC08560D9968C9307C0AD
:100DD0008760D9968C9303C08660D9968C9388E0FF
:100DE00094E0F801918380838DE294E09383828381
:100DF00082E594E09583848388E594E097838683F5
:100E000082E993E0918780878EE594E093878287DB
:100E1000C801EE960FB6F894DEBF0FBECDBFDF91CE
:100E2000CF911F910F91FF90EF900895EF92FF9255
:100E30000F931F93CF93DF93CDB7DEB7EE970FB627
:100E4000F894DEBF0FBECDBF7C01062F142FCE015C
:100E500001960E9417038EE3FE013196A6EEB1E0E3
:100E600001900D928A95E1F710922A0120910002DB
:100E700030910102F901E65BFF4F50815C7F5083A6
:100E800031964081477E4083802F90E0FC0131976E
:100E9000EF30F10508F078C0E55CFF4F0C94F60CDC
:100EA000F901E65BFF4F516050836EC0F901E65BCC
:100EB000FF4F5260508368C0F901E65BFF4F5360FB
:100EC000508362C0F901E55BFF4F486040835CC01E
:100ED000F901E65BFF4F51605083319648604083D3
:100EE00053C0F901E65BFF4F526050833196486072
:100EF00040834AC0F901E65BFF4F5360508331964F
:100F00004860408341C0F901E55BFF4F4061408389
:100F10003BC0F901E65BFF4F516050833196406161
:100F2000408332C0F901E65BFF4F52605083319637
:100F30004061408329C0F901E65BFF4F5360508355
:100F400031964061408320C0F901E55BFF4F486165
:100F500040831AC0F901E65BFF4F51605083319620
:100F60004861408311C0F901E65BFF4F5260508336
:100F700031964861408308C0F901E65BFF4F53603A
:100F80005083319648614083F901E65BFF4F8081D1
:100F90008F708083F90181AD887D412F50E0FA0187
:100FA0003197EB30F10520F4E65BFF4F0C94F60C23
:100FB000F90181AF2BC08160F90181AF27C0826048
:100FC000F90181AF23C08460F90181AF1FC0806245
:100FD000F90181AF1BC08660F90181AF17C0836042
:100FE000F90181AF13C08560F90181AF0FC0816243
:100FF000F90181AF0BC08760F90181AF07C087623B
:10100000F90181AF03C08660F90181AF83EF94E0FD
:10101000F7019183808386E195E09383828389E35E
:1010200095E0958384838AE495E0978386838FE6B1
:1010300094E0918780878BE595E093878287C7014D
:10104000EE960FB6F894DEBF0FBECDBFDF91CF9105
:101050001F910F91FF90EF900895EF92FF920F93E1
:101060001F93CF93DF93CDB7DEB7EE970FB6F8940B
:10107000DEBF0FBECDBF8C01E62EF42ECE01019651
:101080000E9417038EE3FE013196A6EEB1E00190B7
:101090000D928A95E1F710922901E0910802F091F2
:1010A0000902DF01A758BF4F8C918C7F8C9311965A
:1010B0009C91977F9C9323E0E216E1F02E1538F087
:1010C00091E0E91659F022E0E21671F02AC025E01D
:1010D000E216B1F027E0E216E1F023C0DF01A758E5
:1010E000BF4F81608C931DC0DF01A758BF4F826046
:1010F0008C9317C0DF01A758BF4F83608C9311C03A
:10110000DF01A758BF4F81608C93119698609C9324
:1011100008C0DF01A758BF4F83608C931196986079
:101120009C9381AD887F93E0F916C9F09F1538F044
:1011300021E0F21671F092E0F91671F008C025E096
:10114000F21699F0F21670F096E0F91689F081AF78
:1011500011C0816081AF0EC0826081AF0BC083601F
:1011600081AF08C0856081AF05C0866081AF02C0D5
:10117000876081AF8DED95E0F8019183808380E0F9
:1011800096E09383828383E296E0958384838BE267
:1011900096E09783868387E795E09187808783E34E
:1011A00096E093878287C801EE960FB6F894DEBF6B
:1011B0000FBECDBFDF91CF911F910F91FF90EF90A8
:1011C0000895E0914A02F0914B028181887F089551
:1011D000E0914A02F0914B0284E9848381E28A958E
:1011E000F1F700000895CF93DF9318161CF4880FD1
:1011F000816001C081E0E4E2F2E0A6A1B7A112960D
:101200008C93A689B78911968C911197806311965A
:101210008C930688F789E02D828180638283643015
:1012200089F018F4613031F025C0603199F06034F4
:10123000C9F020C0E0914A02F0914B0281818C7F7D
:10124000818320C0E0914A02F0914B02818181604C
:10125000818318C0E0914A02F0914B028181826043
:10126000818310C0E0914A02F0914B02818183603A
:10127000818308C0E0914A02F0914B0281818C7F0A
:10128000818361E0C0914A02D0914B02262F30E069
:10129000220F331F032E000C440B550B6AEF7FEF18
:1012A0008FEF9FEF0E94D40C2883DF91CF91089598
:1012B000BF92CF92DF92EF92FF920F931F93CF9343
:1012C000DF93CDB7DEB7EE970FB6F894DEBF0FBE53
:1012D000CDBF8C01E62EB42ECE0101960E941703DD
:1012E0008EE3FE013196A4E2B2E001900D928A9560
:1012F000E1F70F2EF4E2CF2EF2E0DF2EF02DD60133
:101300001896ED91FC911997F1A08F2D8F7781A3FD
:101310006B2D8E2D0E94F308D6011896ED91FC914D
:101320001997F1A28CEC99E0F801918380838DEDFF
:1013300099E0938382838BEF99E09583848381E1A5
:101340009AE09783868388EE98E09187808781EE84
:1013500098E093878287C801EE960FB6F894DEBFB7
:101360000FBECDBFDF91CF911F910F91FF90EF90F6
:10137000DF90CF90BF900895E0914A02F0914B0228
:101380002481222344F021E030E08217930718F0F3
:101390002F5F3F4FFACF0895E0914A02F0914B0240
:1013A00084EA84838FEF93E00E94BC090E94E108E5
:1013B000883011F00E94E8080895662319F0880F1C
:1013C000816001C0880FE4E2F2E0A6A1B7A1139604
:1013D0008C9306A0F7A1E02D84E884838FEF93E03F
:1013E0000E94BC090E94E108883121F0803411F08C
:1013F0000E94E8080895E4E2F2E0A6A1B7A11396DE
:101400008C9306A0F7A1E02D84E884838FEF93E00E
:101410000E94BC090E94E108883211F00E94E8088D
:101420000895882311F080E401C080E0E0914A0231
:10143000F0914B02846884838FEF93E00E94BC0993
:101440000E94E108883311F40E94E808E0914A0202
:10145000F0914B0283810895E0916B02F0916C0250
:1014600083E692E009950895E0916D02F0916E0295
:1014700083E692E0099508958091AD021092AD0245
:10148000E9EFF0E03197F1F700C0000008950E9405
:101490003C0A0895EFE6F2E0A2A5B3A516968C9358
:1014A00002A4F3A5E02D81818062818389EF90E021
:1014B0000197F1F700C0000008950E944A0A0895BC
:1014C000CF93DF93EC018881882331F021960E942D
:1014D0004A0A89918111FBCFDF91CF9108953F9204
:1014E0004F925F926F927F928F929F92AF92BF9234
:1014F000CF92DF92EF92FF920F931F93CF93DF93E0
:10150000CDB7DEB7EE970FB6F894DEBF0FBECDBFF6
:101510007C015B016A0129013801E0917702F091B9
:10152000780231A0832D8F7781A3CE0101960E948E
:1015300017038EE3FE013196AFE6B2E001900D9203
:101540008A95E1F74EEA52E060E1CE0101960E94F1
:10155000870C8CE0FE013196A3E6B2E001900D927B
:101560008A95E1F7BB204CF4E0919902F0919A0240
:1015700082E08083C5019F7701C0C5010FE612E0BC
:10158000D8019A968D909C909B97D896ED91FC915E
:10159000D9970995F40195838483D8019A96ED91A2
:1015A000FC919B9788E98183B7E0CB16D104D9F1F0
:1015B00058F4F5E0CF16D10409F46BC086E0C816E4
:1015C000D10409F44BC078C0A8E0CA16D104C1F018
:1015D000B9E0CB16D10409F06FC0EFE6F2E0A2A5A6
:1015E000B3A511968C911197846011968C9302A4E7
:1015F000F3A5E02D82818660828369E070E06EC091
:10160000EFE6F2E0A2A5B3A511968C9111978B7F1E
:1016100011968C9302A4F3A5E02D828186608283CB
:1016200068E070E05BC0EFE6F2E0A2A5B3A511961A
:101630008C9111978B7F11968C93A2A5B3A51296CE
:101640008C911297846012968C9302A4F3A5E02DDE
:1016500082818D7F828367E070E040C0EFE6F2E038
:10166000A2A5B3A511968C9111978B7F11968C939F
:10167000A2A5B3A512968C9112978B7F12968C938C
:1016800002A4F3A5E02D82818260828366E070E08F
:1016900025C0EFE6F2E0A2A5B3A511968C911197B3
:1016A0008B7F11968C9302A4F3A5E02D8281897F14
:1016B000828365E070E012C0EFE6F2E0A2A5B3A578
:1016C00011968C9111978B7F11968C9302A4F3A5A0
:1016D000E02D82818660828368E070E0E1E04E1652
:1016E000510429F0F2E04F16510459F014C0E09172
:1016F0009902F0919A028281877F828341E050E0D3
:1017000013C0E0919902F0919A02828188608283ED
:1017100042E050E009C0E0919902F0919A02828182
:10172000877F828341E050E082E06816710481F097
:10173000A3E06A167104F9F0672839F5E09199027F
:10174000F0919A0282818F7C828320E030E026C073
:10175000EFE6F2E0A2A5B3A512968C9112978062F3
:1017600012968C9302A4F3A5E02D82818F7E828352
:1017700022E030E013C0E0919902F0919A02828158
:101780008063828323E030E009C0E0919902F09108
:101790009A0282818F7C828320E030E0E0917702A0
:1017A000F0917802832D806881A3F701B182A08235
:1017B0007383628355834483378326838CE39AE063
:1017C0009187808787E49AE0938782878CE29AE00A
:1017D0009587848784E39AE0978786878AE49AE0EE
:1017E000918B808B8DE59AE0938B828B80E69AE0DB
:1017F000958B848BC701EE960FB6F894DEBF0FBEB3
:10180000CDBFDF91CF911F910F91FF90EF90DF90AF
:10181000CF90BF90AF909F908F907F906F905F9090
:101820004F903F9008951F920F920FB60F92112480
:101830002F933F934F935F936F937F938F939F93D8
:10184000AF93BF93EF93FF93E0919902F0919A02C7
:10185000808188718093620266816093AD02E0911D
:101860006902F0916A0283E692E00995FF91EF9197
:10187000BF91AF919F918F917F916F915F914F91A8
:101880003F912F910F900FBE0F901F9018951F92B0
:101890000F920FB60F9211248F93EF93FF93E09165
:1018A0009902F0919A0281818F7D8183FF91EF915E
:1018B0008F910F900FBE0F901F9018956623C1F067
:1018C000DC011296ED91FC91139714962D913C91A9
:1018D0001597E217F30729F4ED91FC91DF011196BA
:1018E00002C0DF01119660831C92FC01B383A283C6
:1018F0000895FC01808191810895DC01ED91FC91B6
:1019000011971396FC93EE93129710820895FC01A1
:101910005183408353834283460F511D5583448333
:101920008EE59CE09783868389E79CE0918780879A
:101930008DE79CE093878287CF010895CF93DF9353
:10194000CDB7DEB7EE970FB6F894DEBF0FBECDBFB2
:10195000CE0101960E9417038EE3FE013196AFEB94
:10196000B2E001900D928A95E1F7EFEBF2E0A081F1
:10197000B1818FEF8C93A081B18111968C93A0815E
:10198000B18182AB5A968C93A28DB38DD9968C93EC
:101990000280F381E02D8083AFEBB2E01896ED91E9
:1019A000FC9119978083FACFA1E21A2EAA1BBB1BC8
:1019B000FD010DC0AA1FBB1FEE1FFF1FA217B3071B
:1019C000E407F50720F0A21BB30BE40BF50B661F31
:1019D000771F881F991F1A9469F7609570958095F5
:1019E00090959B01AC01BD01CF010895EE0FFF1F43
:0C19F0000590F491E02D0994F894FFCFCD
:00000001FF
