:100000000C9455000C9472000C9472000C947200C5
:100010000C9472000C9472000C9472000C94720098
:100020000C9472000C9472000C9472000C94720088
:100030000C9472000C9472000C9472000C94720078
:100040000C9472000C9472000C945C0E0C94900E44
:100050000C9472000C94AF010C9472000C9472001A
:100060000C9472000C9472009C07AA07B807C6078C
:10007000D407E207F0075F0867086F0877087F0872
:100080008D089B08A908B108BF08CD08DB08E30864
:10009000F108FF08250936094709580969097A094D
:1000A0008B099C09AD09BE09CF0911241FBECFEFF2
:1000B000D8E0DEBFCDBF11E0A0E0B1E0E4EEFFE1AB
:1000C00002C005900D92A030B107D9F723E0A0E05F
:1000D000B1E001C01D92A53AB207E1F70E941A0FE4
:1000E0000C94F00F0C940000E0913201F091330178
:1000F000228126FD02C020642283FC01EE0FFF1F37
:10010000E75EFE4F808191810895EF92FF920F93F9
:100110001F93CF93DF93CDB7DEB7C655D1090FB686
:10012000F894DEBF0FBECDBFA0960FADA097A196ED
:100130001FADA197A396EEACFFACA397CE0101969D
:100140000E94190386E5FE013196ACE2B1E0019010
:100150000D928A95E1F7ECE2F1E0A285B3851C9659
:100160004C911C97842F8F771C968C93F0920801EA
:10017000E092070110920601109205011092000111
:100180000680F781E02D84818F738483013019F01C
:10019000033051F012C0E0913201F09133018481BB
:1001A0008064848351E00AC0E0913201F091330110
:1001B0008481806C848353E001C050E0E09132017F
:1001C000F091330184818F7D84831E141F0494F485
:1001D000DE01AD59BF4F80E090E02D913D91FC01D3
:1001E000EE0FFF1FE75FFE4F318320830196E81675
:1001F000F90699F7ECE2F1E0A681B78114968C91AB
:100200001497807F14968C93A0910501B0910601FC
:10021000AA0FBB1FA75FBE4F8D919C91A681B7818E
:100220008F70992714969C911497892B14968C9310
:10023000A681B78112968C911297806812968C9342
:10024000A681B78112968C911297806412968C9336
:10025000A681B78112968C9112978F7D12968C93FE
:10026000A681B78113968C911397887F13968C93F0
:10027000A681B78112968C911297886012968C9302
:100280000680F781E02D8281887F8283103109F119
:1002900038F4143061F0183099F01230F1F546C09E
:1002A000103449F1103881F11032B9F51BC0E091DA
:1002B0003201F091330182818260828324E037C071
:1002C000E0913201F091330182818360828328E0E2
:1002D0002EC0E0913201F0913301828184608283EB
:1002E00020E125C0E0913201F091330182818560E7
:1002F000828320E21CC0E0913201F09133018281BF
:100300008660828320E413C0E0913201F0913301D2
:1003100082818760828320E80AC0E0913201F091F7
:10032000330182818760828320E801C022E0E0916E
:100330003601F091370140684487652F722F84E7BA
:1003400090E0CA5ADF4F0FB6F894DEBF0FBECDBFA4
:10035000DF91CF911F910F91FF90EF9008951F9221
:100360000F920FB60F9211242F933F938F939F9369
:10037000AF93BF93EF93FF938091780090E09093B9
:1003800002018093010120917900809101019091F7
:100390000201922B90930201809301018091000150
:1003A0008430A0F4809100018F5F80930001209140
:1003B0000101309102018091030190910401820FAB
:1003C000931F90930401809303014DC0E0910501B8
:1003D000F091060180910301909104019595879514
:1003E00095958795EE0FFF1FE75EFE4F9183808303
:1003F0001092040110920301109200012091050156
:100400003091060180910701909108012817390762
:1004100054F4809105019091060101969093060194
:100420008093050104C01092060110920501ACE210
:10043000B1E01696ED91FC9117978481807F8483BB
:10044000E0910501F0910601EE0FFF1FE75FFE4FFF
:10045000808191811696ED91FC9117978F70992765
:100460009481892B8483FF91EF91BF91AF919F91EC
:100470008F913F912F910F900FBE0F901F90189565
:10048000E0918C01F0918D018181982F9F709230C5
:1004900069F018F4913031F015C0943059F098306B
:1004A00069F010C08E7F818380E008958D7F818305
:1004B00081E008958B7F818382E00895877F818327
:1004C00083E00895807F818380E00895882319F078
:1004D0008130F9F03CC0E2E8F1E0A289B3891296DC
:1004E0008C9112978E7F12968C930288F389E02D5F
:1004F00086A58C7F623021F0633029F086A705C085
:10050000826086A702C0836086A782818160828321
:100510000895E2E8F1E0A289B38912968C911297CE
:100520008D7F12968C930288F389E02D86A5837FB8
:10053000623021F0633029F086A705C0886086A765
:1005400002C08C6086A78281826082830895E091D8
:100550009401F091950112820895882319F0813059
:1005600049F010C0E0919401F091950182818E7F55
:1005700082830895E0919401F091950182818D7FAD
:1005800082830895E0919401F0919501128208957B
:10059000CF93DF93CDB7DEB7CC55D1090FB6F89422
:1005A000DEBF0FBECDBFCE0107960E94190386E5C0
:1005B000FE013796A2E8B1E001900D928A95E1F72D
:1005C000E0919401F0919501128226E632E03A839F
:1005D00029834DEA52E05C834B8360E472E07E83C2
:1005E0006D833A815C817E8180E090E0C45ADF4F68
:1005F0000FB6F894DEBF0FBECDBFDF91CF91089547
:10060000292F30E0322F2227A901482BCA01089553
:10061000282F30E0322F2227A901492BCA01089543
:100620000895282F892F922F089598278927982792
:100630000895E8EDF1E01382128220E530E0358381
:10064000248328E730E03783268325E830E03187AC
:1006500020872EE330E033872287358724872FE3F6
:1006600030E03787268727EA3EE0318B208B2BE36B
:1006700030E0338B228B28EC32E0358B248B23E265
:1006800030E0378B268B26E230E0318F208F29E255
:1006900030E0338F228F2CE430E0358F248F26E337
:1006A00030E0378F268F63E470E071A360A325E309
:1006B00030E033A322A34EE650E055A344A3A6E8BE
:1006C000B0E0B7A3A6A3A5E2B8E0B1A7A0A733A75F
:1006D00022A775A764A737A726A751AB40ABA7E40D
:1006E000B0E0B3ABA2ABA5E1B7E0B5ABA4ABA7E379
:1006F000B0E0B7ABA6AB71AF60AF33AF22AF55AFD1
:1007000044AF23EB30E037AF26AF27E03AE0309339
:1007100019022093180228EB30E030931B0220933B
:100720001A0221EA3BE030931D0220931C0220ECC8
:1007300030E030931F0220931E022AEB3CE03093FE
:1007400021022093200220E630E030932302209300
:10075000220220E033E0309325022093240228E097
:1007600033E0309327022093260220E133E03093D8
:1007700029022093280221E133E030932B022093B9
:100780002A0225E133E030932D0220932C0226E546
:10079000DC0101900D922A95E1F7089520912B013B
:1007A000211169C0EEE2F2E0A2A9B3A92FEF2C93C8
:1007B00002A4F3A5E02D2181287F218388309105B3
:1007C00001F158F483309105E1F18530910509F488
:1007D00040C0019709F045C00CC0811521E0920787
:1007E00001F1811524E0920721F180349105C9F5CA
:1007F00010C0E0915802F09159028181816081839B
:1008000037C0E0915802F091590281818260818362
:100810002FC0E0915802F091590281818360818359
:1008200027C0E0915802F091590281818460818350
:100830001FC0E0915802F091590281818560818347
:1008400017C0E0915802F09159028181866081833E
:100850000FC0E0915802F091590281818760818335
:1008600007C0E0915802F09159028181856081832F
:1008700081E080932B010895E0915802F091590294
:1008800090819F7390838230A9F0833021F1813071
:1008900091F5EEE2F2E0A28DB38D11968C91119755
:1008A000806411968C9302A4F3A5E02D808180646E
:1008B00080830895EEE2F2E0A28DB38D11968C91C3
:1008C0001197806411968C9302A4F3A5E02D80818A
:1008D000806880830895EEE2F2E0A28DB38D1196D8
:1008E0008C911197806411968C9302A4F3A5E02D4E
:1008F0008081806C80830895E0915802F0915902C4
:1009000090819F7C90838230A9F0833021F18130E7
:1009100091F5EEE2F2E0A28DB38D11968C911197D4
:10092000806211968C9302A4F3A5E02D80818061F2
:1009300080830895EEE2F2E0A28DB38D11968C9142
:100940001197806211968C9302A4F3A5E02D80810B
:10095000806280830895EEE2F2E0A28DB38D11965D
:100960008C911197806211968C9302A4F3A5E02DCF
:100970008081806380830895E0916002F09161023C
:1009800080830895E0916002F0916102818308956F
:10099000EEE2F2E0A2A5B3A511968C911197887FA3
:1009A00011968C9302A4F3A5E02D128210922B01D4
:1009B0000895E0914C02F0914D0290819F739083D5
:1009C0008230A9F0833021F1813091F5EEE2F2E03E
:1009D000A689B78911968C911197826011968C9394
:1009E000068CF78DE02D8081806480830895EEE28F
:1009F000F2E0A689B78911968C91119782601196C1
:100A00008C93068CF78DE02D80818068808308951B
:100A1000EEE2F2E0A689B78911968C911197826077
:100A200011968C93068CF78DE02D8081806C8083ED
:100A30000895E0914C02F0914D0290819F7C90834B
:100A40008230A9F0833021F1813091F5EEE2F2E0BD
:100A5000A689B78911968C911197846011968C9311
:100A6000068CF78DE02D8081806180830895EEE211
:100A7000F2E0A689B78911968C911197846011963E
:100A80008C93068CF78DE02D8081806280830895A1
:100A9000EEE2F2E0A689B78911968C9111978460F5
:100AA00011968C93068CF78DE02D80818063808376
:100AB0000895CF93DF93C0915402D0915502E091F5
:100AC0007E02F0917F0209959B838A83DF91CF910B
:100AD0000895CF93DF93C0915402D0915502E091D5
:100AE0007E02F0917F0209959D838C83DF91CF91E7
:100AF0000895CF93DF9320912A0121116DC0EC015D
:100B00008FEF9FEF0E9459058FEF9FEF0E946905BD
:100B1000E0914C02F0914D028181887F8183C83041
:100B2000D10501F158F4C330D105E1F1C530D1054B
:100B300009F440C0219709F045C00CC0C11581E0FF
:100B4000D80701F1C11584E0D80721F1C034D105DF
:100B5000C9F510C0E0914C02F0914D028181816095
:100B6000818337C0E0914C02F0914D028181826017
:100B700081832FC0E0914C02F0914D02818183600E
:100B8000818327C0E0914C02F0914D028181846005
:100B900081831FC0E0914C02F0914D0281818560FC
:100BA000818317C0E0914C02F0914D0281818660F3
:100BB00081830FC0E0914C02F0914D0281818760EA
:100BC000818307C0E0914C02F0914D0281818560E4
:100BD000818381E080932A01DF91CF910895CF93A3
:100BE000DF93EEE2F2E0A68DB78D11968C9111970E
:100BF000887F11968C93C68DD78DE0917E02F091FF
:100C00007F0280E090E009959D838C8310922A01F9
:100C1000DF91CF91089520912901211168C0EEE262
:100C2000F2E0A6ADB7AD2FEF2C9306A8F7A9E02D03
:100C30002181287F21838034910579F150F4883017
:100C40009105D9F08032910501F1019709F045C075
:100C50000CC0811521E0920781F1811524E09207F3
:100C6000A1F180389105C9F520C0E0916402F091AE
:100C7000650281818160818337C0E0916402F091D7
:100C800065028181826081832FC0E0916402F091CE
:100C9000650281818360818327C0E0916402F091C5
:100CA00065028181846081831FC0E0916402F091BC
:100CB000650281818560818317C0E0916402F091B3
:100CC00065028181866081830FC0E0916402F091AA
:100CD000650281818760818307C0E0916402F091A1
:100CE000650281818760818381E080932901089575
:100CF000E0916402F091650290819F73908382304D
:100D0000A9F0833021F1813091F5EEE2F2E0A6897D
:100D1000B78911968C911197886011968C9306A8CB
:100D2000F7A9E02D8081806480830895EEE2F2E0EF
:100D3000A689B78911968C911197886011968C932A
:100D400006A8F7A9E02D8081806880830895EEE2EF
:100D5000F2E0A689B78911968C9111978860119657
:100D60008C9306A8F7A9E02D8081806C808308957C
:100D7000E0916402F091650290819F7C90838230C3
:100D8000A9F0833021F1813091F5EEE2F2E0A28DFD
:100D9000B38D11968C911197886011968C9306A84B
:100DA000F7A9E02D8081806180830895EEE2F2E072
:100DB000A28DB38D11968C911197886011968C93AA
:100DC00006A8F7A9E02D8081806280830895EEE275
:100DD000F2E0A28DB38D11968C91119788601196D7
:100DE0008C9306A8F7A9E02D808180638083089505
:100DF000E0916C02F0916D0280830895E0916C02A5
:100E0000F0916D0281830895EEE2F2E0A6A9B7A900
:100E100011968C911197887F11968C9306A8F7A94B
:100E2000E02D1282109229010895EF92FF920F9304
:100E30001F93CF93DF93CDB7DEB7C655D1090FB659
:100E4000F894DEBF0FBECDBF8C01E62EF42ECE018E
:100E500001960E94190386E5FE013196AEE2B2E0EA
:100E600001900D928A95E1F710922B01EEE2F2E0EB
:100E7000A2A5B3A58C918C7F8C9302A4F3A5E02D41
:100E80008181877F818383E0E81601F18E1538F038
:100E9000E1E0EE1659F0F2E0EF1681F03AC085E09D
:100EA000E816E1F0E7E0EE1639F133C0E0915802C0
:100EB000F09159028081816080832BC0E0915802BB
:100EC000F091590280818260808323C0E0915802B2
:100ED000F09159028081836080831BC0EEE2F2E0D2
:100EE000A2A5B3A58C9181608C9302A4F3A5E02DFB
:100EF0008181886081830DC0EEE2F2E0A2A5B3A5F6
:100F00008C9183608C9302A4F3A5E02D818188608D
:100F10008183E0915E02F0915F028081887F80830F
:100F20004F2D50E0FA013197E730F10508F065C028
:100F3000EC5CFF4F0C94730FEEE2F2E0A0A9B1A9B4
:100F40008C9181608C930284F385E02D8485806888
:100F5000848753C0EEE2F2E0A0A9B1A98C9182602F
:100F60008C930284F385E02D84858068848745C056
:100F7000EEE2F2E0A0A9B1A98C9184608C93028486
:100F8000F385E02D84858068848737C0EEE2F2E047
:100F9000A0A9B1A98C9183608C930284F385E02D84
:100FA00084858068848729C0EEE2F2E0A0A9B1A917
:100FB0008C9185608C930284F385E02D8485806814
:100FC00084871BC0EEE2F2E0A0A9B1A98C918760F2
:100FD0008C930284F385E02D8485806884870DC01E
:100FE000EEE2F2E0A0A9B1A98C9186608C93028414
:100FF000F385E02D8485806884878CE394E0F80194
:10100000918380838CE794E0938382838CEB94E0DC
:101010009583848382EC94E0978386838EEC93E0BF
:101020009187808788EC94E093878287C801CA5AA9
:10103000DF4F0FB6F894DEBF0FBECDBFDF91CF916B
:101040001F910F91FF90EF900895EF92FF920F93F1
:101050001F93CF93DF93CDB7DEB7C655D1090FB637
:10106000F894DEBF0FBECDBF7C01062F142FCE013A
:1010700001960E94190386E5FE013196AEE2B2E0C8
:1010800001900D928A95E1F710922A01EEE2F2E0CA
:10109000A68DB78D8C918C7F8C93068CF78DE02D6F
:1010A0008181877E8183802F90E0FC013197EF3032
:1010B000F10508F0B1C0E55CFF4F0C94730FE091AF
:1010C0004C02F0914D02808181608083A5C0E09147
:1010D0004C02F0914D028081826080839DC0E0913E
:1010E0004C02F0914D0280818360808395C0E09135
:1010F0004C02F0914D028181886081838DC0EEE2C7
:10110000F2E0A68DB78D8C9181608C93068CF78D63
:10111000E02D8181886081837FC0EEE2F2E0A68DC0
:10112000B78D8C9182608C93068CF78DE02D818138
:101130008860818371C0EEE2F2E0A68DB78D8C915C
:1011400083608C93068CF78DE02D8181886081838C
:1011500063C0E0914C02F0914D02818180618183F6
:101160005BC0EEE2F2E0A68DB78D8C9181608C932E
:10117000068CF78DE02D8181806181834DC0EEE288
:10118000F2E0A68DB78D8C9182608C93068CF78DE2
:10119000E02D8181806181833FC0EEE2F2E0A68D87
:1011A000B78D8C9183608C93068CF78DE02D8181B7
:1011B0008061818331C0E0914C02F0914D028181C8
:1011C0008861818329C0EEE2F2E0A68DB78D8C9113
:1011D00081608C93068CF78DE02D818188618183FD
:1011E0001BC0EEE2F2E0A68DB78D8C9182608C93ED
:1011F000068CF78DE02D8181886181830DC0EEE240
:10120000F2E0A68DB78D8C9183608C93068CF78D60
:10121000E02D818188618183EEE2F2E0A68DB78DB9
:101220008C918F708C9304A0F5A1E02D8181887D35
:101230008183412F50E0FA013197EB30F10508F03E
:10124000BEC0E65BFF4F0C94730FEEE2F2E0A4A188
:10125000B5A111968C911197816011968C9302849F
:10126000F385E02D848580688487A9C0EEE2F2E0F2
:10127000A4A1B5A111968C911197826011968C93BF
:101280000284F385E02D84858068848798C0EEE22F
:10129000F2E0A4A1B5A111968C91119784601196EA
:1012A0008C930284F385E02D84858068848787C0D1
:1012B000EEE2F2E0A4A1B5A111968C9111978062A3
:1012C00011968C930284F385E02D84858068848751
:1012D00076C0EEE2F2E0A4A1B5A111968C9111972F
:1012E000866011968C930284F385E02D8485806856
:1012F000848765C0EEE2F2E0A4A1B5A111968C91BD
:101300001197836011968C930284F385E02D848578
:101310008068848754C0EEE2F2E0A4A1B5A11196E2
:101320008C911197856011968C930284F385E02D42
:1013300084858068848743C0EEE2F2E0A4A1B5A171
:1013400011968C911197816211968C930284F3858A
:10135000E02D84858068848732C0EEE2F2E0A4A1AB
:10136000B5A111968C911197876011968C93028488
:10137000F385E02D84858068848721C0EEE2F2E069
:10138000A4A1B5A111968C911197876211968C93A7
:101390000284F385E02D84858068848710C0EEE2A6
:1013A000F2E0A4A1B5A111968C91119786601196D7
:1013B0008C930284F385E02D84858068848789ED91
:1013C00094E0F7019183808389E195E093838283A0
:1013D00089E595E09583848389E695E09783868304
:1013E00089E795E0918780878FEE95E093878287E4
:1013F000C701CA5ADF4F0FB6F894DEBF0FBECDBF8C
:10140000DF91CF911F910F91FF90EF900895EF9290
:10141000FF920F931F93CF93DF93CDB7DEB7C655DF
:10142000D1090FB6F894DEBF0FBECDBF8C01E62EFA
:10143000F42ECE0101960E94190386E5FE01319635
:10144000AEE2B2E001900D928A95E1F71092290187
:10145000EEE2F2E0A6A9B7A98C918C7F8C9306A846
:10146000F7A9E02D8181877F818383E0E81601F170
:101470008E1538F0E1E0EE1659F0F2E0EF1681F04B
:101480003AC085E0E816E1F0E7E0EE1639F133C046
:10149000E0916402F09165028081816080832BC0BD
:1014A000E0916402F091650280818260808323C0B4
:1014B000E0916402F09165028081836080831BC0AB
:1014C000EEE2F2E0A6A9B7A98C9181608C9306A800
:1014D000F7A9E02D8181886081830DC0EEE2F2E002
:1014E000A6A9B7A98C9183608C9306A8F7A9E02DD3
:1014F000818188608183E0916A02F0916B02828130
:10150000887F8283F3E0FF16B1F1FF1538F081E0A8
:10151000F81679F0E2E0FE16E9F070C0F5E0FF168B
:1015200009F44BC0FF16C0F186E0F81609F456C066
:1015300065C0EEE2F2E0A4ADB5AD12968C911297C3
:10154000816012968C930284F385E02D84858068F7
:10155000848754C0EEE2F2E0A4ADB5AD12968C9152
:101560001297826012968C930284F385E02D848515
:101570008068848743C0EEE2F2E0A4ADB5AD129678
:101580008C911297836012968C930284F385E02DE0
:1015900084858068848732C0EEE2F2E0A4ADB5AD08
:1015A00012968C911297856012968C930284F38523
:1015B000E02D84858068848721C0EEE2F2E0A4AD4E
:1015C000B5AD12968C911297866012968C93028418
:1015D000F385E02D84858068848710C0EEE2F2E018
:1015E000A4ADB5AD12968C911297876012968C932C
:1015F0000284F385E02D84858068848788E796E0FF
:10160000F8019183808388EB96E09383828388EF4F
:1016100096E0958384838EEF96E0978386838BE0B4
:1016200096E09187808784E097E093878287C8015E
:10163000CA5ADF4F0FB6F894DEBF0FBECDBFDF91A1
:10164000CF911F910F91FF90EF900895E091C60206
:10165000F091C7028181887F0895E091C602F091E0
:10166000C70284E9848387EC90E00197F1F700C01A
:1016700000000895CF93DF9318161CF4880F816043
:1016800001C081E0E4E8F2E0A091C602B091C70297
:1016900012968C93A28DB38D11968C9111978063C5
:1016A00011968C93028CF38DE02D8281806382836E
:1016B000643089F018F4613031F025C0603199F060
:1016C0006034C9F020C0E091C602F091C702818168
:1016D0008C7F818320C0E091C602F091C702818196
:1016E0008160818318C0E091C602F091C7028181B8
:1016F0008260818310C0E091C602F091C7028181AF
:101700008360818308C0E091C602F091C7028181A5
:101710008C7F818361E0C091C602D091C702262FE1
:1017200030E0220F331F032E000C440B550B60E4F6
:1017300070E080E090E00E94510F2883DF91CF910C
:101740000895BF92CF92DF92EF92FF920F931F9373
:10175000CF93DF93CDB7DEB7C655D1090FB6F89456
:10176000DEBF0FBECDBF8C01E62EB42ECE0101969A
:101770000E94190386E5FE013196A4E8B2E00190CB
:101780000D928A95E1F70F2EF4E8CF2EF2E0DF2ECE
:10179000F02DD6011A96ED91FC911B97F4848F2DB4
:1017A0008F7784876B2D8E2D0E943A0BD6011A9667
:1017B000ED91FC911B97F48687E19CE0F801918301
:1017C000808388E29CE09383828386E49CE0958317
:1017D00084838CE59CE0978386838DE29BE09187F0
:1017E000808786E29BE093878287C801CA5ADF4FD1
:1017F0000FB6F894DEBF0FBECDBFDF91CF911F9122
:101800000F91FF90EF90DF90CF90BF900895E091FF
:10181000C602F091C7022481222344F021E030E087
:101820008217930718F02F5F3F4FFACF0895E0918A
:10183000C602F091C70284EA84838FEF93E00E948E
:10184000070C0E94260B883011F00E942D0B089582
:10185000662319F0880F816001C0880FE6ECF2E082
:10186000A081B18113968C930190F081E02D84E8E2
:1018700084838FEF93E00E94070C0E94260B88312F
:1018800021F0803411F00E942D0B0895E6ECF2E077
:10189000A081B18113968C930190F081E02D84E8B2
:1018A00084838FEF93E00E94070C0E94260B8832FE
:1018B00011F00E942D0B0895882311F080E401C0DF
:1018C00080E0E091C602F091C702846884838FEFC4
:1018D00093E00E94070C0E94260B883311F40E94AB
:1018E0002D0BE091C602F091C70283810895E0912B
:1018F000E302F091E4028BED92E009950895E09106
:10190000E502F091E6028BED92E009950895809151
:101910003D0310923D03EFECF7E03197F1F700C083
:10192000000008950E94870C0895EDE2F3E0A08185
:10193000B18116968C930190F081E02D81818062B7
:1019400081838FEC97E00197F1F700C000000895C4
:101950000E94950C0895CF93DF93EC018881882332
:1019600031F021960E94950C89918111FBCFDF9176
:10197000CF9108953F924F925F926F927F928F9294
:101980009F92AF92BF92CF92DF92EF92FF920F930E
:101990001F93CF93DF93CDB7DEB7C655D1090FB6EE
:1019A000F894DEBF0FBECDBF7C015B016A01290147
:1019B0003801E091F102F091F2023484832D8F77A7
:1019C0008487CE0101960E94190386E5FE013196B7
:1019D000A7EEB2E001900D928A95E1F74EE353E055
:1019E00060E1CE0101960E94030F8CE0FE0131966A
:1019F000ABEDB2E001900D928A95E1F7BB204CF47B
:101A0000E0912D03F0912E0382E08083C5019F7742
:101A100001C0C5010DE213E0D8018D909C90E091CA
:101A20003703F09138030995F40195838483D80135
:101A3000ED91FC9188E98183B7E0CB16D104D9F10F
:101A400058F4F5E0CF16D10409F46BC086E0C8164F
:101A5000D10409F44BC078C0A8E0CA16D104C1F083
:101A6000B9E0CB16D10409F06FC0EDE2F3E0A0813C
:101A7000B18111968C911197846011968C9301908D
:101A8000F081E02D82818660828369E070E06EC023
:101A9000EDE2F3E0A081B18111968C9111978B7FDB
:101AA00011968C930190F081E02D82818660828373
:101AB00068E070E05BC0EDE2F3E0A081B1811196D7
:101AC0008C9111978B7F11968C93A081B181129686
:101AD0008C911297846012968C930190F081E02D86
:101AE00082818D7F828367E070E040C0EDE2F3E0A9
:101AF000A081B18111968C9111978B7F11968C9357
:101B0000A081B18112968C9112978B7F12968C9343
:101B10000190F081E02D82818260828366E070E036
:101B200025C0EDE2F3E0A081B18111968C9111976F
:101B30008B7F11968C930190F081E02D8281897FBB
:101B4000828365E070E012C0EDE2F3E0A081B18134
:101B500011968C9111978B7F11968C930190F08147
:101B6000E02D82818660828368E070E0E1E04E16BD
:101B7000510429F0F2E04F16510459F014C0E091DD
:101B80002D03F0912E038281877F828341E050E014
:101B900013C0E0912D03F0912E038281886082832F
:101BA00042E050E009C0E0912D03F0912E038281C4
:101BB000877F828341E050E082E06816710481F003
:101BC000A3E06A167104F9F0672839F5E0912D0356
:101BD000F0912E0382818F7C828320E030E026C04A
:101BE000EDE2F3E0A081B18112968C9112978062B0
:101BF00012968C930190F081E02D82818F7E8283FA
:101C000022E030E013C0E0912D03F0912E03828199
:101C10008063828323E030E009C0E0912D03F091DE
:101C20002E0382818F7C828320E030E0E091F102FC
:101C3000F091F202832D80688487F701B182A0823F
:101C400073836283558344833783268387E89CE0CC
:101C50009187808782E99CE09387828787E79CE071
:101C6000958784878FE79CE09787868785E99CE046
:101C7000918B808B88EA9CE0938B828B8BEA9CE033
:101C8000958B848BC701CA5ADF4F0FB6F894DEBF1D
:101C90000FBECDBFDF91CF911F910F91FF90EF90BD
:101CA000DF90CF90BF90AF909F908F907F906F907C
:101CB0005F904F903F9008951F920F920FB60F9232
:101CC00011242F933F934F935F936F937F938F9341
:101CD0009F93AF93BF93EF93FF93E0912D03F09108
:101CE0002E03808188718093DA02668160933D03C0
:101CF000E091E102F091E2028BED92E00995FF9113
:101D0000EF91BF91AF919F918F917F916F915F9173
:101D10004F913F912F910F900FBE0F901F901895EC
:101D20001F920F920FB60F9211248F93EF93FF9390
:101D3000E0912D03F0912E0381818F7D8183FF91AE
:101D4000EF918F910F900FBE0F901F901895FC018F
:101D500089E89FE09183808385ED9FE09383828370
:101D600087EA9FE09583848381E99FE09783868358
:101D70008BEE9FE09187808785EC9FE09387828739
:101D800083EE9FE09787868783EE9FE0958B848B19
:101D900089EB9FE0978B868B89E79FE0918F808FFF
:101DA0008BEC9FE0938F828F87E99FE0958F848FE4
:101DB000CF0108956623C1F0DC011296ED91FC91EC
:101DC000139714962D913C911597E217F30729F478
:101DD000ED91FC91DF01119602C0DF011196608345
:101DE0001C92FC01B383A2830895FC018081918140
:101DF0000895DC01ED91FC9111971396FC93EE93FD
:101E0000129710820895FC015183408353834283CB
:101E1000460F511D558344838AED9EE09783868348
:101E200085EF9EE09187808789EF9EE09387828788
:101E3000CF010895CF93DF93CDB7DEB7C655D10953
:101E40000FB6F894DEBF0FBECDBFCE0101960E9443
:101E5000190386E5FE013196AFE4B3E001900D92DF
:101E60008A95E1F7EFE4F3E0A281B3818FEF8C93E1
:101E7000A281B38111968C93A281B38180835A96FB
:101E80008C93A4A1B5A111968C930480F581E02DCB
:101E90008083AFE4B3E01C96ED91FC911D978083A5
:101EA000FACFA1E21A2EAA1BBB1BFD010DC0AA1F6F
:101EB000BB1FEE1FFF1FA217B307E407F50720F0B3
:101EC000A21BB30BE40BF50B661F771F881F991F2E
:101ED0001A9469F760957095809590959B01AC0177
:101EE000BD01CF010895EE0FFF1F0590F491E02D85
:101EF0000994DC01CB01FC01F999FECF06C0F2BDCB
:101F0000E1BDF89A319600B40D9241505040B8F7B7
:101F10000895F999FECF92BD81BDF89A992780B5B1
:101F20000895A8E1B0E042E050E00C947B0FDC01A2
:101F3000A40FB51F4150504048F0CB01840F951FAE
:101F40002E910E94A80F41505040D0F70895262F9F
:101F5000F999FECF92BD81BDF89A019700B402169F
:101F600039F01FBA20BD0FB6F894FA9AF99A0FBE4D
:101F700008950396272F0E94A80F0E94A70F252FD0
:101F80000E94A80F242F0C94A80F0196272F0E94BF
:101F9000A80F0C94A70FDC01CB0103C02D910E9468
:101FA000D60F41505040D0F70895262FF999FECF13
:101FB0001FBA92BD81BD20BD0FB6F894FA9AF99A66
:101FC0000FBE01960895242F0E94D60F252F0E9440
:101FD000D60F0C94EB0F0E94D50F272F0C94D60F21
:041FE000F894FFCFA3
:00000001FF
