:100000000C9455000C9472000C9472000C947200C5
:100010000C9472000C9472000C9472000C94720098
:100020000C9472000C9472000C9472000C94720088
:100030000C9472000C9472000C9472000C94720078
:100040000C9472000C9472000C94D90B0C940D0C4F
:100050000C9472000C94AD010C9472000C9472001C
:100060000C9472000C94720098069C06A006A406DC
:10007000A806AC06B00614071A07200726072C07A7
:1000800035073E0747074D0756075F0768076E07A6
:10009000770780079F07A307A707AB07AF07B3073B
:1000A000B707BB07BF07C307C70711241FBECFEFA2
:1000B000D8E0DEBFCDBF11E0A0E0B1E0EEE8F9E1AD
:1000C00002C005900D92A030B107D9F722E0A0E060
:1000D000B1E001C01D92A531B207E1F70E94670CA3
:1000E0000C94C50C0C940000E0913001F0913101AA
:1000F000228126FD02C020642283FC01EE0FFF1F37
:10010000E75EFE4F808191810895EF92FF920F93F9
:100110001F93CF93DF93CDB7DEB7EE970FB6F8946A
:10012000DEBF0FBECDBF28960FAD289729961FAD15
:1001300029972B96EEACFFAC2B97CE0101960E942F
:10014000E1028EE3FE013196ACE2B1E001900D9246
:100150008A95E1F7ECE2F1E0A085B18591964C91AA
:100160009197842F8F7791968C93F0920801E0926B
:1001700007011092060110920501109200010480FF
:10018000F581E02D84818F738483013019F0033071
:1001900051F012C0E0913001F0913101848180640E
:1001A000848351E00AC0E0913001F09131018481F3
:1001B000806C848353E001C050E0E0913001F09105
:1001C000310184818F7D84831E141F0494F4DE0129
:1001D000A55BBF4F80E090E02D913D91FC01EE0FBB
:1001E000FF1FE75FFE4F318320830196E816F90673
:1001F00099F7ECE2F1E0A481B58114968C91149703
:10020000807F14968C93A0910501B0910601AA0FEE
:10021000BB1FA75FBE4F8D919C91A481B5818F704C
:10022000992714969C911497892B14968C93A481EA
:10023000B58112968C911297806812968C93A48146
:10024000B58112968C911297806412968C93A4813A
:10025000B58112968C9112978F7D12968C93A48102
:10026000B58113968C911397887F13968C93A481F4
:10027000B58112968C911297886012968C930480A7
:10028000F581E02D8281887F8283103109F138F475
:10029000143061F0183099F01230F1F546C0103486
:1002A00049F1103881F11032B9F51BC0E0913001ED
:1002B000F091310182818260828324E037C0E09135
:1002C0003001F091310182818360828328E02EC069
:1002D000E0913001F091310182818460828320E1DC
:1002E00025C0E0913001F0913101828185608283E7
:1002F00020E21CC0E0913001F091310182818660E2
:10030000828320E413C0E0913001F09131018281B9
:100310008760828320E80AC0E0913001F0913101CA
:1003200082818760828320E801C022E0E09134016D
:10033000F0913501406841A3652F722F84E790E06A
:10034000EE960FB6F894DEBF0FBECDBFDF91CF9112
:100350001F910F91FF90EF9008951F920F920FB68B
:100360000F9211242F933F938F939F93AF93BF933B
:10037000EF93FF938091780090E090930201809337
:100380000101209179008091010190910201922B4D
:100390009093020180930101809100018430A0F4C8
:1003A000809100018F5F80930001209101013091C5
:1003B00002018091030190910401820F931F909399
:1003C0000401809303014DC0E0910501F091060105
:1003D0008091030190910401959587959595879556
:1003E000EE0FFF1FE75EFE4F9183808310920401A2
:1003F0001092030110920001209105013091060135
:1004000080910701909108012817390754F48091D1
:1004100005019091060101969093060180930501D4
:1004200004C01092060110920501ACE2B1E01496EE
:10043000ED91FC9115978481807F8483E091050183
:10044000F0910601EE0FFF1FE75FFE4F8081918163
:100450001496ED91FC9115978F7099279481892BB3
:100460008483FF91EF91BF91AF919F918F913F91C5
:100470002F910F900FBE0F901F90189584B78F701B
:10048000823071F018F4813031F019C0843069F095
:10049000883081F014C084B78E7F84BF80E00895D7
:1004A00084B78D7F84BF81E0089584B78B7F84BF3C
:1004B00082E0089584B7877F84BF83E0089584B77E
:1004C000807F84BF80E00895882319F08130C9F0CF
:1004D00030C0E898E9E6F0E080818C7F808362306C
:1004E00019F0633039F00BC0E9E6F0E080818260FA
:1004F000808305C0E9E6F0E0808183608083E89A2C
:100500000895E998E9E6F0E08081837F8083623096
:1005100019F0633039F00BC0E9E6F0E080818860C3
:10052000808305C0E9E6F0E080818C608083E99AF1
:1005300008951DBA0895882319F0813019F004C078
:10054000E8980895E99808951DBA0895CF93DF9328
:1005500000D000D000D0CDB7DEB71DBA24E632E01F
:100560003A8329834BE952E05C834B836EE372E06C
:100570007E836D833A815C817E8180E090E0269667
:100580000FB6F894DEBF0FBECDBFDF91CF910895B7
:10059000292F30E0322F2227A901482BCA010895C4
:1005A000282F30E0322F2227A901492BCA010895B4
:1005B0000895282F892F922F089598278927982703
:1005C0000895FC011182108280E590E0938382837C
:1005D00088E790E09583848385E890E0978386831D
:1005E0008EE390E0918780878FE390E09387828706
:1005F0008BE390E09787868786EA92E0918B808BE9
:1006000083E290E0938B828B86E290E0958B848BE3
:1006100089E290E0978B868B8CE490E0918F808FBD
:1006200086E390E0938F828F8AED96E0958F848F9A
:1006300085E390E0978F868F86E096E091A380A374
:1006400087E390E093A382A381EF97E095A384A32F
:1006500088EB90E097A386A38EE199E091A780A70D
:1006600080EC90E093A782A785E39AE095A784A702
:1006700080E690E097A786A780E091E091AB80AB01
:1006800088EC92E095AB84AB80ED92E097AB86ABC3
:1006900088ED92E091AF80AF89ED92E093AF82AFA9
:1006A0008DED92E095AF84AFCF01089520912B019D
:1006B000211171C0EAE6F1E0A68DB78D2FEF5296B9
:1006C0002C93068CF78DE02D2089287F208B883095
:1006D000910501F158F483309105E1F185309105E0
:1006E00009F440C0019709F045C00CC0811521E014
:1006F000920701F1811524E0920721F180349105E0
:10070000C9F510C0E0918801F0918901808981606C
:10071000808B37C0E0918801F091890180898260E7
:10072000808B2FC0E0918801F091890180898360DE
:10073000808B27C0E0918801F091890180898460D5
:10074000808B1FC0E0918801F091890180898560CC
:10075000808B17C0E0918801F091890180898660C3
:10076000808B0FC0E0918801F091890180898760BA
:10077000808B07C0E0918801F091890180898560B4
:10078000808BE0917201F091730181A1806881A357
:1007900081E080932B010895E0918801F091890117
:1007A00097859F739787823061F0833091F0813015
:1007B000B9F4E0918801F091890187858064878789
:1007C0000895E0918801F091890187858068878785
:1007D0000895E0918801F09189018785806C878771
:1007E0000895E0918801F091890197859F7C978712
:1007F000823061F0833091F08130B9F4E09188016A
:10080000F09189018785806187870895E09188014B
:10081000F09189018785806287870895E09188013A
:10082000F09189018785806387870895E091880129
:10083000F0918901828B0895E0918801F0918901FE
:10084000838B0895EAE6F1E0A68DB78D50968C91E2
:100850005097887F50968C93068CF78DE02D118AE7
:1008600010922B010895EF92FF920F931F93CF9355
:10087000DF93EC0190912A01911172C00AE611E018
:10088000D8015A96ED90FC905B97B2E5EB0EF11C07
:10089000D801DA96ED91FC91DB978FEF9FEF0995E8
:1008A000F70191838083D8015A962D913C915B97F3
:1008B000F901E55BFF4F8081887F8083C830D105D7
:1008C000E1F048F4C330D10581F1C530D10599F18B
:1008D0002197B9F50CC0C115B1E0DB07D1F0C11506
:1008E000E4E0DE07E1F0C034D10559F50CC0F901B0
:1008F000E55BFF4F8160808329C0F901E55BFF4F15
:100900008260808323C0F901E55BFF4F83608083B1
:100910001DC0F901E55BFF4F8460808317C0F901BA
:10092000E55BFF4F8560808311C0F901E55BFF4FF8
:10093000866080830BC0F901E55BFF4F8760808391
:1009400005C0F901E55BFF4F85608083E09172018E
:10095000F091730181A1806881A381E080932A01D5
:10096000DF91CF911F910F91FF90EF90089520910B
:10097000840130918501F901E65BFF4F90819F73FF
:10098000823061F0833081F0813011F090830895DE
:10099000F901E65BFF4F906490830895F901E65BEF
:1009A000FF4F906890830895F901E65BFF4F906CCC
:1009B000908308952091840130918501F901E65BCF
:1009C000FF4F90819F7C823061F0833081F08130D5
:1009D00011F090830895F901E65BFF4F90619083D9
:1009E0000895F901E65BFF4F906290830895F90145
:1009F000E65BFF4F906390830895CF93DF93EAE621
:100A0000F1E0C28DD38DCE5ADF4F02ACF3ADE02DB5
:100A1000099599838883DF91CF910895CF93DF93D0
:100A2000EAE6F1E0C28DD38DCC5ADF4F02ACF3ADD4
:100A3000E02D099599838883DF91CF910895CF9315
:100A4000DF93EAE6F1E0828D938DDC01A55BBF4F79
:100A50002C91287F2C93EC01C25BDF4F02ACF3ADED
:100A6000E02D80E090E009959983888310922A0117
:100A7000DF91CF910895AC0180912901811160C06F
:100A800020918C0130918D01F901E458FF4F8FEFD7
:100A9000808332979081987F90834034510549F14B
:100AA00050F448305105C9F040325105E1F0413071
:100AB0005105B9F50CC0411581E0580731F14115D8
:100AC00084E0580741F14038510559F518C0F90143
:100AD000E658FF4F9160908329C0F901E658FF4F17
:100AE0009260908323C0F901E658FF4F9360908392
:100AF0001DC0F901E658FF4F9460908317C0F901BB
:100B0000E658FF4F9560908311C0F901E658FF4FFA
:100B1000966090830BC0F901E658FF4F9760908371
:100B200005C0F901E658FF4F97609083E09172018C
:100B3000F091730181A1806881A381E080932901F4
:100B4000089520918C0130918D01F901E758FF4FF4
:100B500090819F73823061F0833081F0813011F099
:100B600090830895F901E758FF4F906490830895AA
:100B7000F901E758FF4F906890830895F901E7580D
:100B8000FF4F906C9083089520918C0130918D01DE
:100B9000F901E758FF4F90819F7C823061F08330EC
:100BA00081F0813011F090830895F901E758FF4FEB
:100BB000906190830895F901E758FF4F9062908308
:100BC0000895F901E758FF4F906390830895E091ED
:100BD0008C01F0918D01E458FF4F80830895E091DE
:100BE0008C01F0918D01E358FF4F8083089580912F
:100BF0008C0190918D01FC01E658FF4F2081287FE8
:100C0000208331961082109229010895EF92FF926D
:100C10000F931F93CF93DF93CDB7DEB7EE970FB649
:100C2000F894DEBF0FBECDBF8C01E62EF42ECE01B0
:100C300001960E94E1028EE3FE013196AAE6B1E040
:100C400001900D928A95E1F710922B01EAE6F1E00E
:100C5000A68DB78D1F968C911F978C7F1F968C93B6
:100C6000068CF78DE02D8089877F808B83E0E816E6
:100C700001F18E1538F0E1E0EE1659F0F2E0EF16D2
:100C800081F040C085E0E816E1F0E7E0EE1651F1B2
:100C900039C0E0918801F09189018785816087875B
:100CA00031C0E0918801F091890187858260878752
:100CB00029C0E0918801F091890187858360878749
:100CC00021C0EAE6F1E0A68DB78D1F968C911F97A3
:100CD00081601F968C93068CF78DE02D808988604B
:100CE000808B10C0EAE6F1E0A68DB78D1F968C913F
:100CF0001F9783601F968C93068CF78DE02D80895B
:100D00008860808BA0918801B0918901D9968C91DF
:100D1000D997887F4F2D50E0FA013197E730F105E0
:100D200020F4EC5CFF4F0C94BF0CD9968C931BC045
:100D30008160D9968C9317C08260D9968C9313C02A
:100D40008460D9968C930FC08360D9968C930BC026
:100D50008560D9968C9307C08760D9968C9303C021
:100D60008660D9968C938CEC93E0F8019183808314
:100D700081EF93E09383828386E194E0958384837B
:100D80008CE194E09783868386E593E09187808762
:100D900082E294E093878287C801EE960FB6F894BA
:100DA000DEBF0FBECDBFDF91CF911F910F91FF909E
:100DB000EF900895EF92FF920F931F93CF93DF93DD
:100DC000CDB7DEB7EE970FB6F894DEBF0FBECDBF3E
:100DD0007C01062F142FCE0101960E94E1028EE3C2
:100DE000FE013196AAE6B1E001900D928A95E1F7F5
:100DF00010922A012091840130918501F901E65B6E
:100E0000FF4F50815C7F508331964081477E408305
:100E1000802F90E0FC013197EF30F10508F078C0A9
:100E2000E55CFF4F0C94BF0CF901E65BFF4F51608E
:100E300050836EC0F901E65BFF4F5260508368C07B
:100E4000F901E65BFF4F5360508362C0F901E55B37
:100E5000FF4F486040835CC0F901E65BFF4F516083
:100E6000508331964860408353C0F901E65BFF4FE1
:100E7000526050833196486040834AC0F901E65B76
:100E8000FF4F5360508331964860408341C0F90161
:100E9000E55BFF4F406140833BC0F901E65BFF4FDC
:100EA0005160508331964061408332C0F901E65B66
:100EB000FF4F5260508331964061408329C0F90151
:100EC000E65BFF4F5360508331964061408320C002
:100ED000F901E55BFF4F486140831AC0F901E65B09
:100EE000FF4F5160508331964861408311C0F90132
:100EF000E65BFF4F5260508331964861408308C0E3
:100F0000F901E65BFF4F536050833196486140839F
:100F1000F901E65BFF4F80818F708083F90181AD1D
:100F2000887D412F50E0FA013197EB30F10520F434
:100F3000E65BFF4F0C94BF0CF90181AF2BC08160C1
:100F4000F90181AF27C08260F90181AF23C08460BD
:100F5000F90181AF1FC08062F90181AF1BC08660BB
:100F6000F90181AF17C08360F90181AF13C08560BB
:100F7000F90181AF0FC08162F90181AF0BC08760B9
:100F8000F90181AF07C08762F90181AF03C08660B4
:100F9000F90181AF87EB94E0F701918380838AEDBB
:100FA00094E0938382838DEF94E0958384838EE035
:100FB00095E09783868383E394E0918780878FE130
:100FC00095E093878287C701EE960FB6F894DEBF4F
:100FD0000FBECDBFDF91CF911F910F91FF90EF908A
:100FE0000895EF92FF920F931F93CF93DF93CDB7A6
:100FF000DEB7EE970FB6F894DEBF0FBECDBF8C0103
:10100000E62EF42ECE0101960E94E1028EE3FE014F
:101010003196AAE6B1E001900D928A95E1F710921F
:101020002901E0918C01F0918D01DF01A758BF4F9C
:101030008C918C7F8C9311969C91977F9C9323E04D
:10104000E216E1F02E1538F091E0E91659F022E0B1
:10105000E21671F02AC025E0E216B1F027E0E216B0
:10106000E1F023C0DF01A758BF4F81608C931DC002
:10107000DF01A758BF4F82608C9317C0DF01A758CC
:10108000BF4F83608C9311C0DF01A758BF4F8160B1
:101090008C93119698609C9308C0DF01A758BF4FAE
:1010A00083608C93119698609C9381AD887F93E0C8
:1010B000F916C9F09F1538F021E0F21671F092E0B0
:1010C000F91671F008C025E0F21699F0F21670F0EA
:1010D00096E0F91689F081AF11C0816081AF0EC032
:1010E000826081AF0BC0836081AF08C0856081AF33
:1010F00005C0866081AF02C0876081AF81EA95E05C
:10110000F8019183808384EC95E09383828387EE5A
:1011100095E0958384838FEE95E0978386838BE3B8
:1011200095E09187808787EF95E093878287C80154
:10113000EE960FB6F894DEBF0FBECDBFDF91CF9114
:101140001F910F91FF90EF900895E0915201F0915F
:1011500053018181887F0895E0915201F0915301FC
:1011600084E9848387EC90E00197F1F700C00000E8
:101170000895CF93DF9318161CF4880F816001C087
:1011800081E0ECE2F1E0A6A1B7A112968C93A689CA
:10119000B78911968C911197806311968C9306886C
:1011A000F789E02D828180638283643089F018F4AE
:1011B000613031F025C0603199F06034C9F020C051
:1011C000E0915201F091530181818C7F818320C095
:1011D000E0915201F091530181818160818318C0B7
:1011E000E0915201F091530181818260818310C0AE
:1011F000E0915201F091530181818360818308C0A5
:10120000E0915201F091530181818C7F818361E0F3
:10121000C0915201D0915301262F30E0220F331F8D
:10122000032E000C440B550B60E470E080E090E06E
:101230000E949D0C2883DF91CF910895BF92CF9299
:10124000DF92EF92FF920F931F93CF93DF93CDB76F
:10125000DEB7EE970FB6F894DEBF0FBECDBF8C01A0
:10126000E62EB42ECE0101960E94E1028EE3FE012D
:101270003196ACE2B1E001900D928A95E1F70F2E24
:10128000FCE2CF2EF1E0DF2EF02DD6011896ED9185
:10129000FC911997F1A08F2D8F7781A36B2D8E2D47
:1012A0000E94B908D6011896ED91FC911997F1A208
:1012B00082E999E0F8019183808383EA99E093833E
:1012C000828381EC99E09583848387ED99E097830D
:1012D00086838CEA98E09187808785EA98E09387F7
:1012E0008287C801EE960FB6F894DEBF0FBECDBF61
:1012F000DF91CF911F910F91FF90EF90DF90CF90F2
:10130000BF900895E0915201F0915301248122236E
:1013100044F021E030E08217930718F02F5F3F4F31
:10132000FACF0895E0915201F091530184EA848349
:101330008FEF93E00E9482090E94A508883011F087
:101340000E94AC080895662319F0880F816001C0DF
:10135000880FECE2F1E0A6A1B7A113968C9306A04A
:10136000F7A1E02D84E884838FEF93E00E94820947
:101370000E94A508883121F0803411F00E94AC0849
:101380000895ECE2F1E0A6A1B7A113968C9306A014
:10139000F7A1E02D84E884838FEF93E00E94820917
:1013A0000E94A508883211F00E94AC080895882395
:1013B00011F080E401C080E0E0915201F09153010E
:1013C000846884838FEF93E00E9482090E94A508BD
:1013D000883311F40E94AC08E0915201F09153015E
:1013E00083810895E091B101F091B20189EA91E021
:1013F00009950895E091B301F091B40189EA91E073
:10140000099508958091B5011092B501EFECF7E0D0
:101410003197F1F700C0000008950E94020A089574
:10142000ECE2F1E0A2A5B3A516968C9302A4F3A575
:10143000E02D8181806281838FEC97E00197F1F745
:1014400000C0000008950E94100A0895CF93DF9312
:10145000EC018881882331F021960E94100A89913D
:101460008111FBCFDF91CF9108953F924F925F9210
:101470006F927F928F929F92AF92BF92CF92DF92A4
:10148000EF92FF920F931F93CF93DF93CDB7DEB709
:10149000EE970FB6F894DEBF0FBECDBF7C015B01A7
:1014A0006A0129013801E0913401F091350131A040
:1014B000832D8F7781A3CE0101960E94E1028EE3F6
:1014C000FE013196ACE2B1E001900D928A95E1F710
:1014D00046EB51E060E2CE0101960E944D0C8CE09B
:1014E000FE013196A9EAB1E001900D928A95E1F7EB
:1014F000BB204CF4E0915601F091570182E08083CB
:10150000C5019F7701C0C5010CE211E0D8019A9690
:101510008D909C909B97D896ED91FC91D9970995C9
:10152000F40195838483D8019A96ED91FC919B9761
:1015300088E98183B7E0CB16D104D9F158F4F5E0FE
:10154000CF16D10409F46BC086E0C816D10409F4A3
:101550004BC078C0A8E0CA16D104C1F0B9E0CB16E0
:10156000D10409F06FC0ECE2F1E0A2A5B3A5119699
:101570008C911197846011968C9302A4F3A5E02DB1
:1015800082818660828369E070E06EC0ECE2F1E007
:10159000A2A5B3A511968C9111978B7F11968C9370
:1015A00002A4F3A5E02D82818660828368E070E06A
:1015B0005BC0ECE2F1E0A2A5B3A511968C91119766
:1015C0008B7F11968C93A2A5B3A512968C9112973E
:1015D000846012968C9302A4F3A5E02D82818D7F06
:1015E000828367E070E040C0ECE2F1E0A2A5B3A521
:1015F00011968C9111978B7F11968C93A2A5B3A510
:1016000012968C9112978B7F12968C9302A4F3A55D
:10161000E02D82818260828366E070E025C0ECE28A
:10162000F1E0A2A5B3A511968C9111978B7F11962D
:101630008C9302A4F3A5E02D8281897F828365E0EB
:1016400070E012C0ECE2F1E0A2A5B3A511968C9176
:1016500011978B7F11968C9302A4F3A5E02D8281C4
:101660008660828368E070E0E1E04E16510429F064
:10167000F2E04F16510459F014C0E0915601F09178
:1016800057018281877F828341E050E013C0E0915F
:101690005601F091570182818860828342E050E0D8
:1016A00009C0E0915601F09157018281877F8283C2
:1016B00041E050E082E06816710481F0A3E06A1610
:1016C0007104F9F0672839F5E0915601F09157015E
:1016D00082818F7C828320E030E026C0ECE2F1E062
:1016E000A2A5B3A512968C911297806212968C9344
:1016F00002A4F3A5E02D82818F7E828322E030E078
:1017000013C0E0915601F09157018281806382837A
:1017100023E030E009C0E0915601F0915701828149
:101720008F7C828320E030E0E0913401F09135013C
:10173000832D806881A3F701B182A08273836283C5
:10174000558344833783268382E09AE0918780879C
:101750008DE09AE09387828782EF99E0958784876E
:101760008AEF99E09787868780E19AE0918B808B5A
:1017700083E29AE0938B828B86E29AE0958B848B4E
:10178000C701EE960FB6F894DEBF0FBECDBFDF9156
:10179000CF911F910F91FF90EF90DF90CF90BF906E
:1017A000AF909F908F907F906F905F904F903F9001
:1017B00008951F920F920FB60F9211242F933F930B
:1017C0004F935F936F937F938F939F93AF93BF9349
:1017D000EF93FF93E0915601F0915701808188715A
:1017E0008093A80166816093B501E091AF01F0910B
:1017F000B00189EA91E00995FF91EF91BF91AF9116
:101800009F918F917F916F915F914F913F912F9118
:101810000F900FBE0F901F9018951F920F920FB64A
:101820000F9211248F93EF93FF93E0915601F09163
:10183000570181818F7D8183FF91EF918F910F906F
:101840000FBE0F901F9018956623C1F0DC01129611
:10185000ED91FC91139714962D913C911597E217F9
:10186000F30729F4ED91FC91DF01119602C0DF012D
:10187000119660831C92FC01B383A2830895FC013E
:10188000808191810895DC01ED91FC91119713966F
:10189000FC93EE93129710820895FC0151834083CC
:1018A0005383428370E061507109460F571F55837F
:1018B000448384E29CE0978386838FE39CE0918756
:1018C000808783E49CE093878287CF010895CF933C
:1018D000DF93CDB7DEB7EE970FB6F894DEBF0FBE3D
:1018E000CDBFCE0101960E94E1028EE3FE0131964A
:1018F000A7EDB1E001900D928A95E1F7E7EDF1E0F7
:10190000A081B1818FEF8C93A081B18111968C93CE
:10191000A081B18182AB5A968C93A28DB38DD9965A
:101920008C930280F381E02D8083A7EDB1E01896BF
:10193000ED91FC9119978083FACFA1E21A2EAA1B90
:10194000BB1BFD010DC0AA1FBB1FEE1FFF1FA2176F
:10195000B307E407F50720F0A21BB30BE40BF50B6C
:10196000661F771F881F991F1A9469F760957095F5
:10197000809590959B01AC01BD01CF010895EE0FBC
:0E198000FF1F0590F491E02D0994F894FFCF1D
:00000001FF
