:100000000C9455000C9472000C9472000C947200C5
:100010000C9472000C9472000C9472000C94720098
:100020000C9472000C9472000C9472000C94720088
:100030000C9472000C9472000C9472000C94720078
:100040000C9472000C9472000C94130C0C94470CDA
:100050000C9472000C94AD010C9472000C9472001C
:100060000C9472000C947200D406D806DC06E006EC
:10007000E406E806EC06500756075C0762076807C7
:1000800071077A078307890792079B07A407AA07C6
:10009000B307BC07DB07DF07E307E707EB07EF075B
:1000A000F307F707FB07FF07030811241FBECFEF75
:1000B000D8E0DEBFCDBF11E0A0E0B1E0ECE3F0E2BC
:1000C00002C005900D92A235B107D9F723E0A2E551
:1000D000B1E001C01D92AE31B207E1F70E94AA0F54
:1000E0000C941C100C940000E0918201F0918301AB
:1000F000228126FD02C020642283FC01EE0FFF1F37
:10010000E559FE4F808191810895EF92FF920F9300
:100110001F93CF93DF93CDB7DEB7EE970FB6F8946A
:10012000DEBF0FBECDBF28960FAD289729961FAD15
:1001300029972B96EEACFFAC2B97CE0101960E942F
:1001400017038EE3FE013196AEE7B1E001900D9208
:100150008A95E1F7EEE7F1E0A085B18591964C91A3
:100160009197842F8F7791968C93F0925A01E09219
:1001700059011092580110925701109252010480B7
:10018000F581E02D84818F738483013019F0033071
:1001900051F012C0E0918201F0918301848180646A
:1001A000848351E00AC0E0918201F091830184814F
:1001B000806C848353E001C050E0E0918201F091B3
:1001C000830184818F7D84831E141F0494F4DE01D7
:1001D000A55BBF4F80E090E02D913D91FC01EE0FBB
:1001E000FF1FE55AFE4F318320830196E816F9067A
:1001F00099F7EEE7F1E0A481B58114968C911497FC
:10020000807F14968C93A0915701B0915801AA0F4A
:10021000BB1FA55ABE4F8D919C91A481B5818F7053
:10022000992714969C911497892B14968C93A481EA
:10023000B58112968C911297806812968C93A48146
:10024000B58112968C911297806412968C93A4813A
:10025000B58112968C9112978F7D12968C93A48102
:10026000B58113968C911397887F13968C93A481F4
:10027000B58112968C911297886012968C930480A7
:10028000F581E02D8281887F8283103109F138F475
:10029000143061F0183099F01230F1F546C0103486
:1002A00049F1103881F11032B9F51BC0E09182019B
:1002B000F091830182818260828324E037C0E091E3
:1002C0008201F091830182818360828328E02EC0C5
:1002D000E0918201F091830182818460828320E138
:1002E00025C0E0918201F091830182818560828343
:1002F00020E21CC0E0918201F0918301828186603E
:10030000828320E413C0E0918201F0918301828115
:100310008760828320E80AC0E0918201F091830126
:1003200082818760828320E801C022E0E09186011B
:10033000F0918701406841A3652F722F84E790E018
:10034000EE960FB6F894DEBF0FBECDBFDF91CF9112
:100350001F910F91FF90EF9008951F920F920FB68B
:100360000F9211242F933F938F939F93AF93BF933B
:10037000EF93FF938091780090E0909354018093E5
:100380005301209179008091530190915401922B57
:100390009093540180935301809152018430A0F4D2
:1003A000809152018F5F80935201209153013091CF
:1003B00054018091550190915601820F931F9093A3
:1003C0005601809355014DC0E0915701F0915801BD
:1003D00080915501909156019595879595958795B2
:1003E000EE0FFF1FE559FE4F918380831092560157
:1003F00010925501109252012091570130915801ED
:100400008091590190915A012817390754F480912D
:10041000570190915801019690935801809357018C
:1004200004C01092580110925701AEE7B1E0149643
:10043000ED91FC9115978481807F8483E091570131
:10044000F0915801EE0FFF1FE55AFE4F8081918118
:100450001496ED91FC9115978F7099279481892BB3
:100460008483FF91EF91BF91AF919F918F913F91C5
:100470002F910F900FBE0F901F901895E091C4011F
:10048000F091C5018689982F9F70923069F018F419
:10049000913031F015C0943059F0983069F010C0A7
:1004A0008E7F868B80E008958D7F868B81E0089516
:1004B0008B7F868B82E00895877F868B83E008950B
:1004C000807F868B80E00895882319F08130F9F0D1
:1004D0003CC0ECEBF1E0A685B78512968C911297A3
:1004E0008E7F12968C930684F785E02D86A58C7FEF
:1004F000623021F0633029F086A705C0826086A7AC
:1005000002C0836086A78281816082830895ECEBBC
:10051000F1E0A685B78512968C9112978D7F129681
:100520008C930684F785E02D86A5837F623021F0C9
:10053000633029F086A705C0886086A702C08C605A
:1005400086A78281826082830895E091CA01F0913A
:10055000CB0112820895882319F0813049F010C030
:10056000E091CA01F091CB0182818E7F8283089550
:10057000E091CA01F091CB0182818D7F8283089541
:10058000E091CA01F091CB0112820895CF93DF93DD
:10059000CDB7DEB7C454D1090FB6F894DEBF0FBE95
:1005A000CDBFCE0107960E9417038EE3FE0137965A
:1005B000ACEBB1E001900D928A95E1F7E091CA01B0
:1005C000F091CB01128224E632E03A8329834BEA90
:1005D00052E05C834B836EE372E07E836D833A81ED
:1005E0005C817E8180E090E0CC5BDF4F0FB6F894B9
:1005F000DEBF0FBECDBFDF91CF910895292F30E030
:10060000322F2227A901482BCA010895282F30E054
:10061000322F2227A901492BCA0108950895282FB6
:10062000892F922F08959827892798270895EAEF10
:10063000F1E01182108220E530E03383228328E745
:1006400030E03583248325E830E0378326832EE3AA
:1006500030E0318720872FE330E0338722872BE398
:1006600030E03787268726EC32E0318B208B23E27F
:1006700030E0338B228B26E230E0358B248B29E26D
:1006800030E0378B268B2CE430E0318F208F26E34F
:1006900030E0338F228F26E137E0358F248F25E33A
:1006A00030E0378F268F22E436E031A320A327E302
:1006B00030E033A322A32DE238E035A324A328EBB6
:1006C00030E037A326A328E539E031A720A720ECA6
:1006D00030E033A722A72FE63AE035A724A720E68B
:1006E00030E037A726A720E031E031AB20AB2EEF7A
:1006F00032E035AB24AB26E033E037AB26AB2EE05F
:1007000033E031AF20AF2FE033E033AF22AF23E14E
:1007100033E035AF24AF2EE3DC0101900D922A9532
:10072000E1F7089520917D01211171C0E8E3F2E025
:10073000A68DB78D2FEF52962C93068CF78DE02D5A
:100740002089287F208B8830910501F158F483306F
:100750009105E1F18530910509F440C0019709F058
:1007600045C00CC0811521E0920701F1811524E0FC
:10077000920721F180349105C9F510C0E09156022D
:10078000F091570280898160808B37C0E0915602DA
:10079000F091570280898260808B2FC0E0915602D1
:1007A000F091570280898360808B27C0E0915602C8
:1007B000F091570280898460808B1FC0E0915602BF
:1007C000F091570280898560808B17C0E0915602B6
:1007D000F091570280898660808B0FC0E0915602AD
:1007E000F091570280898760808B07C0E0915602A4
:1007F000F091570280898560808BE0914002F091F2
:10080000410281A1806881A381E080937D010895E8
:10081000E0915602F091570297859F739787823037
:1008200061F0833091F08130B9F4E0915602F0919B
:1008300057028785806487870895E0915602F0917A
:1008400057028785806887870895E0915602F09166
:1008500057028785806C87870895E0915602F09152
:10086000570297859F7C9787823061F0833091F0A3
:100870008130B9F4E0915602F0915702878580618A
:1008800087870895E0915602F0915702878580622C
:1008900087870895E0915602F0915702878580631B
:1008A00087870895E0915602F0915702828B089550
:1008B000E0915602F0915702838B0895E8E3F2E04D
:1008C000A68DB78D50968C915097887F50968C93BB
:1008D000068CF78DE02D118A10927D010895EF921C
:1008E000FF920F931F93CF93DF93EC0190917C01C4
:1008F000911172C008E312E0D8015A96ED90FC9075
:100900005B97B2E5EB0EF11CD801DA96ED91FC9104
:10091000DB978FEF9FEF0995F70191838083D801D3
:100920005A962D913C915B97F901E55BFF4F8081D1
:10093000887F8083C830D105E1F048F4C330D10509
:1009400081F1C530D10599F12197B9F50CC0C115D8
:10095000B1E0DB07D1F0C115E4E0DE07E1F0C0341F
:10096000D10559F50CC0F901E55BFF4F816080832B
:1009700029C0F901E55BFF4F8260808323C0F90144
:10098000E55BFF4F836080831DC0F901E55BFF4F8E
:100990008460808317C0F901E55BFF4F8560808329
:1009A00011C0F901E55BFF4F866080830BC0F90140
:1009B000E55BFF4F8760808305C0F901E55BFF4F72
:1009C00085608083E0914002F091410281A18068BE
:1009D00081A381E080937C01DF91CF911F910F91E2
:1009E000FF90EF9008952091520230915302F90147
:1009F000E65BFF4F90819F73823061F0833081F01E
:100A0000813011F090830895F901E65BFF4F906407
:100A100090830895F901E65BFF4F906890830895F5
:100A2000F901E65BFF4F906C90830895209152028C
:100A300030915302F901E65BFF4F90819F7C823039
:100A400061F0833081F0813011F090830895F901D5
:100A5000E65BFF4F906190830895F901E65BFF4FDD
:100A6000906290830895F901E65BFF4F9063908355
:100A70000895CF93DF93E8E3F2E0C28DD38DCE5A91
:100A8000DF4F02ACF3ADE02D099599838883DF91A8
:100A9000CF910895CF93DF93E8E3F2E0C28DD38D39
:100AA000CC5ADF4F02ACF3ADE02D099599838883D2
:100AB000DF91CF910895CF93DF93E8E3F2E0828D49
:100AC000938DDC01A55BBF4F2C91287F2C93EC010B
:100AD000C25BDF4F02ACF3ADE02D80E090E0099502
:100AE0009983888310927C01DF91CF910895AC01A6
:100AF00080917B01811160C020915A0230915B028C
:100B0000F901E458FF4F8FEF808332979081987FEF
:100B100090834034510549F150F448305105C9F0F3
:100B200040325105E1F041305105B9F50CC0411595
:100B300081E0580731F1411584E0580741F1403810
:100B4000510559F518C0F901E658FF4F916090839F
:100B500029C0F901E658FF4F9260908323C0F90144
:100B6000E658FF4F936090831DC0F901E658FF4F90
:100B70009460908317C0F901E658FF4F9560908309
:100B800011C0F901E658FF4F966090830BC0F90140
:100B9000E658FF4F9760908305C0F901E658FF4F74
:100BA00097609083E0914002F091410281A18068BA
:100BB00081A381E080937B01089520915A023091B6
:100BC0005B02F901E758FF4F90819F73823061F01B
:100BD000833081F0813011F090830895F901E75856
:100BE000FF4F906490830895F901E758FF4F906894
:100BF00090830895F901E758FF4F906C9083089512
:100C000020915A0230915B02F901E758FF4F908121
:100C10009F7C823061F0833081F0813011F09083CD
:100C20000895F901E758FF4F906190830895F90105
:100C3000E758FF4F906290830895F901E758FF4FFE
:100C4000906390830895E0915A02F0915B02E4581A
:100C5000FF4F80830895E0915A02F0915B02E358C0
:100C6000FF4F8083089580915A0290915B02FC01AE
:100C7000E658FF4F2081287F208331961082109202
:100C80007B010895EF92FF920F931F93CF93DF9311
:100C9000CDB7DEB7EE970FB6F894DEBF0FBECDBF6F
:100CA0008C01E62EF42ECE0101960E9417038EE3EE
:100CB000FE013196A8E3B2E001900D928A95E1F72A
:100CC00010927D01E8E3F2E0A68DB78D1F968C911E
:100CD0001F978C7F1F968C93068CF78DE02D808953
:100CE000877F808B83E0E81601F18E1538F0E1E014
:100CF000EE1659F0F2E0EF1681F040C085E0E816FC
:100D0000E1F0E7E0EE1651F139C0E0915602F091C2
:100D1000570287858160878731C0E0915602F09144
:100D2000570287858260878729C0E0915602F0913B
:100D3000570287858360878721C0E8E3F2E0A68DAC
:100D4000B78D1F968C911F9781601F968C93068C90
:100D5000F78DE02D80898860808B10C0E8E3F2E099
:100D6000A68DB78D1F968C911F9783601F968C93CD
:100D7000068CF78DE02D80898860808BA0915602CB
:100D8000B0915702D9968C91D997887F4F2D50E01A
:100D9000FA013197E730F10520F4EC5CFF4F0C9439
:100DA0001610D9968C931BC08160D9968C9317C06E
:100DB0008260D9968C9313C08460D9968C930FC0AF
:100DC0008360D9968C930BC08560D9968C9307C0AD
:100DD0008760D9968C9303C08660D9968C9388E0FF
:100DE00094E0F801918380838DE294E09383828381
:100DF00082E594E09583848388E594E097838683F5
:100E000082E993E0918780878EE594E093878287DB
:100E1000C801EE960FB6F894DEBF0FBECDBFDF91CE
:100E2000CF911F910F91FF90EF900895EF92FF9255
:100E30000F931F93CF93DF93CDB7DEB7EE970FB627
:100E4000F894DEBF0FBECDBF7C01062F142FCE015C
:100E500001960E9417038EE3FE013196A8E3B2E0EB
:100E600001900D928A95E1F710927C012091520237
:100E700030915302F901E65BFF4F50815C7F508354
:100E800031964081477E4083802F90E0FC0131976E
:100E9000EF30F10508F078C0E55CFF4F0C941610B8
:100EA000F901E65BFF4F516050836EC0F901E65BCC
:100EB000FF4F5260508368C0F901E65BFF4F5360FB
:100EC000508362C0F901E55BFF4F486040835CC01E
:100ED000F901E65BFF4F51605083319648604083D3
:100EE00053C0F901E65BFF4F526050833196486072
:100EF00040834AC0F901E65BFF4F5360508331964F
:100F00004860408341C0F901E55BFF4F4061408389
:100F10003BC0F901E65BFF4F516050833196406161
:100F2000408332C0F901E65BFF4F52605083319637
:100F30004061408329C0F901E65BFF4F5360508355
:100F400031964061408320C0F901E55BFF4F486165
:100F500040831AC0F901E65BFF4F51605083319620
:100F60004861408311C0F901E65BFF4F5260508336
:100F700031964861408308C0F901E65BFF4F53603A
:100F80005083319648614083F901E65BFF4F8081D1
:100F90008F708083F90181AD887D412F50E0FA0187
:100FA0003197EB30F10520F4E65BFF4F0C941610FF
:100FB000F90181AF2BC08160F90181AF27C0826048
:100FC000F90181AF23C08460F90181AF1FC0806245
:100FD000F90181AF1BC08660F90181AF17C0836042
:100FE000F90181AF13C08560F90181AF0FC0816243
:100FF000F90181AF0BC08760F90181AF07C087623B
:10100000F90181AF03C08660F90181AF83EF94E0FD
:10101000F7019183808386E195E09383828389E35E
:1010200095E0958384838AE495E0978386838FE6B1
:1010300094E0918780878BE595E093878287C7014D
:10104000EE960FB6F894DEBF0FBECDBFDF91CF9105
:101050001F910F91FF90EF900895EF92FF920F93E1
:101060001F93CF93DF93CDB7DEB7EE970FB6F8940B
:10107000DEBF0FBECDBF8C01E62EF42ECE01019651
:101080000E9417038EE3FE013196A8E3B2E00190BF
:101090000D928A95E1F710927B01E0915A02F0914E
:1010A0005B02DF01A758BF4F8C918C7F8C93119608
:1010B0009C91977F9C9323E0E216E1F02E1538F087
:1010C00091E0E91659F022E0E21671F02AC025E01D
:1010D000E216B1F027E0E216E1F023C0DF01A758E5
:1010E000BF4F81608C931DC0DF01A758BF4F826046
:1010F0008C9317C0DF01A758BF4F83608C9311C03A
:10110000DF01A758BF4F81608C93119698609C9324
:1011100008C0DF01A758BF4F83608C931196986079
:101120009C9381AD887F93E0F916C9F09F1538F044
:1011300021E0F21671F092E0F91671F008C025E096
:10114000F21699F0F21670F096E0F91689F081AF78
:1011500011C0816081AF0EC0826081AF0BC083601F
:1011600081AF08C0856081AF05C0866081AF02C0D5
:10117000876081AF8DED95E0F8019183808380E0F9
:1011800096E09383828383E296E0958384838BE267
:1011900096E09783868387E795E09187808783E34E
:1011A00096E093878287C801EE960FB6F894DEBF6B
:1011B0000FBECDBFDF91CF911F910F91FF90EF90A8
:1011C0000895E0919C02F0919D028181887F0895AD
:1011D000E0919C02F0919D0284E9848381E28A95EA
:1011E000F1F700000895CF93DF9318161CF4880FD1
:1011F000816001C081E0E6E7F2E0A6A1B7A1129606
:101200008C93A689B78911968C911197806311965A
:101210008C930688F789E02D828180638283643015
:1012200089F018F4613031F025C0603199F06034F4
:10123000C9F020C0E0919C02F0919D0281818C7FD9
:10124000818320C0E0919C02F0919D0281818160A8
:10125000818318C0E0919C02F0919D02818182609F
:10126000818310C0E0919C02F0919D028181836096
:10127000818308C0E0919C02F0919D0281818C7F66
:10128000818361E0C0919C02D0919D02262F30E0C5
:10129000220F331F032E000C440B550B6AEF7FEF18
:1012A0008FEF9FEF0E94F40F2883DF91CF91089575
:1012B000BF92CF92DF92EF92FF920F931F93CF9343
:1012C000DF93CDB7DEB7EE970FB6F894DEBF0FBE53
:1012D000CDBF8C01E62EB42ECE0101960E941703DD
:1012E0008EE3FE013196A6E7B2E001900D928A9559
:1012F000E1F70F2EF6E7CF2EF2E0DF2EF02DD6012C
:101300001896ED91FC911997F1A08F2D8F7781A3FD
:101310006B2D8E2D0E94F308D6011896ED91FC914D
:101320001997F1A28CEC99E0F801918380838DEDFF
:1013300099E0938382838BEF99E09583848381E1A5
:101340009AE09783868388EE98E09187808781EE84
:1013500098E093878287C801EE960FB6F894DEBFB7
:101360000FBECDBFDF91CF911F910F91FF90EF90F6
:10137000DF90CF90BF900895E0919C02F0919D0284
:101380002481222344F021E030E08217930718F0F3
:101390002F5F3F4FFACF0895E0919C02F0919D029C
:1013A00084EA84838FEF93E00E94BC090E94E108E5
:1013B000883011F00E94E8080895662319F0880F1C
:1013C000816001C0880FE6E7F2E0A6A1B7A11396FD
:1013D0008C9306A0F7A1E02D84E884838FEF93E03F
:1013E0000E94BC090E94E108883121F0803411F08C
:1013F0000E94E8080895E6E7F2E0A6A1B7A11396D7
:101400008C9306A0F7A1E02D84E884838FEF93E00E
:101410000E94BC090E94E108883211F00E94E8088D
:101420000895882311F080E401C080E0E0919C02DF
:10143000F0919D02846884838FEF93E00E94BC0941
:101440000E94E108883311F40E94E808E0919C02B0
:10145000F0919D0283810895E091BD02F091BE025A
:1014600085EB92E009950895E091BF02F091C002EA
:1014700085EB92E0099508958091FF021092FF029A
:10148000E9EFF0E03197F1F700C0000008950E9405
:101490003C0A0895E1ECF2E0A2A5B3A516968C9360
:1014A00002A4F3A5E02D81818062818389EF90E021
:1014B0000197F1F700C0000008950E944A0A0895BC
:1014C000CF93DF93EC018881882331F021960E942D
:1014D0004A0A89918111FBCFDF91CF9108953F9204
:1014E0004F925F926F927F928F929F92AF92BF9234
:1014F000CF92DF92EF92FF920F931F93CF93DF93E0
:10150000CDB7DEB7EE970FB6F894DEBF0FBECDBFF6
:101510007C015B016A0129013801E091C902F09167
:10152000CA0231A0832D8F7781A3CE0101960E943C
:1015300017038EE3FE013196A1ECB2E001900D920B
:101540008A95E1F740E053E060E1CE0101960E9408
:10155000870C8CE0FE013196A5EBB2E001900D9274
:101560008A95E1F7BB204CF4E091EB02F091EC029C
:1015700082E08083C5019F7701C0C50101EC12E0C4
:10158000D8019A968D909C909B97D896ED91FC915E
:10159000D9970995F40195838483D8019A96ED91A2
:1015A000FC919B9788E98183B7E0CB16D104D9F1F0
:1015B00058F4F5E0CF16D10409F46BC086E0C816E4
:1015C000D10409F44BC078C0A8E0CA16D104C1F018
:1015D000B9E0CB16D10409F06FC0E1ECF2E0A2A5AE
:1015E000B3A511968C911197846011968C9302A4E7
:1015F000F3A5E02D82818660828369E070E06EC091
:10160000E1ECF2E0A2A5B3A511968C9111978B7F26
:1016100011968C9302A4F3A5E02D828186608283CB
:1016200068E070E05BC0E1ECF2E0A2A5B3A5119622
:101630008C9111978B7F11968C93A2A5B3A51296CE
:101640008C911297846012968C9302A4F3A5E02DDE
:1016500082818D7F828367E070E040C0E1ECF2E040
:10166000A2A5B3A511968C9111978B7F11968C939F
:10167000A2A5B3A512968C9112978B7F12968C938C
:1016800002A4F3A5E02D82818260828366E070E08F
:1016900025C0E1ECF2E0A2A5B3A511968C911197BB
:1016A0008B7F11968C9302A4F3A5E02D8281897F14
:1016B000828365E070E012C0E1ECF2E0A2A5B3A580
:1016C00011968C9111978B7F11968C9302A4F3A5A0
:1016D000E02D82818660828368E070E0E1E04E1652
:1016E000510429F0F2E04F16510459F014C0E09172
:1016F000EB02F091EC028281877F828341E050E02F
:1017000013C0E091EB02F091EC0282818860828349
:1017100042E050E009C0E091EB02F091EC028281DE
:10172000877F828341E050E082E06816710481F097
:10173000A3E06A167104F9F0672839F5E091EB022D
:10174000F091EC0282818F7C828320E030E026C021
:10175000E1ECF2E0A2A5B3A512968C9112978062FB
:1017600012968C9302A4F3A5E02D82818F7E828352
:1017700022E030E013C0E091EB02F091EC028281B4
:101780008063828323E030E009C0E091EB02F091B6
:10179000EC0282818F7C828320E030E0E091C902FC
:1017A000F091CA02832D806881A3F701B182A082E3
:1017B0007383628355834483378326838CE39AE063
:1017C0009187808787E49AE0938782878CE29AE00A
:1017D0009587848784E39AE0978786878AE49AE0EE
:1017E000918B808B8DE59AE0938B828B80E69AE0DB
:1017F000958B848BC701EE960FB6F894DEBF0FBEB3
:10180000CDBFDF91CF911F910F91FF90EF90DF90AF
:10181000CF90BF90AF909F908F907F906F905F9090
:101820004F903F9008951F920F920FB60F92112480
:101830002F933F934F935F936F937F938F939F93D8
:10184000AF93BF93EF93FF93E091EB02F091EC0223
:10185000808188718093B40266816093FF02E09179
:10186000BB02F091BC0285EB92E00995FF91EF91EC
:10187000BF91AF919F918F917F916F915F914F91A8
:101880003F912F910F900FBE0F901F9018951F92B0
:101890000F920FB60F9211248F93EF93FF93E09165
:1018A000EB02F091EC0281818F7D8183FF91EF91BA
:1018B0008F910F900FBE0F901F9018956623C1F067
:1018C000DC011296ED91FC91139714962D913C91A9
:1018D0001597E217F30729F4ED91FC91DF011196BA
:1018E00002C0DF01119660831C92FC01B383A283C6
:1018F0000895FC01808191810895DC01ED91FC91B6
:1019000011971396FC93EE93129710820895FC01A1
:101910005183408353834283460F511D5583448333
:101920008EE59CE09783868389E79CE0918780879A
:101930008DE79CE093878287CF010895E0911103A2
:10194000F091120380818B7F8083E0911103F091ED
:10195000120380818460808308950F931F93CF9337
:10196000C82F8B01E0911103F091120380818D7FCC
:101970008083E0911A03F0911B0380818F60808344
:10198000672B41F0E0911103F09112038081816097
:10199000808307C0E0911103F091120380818E7F54
:1019A000808380E090E00E949E0CCC2344F4E09180
:1019B0001C03F0911D0380818860808307C0E09143
:1019C0001C03F0911D038081877F8083C6FF08C0C0
:1019D000E0911C03F0911D0380818460808307C027
:1019E000E0911C03F0911D0380818B7F8083C5FFF4
:1019F00008C0E0911C03F0911D0380818260808308
:101A000007C0E0911C03F0911D0380818D7F8083CE
:101A1000C4FF08C0E0911C03F0911D038081816028
:101A2000808307C0E0911C03F0911D0380818E7FAD
:101A30008083012B41F0E0911103F091120380812A
:101A40008160808307C0E0911103F09112038081CF
:101A50008E7F808380E090E00E949E0CC3FF08C0D0
:101A6000E0911C03F0911D0380818860808307C092
:101A7000E0911C03F0911D038081877F8083C2FF6A
:101A800008C0E0911C03F0911D0380818460808375
:101A900007C0E0911C03F0911D0380818B7F808340
:101AA000C1FF08C0E0911C03F0911D03808182609A
:101AB000808307C0E0911C03F0911D0380818D7F1E
:101AC0008083C0FF08C0E0911C03F0911D0380815A
:101AD0008160808307C0E0911C03F0911D03808129
:101AE0008E7F8083E0911103F091120380818B7FC0
:101AF0008083CF911F910F91089560E070E081E0A5
:101B00000E94AD0C8EE791E00197F1F70000089577
:101B10000F931F93CF938C01E0911A03F0911B0355
:101B20008081807F8083E0911C03F0911D03808180
:101B30008F608083E0911103F091120380818260B5
:101B400080830115110541F0E0911103F09112031A
:101B500080818160808307C0E0911103F0911203BE
:101B600080818E7F808380E090E00E949E0CE091D7
:101B70001503F0911603808183FD02C0C0E001C00F
:101B8000C0E8808182FF02C0C06401C0CF7B808139
:101B900081FF02C0C06201C0CF7D808180FF02C092
:101BA000C06101C0CF7E012B41F0E0911103F091A3
:101BB000120380818160808307C0E0911103F0915E
:101BC000120380818E7F808380E090E00E949E0CD3
:101BD000E0911503F0911603808183FF03C08C2FE1
:101BE000886002C08C2F877F908192FF02C0846042
:101BF00001C08B7F908191FF02C0826001C08D7F08
:101C0000908190FF02C0816001C08E7FE09111033E
:101C1000F091120390819B7F9083CF911F910F9140
:101C2000089580E090E00E94880D882354F480E0BD
:101C300090E00E94880D882324F480E090E00E94C8
:101C4000880D089561E070E00E94AD0C0E94110EB5
:101C50000895CF93DF93EC018881882331F021969A
:101C60000E94220E89918111FBCFDF91CF910895BF
:101C70000F931F93CF93DF93FC01D62F808188238E
:101C800051F08F010F5F1F4F611109C017C0CF5F67
:101C9000DC1730F401C0C0E0CD1750F00FC0C1E038
:101CA0000E94220EF80181918F018111F0CFF4CFB3
:101CB00080E20E94220ECF5FCD17D0F3DF91CF914B
:101CC0001F910F910895CF93C82F882329F080E2A8
:101CD0000E94220EC150D9F7CF910895262F81304E
:101CE000910581F030F082309105A9F00397E1F081
:101CF000089560E070E080E8820F0E94AD0C0E94C1
:101D0000110E089560E070E080EC820F0E94AD0C2F
:101D10000E94110E089560E070E084E9820F0E9435
:101D2000AD0C0E94110E089560E070E084ED820F0A
:101D30000E94AD0C0E94110E0895E0911303F091E2
:101D40001403808187608083E0911103F091120376
:101D50008081886080838FE097E20197F1F700C06F
:101D6000000060E070E088E30E94AD0C9DE09A9571
:101D7000F1F760E070E088E30E94AD0C8DE08A9599
:101D8000F1F760E070E088E30E94AD0C9DE09A9569
:101D9000F1F760E070E088E20E94AD0C8CE08A957B
:101DA000F1F7000060E070E088E20E94AD0C9CE07A
:101DB0009A95F1F7000060E070E088E20E94AD0CB7
:101DC0000E94110E60E070E088E20E94AD0C0E945B
:101DD000110E60E070E08CE00E94AD0C0E94110ECC
:101DE00060E070E08CE00E94AD0C0E94110E60E09B
:101DF00070E081E00E94AD0C0E94110E60E070E086
:101E000081E00E94AD0C0E94110E60E070E086E05F
:101E10000E94AD0C0E94110E60E070E086E00E940E
:101E2000AD0C0E94110E60E070E080E090E00E9436
:101E30006E0E0895CF92DF92EF92FF920F931F9351
:101E4000CF93DF93EC0170931403609313035093CB
:101E50001903409318033093120320931103109336
:101E60001B0300931A03F0921603E0921503D0921D
:101E70001D03C0921C03FB011082E0911103F0913D
:101E800012038FEF8083E0911A03F0911B031082FD
:101E9000E0911C03F0911D038083E0911803F09101
:101EA000190380818870809317030E949D0E8DEA2C
:101EB0009CE09983888388E89DE09B838A8381E105
:101EC0009EE09D838C8382E29EE09F838E838FE9D8
:101ED0009FE09987888789E29EE09B878A8788E3CD
:101EE0009EE09D878C8783E69EE09F878E878DE7A7
:101EF0009DE0998B888B8EE69EE09B8B8A8B8DE88C
:101F00009FE09D8B8C8BCE01DF91CF911F910F9124
:101F1000FF90EF90DF90CF900895CF93E09118035A
:101F2000F0911903C081C870809117038C278C230E
:101F300011F00E949D0EC0931703CF910895CF9387
:101F400081E090E00E94880DC82F0E94110E8C2F16
:101F5000CF910895CF93DF93CDB7DEB7AC970FB68F
:101F6000F894DEBF0FBECDBF0F2EF8E2CF2ED12CDE
:101F7000F02D0F2EF6E2EF2EF12CF02D07E210E0FF
:101F800025E230E043E250E064E270E0CE010196E9
:101F90000E941A0F00E010E021E030E048E050E03D
:101FA00067E670E0CE0147960E946F0A0BA51CA55C
:101FB000EB89FC8960E070E080E090E00995ED85B8
:101FC000FE8567E080E091E009954A99F1CFE9A5A7
:101FD000FAA58EE3099588E091E0F80109958DE274
:101FE00091E0F8010995E4CFA1E21A2EAA1BBB1BD0
:101FF000FD010DC0AA1FBB1FEE1FFF1FA217B307D5
:10200000E407F50720F0A21BB30BE40BF50B661FEA
:10201000771F881F991F1A9469F7609570958095AE
:1020200090959B01AC01BD01CF010895EE0FFF1FFC
:0C2030000590F491E02D0994F894FFCF86
:10203C0057656C636F6D650057656C636F6D6520DC
:10204C00746F207561727420636F6D207468726593
:10205C007720667464692021200D200A00414141DB
:10206C004141414141414141414141414141414154
:10207C0041414141414141414141412021200D20FB
:02208C000A0048
:00000001FF
