:100000000C9455000C9472000C9472000C947200C5
:100010000C9472000C9472000C9472000C94720098
:100020000C9472000C9472000C9472000C94720088
:100030000C9472000C9472000C9472000C94720078
:100040000C9472000C9472000C94DF0B0C94130C43
:100050000C9472000C94AD010C9472000C9472001C
:100060000C9472000C9472009E06A206A606AA06C4
:10007000AE06B206B6061A07200726072C07320777
:100080003B0744074D0753075C0765076E07740776
:100090007D078607A507A907AD07B107B507B9070B
:1000A000BD07C107C507C907CD0711241FBECFEF84
:1000B000D8E0DEBFCDBF11E0A0E0B1E0ECEDFFE1A4
:1000C00002C005900D92A235B107D9F722E0A2E552
:1000D000B1E001C01D92A03EB207E1F70E947A0F85
:1000E0000C94EC0F0C940000E0918201F0918301DC
:1000F000228126FD02C020642283FC01EE0FFF1F37
:10010000E559FE4F808191810895EF92FF920F9300
:100110001F93CF93DF93CDB7DEB7EE970FB6F8946A
:10012000DEBF0FBECDBF28960FAD289729961FAD15
:1001300029972B96EEACFFAC2B97CE0101960E942F
:10014000E1028EE3FE013196AEE7B1E001900D923F
:100150008A95E1F7EEE7F1E0A085B18591964C91A3
:100160009197842F8F7791968C93F0925A01E09219
:1001700059011092580110925701109252010480B7
:10018000F581E02D84818F738483013019F0033071
:1001900051F012C0E0918201F0918301848180646A
:1001A000848351E00AC0E0918201F091830184814F
:1001B000806C848353E001C050E0E0918201F091B3
:1001C000830184818F7D84831E141F0494F4DE01D7
:1001D000A55BBF4F80E090E02D913D91FC01EE0FBB
:1001E000FF1FE55AFE4F318320830196E816F9067A
:1001F00099F7EEE7F1E0A481B58114968C911497FC
:10020000807F14968C93A0915701B0915801AA0F4A
:10021000BB1FA55ABE4F8D919C91A481B5818F7053
:10022000992714969C911497892B14968C93A481EA
:10023000B58112968C911297806812968C93A48146
:10024000B58112968C911297806412968C93A4813A
:10025000B58112968C9112978F7D12968C93A48102
:10026000B58113968C911397887F13968C93A481F4
:10027000B58112968C911297886012968C930480A7
:10028000F581E02D8281887F8283103109F138F475
:10029000143061F0183099F01230F1F546C0103486
:1002A00049F1103881F11032B9F51BC0E09182019B
:1002B000F091830182818260828324E037C0E091E3
:1002C0008201F091830182818360828328E02EC0C5
:1002D000E0918201F091830182818460828320E138
:1002E00025C0E0918201F091830182818560828343
:1002F00020E21CC0E0918201F0918301828186603E
:10030000828320E413C0E0918201F0918301828115
:100310008760828320E80AC0E0918201F091830126
:1003200082818760828320E801C022E0E09186011B
:10033000F0918701406841A3652F722F84E790E018
:10034000EE960FB6F894DEBF0FBECDBFDF91CF9112
:100350001F910F91FF90EF9008951F920F920FB68B
:100360000F9211242F933F938F939F93AF93BF933B
:10037000EF93FF938091780090E0909354018093E5
:100380005301209179008091530190915401922B57
:100390009093540180935301809152018430A0F4D2
:1003A000809152018F5F80935201209153013091CF
:1003B00054018091550190915601820F931F9093A3
:1003C0005601809355014DC0E0915701F0915801BD
:1003D00080915501909156019595879595958795B2
:1003E000EE0FFF1FE559FE4F918380831092560157
:1003F00010925501109252012091570130915801ED
:100400008091590190915A012817390754F480912D
:10041000570190915801019690935801809357018C
:1004200004C01092580110925701AEE7B1E0149643
:10043000ED91FC9115978481807F8483E091570131
:10044000F0915801EE0FFF1FE55AFE4F8081918118
:100450001496ED91FC9115978F7099279481892BB3
:100460008483FF91EF91BF91AF919F918F913F91C5
:100470002F910F900FBE0F901F90189584B78F701B
:10048000823071F018F4813031F019C0843069F095
:10049000883081F014C084B78E7F84BF80E00895D7
:1004A00084B78D7F84BF81E0089584B78B7F84BF3C
:1004B00082E0089584B7877F84BF83E0089584B77E
:1004C000807F84BF80E00895882319F08130C9F0CF
:1004D00030C0E898E9E6F0E080818C7F808362306C
:1004E00019F0633039F00BC0E9E6F0E080818260FA
:1004F000808305C0E9E6F0E0808183608083E89A2C
:100500000895E998E9E6F0E08081837F8083623096
:1005100019F0633039F00BC0E9E6F0E080818860C3
:10052000808305C0E9E6F0E080818C608083E99AF1
:1005300008951DBA0895882319F0813019F004C078
:10054000E8980895E99808951DBA0895CF93DF9328
:1005500000D000D000D0CDB7DEB71DBA24E632E01F
:100560003A8329834BE952E05C834B836EE372E06C
:100570007E836D833A815C817E8180E090E0269667
:100580000FB6F894DEBF0FBECDBFDF91CF910895B7
:10059000292F30E0322F2227A901482BCA010895C4
:1005A000282F30E0322F2227A901492BCA010895B4
:1005B0000895282F892F922F089598278927982703
:1005C0000895ECEBF1E01182108220E530E03383F6
:1005D000228328E730E03583248325E830E0378321
:1005E00026832EE330E0318720872FE330E0338706
:1005F00022872BE330E03787268726EA32E0318BEB
:10060000208B23E230E0338B228B26E230E0358BE7
:10061000248B29E230E0378B268B2CE430E0318FBD
:10062000208F26E330E0338F228F20EE36E0358FA7
:10063000248F25E330E0378F268F2CE036E031A37E
:1006400020A327E330E033A322A327EF37E035A32D
:1006500024A328EB30E037A326A324E239E031A716
:1006600020A720EC30E033A722A72BE33AE035A700
:1006700024A720E630E037A726A720E031E031AB01
:1006800020AB28EC32E035AB24AB20ED32E037ABC9
:1006900026AB28ED32E031AF20AF29ED32E033AFA9
:1006A00022AF2DED32E035AF24AF2EE3DC01019017
:1006B0000D922A95E1F7089520917D01211171C0D5
:1006C000EAEFF1E0A68DB78D2FEF52962C93068CB2
:1006D000F78DE02D2089287F208B8830910501F14E
:1006E00058F483309105E1F18530910509F440C05B
:1006F000019709F045C00CC0811521E0920701F176
:10070000811524E0920721F180349105C9F510C0CC
:10071000E0911802F091190280898160808B37C0C6
:10072000E0911802F091190280898260808B2FC0BD
:10073000E0911802F091190280898360808B27C0B4
:10074000E0911802F091190280898460808B1FC0AB
:10075000E0911802F091190280898560808B17C0A2
:10076000E0911802F091190280898660808B0FC099
:10077000E0911802F091190280898760808B07C090
:10078000E0911802F091190280898560808BE091D8
:100790000202F091030281A1806881A381E080932D
:1007A0007D010895E0911802F091190297859F73D9
:1007B0009787823061F0833091F08130B9F4E09115
:1007C0001802F09119028785806487870895E09167
:1007D0001802F09119028785806887870895E09153
:1007E0001802F09119028785806C87870895E0913F
:1007F0001802F091190297859F7C9787823061F0EB
:10080000833091F08130B9F4E0911802F09119022F
:100810008785806187870895E0911802F091190219
:100820008785806287870895E0911802F091190208
:100830008785806387870895E0911802F0911902F7
:10084000828B0895E0911802F0911902838B08952C
:10085000EAEFF1E0A68DB78D50968C915097887F86
:1008600050968C93068CF78DE02D118A10927D01A5
:100870000895EF92FF920F931F93CF93DF93EC01B4
:1008800090917C01911172C00AEF11E0D8015A9643
:10089000ED90FC905B97B2E5EB0EF11CD801DA9677
:1008A000ED91FC91DB978FEF9FEF0995F701918315
:1008B0008083D8015A962D913C915B97F901E55BB5
:1008C000FF4F8081887F8083C830D105E1F048F4F4
:1008D000C330D10581F1C530D10599F12197B9F522
:1008E0000CC0C115B1E0DB07D1F0C115E4E0DE07B3
:1008F000E1F0C034D10559F50CC0F901E55BFF4FBB
:100900008160808329C0F901E55BFF4F82608083AD
:1009100023C0F901E55BFF4F836080831DC0F901AF
:10092000E55BFF4F8460808317C0F901E55BFF4FF3
:100930008560808311C0F901E55BFF4F866080838D
:100940000BC0F901E55BFF4F8760808305C0F901AB
:10095000E55BFF4F85608083E0910202F091030226
:1009600081A1806881A381E080937C01DF91CF9198
:100970001F910F91FF90EF900895209114023091F4
:100980001502F901E65BFF4F90819F73823061F0A1
:10099000833081F0813011F090830895F901E65B96
:1009A000FF4F906490830895F901E65BFF4F9068D4
:1009B00090830895F901E65BFF4F906C9083089552
:1009C0002091140230911502F901E65BFF4F9081EE
:1009D0009F7C823061F0833081F0813011F0908310
:1009E0000895F901E65BFF4F906190830895F90146
:1009F000E65BFF4F906290830895F901E65BFF4F3D
:100A0000906390830895CF93DF93EAEFF1E0C28D76
:100A1000D38DCE5ADF4F02ACF3ADE02D099599830B
:100A20008883DF91CF910895CF93DF93EAEFF1E0D0
:100A3000C28DD38DCC5ADF4F02ACF3ADE02D0995BA
:100A400099838883DF91CF910895CF93DF93EAEF65
:100A5000F1E0828D938DDC01A55BBF4F2C91287F47
:100A60002C93EC01C25BDF4F02ACF3ADE02D80E0D4
:100A700090E009959983888310927C01DF91CF9152
:100A80000895AC0180917B01811160C020911C020E
:100A900030911D02F901E458FF4F8FEF80833297A8
:100AA0009081987F90834034510549F150F448304B
:100AB0005105C9F040325105E1F041305105B9F519
:100AC0000CC0411581E0580731F1411584E0580709
:100AD00041F14038510559F518C0F901E658FF4F6A
:100AE0009160908329C0F901E658FF4F926090838E
:100AF00023C0F901E658FF4F936090831DC0F901B0
:100B0000E658FF4F9460908317C0F901E658FF4FF5
:100B10009560908311C0F901E658FF4F966090836D
:100B20000BC0F901E658FF4F9760908305C0F901AB
:100B3000E658FF4F97609083E0910202F091030224
:100B400081A1806881A381E080937B010895209139
:100B50001C0230911D02F901E758FF4F90819F73ED
:100B6000823061F0833081F0813011F090830895FC
:100B7000F901E758FF4F906490830895F901E75811
:100B8000FF4F906890830895F901E758FF4F906CEC
:100B90009083089520911C0230911D02F901E758BD
:100BA000FF4F90819F7C823061F0833081F08130F3
:100BB00011F090830895F901E758FF4F90619083F9
:100BC0000895F901E758FF4F906290830895F90165
:100BD000E758FF4F906390830895E0911C02F091D5
:100BE0001D02E458FF4F80830895E0911C02F091AC
:100BF0001D02E358FF4F8083089580911C0290915D
:100C00001D02FC01E658FF4F2081287F208331968A
:100C1000108210927B010895EF92FF920F931F9321
:100C2000CF93DF93CDB7DEB7EE970FB6F894DEBF64
:100C30000FBECDBF8C01E62EF42ECE0101960E9490
:100C4000E1028EE3FE013196AAEFB1E001900D9230
:100C50008A95E1F710927D01EAEFF1E0A68DB78D5C
:100C60001F968C911F978C7F1F968C93068CF78D07
:100C7000E02D8089877F808B83E0E81601F18E1557
:100C800038F0E1E0EE1659F0F2E0EF1681F040C0E6
:100C900085E0E816E1F0E7E0EE1651F139C0E091A9
:100CA0001802F091190287858160878731C0E09131
:100CB0001802F091190287858260878729C0E09128
:100CC0001802F091190287858360878721C0EAEFB7
:100CD000F1E0A68DB78D1F968C911F9781601F96AE
:100CE0008C93068CF78DE02D80898860808B10C0F6
:100CF000EAEFF1E0A68DB78D1F968C911F97836068
:100D00001F968C93068CF78DE02D80898860808BF0
:100D1000A0911802B0911902D9968C91D997887F29
:100D20004F2D50E0FA013197E730F10520F4EC5CEB
:100D3000FF4F0C94E60FD9968C931BC08160D99617
:100D40008C9317C08260D9968C9313C08460D99617
:100D50008C930FC08360D9968C930BC08560D99615
:100D60008C9307C08760D9968C9303C08660D99610
:100D70008C9382ED93E0F8019183808387EF93E079
:100D8000938382838CE194E09583848382E294E070
:100D9000978386838CE593E09187808788E294E04F
:100DA00093878287C801EE960FB6F894DEBF0FBE18
:100DB000CDBFDF91CF911F910F91FF90EF900895DC
:100DC000EF92FF920F931F93CF93DF93CDB7DEB7D0
:100DD000EE970FB6F894DEBF0FBECDBF7C01062F95
:100DE000142FCE0101960E94E1028EE3FE0131969E
:100DF000AAEFB1E001900D928A95E1F710927C0183
:100E00002091140230911502F901E65BFF4F5081E9
:100E10005C7F508331964081477E4083802F90E0F5
:100E2000FC013197EF30F10508F078C0E55CFF4F29
:100E30000C94E60FF901E65BFF4F516050836EC0E2
:100E4000F901E65BFF4F5260508368C0F901E65B31
:100E5000FF4F5360508362C0F901E55BFF4F48606C
:100E600040835CC0F901E65BFF4F516050833196CF
:100E70004860408353C0F901E65BFF4F52605083E6
:100E80003196486040834AC0F901E65BFF4F5360EA
:100E9000508331964860408341C0F901E55BFF4FC4
:100EA000406140833BC0F901E65BFF4F51605083D6
:100EB00031964061408332C0F901E65BFF4F5260DA
:100EC000508331964061408329C0F901E65BFF4FB2
:100ED0005360508331964061408320C0F901E55B47
:100EE000FF4F486140831AC0F901E65BFF4F516034
:100EF000508331964861408311C0F901E65BFF4F92
:100F00005260508331964861408308C0F901E65B26
:100F1000FF4F53605083319648614083F901E65B8F
:100F2000FF4F80818F708083F90181AD887D412FD3
:100F300050E0FA013197EB30F10520F4E65BFF4F0A
:100F40000C94E60FF90181AF2BC08160F90181AFEC
:100F500027C08260F90181AF23C08460F90181AFAD
:100F60001FC08062F90181AF1BC08660F90181AFAB
:100F700017C08360F90181AF13C08560F90181AFAB
:100F80000FC08162F90181AF0BC08760F90181AFA9
:100F900007C08762F90181AF03C08660F90181AFA4
:100FA0008DEB94E0F7019183808380EE94E093834E
:100FB000828383E095E09583848384E195E0978341
:100FC000868389E394E09187808785E295E0938723
:100FD0008287C701EE960FB6F894DEBF0FBECDBF75
:100FE000DF91CF911F910F91FF90EF900895EF92B5
:100FF000FF920F931F93CF93DF93CDB7DEB7EE979A
:101000000FB6F894DEBF0FBECDBF8C01E62EF42ED6
:10101000CE0101960E94E1028EE3FE013196AAEF15
:10102000B1E001900D928A95E1F710927B01E09179
:101030001C02F0911D02DF01A758BF4F8C918C7FDD
:101040008C9311969C91977F9C9323E0E216E1F09C
:101050002E1538F091E0E91659F022E0E21671F011
:101060002AC025E0E216B1F027E0E216E1F023C045
:10107000DF01A758BF4F81608C931DC0DF01A758C7
:10108000BF4F82608C9317C0DF01A758BF4F8360AA
:101090008C9311C0DF01A758BF4F81608C931196CC
:1010A00098609C9308C0DF01A758BF4F83608C9362
:1010B000119698609C9381AD887F93E0F916C9F0F2
:1010C0009F1538F021E0F21671F092E0F91671F0F8
:1010D00008C025E0F21699F0F21670F096E0F916C5
:1010E00089F081AF11C0816081AF0EC0826081AF95
:1010F0000BC0836081AF08C0856081AF05C086608A
:1011000081AF02C0876081AF87EA95E0F8019183E3
:1011100080838AEC95E0938382838DEE95E09583BE
:10112000848385EF95E09783868381E495E09187BA
:1011300080878DEF95E093878287C801EE960FB682
:10114000F894DEBF0FBECDBFDF91CF911F910F91FD
:10115000FF90EF900895E0915E02F0915F0281812F
:10116000887F0895E0915E02F0915F0284E98483B4
:1011700087EC90E00197F1F700C000000895CF934D
:10118000DF9318161CF4880F816001C081E0E8E34A
:10119000F2E0A6A1B7A112968C93A689B789119601
:1011A0008C911197806311968C930688F789E02DB6
:1011B000828180638283643089F018F4613031F079
:1011C00025C0603199F06034C9F020C0E0915E0222
:1011D000F0915F0281818C7F818320C0E0915E026B
:1011E000F0915F0281818160818318C0E0915E028D
:1011F000F0915F0281818260818310C0E0915E0284
:10120000F0915F0281818360818308C0E0915E027A
:10121000F0915F0281818C7F818361E0C0915E02E9
:10122000D0915F02262F30E0220F331F032E000CD7
:10123000440B550B60E470E080E090E00E94C40F26
:101240002883DF91CF910895BF92CF92DF92EF92E2
:10125000FF920F931F93CF93DF93CDB7DEB7EE9737
:101260000FB6F894DEBF0FBECDBF8C01E62EB42EB4
:10127000CE0101960E94E1028EE3FE013196A8E3C1
:10128000B2E001900D928A95E1F70F2EF8E3CF2E90
:10129000F2E0DF2EF02DD6011896ED91FC91199712
:1012A000F1A08F2D8F7781A36B2D8E2D0E94BF080B
:1012B000D6011896ED91FC911997F1A288E999E071
:1012C000F8019183808389EA99E09383828387EC94
:1012D00099E0958384838DED99E09783868382EBF3
:1012E00098E0918780878BEA98E093878287C8018E
:1012F000EE960FB6F894DEBF0FBECDBFDF91CF9153
:101300001F910F91FF90EF90DF90CF90BF900895C5
:10131000E0915E02F0915F022481222344F021E0FB
:1013200030E08217930718F02F5F3F4FFACF0895F0
:10133000E0915E02F0915F0284EA84838FEF93E094
:101340000E9488090E94AB08883011F00E94B20800
:101350000895662319F0880F816001C0880FE8E3C3
:10136000F2E0A6A1B7A113968C9306A0F7A1E02DF9
:1013700084E884838FEF93E00E9488090E94AB0881
:10138000883121F0803411F00E94B2080895E8E31A
:10139000F2E0A6A1B7A113968C9306A0F7A1E02DC9
:1013A00084E884838FEF93E00E9488090E94AB0851
:1013B000883211F00E94B2080895882311F080E469
:1013C00001C080E0E0915E02F0915F028468848356
:1013D0008FEF93E00E9488090E94AB08883311F4D4
:1013E0000E94B208E0915E02F0915F02838108954D
:1013F000E0917F02F091800287E792E009950895DD
:10140000E0918102F091820287E792E009950895C8
:101410008091C1021092C102EFECF7E03197F1F731
:1014200000C0000008950E94080A0895E3E8F2E071
:10143000A2A5B3A516968C9302A4F3A5E02D8181F5
:10144000806281838FEC97E00197F1F700C0000084
:1014500008950E94160A0895CF93DF93EC018881C6
:10146000882331F021960E94160A89918111FBCFC1
:10147000DF91CF9108953F924F925F926F927F924A
:101480008F929F92AF92BF92CF92DF92EF92FF9294
:101490000F931F93CF93DF93CDB7DEB7EE970FB6C1
:1014A000F894DEBF0FBECDBF7C015B016A0129014C
:1014B0003801E0918B02F0918C0231A0832D8F775F
:1014C00081A3CE0101960E94E1028EE3FE013196D6
:1014D000A3E8B2E001900D928A95E1F742EC52E068
:1014E00060E1CE0101960E94530C8CE0FE01319622
:1014F000A7E7B2E001900D928A95E1F7BB204CF48A
:10150000E091AD02F091AE0282E08083C5019F7749
:1015100001C0C50103E812E0D8019A968D909C9015
:101520009B97D896ED91FC91D9970995F4019583F5
:101530008483D8019A96ED91FC919B9788E98183E9
:10154000B7E0CB16D104D9F158F4F5E0CF16D104A9
:1015500009F46BC086E0C816D10409F44BC078C00A
:10156000A8E0CA16D104C1F0B9E0CB16D10409F045
:101570006FC0E3E8F2E0A2A5B3A511968C91119794
:10158000846011968C9302A4F3A5E02D828186607D
:10159000828369E070E06EC0E3E8F2E0A2A5B3A543
:1015A00011968C9111978B7F11968C9302A4F3A5C1
:1015B000E02D82818660828368E070E05BC0E3E8B2
:1015C000F2E0A2A5B3A511968C9111978B7F11968D
:1015D0008C93A2A5B3A512968C9112978460129653
:1015E0008C9302A4F3A5E02D82818D7F828367E036
:1015F00070E040C0E3E8F2E0A2A5B3A511968C919B
:1016000011978B7F11968C93A2A5B3A512968C91FE
:1016100012978B7F12968C9302A4F3A5E02D828102
:101620008260828366E070E025C0E3E8F2E0A2A574
:10163000B3A511968C9111978B7F11968C9302A470
:10164000F3A5E02D8281897F828365E070E012C07E
:10165000E3E8F2E0A2A5B3A511968C9111978B7FD8
:1016600011968C9302A4F3A5E02D8281866082837B
:1016700068E070E0E1E04E16510429F0F2E04F1608
:10168000510459F014C0E091AD02F091AE02828194
:10169000877F828341E050E013C0E091AD02F0917A
:1016A000AE0282818860828342E050E009C0E0910E
:1016B000AD02F091AE028281877F828341E050E0EB
:1016C00082E06816710481F0A3E06A167104F9F0F3
:1016D000672839F5E091AD02F091AE0282818F7CEE
:1016E000828320E030E026C0E3E8F2E0A2A5B3A5C3
:1016F00012968C911297806212968C9302A4F3A595
:10170000E02D82818F7E828322E030E013C0E09161
:10171000AD02F091AE0282818063828323E030E0EB
:1017200009C0E091AD02F091AE0282818F7C82838C
:1017300020E030E0E0918B02F0918C02832D8068F4
:1017400081A3F701B182A0827383628355834483AE
:101750003783268388E09AE09187808783E19AE047
:101760009387828788EF99E09587848780E09AE065
:101770009787868786E19AE0918B808B89E29AE051
:10178000938B828B8CE29AE0958B848BC701EE96CB
:101790000FB6F894DEBF0FBECDBFDF91CF911F9182
:1017A0000F91FF90EF90DF90CF90BF90AF909F9000
:1017B0008F907F906F905F904F903F9008951F9211
:1017C0000F920FB60F9211242F933F934F935F9375
:1017D0006F937F938F939F93AF93BF93EF93FF93F9
:1017E000E091AD02F091AE02808188718093760223
:1017F00066816093C102E0917D02F0917E0287E7ED
:1018000092E00995FF91EF91BF91AF919F918F91D8
:101810007F916F915F914F913F912F910F900FBEEC
:101820000F901F9018951F920F920FB60F921124D0
:101830008F93EF93FF93E091AD02F091AE0281811F
:101840008F7D8183FF91EF918F910F900FBE0F904D
:101850001F9018956623C1F0DC011296ED91FC9162
:10186000139714962D913C911597E217F30729F4DD
:10187000ED91FC91DF01119602C0DF0111966083AA
:101880001C92FC01B383A2830895FC0180819181A5
:101890000895DC01ED91FC9111971396FC93EE9362
:1018A000129710820895FC01518340835383428331
:1018B000460F511D558344838AE29CE097838683BB
:1018C00085E49CE09187808789E49CE09387828708
:1018D000CF010895E091D302F091D40280818B7FF3
:1018E0008083E091D302F091D40280818460808370
:1018F00008950F931F93CF93C82F8B01E091D302CC
:10190000F091D40280818D7F8083E091DC02F091A0
:10191000DD0280818F608083672B41F0E091D302EC
:10192000F091D40280818160808307C0E091D3026E
:10193000F091D40280818E7F808380E090E00E94CD
:101940006A0CCC2344F4E091DE02F091DF02808146
:101950008860808307C0E091DE02F091DF02808121
:10196000877F8083C6FF08C0E091DE02F091DF022E
:1019700080818460808307C0E091DE02F091DF0205
:1019800080818B7F8083C5FF08C0E091DE02F091EB
:10199000DF0280818260808307C0E091DE02F091E7
:1019A000DF0280818D7F8083C4FF08C0E091DE026A
:1019B000F091DF0280818160808307C0E091DE02C8
:1019C000F091DF0280818E7F8083012B41F0E091D6
:1019D000D302F091D40280818160808307C0E091BE
:1019E000D302F091D40280818E7F808380E090E0EA
:1019F0000E946A0CC3FF08C0E091DE02F091DF0292
:101A000080818860808307C0E091DE02F091DF0270
:101A10008081877F8083C2FF08C0E091DE02F09161
:101A2000DF0280818460808307C0E091DE02F09154
:101A3000DF0280818B7F8083C1FF08C0E091DE02DE
:101A4000F091DF0280818260808307C0E091DE0236
:101A5000F091DF0280818D7F8083C0FF08C0E0911C
:101A6000DE02F091DF0280818160808307C0E09117
:101A7000DE02F091DF0280818E7F8083E091D302CD
:101A8000F091D40280818B7F8083CF911F910F9141
:101A9000089560E070E081E00E94790C87EE97E1A4
:101AA0000197F1F700C0000008950F931F93CF93A3
:101AB0008C01E091DC02F091DD028081807F8083E7
:101AC000E091DE02F091DF0280818F608083E091FF
:101AD000D302F091D40280818260808301151105C8
:101AE00041F0E091D302F091D40280818160808343
:101AF00007C0E091D302F091D40280818E7F808371
:101B000080E090E00E946A0CE091D702F091D80248
:101B1000808183FD02C0C0E001C0C0E8808182FFF7
:101B200002C0C06401C0CF7B808181FF02C0C0625F
:101B300001C0CF7D808180FF02C0C06101C0CF7E27
:101B4000012B41F0E091D302F091D40280818160B9
:101B5000808307C0E091D302F091D40280818E7F10
:101B6000808380E090E00E946A0CE091D702F091BF
:101B7000D802808183FF03C08C2F886002C08C2F25
:101B8000877F908192FF02C0846001C08B7F90812B
:101B900091FF02C0826001C08D7F908190FF02C0E2
:101BA000816001C08E7FE091D302F091D4029081D8
:101BB0009B7F9083CF911F910F91089580E090E0DB
:101BC0000E94550D882354F480E090E00E94550D4A
:101BD000882324F480E090E00E94550D089561E090
:101BE00070E00E94790C0E94DE0D0895CF93DF9380
:101BF000EC018881882331F021960E94EF0D8991B4
:101C00008111FBCFDF91CF9108950F931F93CF9355
:101C1000DF93FC01D62F8081882351F08F010F5F65
:101C20001F4F611109C017C0CF5FDC1730F401C02E
:101C3000C0E0CD1750F00FC0C1E00E94EF0DF801D9
:101C400081918F018111F0CFF4CF80E20E94EF0DDE
:101C5000CF5FCD17D0F3DF91CF911F910F910895F2
:101C6000CF93C82F882329F080E20E94EF0DC15046
:101C7000D9F7CF910895262F8130910581F030F06A
:101C800082309105A9F00397E1F0089560E070E0DB
:101C900080E8820F0E94790C0E94DE0D089560E0BA
:101CA00070E080EC820F0E94790C0E94DE0D089596
:101CB00060E070E084E9820F0E94790C0E94DE0DE2
:101CC000089560E070E084ED820F0E94790C0E941C
:101CD000DE0D0895E091D502F091D60280818760F3
:101CE0008083E091D302F091D40280818860808368
:101CF0002FEF83EF91E0215080409040E1F700C04A
:101D0000000060E070E088E30E94790C20ED2A95E5
:101D1000F1F760E070E088E30E94790C80ED8A952D
:101D2000F1F760E070E088E30E94790C90ED9A95FD
:101D3000F1F760E070E088E20E94790C25EC2A95CA
:101D4000F1F7000060E070E088E20E94790C85EC19
:101D50008A95F1F7000060E070E088E20E94790C5B
:101D60000E94DE0D60E070E088E20E94790C0E9423
:101D7000DE0D60E070E08CE00E94790C0E94DE0DC8
:101D800060E070E08CE00E94790C0E94DE0D60E063
:101D900070E081E00E94790C0E94DE0D60E070E04E
:101DA00081E00E94790C0E94DE0D60E070E086E028
:101DB0000E94790C0E94DE0D60E070E086E00E94D7
:101DC000790C0E94DE0D60E070E080E090E00E94FF
:101DD0003B0E0895CF92DF92EF92FF920F931F93E5
:101DE000CF93DF93EC017093D6026093D5025093AA
:101DF000DB024093DA023093D4022093D302109393
:101E0000DD020093DC02F092D802E092D702D09279
:101E1000DF02C092DE02FB011082E091D302F0915A
:101E2000D4028FEF8083E091DC02F091DD0210821A
:101E3000E091DE02F091DF028083E091DA02F0911E
:101E4000DB02808188708093D9020E946A0E89E744
:101E50009CE09983888385E59DE09B838A838EED52
:101E60009DE09D838C838FEE9DE09F838E838FE624
:101E70009FE09987888786EF9DE09B878A8785E02A
:101E80009EE09D878C8780E39EE09F878E8789E414
:101E90009DE0998B888B8BE39EE09B8B8A8B8DE5F5
:101EA0009FE09D8B8C8BCE01DF91CF911F910F9185
:101EB000FF90EF90DF90CF900895CF93E091DA02FA
:101EC000F091DB02C081C8708091D9028C278C23ED
:101ED00011F00E946A0EC093D902CF910895CF935A
:101EE00081E090E00E94550DC82F0E94DE0D8C2FDE
:101EF000CF910895CF93DF93CDB7DEB7AC970FB6F0
:101F0000F894DEBF0FBECDBF0F2EF8E2CF2ED12C3E
:101F1000F02D0F2EF6E2EF2EF12CF02D07E210E05F
:101F200025E230E043E250E064E270E0CE01019649
:101F30000E94EA0E00E010E021E030E048E050E0CE
:101F400067E670E0CE0147960E943B0A0BA51CA5F0
:101F5000EB89FC8960E070E080E090E00995ED8518
:101F6000FE8567E080E091E009954A99F1CFE9A507
:101F7000FAA58EE3099588E091E0F80109958DE2D4
:101F800091E0F8010995E4CFA1E21A2EAA1BBB1B30
:101F9000FD010DC0AA1FBB1FEE1FFF1FA217B30735
:101FA000E407F50720F0A21BB30BE40BF50B661F4B
:101FB000771F881F991F1A9469F76095709580950F
:101FC00090959B01AC01BD01CF010895EE0FFF1F5D
:0C1FD0000590F491E02D0994F894FFCFE7
:101FDC0057656C636F6D650057656C636F6D65203D
:101FEC00746F207561727420636F6D2074687265F4
:101FFC007720667464692021200D200A004141413C
:10200C0041414141414141414141414141414141B4
:10201C0041414141414141414141412021200D205B
:02202C000A00A8
:00000001FF
