:100000000C9455000C9472000C9472000C947200C5
:100010000C9472000C9472000C9472000C94720098
:100020000C9472000C9472000C9472000C94720088
:100030000C9472000C9472000C9472000C94720078
:100040000C9472000C9472000C94D50B0C94090C57
:100050000C9472000C94AD010C9472000C9472001C
:100060000C9472000C947200940698069C06A006EC
:10007000A406A806AC06100716071C0722072807C7
:1000800031073A074307490752075B0764076A07C6
:1000900073077C079B079F07A307A707AB07AF075B
:1000A000B307B707BB07BF07C30711241FBECFEFB6
:1000B000D8E0DEBFCDBF11E0A0E0B1E0EAECFFE1A7
:1000C00002C005900D92A235B107D9F722E0A2E552
:1000D000B1E001C01D92A433B207E1F70E94710F95
:1000E0000C94E30F0C940000E0918201F0918301E5
:1000F000228126FD02C020642283FC01EE0FFF1F37
:10010000E559FE4F808191810895EF92FF920F9300
:100110001F93CF93DF93CDB7DEB7EC970FB6F8946C
:10012000DEBF0FBECDBF26960FAD269727961FAD1B
:1001300027972996EEACFFAC2997CE0101960E9435
:10014000E1028CE3FE013196AEE7B1E001900D9241
:100150008A95E1F7EEE7F1E0A085B18591964C91A3
:100160009197842F8F7791968C93F0925A01E09219
:1001700059011092580110925701109252010480B7
:10018000F581E02D84818F738483013019F0033071
:1001900051F012C0E0918201F0918301848180646A
:1001A000848351E00AC0E0918201F091830184814F
:1001B000806C848353E001C050E0E0918201F091B3
:1001C000830184818F7D84831E141F0494F4DE01D7
:1001D000A75BBF4F80E090E02D913D91FC01EE0FB9
:1001E000FF1FE55AFE4F318320830196E816F9067A
:1001F00099F7EEE7F1E0A481B58114968C911497FC
:10020000807F14968C93A0915701B0915801AA0F4A
:10021000BB1FA55ABE4F8D919C91A481B5818F7053
:10022000992714969C911497892B14968C93A481EA
:10023000B58112968C911297806812968C93A48146
:10024000B58112968C911297806412968C93A4813A
:10025000B58112968C9112978F7D12968C93A48102
:10026000B58113968C911397887F13968C93A481F4
:10027000B58112968C911297886012968C930480A7
:10028000F581E02D8281887F8283103109F138F475
:10029000143061F0183099F01230F1F546C0103486
:1002A00049F1103881F11032B9F51BC0E09182019B
:1002B000F091830182818260828324E037C0E091E3
:1002C0008201F091830182818360828328E02EC0C5
:1002D000E0918201F091830182818460828320E138
:1002E00025C0E0918201F091830182818560828343
:1002F00020E21CC0E0918201F0918301828186603E
:10030000828320E413C0E0918201F0918301828115
:100310008760828320E80AC0E0918201F091830126
:1003200082818760828320E801C022E0E09186011B
:10033000F0918701406841A3652F722F84E790E018
:10034000EC960FB6F894DEBF0FBECDBFDF91CF9114
:100350001F910F91FF90EF9008951F920F920FB68B
:100360000F9211242F933F938F939F93AF93BF933B
:10037000EF93FF938091780090E0909354018093E5
:100380005301209179008091530190915401922B57
:100390009093540180935301809152018430A0F4D2
:1003A000809152018F5F80935201209153013091CF
:1003B00054018091550190915601820F931F9093A3
:1003C0005601809355014DC0E0915701F0915801BD
:1003D00080915501909156019595879595958795B2
:1003E000EE0FFF1FE559FE4F918380831092560157
:1003F00010925501109252012091570130915801ED
:100400008091590190915A012817390754F480912D
:10041000570190915801019690935801809357018C
:1004200004C01092580110925701AEE7B1E0149643
:10043000ED91FC9115978481807F8483E091570131
:10044000F0915801EE0FFF1FE55AFE4F8081918118
:100450001496ED91FC9115978F7099279481892BB3
:100460008483FF91EF91BF91AF919F918F913F91C5
:100470002F910F900FBE0F901F90189584B78F701B
:10048000823071F018F4813031F019C0843069F095
:10049000883081F014C084B78E7F84BF80E00895D7
:1004A00084B78D7F84BF81E0089584B78B7F84BF3C
:1004B00082E0089584B7877F84BF83E0089584B77E
:1004C000807F84BF80E00895882319F08130C9F0CF
:1004D00030C0E898E9E6F0E080818C7F808362306C
:1004E00019F0633039F00BC0E9E6F0E080818260FA
:1004F000808305C0E9E6F0E0808183608083E89A2C
:100500000895E998E9E6F0E08081837F8083623096
:1005100019F0633039F00BC0E9E6F0E080818860C3
:10052000808305C0E9E6F0E080818C608083E99AF1
:1005300008951DBA0895882319F0813019F004C078
:10054000E8980895E99808951DBA0895CF93DF9328
:1005500000D000D000D0CDB7DEB71DBA24E632E01F
:100560003A8329834BE952E05C834B836EE372E06C
:100570007E836D833A815C817E8180E090E0269667
:100580000FB6F894DEBF0FBECDBFDF91CF910895B7
:10059000292F30E0322F2227A901482BCA010895C4
:1005A000282F30E0322F2227A901492BCA010895B4
:1005B0000895282F892F922F089598278927982703
:1005C0000895FC011182108280E590E0938382837C
:1005D00088E790E09583848385E890E0978386831D
:1005E0008EE390E0918780878FE390E09387828706
:1005F0008BE390E09787868786EA92E0918B808BE9
:1006000083E290E0938B828B86E290E0958B848BE3
:1006100089E290E0978B868B8CE490E0918F808FBD
:1006200086E390E0938F828F86ED96E0958F848F9E
:1006300085E390E0978F868F82E096E091A380A378
:1006400087E390E093A382A38DEE97E095A384A324
:1006500088EB90E097A386A38AE199E091A780A711
:1006600080EC90E093A782A781E39AE095A784A706
:1006700080E690E097A786A788EC92E093AB82ABE8
:1006800080ED92E095AB84AB88ED92E097AB86ABC2
:1006900089ED92E091AF80AF8DED92E093AF82AFA4
:1006A000CF01089520917D01211171C0EAEBF1E0A5
:1006B000A68DB78D2FEF52962C93068CF78DE02DDB
:1006C0002089287F208B8830910501F158F48330F0
:1006D0009105E1F18530910509F440C0019709F0D9
:1006E00045C00CC0811521E0920701F1811524E07D
:1006F000920721F180349105C9F510C0E091D8012D
:10070000F091D90180898160808B37C0E091D80158
:10071000F091D90180898260808B2FC0E091D8014F
:10072000F091D90180898360808B27C0E091D80146
:10073000F091D90180898460808B1FC0E091D8013D
:10074000F091D90180898560808B17C0E091D80134
:10075000F091D90180898660808B0FC0E091D8012B
:10076000F091D90180898760808B07C0E091D80122
:10077000F091D90180898560808BE091C201F09170
:10078000C30181A1806881A381E080937D010895E8
:10079000E091D801F091D90197859F7397878230B6
:1007A00061F0833091F08130B9F4E091D801F0919B
:1007B000D9018785806487870895E091D801F091F9
:1007C000D9018785806887870895E091D801F091E5
:1007D000D9018785806C87870895E091D801F091D1
:1007E000D90197859F7C9787823061F0833091F0A3
:1007F0008130B9F4E091D801F091D9018785806109
:1008000087870895E091D801F091D90187858062AA
:1008100087870895E091D801F091D9018785806399
:1008200087870895E091D801F091D901828B0895CE
:10083000E091D801F091D901838B0895EAEBF1E0C2
:10084000A68DB78D50968C915097887F50968C933B
:10085000068CF78DE02D118A10927D010895EF929C
:10086000FF920F931F93CF93DF93EC0190917C0144
:10087000911172C00AEB11E0D8015A96ED90FC90EC
:100880005B97B2E5EB0EF11CD801D896ED91FC9187
:10089000D9978FEF9FEF0995F70191838083D80156
:1008A0005A962D913C915B97F901E55BFF4F808152
:1008B000887F8083C830D105E1F048F4C330D1058A
:1008C00081F1C530D10599F12197B9F50CC0C11559
:1008D000B1E0DB07D1F0C115E4E0DE07E1F0C034A0
:1008E000D10559F50CC0F901E55BFF4F81608083AC
:1008F00029C0F901E55BFF4F8260808323C0F901C5
:10090000E55BFF4F836080831DC0F901E55BFF4F0E
:100910008460808317C0F901E55BFF4F85608083A9
:1009200011C0F901E55BFF4F866080830BC0F901C0
:10093000E55BFF4F8760808305C0F901E55BFF4FF2
:1009400085608083E091C201F091C30181A180683C
:1009500081A381E080937C01DF91CF911F910F9162
:10096000FF90EF9008952091D4013091D501F901C5
:10097000E65BFF4F90819F73823061F0833081F09E
:10098000813011F090830895F901E65BFF4F906488
:1009900090830895F901E65BFF4F90689083089576
:1009A000F901E65BFF4F906C908308952091D4018C
:1009B0003091D501F901E65BFF4F90819F7C823039
:1009C00061F0833081F0813011F090830895F90156
:1009D000E65BFF4F906190830895F901E65BFF4F5E
:1009E000906290830895F901E65BFF4F90639083D6
:1009F0000895CF93DF93EAEBF1E0C28DD38DCE5A09
:100A0000DF4F00ACF1ADE02D099599838883DF912C
:100A1000CF910895CF93DF93EAEBF1E0C28DD38DB0
:100A2000CC5ADF4F00ACF1ADE02D09959983888356
:100A3000DF91CF910895CF93DF93EAEBF1E0828DC0
:100A4000938DDC01A55BBF4F2C91287F2C93EC018B
:100A5000C25BDF4F00ACF1ADE02D80E090E0099586
:100A60009983888310927C01DF91CF910895AC0126
:100A700080917B01811160C02091DC013091DD010A
:100A8000F901E458FF4F8FEF808332979081987F70
:100A900090834034510549F150F448305105C9F074
:100AA00040325105E1F041305105B9F50CC0411516
:100AB00081E0580731F1411584E0580741F1403891
:100AC000510559F518C0F901E658FF4F9160908320
:100AD00029C0F901E658FF4F9260908323C0F901C5
:100AE000E658FF4F936090831DC0F901E658FF4F11
:100AF0009460908317C0F901E658FF4F956090838A
:100B000011C0F901E658FF4F966090830BC0F901C0
:100B1000E658FF4F9760908305C0F901E658FF4FF4
:100B200097609083E091C201F091C30181A1806838
:100B300081A381E080937B0108952091DC013091B5
:100B4000DD01F901E758FF4F90819F73823061F01A
:100B5000833081F0813011F090830895F901E758D6
:100B6000FF4F906490830895F901E758FF4F906814
:100B700090830895F901E758FF4F906C9083089592
:100B80002091DC013091DD01F901E758FF4F9081A0
:100B90009F7C823061F0833081F0813011F090834E
:100BA0000895F901E758FF4F906190830895F90186
:100BB000E758FF4F906290830895F901E758FF4F7F
:100BC000906390830895E091DC01F091DD01E45899
:100BD000FF4F80830895E091DC01F091DD01E3583F
:100BE000FF4F808308958091DC019091DD01FC012D
:100BF000E658FF4F2081287F208331961082109283
:100C00007B010895EF92FF920F931F93CF93DF9391
:100C1000CDB7DEB7EC970FB6F894DEBF0FBECDBFF1
:100C20008C01E62EF42ECE0101960E94E1028CE3A7
:100C3000FE013196AAEBB1E001900D928A95E1F7A1
:100C400010927D01EAEBF1E0A68DB78D1F968C9195
:100C50001F978C7F1F968C93068CF78DE02D8089D3
:100C6000877F808B83E0E81601F18E1538F0E1E094
:100C7000EE1659F0F2E0EF1681F040C085E0E8167C
:100C8000E1F0E7E0EE1651F139C0E091D801F091C2
:100C9000D90187858160878731C0E091D801F091C3
:100CA000D90187858260878729C0E091D801F091BA
:100CB000D90187858360878721C0EAEBF1E0A68DA3
:100CC000B78D1F968C911F9781601F968C93068C11
:100CD000F78DE02D80898860808B10C0EAEBF1E011
:100CE000A68DB78D1F968C911F9783601F968C934E
:100CF000068CF78DE02D80898860808BA091D801CB
:100D0000B091D901D9968C91D997887F4F2D50E019
:100D1000FA013197E730F10520F4EC5CFF4F0C94B9
:100D2000DD0FD9968C931BC08160D9968C9317C028
:100D30008260D9968C9313C08460D9968C930FC02F
:100D40008360D9968C930BC08560D9968C9307C02D
:100D50008760D9968C9303C08660D9968C9388EC73
:100D600093E0F801918380838DEE93E093838283F7
:100D700082E194E09583848388E194E0978386837D
:100D800082E593E0918780878EE194E09387828764
:100D9000C801EC960FB6F894DEBF0FBECDBFDF9151
:100DA000CF911F910F91FF90EF900895EF92FF92D6
:100DB0000F931F93CF93DF93CDB7DEB7EC970FB6AA
:100DC000F894DEBF0FBECDBF7C01062F142FCE01DD
:100DD00001960E94E1028CE3FE013196AAEBB1E09C
:100DE00001900D928A95E1F710927C012091D40137
:100DF0003091D501F901E65BFF4F50815C7F508354
:100E000031964081477E4083802F90E0FC013197EE
:100E1000EF30F10508F078C0E55CFF4F0C94DD0F72
:100E2000F901E65BFF4F516050836EC0F901E65B4C
:100E3000FF4F5260508368C0F901E65BFF4F53607B
:100E4000508362C0F901E55BFF4F486040835CC09E
:100E5000F901E65BFF4F5160508331964860408353
:100E600053C0F901E65BFF4F5260508331964860F2
:100E700040834AC0F901E65BFF4F536050833196CF
:100E80004860408341C0F901E55BFF4F406140830A
:100E90003BC0F901E65BFF4F5160508331964061E2
:100EA000408332C0F901E65BFF4F526050833196B8
:100EB0004061408329C0F901E65BFF4F53605083D6
:100EC00031964061408320C0F901E55BFF4F4861E6
:100ED00040831AC0F901E65BFF4F516050833196A1
:100EE0004861408311C0F901E65BFF4F52605083B7
:100EF00031964861408308C0F901E65BFF4F5360BB
:100F00005083319648614083F901E65BFF4F808151
:100F10008F708083F90181AD887D412F50E0FA0107
:100F20003197EB30F10520F4E65BFF4F0C94DD0FB9
:100F3000F90181AF2BC08160F90181AF27C08260C8
:100F4000F90181AF23C08460F90181AF1FC08062C5
:100F5000F90181AF1BC08660F90181AF17C08360C2
:100F6000F90181AF13C08560F90181AF0FC08162C3
:100F7000F90181AF0BC08760F90181AF07C08762BB
:100F8000F90181AF03C08660F90181AF83EB94E082
:100F9000F7019183808386ED94E09383828389EFC8
:100FA00094E0958384838AE095E0978386838FE23B
:100FB00094E0918780878BE195E093878287C701D2
:100FC000EC960FB6F894DEBF0FBECDBFDF91CF9188
:100FD0001F910F91FF90EF900895EF92FF920F9362
:100FE0001F93CF93DF93CDB7DEB7EC970FB6F8948E
:100FF000DEBF0FBECDBF8C01E62EF42ECE010196D2
:101000000E94E1028CE3FE013196AAEBB1E001906F
:101010000D928A95E1F710927B01E091DC01F0914D
:10102000DD01DF01A758BF4F8C918C7F8C93119607
:101030009C91977F9C9323E0E216E1F02E1538F007
:1010400091E0E91659F022E0E21671F02AC025E09D
:10105000E216B1F027E0E216E1F023C0DF01A75865
:10106000BF4F81608C931DC0DF01A758BF4F8260C6
:101070008C9317C0DF01A758BF4F83608C9311C0BA
:10108000DF01A758BF4F81608C93119698609C93A5
:1010900008C0DF01A758BF4F83608C9311969860FA
:1010A0009C9381AD887F93E0F916C9F09F1538F0C5
:1010B00021E0F21671F092E0F91671F008C025E017
:1010C000F21699F0F21670F096E0F91689F081AFF9
:1010D00011C0816081AF0EC0826081AF0BC08360A0
:1010E00081AF08C0856081AF05C0866081AF02C056
:1010F000876081AF8DE995E0F8019183808380EC72
:1011000095E09383828383EE95E0958384838BEED1
:1011100095E09783868387E395E09187808783EFC7
:1011200095E093878287C801EC960FB6F894DEBFEE
:101130000FBECDBFDF91CF911F910F91FF90EF9028
:101140000895E091A401F091A5018181887F08951F
:10115000E091A401F091A50184E9848387EC90E0FB
:101160000197F1F700C000000895CF93DF931816A0
:101170001CF4880F816001C081E0EEE7F1E0A6A1D8
:10118000B7A112968C93A689B78911968C91119765
:10119000806311968C930688F789E02D82818063A5
:1011A0008283643089F018F4613031F025C06031F9
:1011B00099F06034C9F020C0E091A401F091A5013C
:1011C00081818C7F818320C0E091A401F091A501F1
:1011D00081818160818318C0E091A401F091A50113
:1011E00081818260818310C0E091A401F091A5010A
:1011F00081818360818308C0E091A401F091A50101
:1012000081818C7F818361E0C091A401D091A5018F
:10121000262F30E0220F331F032E000C440B550BFA
:1012200060E470E080E090E00E94BB0F2883DF91D3
:10123000CF910895BF92CF92DF92EF92FF920F93DA
:101240001F93CF93DF93CDB7DEB7EC970FB6F8942B
:10125000DEBF0FBECDBF8C01E62EB42ECE010196AF
:101260000E94E1028CE3FE013196AEE7B1E001900D
:101270000D928A95E1F70F2EFEE7CF2EF1E0DF2EDB
:10128000F02DD6011896ED91FC911997F1A08F2DB4
:101290008F7781A36B2D8E2D0E94B508D6011896ED
:1012A000ED91FC911997F1A28EE899E0F8019183F4
:1012B00080838FE999E0938382838DEB99E0958316
:1012C000848383ED99E09783868388EA98E0918709
:1012D000808781EA98E093878287C801EC960FB6F1
:1012E000F894DEBF0FBECDBFDF91CF911F910F915C
:1012F000FF90EF90DF90CF90BF900895E091A40110
:10130000F091A5012481222344F021E030E08217EE
:10131000930718F02F5F3F4FFACF0895E091A40193
:10132000F091A50184EA84838FEF93E00E947E0907
:101330000E94A108883011F00E94A8080895662331
:1013400019F0880F816001C0880FEEE7F1E0A6A1D7
:10135000B7A113968C9306A0F7A1E02D84E88483AF
:101360008FEF93E00E947E090E94A108883121F04E
:10137000803411F00E94A8080895EEE7F1E0A6A1DC
:10138000B7A113968C9306A0F7A1E02D84E884837F
:101390008FEF93E00E947E090E94A108883211F02D
:1013A0000E94A8080895882311F080E401C080E01D
:1013B000E091A401F091A501846884838FEF93E00C
:1013C0000E947E090E94A108883311F40E94A80897
:1013D000E091A401F091A50183810895E0910102BB
:1013E000F091020287EF91E009950895E0910302E0
:1013F000F091040287EF91E009950895809105022C
:1014000010920502EFECF7E03197F1F700C0000011
:1014100008950E94FE090895EEE7F1E0A2A5B3A5A4
:1014200016968C9302A4F3A5E02D818180628183BE
:101430008FEC97E00197F1F700C0000008950E943B
:101440000C0A0895CF93DF93EC018881882331F053
:1014500021960E940C0A89918111FBCFDF91CF91D7
:1014600008953F924F925F926F927F928F929F92D8
:10147000AF92BF92CF92DF92EF92FF920F931F93A2
:10148000CF93DF93CDB7DEB7EC970FB6F894DEBFFE
:101490000FBECDBF7C015B016A0129013801E091DB
:1014A0008601F091870131A0832D8F7781A3CE0132
:1014B00001960E94E1028CE3FE013196AEE7B1E0B5
:1014C00001900D928A95E1F746E052E060E2CE018C
:1014D00001960E94490C8EE0FE013196A7EFB1E023
:1014E00001900D928A95E1F7BB204CF4E091A801A0
:1014F000F091A90182E08083C5019F7701C0C501F9
:101500000EE711E0D8019A968D909C909B97D69605
:10151000ED91FC91D7970995F40195838483D801C7
:101520009A96ED91FC919B9788E98183B7E0CB1661
:10153000D104D9F158F4F5E0CF16D10409F46BC009
:1015400086E0C816D10409F44BC078C0A8E0CA16DA
:10155000D104C1F0B9E0CB16D10409F06FC0EEE7B9
:10156000F1E0A2A5B3A511968C9111978460119614
:101570008C9302A4F3A5E02D82818660828369E0CA
:1015800070E06EC0EEE7F1E0A2A5B3A511968C91D4
:1015900011978B7F11968C9302A4F3A5E02D828185
:1015A0008660828368E070E05BC0EEE7F1E0A2A5B0
:1015B000B3A511968C9111978B7F11968C93A2A550
:1015C000B3A512968C911297846012968C9302A404
:1015D000F3A5E02D82818D7F828367E070E040C0BB
:1015E000EEE7F1E0A2A5B3A511968C9111978B7F40
:1015F00011968C93A2A5B3A512968C9112978B7F0E
:1016000012968C9302A4F3A5E02D828182608283DE
:1016100066E070E025C0EEE7F1E0A2A5B3A5119663
:101620008C9111978B7F11968C9302A4F3A5E02DDA
:101630008281897F828365E070E012C0EEE7F1E08D
:10164000A2A5B3A511968C9111978B7F11968C93BF
:1016500002A4F3A5E02D82818660828368E070E0B9
:10166000E1E04E16510429F0F2E04F16510459F012
:1016700014C0E091A801F091A9018281877F828343
:1016800041E050E013C0E091A801F091A9018281EE
:101690008860828342E050E009C0E091A801F091A7
:1016A000A9018281877F828341E050E082E0681651
:1016B000710481F0A3E06A167104F9F0672839F526
:1016C000E091A801F091A90182818F7C828320E0C2
:1016D00030E026C0EEE7F1E0A2A5B3A512968C910A
:1016E0001297806212968C9302A4F3A5E02D82815A
:1016F0008F7E828322E030E013C0E091A801F09158
:10170000A90182818063828323E030E009C0E091F7
:10171000A801F091A90182818F7C828320E030E0D2
:10172000E0918601F0918701832D806881A3F70104
:10173000B182A08273836283558344833783268377
:101740008EEF99E09187808789E09AE0938782877E
:101750008EEE99E09587848786EF99E09787868754
:101760008CE09AE0918B808B8FE19AE0938B828B57
:1017700082E29AE0958B848BC701EC960FB6F894C1
:10178000DEBF0FBECDBFDF91CF911F910F91FF90B4
:10179000EF90DF90CF90BF90AF909F908F907F9011
:1017A0006F905F904F903F9008951F920F920FB6E9
:1017B0000F9211242F933F934F935F936F937F93D7
:1017C0008F939F93AF93BF93EF93FF93E091A80103
:1017D000F091A901808188718093F6016681609300
:1017E0000502E091FF01F091000287EF91E0099579
:1017F000FF91EF91BF91AF919F918F917F916F91E9
:101800005F914F913F912F910F900FBE0F901F90BE
:1018100018951F920F920FB60F9211248F93EF938A
:10182000FF93E091A801F091A90181818F7D8183CF
:10183000FF91EF918F910F900FBE0F901F90189511
:101840006623C1F0DC011296ED91FC91139714967A
:101850002D913C911597E217F30729F4ED91FC9136
:10186000DF01119602C0DF01119660831C92FC011A
:10187000B383A2830895FC01808191810895DC01E6
:10188000ED91FC9111971396FC93EE9312971082B1
:101890000895FC01518340835383428370E061507B
:1018A0007109460F571F5583448380E29CE091875E
:1018B00080878BE39CE0938782878FE39CE095870A
:1018C0008487CF010895E0912702F091280280815A
:1018D0008B7F8083E0912702F091280280818460D1
:1018E000808308950F931F93CF93C82F8B01E091AE
:1018F0002702F091280280818D7F8083E091300261
:10190000F091310280818F608083672B41F0E091FC
:101910002702F091280280818160808307C0E091D6
:101920002702F091280280818E7F808380E090E002
:101930000E94630CCC2344F4E0913202F091330214
:1019400080818860808307C0E0913202F091330289
:101950008081877F8083C6FF08C0E0913202F091CA
:10196000330280818460808307C0E0913202F0916D
:10197000330280818B7F8083C5FF08C0E0913202F3
:10198000F091330280818260808307C0E09132024F
:10199000F091330280818D7F8083C4FF08C0E09185
:1019A0003202F091330280818160808307C0E09130
:1019B0003202F091330280818E7F8083012B41F0CF
:1019C000E0912702F091280280818160808307C026
:1019D000E0912702F091280280818E7F808380E051
:1019E00090E00E94630CC3FF08C0E0913202F091C6
:1019F000330280818860808307C0E0913202F091D9
:101A000033028081877F8083C2FF08C0E091320269
:101A1000F091330280818460808307C0E0913202BC
:101A2000F091330280818B7F8083C1FF08C0E091F9
:101A30003202F091330280818260808307C0E0919E
:101A40003202F091330280818D7F8083C0FF08C015
:101A5000E0913202F091330280818160808307C07F
:101A6000E0913202F091330280818E7F8083E09199
:101A70002702F091280280818B7F8083CF911F9174
:101A80000F91089560E070E081E00E94720C87EE93
:101A900097E10197F1F700C0000008950F931F939D
:101AA000CF938C01E0913002F09131028081807FF0
:101AB0008083E0913202F091330280818F608083D5
:101AC000E0912702F09128028081826080830115D5
:101AD000110541F0E0912702F09128028081816098
:101AE000808307C0E0912702F091280280818E7FD9
:101AF000808380E090E00E94630CE0912B02F091E3
:101B00002C02808183FD02C0C0E001C0C0E880815A
:101B100082FF02C0C06401C0CF7B808181FF02C010
:101B2000C06201C0CF7D808180FF02C0C06101C062
:101B3000CF7E012B41F0E0912702F09128028081B5
:101B40008160808307C0E0912702F09128028081A4
:101B50008E7F808380E090E00E94630CE0912B02F6
:101B6000F0912C02808183FF03C08C2F886002C01B
:101B70008C2F877F908192FF02C0846001C08B7F91
:101B8000908191FF02C0826001C08D7F908190FFA3
:101B900002C0816001C08E7FE0912702F09128028F
:101BA00090819B7F9083CF911F910F91089580E04A
:101BB00090E00E944E0D882354F480E090E00E9453
:101BC0004E0D882324F480E090E00E944E0D08958D
:101BD00061E070E00E94720C0E94D70D0895CF93CF
:101BE000DF93EC018881882331F021960E94E80D73
:101BF00089918111FBCFDF91CF9108950F931F93AE
:101C0000CF93DF93FC01D62F8081882351F08F0181
:101C10000F5F1F4F611109C017C0CF5FDC1730F491
:101C200001C0C0E0CD1750F00FC0C1E00E94E80D28
:101C3000F80181918F018111F0CFF4CF80E20E94F1
:101C4000E80DCF5FCD17D0F3DF91CF911F910F91AA
:101C50000895CF93C82F882329F080E20E94E80DD1
:101C6000C150D9F7CF910895262F8130910581F089
:101C700030F082309105A9F00397E1F0089560E01B
:101C800070E080E8820F0E94720C0E94D70D0895C8
:101C900060E070E080EC820F0E94720C0E94D70D11
:101CA000089560E070E084E9820F0E94720C0E9447
:101CB000D70D089560E070E084ED820F0E94720CF1
:101CC0000E94D70D0895E0912902F0912A0287E041
:101CD0008083E0912702F091280288E080832FEF33
:101CE00083EF91E0215080409040E1F700C0000078
:101CF00060E070E088E30E94720C20ED2A95F1F715
:101D000060E070E088E30E94720C80ED8A95F1F744
:101D100060E070E088E30E94720C90ED9A95F1F714
:101D200060E070E088E20E94720C25EC2A95F1F7E1
:101D3000000060E070E088E20E94720C85EC8A95F9
:101D4000F1F7000060E070E088E20E94720C0E94EF
:101D5000D70D60E070E088E20E94720C0E94D70DFF
:101D600060E070E08CE00E94720C0E94D70D60E091
:101D700070E08CE00E94720C0E94D70D60E070E071
:101D800081E00E94720C0E94D70D60E070E081E05B
:101D90000E94720C0E94D70D60E070E086E00E9405
:101DA000720C0E94D70D60E070E086E00E94720C19
:101DB0000E94D70D60E070E080E090E00E94340E59
:101DC0000895CF92DF92EF92FF920F931F93CF93DC
:101DD000DF93EC0170932A026093290250932F0243
:101DE00040932E0230932802209327021093310251
:101DF00000933002F0922C02E0922B02D092330238
:101E0000C0923202FB011082E0912702F091280279
:101E10008FEF8083E0913002F09131021082E091E7
:101E20003202F09133028083E0912E02F0912F0272
:101E30008081887080932D020E94630E82E79CE06F
:101E4000998388838EE49DE09B838A8387ED9DE060
:101E50009D838C8388EE9DE09F838E8386E69FE042
:101E6000998788878FEE9DE09B878A878EEF9DE01C
:101E70009D878C8789E29EE09F878E8782E49DE024
:101E8000998B888B84E39EE09B8B8A8B84E59FE013
:101E90009D8B8C8BCE01DF91CF911F910F91FF9085
:101EA000EF90DF90CF900895CF93E0912E02F091C4
:101EB0002F02C081C87080912D028C278C2311F0D5
:101EC0000E94630EC0932D02CF910895CF9381E0BD
:101ED00090E00E944E0DC82F0E94D70D8C2FCF91FD
:101EE0000895CF93DF93CDB7DEB7AC970FB6F894D4
:101EF000DEBF0FBECDBF0F2EF8E2CF2ED12CF02DBE
:101F00000F2EF6E2EF2EF12CF02D07E210E025E285
:101F100030E043E250E064E270E0CE0101960E94BE
:101F2000E10E00E010E021E030E048E050E067E63C
:101F300070E0CE0147960E94310A0BA51CA5EB89E3
:101F4000FC8960E070E080E090E00995ED85FE8519
:101F500067E080E091E009954A99F1CFE9A5FAA5FB
:101F60008EE3099588E091E0F80109958DE291E012
:101F7000F8010995E4CFA1E21A2EAA1BBB1BFD01B3
:101F80000DC0AA1FBB1FEE1FFF1FA217B307E40758
:101F9000F50720F0A21BB30BE40BF50B661F771FB0
:101FA000881F991F1A9469F7609570958095909590
:101FB0009B01AC01BD01CF010895EE0FFF1F0590FD
:0A1FC000F491E02D0994F894FFCF8E
:101FCA0057656C636F6D650057656C636F6D65204F
:101FDA00746F207561727420636F6D207468726506
:101FEA007720667464692021200D200A004141414E
:101FFA0041414141414141414141414141414141C7
:10200A0041414141414141414141412021200D206D
:02201A000A00BA
:00000001FF
