S011000041746D6567613332382E7372656327
S11300000C9496000C94B3000C94B3000C94B300BD
S11300100C94B3000C94B3000C94B3000C94B30090
S11300200C94B3000C94B3000C94B3000C942D1FE7
S11300300C94B3000C94B3000C94B3000C94B30070
S11300400C94B3000C94B3000C9420100C94541032
S11300500C94B3000C94E1020C94B3000C94B30020
S11300600C94B3000C94B3006C097A0988099609BE
S1130070A409B209C0092F0A370A3F0A470A4F0ADE
S11300805D0A6B0A790A810A8F0A9D0AAB0AB30AD0
S1130090C10ACF0AF50A060B170B280B390B4A0BBA
S11300A05B0B6C0B7D0B8E0B9F0B07634236B79B70
S11300B0D8A71A39685618AEBAAB558C1D3CB7CCC4
S11300C05763BD6DEDFD753EF6177231BF0000003C
S11300D0803F08000000BE922449123EABAAAA2A1F
S11300E0BECDCCCC4C3E00000080BEABAAAAAA3E3A
S11300F000000000BF000000803F00000000000876
S11301004178D3BB4387D1133D190E3CC3BD428212
S1130110AD2B3E68EC8276BED98FE1A93E4C80EFD0
S1130120FFBE01C4FF7F3F000000000011241FBE7A
S1130130CFEFD8E0DEBFCDBF11E0A0E0B1E0E8E44E
S1130140FFE402C005900D92A837B107D9F727E064
S1130150A8E7B1E001C01D92AC30B207E1F70E94FC
S1130160B61A0C94A2270C940000FC01662371F0CB
S1130170A581B6812C9181E090E0008002C0880FB7
S1130180991F0A94E2F7822B8C930EC0A581B68145
S11301902C9181E090E0008002C0880F991F0A949E
S11301A0E2F7809582238C93A581B6814C9121E05E
S11301B030E0C901018002C0880F991F0A94E2F758
S11301C0842B8C93A581B6818C91018002C0220F6F
S11301D0331F0A94E2F7209528232C930895FC01F9
S11301E0A581B6814C9121E030E0C901028002C0B2
S11301F0880F991F0A94E2F7842B8C93A581B6810A
S11302008C91028002C0220F331F0A94E2F72095DA
S113021028232C930895DF92EF92FF920F931F935C
S1130220CF93DF938C01D62EC0E0D0E0EE24E3948C
S1130230F12CB7010C2E02C0660F771F0A94E2F767
S11302406D21C8010E94B5002196C830D10589F7F7
S1130250C8010E94EF00DF91CF911F910F91FF9091
S1130260EF90DF900895DF92EF92FF920F931F9328
S1130270CF93DF938C01D62EC7E0D0E0EE24E39435
S1130280F12CB7010C2E02C0660F771F0A94E2F717
S11302906D21C8010E94B500219798F7C8010E94FA
S11302A0EF00DF91CF911F910F91FF90EF90DF90BE
S11302B00895EF920F931F93CF93DF93FC01DB011B
S11302C03C9181E090E0EC01002E02C0CC0FDD1FD8
S11302D00A94E2F7DC010E2C02C0AA0FBB1F0A9499
S11302E0E2F7AC2B022E02C0880F991F0A94E2F7A2
S11302F08A2B932F982BDB019C93DA019C91809598
S113030089238C9320830183E282748363835683DD
S1130310458385EB90E0908787838BE091E092871B
S1130320818783E391E0948783878FEE90E09687BB
S11303308587CF01DF91CF911F910F91EF900895A1
S1130340E0910C02F0910D02228126FD02C020648E
S11303502283FC01EE0FFF1FEF56FE4F8081918137
S11303600895EF92FF920F931F93CF93DF93CDB72E
S1130370DEB7C458D1090FB6F894DEBF0FBECDBFA7
S1130380C357DF4F0881CD58D040C257DF4F188183
S1130390CE58D040C157DF4FE880F980CF58D040C5
S11303A0CE0101960E94640484E8FE013196A6E021
S11303B0B2E001900D928A95E1F7E6E0F2E0A285C1
S11303C0B3851C964C911C97842F8F771C968C9325
S11303D0F0928001E0927F0110927E0110927D01E3
S11303E0109278010680F781E02D84818F738483D5
S11303F0013019F0033051F012C0E0910C02F09179
S11304000D0284818064848351E00AC0E0910C026F
S1130410F0910D028481806C848353E001C050E02C
S1130420E0910C02F0910D0284818F7D84831E146F
S11304301F0494F4DE01AF56BF4F80E090E02D918D
S11304403D91FC01EE0FFF1FEF57FE4F31832083D8
S11304500196E816F90699F7E6E0F2E0A681B7817D
S113046014968C911497807F14968C93A0917D019F
S1130470B0917E01AA0FBB1FAF57BE4F8D919C91C7
S1130480A681B7818F70992714969C911497892B14
S113049014968C93A681B78112968C9112978068DA
S11304A012968C93A681B78112968C9112978064D0
S11304B012968C93A681B78112968C9112978F7D98
S11304C012968C93A681B78113968C911397887F8B
S11304D013968C93A681B78112968C91129788609B
S11304E012968C930680F781E02D8281887F828327
S11304F0103109F138F4143061F0183099F01230E9
S1130500F1F546C0103449F1103881F11032B9F5D3
S11305101BC0E0910C02F0910D0282818260828303
S113052024E037C0E0910C02F0910D0282818360D7
S1130530828328E02EC0E0910C02F0910D028281AA
S11305408460828320E125C0E0910C02F0910D02C9
S113055082818560828320E21CC0E0910C02F091CC
S11305600D0282818660828320E413C0E0910C0234
S1130570F0910D0282818760828320E80AC0E091B5
S11305800C02F0910D0282818760828320E801C011
S113059022E0E0911002F091110240684487652F37
S11305A0722F80EA91E0CC57DF4F0FB6F894DEBF8C
S11305B00FBECDBFDF91CF911F910F91FF90EF90B0
S11305C008951F920F920FB60F9211242F933F9309
S11305D08F939F93AF93BF93EF93FF938091780092
S11305E090E090937A018093790120917900809131
S11305F0790190917A01922B90937A0180937901F9
S1130600809178018430A0F4809178018F5F809389
S113061078012091790130917A0180917B01909148
S11306207C01820F931F90937C0180937B014DC0CA
S1130630E0917D01F0917E0180917B0190917C019C
S11306409595879595958795EE0FFF1FEF56FE4F6D
S11306509183808310927C0110927B011092780127
S113066020917D0130917E0180917F0190918001E4
S11306702817390754F480917D0190917E010196E9
S113068090937E0180937D0104C010927E011092AC
S11306907D01A6E0B2E01696ED91FC911797848156
S11306A0807F8483E0917D01F0917E01EE0FFF1F36
S11306B0EF57FE4F808191811696ED91FC9117972B
S11306C08F7099279481892B8483FF91EF91BF9137
S11306D0AF919F918F913F912F910F900FBE0F90EB
S11306E01F901895E0919402F09195028181982FC2
S11306F09F70923069F018F4913031F015C0943045
S113070059F0983069F010C08E7F818380E008959D
S11307108D7F818381E008958B7F818382E00895BA
S1130720877F818383E00895807F818380E00895BB
S1130730882319F08130F9F03CC0EAE8F2E0A2899C
S1130740B38912968C9112978E7F12968C9302889D
S1130750F389E02D86A58C7F623021F0633029F087
S113076086A705C0826086A702C0836086A78281AF
S1130770816082830895EAE8F2E0A289B38912963F
S11307808C9112978D7F12968C930288F389E02DB9
S113079086A5837F623021F0633029F086A705C0E7
S11307A0886086A702C08C6086A78281826082836B
S11307B00895E0919C02F0919D021282089588238D
S11307C019F0813049F010C0E0919C02F0919D0233
S11307D082818E7F82830895E0919C02F0919D0234
S11307E082818D7F82830895E0919C02F0919D0225
S11307F012820895CF93DF93CDB7DEB7CA58D109DB
S11308000FB6F894DEBF0FBECDBFCE0107960E948F
S1130810640484E8FE013796AAE8B2E001900D92E0
S11308208A95E1F7E0919C02F0919D02128228E9F9
S113083033E03A8329834FED53E05C834B8362E7D3
S113084073E07E836D833A815C817E8180E090E0F9
S1130850C657DF4F0FB6F894DEBF0FBECDBFDF9192
S1130860CF910895292F30E0322F2227A901482B58
S1130870CA010895282F30E0322F2227A901492BDD
S1130880CA0108950895282F892F922F0895982733
S113089089279827089586230895FC012081622BD7
S11308A0608308956095FC0120816223608308952C
S11308B090E002C0959587956A95E2F7089501C086
S11308C0880F6A95EAF70895EEE0F3E01382128246
S11308D020E530E03583248328E730E0378326831E
S11308E021EB31E03187208723E530E0338722870D
S11308F02EE330E0358724872FE330E037872687DF
S11309002BE630E1318B208B2BE330E0338B228BD1
S11309102AEF33E0358B248B23E230E0378B268BB0
S113092026E230E0318F208F29E230E0338F228FAE
S11309302CE430E0358F248F20E830E0378F268F89
S113094063E470E071A360A345E350E053A342A3C2
S11309502EE630E035A324A3A6E8B0E0B7A3A6A30F
S1130960A5EFB9E0B1A7A0A7A4EBB6E0B3A7A2A7EF
S1130970A4EFB6E0B5A7A4A7A4E3B7E0B7A7A6A7DA
S1130980A4E4B7E0B1ABA0ABA4E5B7E0B3ABA2ABD2
S1130990AAECB7E0B5ABA4ABA4E4B0E0B7ABA6ABAC
S11309A071AF60AF53AF42AF35AF24AFA7E4B0E04F
S11309B0B7AFA6AFE5EEF8E0F0934F03E0934E0334
S11309C0E7E1F6E0F0935103E0935003E7E5F6E046
S11309D0F0935303E0935203E7E9F6E0F0935503F1
S11309E0E0935403EDE9F6E0F0935703E0935603E4
S11309F0E9EAF5E0F0935903E0935803E3EAF6E0FB
S1130A00F0935B03E0935A03E0EBF0E0F0935D03B3
S1130A10E0935C0370935F0360935E035093610300
S1130A2040936003309363032093620323EB30E02D
S1130A30309365032093640327ED3BE03093670311
S1130A402093660324E538E0309369032093680318
S1130A502EE838E030936B0320936A0328EC38E0E7
S1130A6030936D0320936C032EEC38E030936F03C6
S1130A7020936E0326EE37E03093710320937003C6
S1130A8024ED38E0309373032093720328EB30E0B5
S1130A90309375032093740325E63DE03093770388
S1130AA02093760320EC30E030937903209378038D
S1130AB02EE73EE030937B0320937A0320E630E078
S1130AC030937D0320937C0322E334E030937F034F
S1130AD020937E032AE334E0309381032093800340
S1130AE022E434E0309383032093820323E434E04C
S1130AF0309385032093840327E434E03093870301
S1130B00209386032BE434E03093890320938803F5
S1130B102DE434E030938B0320938A0322E534E000
S1130B2030938D0320938C0328E534E030938F03B6
S1130B3020938E032FE534E03093910320939003A8
S1130B4024E8EEE0F3E0DC0101900D922A95E1F750
S1130B5008952091A301211169C0E2E9F3E0A6AD53
S1130B60B7AD2FEF2C9306A8F7A9E02D2181287F9C
S1130B7021838830910501F158F483309105E1F126
S1130B808530910509F440C0019709F045C00CC0B7
S1130B90811521E0920701F1811524E0920721F1EA
S1130BA080349105C9F510C0E091C803F091C903E0
S1130BB081818160818337C0E091C803F091C903CA
S1130BC08181826081832FC0E091C803F091C903C1
S1130BD081818360818327C0E091C803F091C903B8
S1130BE08181846081831FC0E091C803F091C903AF
S1130BF081818560818317C0E091C803F091C903A6
S1130C008181866081830FC0E091C803F091C9039C
S1130C1081818760818307C0E091C803F091C90393
S1130C2081818560818381E08093A3010895E091AF
S1130C30C803F091C90390819F7390838230A9F017
S1130C40833021F1813091F5E2E9F3E0A28DB38D97
S1130C5011968C911197806411968C9306A8F7A92C
S1130C60E02D8081806480830895E2E9F3E0A28D21
S1130C70B38D11968C911197806411968C9306A86C
S1130C80F7A9E02D8081806880830895E2E9F3E08C
S1130C90A28DB38D11968C911197806411968C93CB
S1130CA006A8F7A9E02D8081806C80830895E091E7
S1130CB0C803F091C90390819F7C90838230A9F08E
S1130CC0833021F1813091F5E2E9F3E0A28DB38D17
S1130CD011968C911197806211968C9306A8F7A9AE
S1130CE0E02D8081806180830895E2E9F3E0A28DA4
S1130CF0B38D11968C911197806211968C9306A8EE
S1130D00F7A9E02D8081806280830895E2E9F3E011
S1130D10A28DB38D11968C911197806211968C934C
S1130D2006A8F7A9E02D8081806380830895E0916F
S1130D30D003F091D10380830895E091D003F09122
S1130D40D10381830895E2E9F3E0A6A9B7A9119636
S1130D508C911197887F11968C9306A8F7A9E02DA2
S1130D6012821092A3010895E091B003F091B103AF
S1130D7090819F7390838230A9F0833021F1813078
S1130D8091F5E2E9F3E0A689B78911968C91119760
S1130D90826011968C93068CF78DE02D808180649F
S1130DA080830895E2E9F3E0A689B78911968C91CE
S1130DB01197826011968C93068CF78DE02D8081BB
S1130DC0806880830895E2E9F3E0A689B7891196E3
S1130DD08C911197826011968C93068CF78DE02D7F
S1130DE08081806C80830895E091B003F091B10319
S1130DF090819F7C90838230A9F0833021F18130EF
S1130E0091F5E2E9F3E0A689B78911968C911197DF
S1130E10846011968C93068CF78DE02D808180611F
S1130E2080830895E2E9F3E0A689B78911968C914D
S1130E301197846011968C93068CF78DE02D808138
S1130E40806280830895E2E9F3E0A689B789119668
S1130E508C911197846011968C93068CF78DE02DFC
S1130E608081806380830895CF93DF93C091B8031A
S1130E70D091B903E0910604F091070409959B838E
S1130E808A83DF91CF910895CF93DF93C091B80304
S1130E90D091B903E0910604F091070409959D836C
S1130EA08C83DF91CF910895CF93DF932091A2019A
S1130EB021116DC0EC018FEF9FEF0E9434078FEF7B
S1130EC09FEF0E944407E091B003F091B103818148
S1130ED0887F8183C830D10501F158F4C330D1052E
S1130EE0E1F1C530D10509F440C0219709F045C0AE
S1130EF00CC0C11581E0D80701F1C11584E0D80701
S1130F0021F1C034D105C9F510C0E091B003F091CE
S1130F10B10381818160818337C0E091B003F09196
S1130F20B1038181826081832FC0E091B003F0918D
S1130F30B10381818360818327C0E091B003F09184
S1130F40B1038181846081831FC0E091B003F0917B
S1130F50B10381818560818317C0E091B003F09172
S1130F60B1038181866081830FC0E091B003F09169
S1130F70B10381818760818307C0E091B003F09160
S1130F80B10381818560818381E08093A201DF9137
S1130F90CF910895CF93DF93E2E9F3E0A68DB78D67
S1130FA011968C911197887F11968C93C68DD78D4D
S1130FB0E0910604F091070480E090E009959D8398
S1130FC08C831092A201DF91CF9108952091A10109
S1130FD0211169C0E091E803F091E9032FEF208328
S1130FE0E091E003F091E1032181287F21838034A3
S1130FF0910579F150F488309105D9F0803291054A
S113100001F1019709F045C00CC0811521E0920758
S113101081F1811524E09207A1F180389105C9F589
S113102020C0E091E003F091E1038181816081833C
S113103037C0E091E003F091E10381818260818314
S11310402FC0E091E003F091E1038181836081830B
S113105027C0E091E003F091E10381818460818302
S11310601FC0E091E003F091E103818185608183F9
S113107017C0E091E003F091E103818186608183F0
S11310800FC0E091E003F091E103818187608183E7
S113109007C0E091E003F091E103818187608183DF
S11310A081E08093A1010895E091E003F091E103D0
S11310B090819F739083823099F0833001F1813065
S11310C061F5E091A803F091A9038181886081838F
S11310D0E091E003F091E1038081806480830895CE
S11310E0E091A803F091A903818188608183E09154
S11310F0E003F091E1038081806880830895E091AA
S1131100A803F091A903818188608183E091E003C1
S1131110F091E1038081806C80830895E091E00385
S1131120F091E10390819F7C9083823099F0833029
S113113001F1813061F5E091AC03F091AD0381815F
S113114088608183E091E003F091E1038081806114
S113115080830895E091AC03F091AD0381818860B0
S11311608183E091E003F091E103808180628083D8
S11311700895E091AC03F091AD038181886081838F
S1131180E091E003F091E10380818063808308951E
S1131190E091E803F091E90380830895E091E80386
S11311A0F091E90381830895E0EEF3E0A081B18139
S11311B011968C911197887F11968C930190F081F0
S11311C0E02D12821092A1010895EF92FF920F93E5
S11311D01F93CF93DF93CDB7DEB7C458D1090FB6B1
S11311E0F894DEBF0FBECDBF8C01E62EF42ECE01E7
S11311F001960E94640484E8FE013196A2E9B3E0FA
S113120001900D928A95E1F71092A301E2E9F3E0CF
S1131210A6A9B7A98C918C7F8C9306A8F7A9E02D79
S11312208181877F818383E0E81601F18E1538F090
S1131230E1E0EE1659F0F2E0EF1681F03AC085E0F5
S1131240E816E1F0E7E0EE1639F133C0E091C803A7
S1131250F091C9038081816080832BC0E091C80331
S1131260F091C90380818260808323C0E091C80328
S1131270F091C9038081836080831BC0E2E9F3E0BD
S1131280A6A9B7A98C9181608C9306A8F7A9E02D33
S11312908181886081830DC0E2E9F3E0A6A9B7A942
S11312A08C9183608C9306A8F7A9E02D81818860D6
S11312B08183E091CE03F091CF038081887F808386
S11312C04F2D50E0FA013197E730F10508F065C081
S11312D0EC5CFF4F0C940724E2E9F3E0A4ADB5AD58
S11312E08C9181608C930284F385E02D84858068E1
S11312F0848753C0E2E9F3E0A4ADB5AD8C9182607C
S11313008C930284F385E02D84858068848745C0AE
S1131310E2E9F3E0A4ADB5AD8C9184608C930284D2
S1131320F385E02D84858068848737C0E2E9F3E0A3
S1131330A4ADB5AD8C9183608C930284F385E02DCC
S113134084858068848729C0E2E9F3E0A4ADB5AD63
S11313508C9185608C930284F385E02D848580686C
S113136084871BC0E2E9F3E0A4ADB5AD8C9187603E
S11313708C930284F385E02D8485806884870DC076
S1131380E2E9F3E0A4ADB5AD8C9186608C93028460
S1131390F385E02D84858068848787E196E0F801F1
S11313A09183808387E596E09383828387E996E03F
S11313B0958384838DE996E09783868389EA95E013
S11313C09187808783EA96E093878287C801CC5708
S11313D0DF4F0FB6F894DEBF0FBECDBFDF91CF91C4
S11313E01F910F91FF90EF900895EF92FF920F934A
S11313F01F93CF93DF93CDB7DEB7C458D1090FB68F
S1131400F894DEBF0FBECDBF7C01062F142FCE0192
S113141001960E94640484E8FE013196A2E9B3E0D7
S113142001900D928A95E1F71092A201E2E9F3E0AE
S1131430A68DB78D8C918C7F8C93068CF78DE02DC7
S11314408181877E8183802F90E0FC013197EF308A
S1131450F10508F0B1C0E55CFF4F0C940724E0915E
S1131460B003F091B103808181608083A5C0E091D5
S1131470B003F091B1038081826080839DC0E091CC
S1131480B003F091B10380818360808395C0E091C3
S1131490B003F091B1038181886081838DC0E2E95A
S11314A0F3E0A68DB78D8C9181608C93068CF78DBB
S11314B0E02D8181886081837FC0E2E9F3E0A68D1D
S11314C0B78D8C9182608C93068CF78DE02D818191
S11314D08860818371C0E2E9F3E0A68DB78D8C91B9
S11314E083608C93068CF78DE02D818188608183E5
S11314F063C0E091B003F091B10381818061818385
S11315005BC0E2E9F3E0A68DB78D8C9181608C938A
S1131510068CF78DE02D8181806181834DC0E2E9E5
S1131520F3E0A68DB78D8C9182608C93068CF78D39
S1131530E02D8181806181833FC0E2E9F3E0A68DE3
S1131540B78D8C9183608C93068CF78DE02D81810F
S11315508061818331C0E091B003F091B103818156
S11315608861818329C0E2E9F3E0A68DB78D8C916F
S113157081608C93068CF78DE02D81818861818355
S11315801BC0E2E9F3E0A68DB78D8C9182608C9349
S1131590068CF78DE02D8181886181830DC0E2E99D
S11315A0F3E0A68DB78D8C9183608C93068CF78DB8
S11315B0E02D818188618183E2E9F3E0A68DB78D16
S11315C08C918F708C9304A0F5A1E02D8181887D8E
S11315D08183412F50E0FA013197EB30F10508F097
S11315E0BEC0E65BFF4F0C940724E2E9F3E0A4A13C
S11315F0B5A111968C911197816011968C930284F8
S1131600F385E02D848580688487A9C0E2E9F3E04E
S1131610A4A1B5A111968C911197826011968C9317
S11316200284F385E02D84858068848798C0E2E98C
S1131630F3E0A4A1B5A111968C9111978460119641
S11316408C930284F385E02D84858068848787C029
S1131650E2E9F3E0A4A1B5A111968C9111978062FF
S113166011968C930284F385E02D848580688487A9
S113167076C0E2E9F3E0A4A1B5A111968C9111978B
S1131680866011968C930284F385E02D84858068AE
S1131690848765C0E2E9F3E0A4A1B5A111968C9119
S11316A01197836011968C930284F385E02D8485D1
S11316B08068848754C0E2E9F3E0A4A1B5A111963F
S11316C08C911197856011968C930284F385E02D9B
S11316D084858068848743C0E2E9F3E0A4A1B5A1CE
S11316E011968C911197816211968C930284F385E3
S11316F0E02D84858068848732C0E2E9F3E0A4A108
S1131700B5A111968C911197876011968C930284E0
S1131710F385E02D84858068848721C0E2E9F3E0C5
S1131720A4A1B5A111968C911197876211968C93FF
S11317300284F385E02D84858068848710C0E2E903
S1131740F3E0A4A1B5A111968C911197866011962E
S11317508C930284F385E02D84858068848784EBF0
S113176096E0F7019183808384EF96E093838283EC
S113177084E397E09583848384E497E09783868366
S113178084E597E0918780878AEC97E09387828746
S1131790C701CC57DF4F0FB6F894DEBF0FBECDBFE5
S11317A0DF91CF911F910F91FF90EF900895EF92E9
S11317B0FF920F931F93CF93DF93CDB7DEB7C45837
S11317C0D1090FB6F894DEBF0FBECDBF8C01E62E53
S11317D0F42ECE0101960E94640484E8FE01319641
S11317E0A2E9B3E001900D928A95E1F71092A1016C
S11317F0E0EEF3E0A081B1818C918C7F8C93019019
S1131800F081E02D8181877F818383E0E81601F1F7
S11318108E1538F0E1E0EE1659F0F2E0EF1681F0A3
S11318203AC085E0E816E1F0E7E0EE1639F133C09E
S1131830E091E003F091E1038081816080832BC01B
S1131840E091E003F091E10380818260808323C012
S1131850E091E003F091E1038081836080831BC009
S1131860E0EEF3E0A081B1818C9181608C930190D2
S1131870F081E02D8181886081830DC0E0EEF3E08A
S1131880A081B1818C9183608C930190F081E02DD3
S1131890818188608183E091E603F091E70382818E
S11318A0887F8283F3E0FF1691F1FF1538F081E021
S11318B0F81679F0E2E0FE16D9F064C0F5E0FF1600
S11318C009F443C0FF1690F186E0F81609F44CC001
S11318D059C0E091E603F091E7038281816082833D
S11318E0E0919C03F0919D038485806884874AC0BD
S11318F0E091E603F091E703828182608283E091C4
S11319009C03F0919D038485806884873BC0E091AB
S1131910E603F091E703828183608283E0919C0374
S1131920F0919D038485806884872CC0E091E60350
S1131930F091E703828185608283E0919C03F091BA
S11319409D038485806884871DC0E091E603F0913F
S1131950E703828186608283E0919C03F0919D037A
S11319608485806884870EC0E091E603F091E703E4
S1131970828187608283E0919C03F0919D0384853A
S11319808068848784E598E0F801918380838EE8F9
S113199098E09383828388EC98E0958384838EEC2B
S11319A098E09783868386EE97E09187808784ED1D
S11319B098E093878287C801CC57DF4F0FB6F8941D
S11319C0DEBF0FBECDBFDF91CF911F910F91FF906E
S11319D0EF900895E0917C04F0917D048181887FEB
S11319E00895E0917C04F0917D0484E9848387EC7C
S11319F090E00197F1F700C000000895CF93DF93C2
S1131A0018161CF4880F816001C081E0E6E1F4E05F
S1131A10A0917C04B0917D0412968C93A28DB38D19
S1131A2011968C911197806311968C93028CF38D8F
S1131A30E02D828180638283643089F018F4613000
S1131A4031F025C0603199F06034C9F020C0E091D4
S1131A507C04F0917D0481818C7F818320C0E0919E
S1131A607C04F0917D0481818160818318C0E091C0
S1131A707C04F0917D0481818260818310C0E091B7
S1131A807C04F0917D0481818360818308C0E091AE
S1131A907C04F0917D0481818C7F818361E0C0911D
S1131AA07C04D0917D04262F30E0220F331F032EB7
S1131AB0000C440B550B60E470E080E090E00E9461
S1131AC0C6232883DF91CF910895BF92CF92DF92EE
S1131AD0EF92FF920F931F93CF93DF93CDB7DEB7AF
S1131AE0C458D1090FB6F894DEBF0FBECDBF8C0128
S1131AF0E62EB42ECE0101960E94640484E8FE0111
S1131B003196A6E1B4E001900D928A95E1F70F2E8B
S1131B10F6E1CF2EF4E0DF2EF02DD6011A96ED91EA
S1131B20FC911B97F4848F2D8F7784876B2D8E2DDA
S1131B300E94FE0CD6011A96ED91FC911B97F48637
S1131B408BED9DE0F801918380838CEE9DE093837F
S1131B5082838AE09EE09583848380E29EE097837B
S1131B60868381EF9CE0918780878AEE9CE093874F
S1131B708287C801CC57DF4F0FB6F894DEBF0FBE83
S1131B80CDBFDF91CF911F910F91FF90EF90DF9028
S1131B90CF90BF900895E0917C04F0917D0424815E
S1131BA0222344F021E030E08217930718F02F5FDE
S1131BB03F4FFACF0895E0917C04F0917D0484EACC
S1131BC084838FEF93E00E94CB0D0E94EA0C88304F
S1131BD011F00E94F10C0895662319F0880F8160BA
S1131BE001C0880FECE7F4E0A081B18113968C93D7
S1131BF00190F081E02D84E884838FEF93E00E94CC
S1131C00CB0D0E94EA0C883121F0803411F00E943F
S1131C10F10C0895ECE7F4E0A081B18113968C9364
S1131C200190F081E02D84E884838FEF93E00E949B
S1131C30CB0D0E94EA0C883211F00E94F10C089539
S1131C40882311F080E401C080E0E0917C04F091ED
S1131C507D04846884838FEF93E00E94CB0D0E94FF
S1131C60EA0C883311F40E94F10CE0917C04F091A9
S1131C707D0483810895E091A304F091A4048BE989
S1131C8094E009950895E091A504F091A6048BE9E8
S1131C9094E00995089580912B0510922B05EFECA3
S1131CA0F7E03197F1F700C0000008950E944B0E51
S1131CB00895E1E1F5E0A081B18116968C9301903D
S1131CC0F081E02D8181806281838FEC97E0019720
S1131CD0F1F700C0000008950E94590E0895CF93B3
S1131CE0DF93EC018881882331F021960E94590EFC
S1131CF089918111FBCFDF91CF9108953F924F924B
S1131D005F926F927F928F929F92AF92BF92CF9287
S1131D10DF92EF92FF920F931F93CF93DF93CDB790
S1131D20DEB7C458D1090FB6F894DEBF0FBECDBFDD
S1131D307C015B016A0129013801E091B104F09151
S1131D40B2043484832D8F778487CE0101960E9458
S1131D50640484E8FE013196A7EAB4E001900D9290
S1131D608A95E1F74CE255E060E1CE0101960E94CC
S1131D70C7108CE0FE013196ABE9B4E001900D92FE
S1131D808A95E1F7BB204CF4E0911105F09112051E
S1131D9082E08083C5019F7701C0C50101E115E0A0
S1131DA0D8018D909C90E0911B05F0911C0509953C
S1131DB0F40195838483D801ED91FC9188E98183B2
S1131DC0B7E0CB16D104D9F158F4F5E0CF16D1041D
S1131DD009F46BC086E0C816D10409F44BC078C07E
S1131DE0A8E0CA16D104C1F0B9E0CB16D10409F0B9
S1131DF06FC0E1E1F5E0A081B18111968C9111975A
S1131E00846011968C930190F081E02D828186602C
S1131E10828369E070E06EC0E1E1F5E0A081B18108
S1131E2011968C9111978B7F11968C930190F08170
S1131E30E02D82818660828368E070E05BC0E1E12E
S1131E40F5E0A081B18111968C9111978B7F119649
S1131E508C93A081B18112968C9112978460129612
S1131E608C930190F081E02D82818D7F828367E0E5
S1131E7070E040C0E1E1F5E0A081B18111968C9160
S1131E8011978B7F11968C93A081B18112968C91BE
S1131E9012978B7F12968C930190F081E02D8281B2
S1131EA08260828366E070E025C0E1E1F5E0A08114
S1131EB0B18111968C9111978B7F11968C9301901F
S1131EC0F081E02D8281897F828365E070E012C019
S1131ED0E1E1F5E0A081B18111968C9111978B7F9E
S1131EE011968C930190F081E02D8281866082832B
S1131EF068E070E0E1E04E16510429F0F2E04F167C
S1131F00510459F014C0E0911105F0911205828139
S1131F10877F828341E050E013C0E0911105F09186
S1131F20120582818860828342E050E009C0E0911A
S1131F301105F09112058281877F828341E050E090
S1131F4082E06816710481F0A3E06A167104F9F066
S1131F50672839F5E0911105F091120582818F7C93
S1131F60828320E030E026C0E1E1F5E0A081B18188
S1131F7012968C911297806212968C930190F08144
S1131F80E02D82818F7E828322E030E013C0E091D5
S1131F901105F091120582818063828323E030E091
S1131FA009C0E0911105F091120582818F7C828332
S1131FB020E030E0E091B104F091B204832D806818
S1131FC08487F701B182A08273836283558344833B
S1131FD0378326838BE49EE09187808786E59EE0A5
S1131FE0938782878BE39EE09587848783E49EE0D2
S1131FF09787868789E59EE0918B808B8CE69EE0AF
S1132000938B828B8FE69EE0958B848BC701CC5794
S1132010DF4F0FB6F894DEBF0FBECDBFDF91CF9177
S11320201F910F91FF90EF90DF90CF90BF90AF90F2
S11320309F908F907F906F905F904F903F90089506
S11320401F920F920FB60F9211242F933F934F9329
S11320505F936F937F938F939F93AF93BF93EF930C
S1132060FF93E0911105F0911205808188718093AE
S11320709A04668160932B05E091A104F091A20477
S11320808BE994E00995FF91EF91BF91AF919F91F6
S11320908F917F916F915F914F913F912F910F900D
S11320A00FBE0F901F9018951F920F920FB60F92AC
S11320B011248F93EF93FF93E0911105F091120592
S11320C081818F7D8183FF91EF918F910F900FBE5E
S11320D00F901F901895FC0184E097E29183808310
S11320E080E597E29383828382E297E295838483F7
S11320F08CE097E29783868386E697E291878087D0
S113210080E497E2938782878EE597E297878687B4
S11321108EE597E2958B848B84E397E2978B868B8D
S113212084EF96E2918F808F86E497E2938F828F7B
S113213082E197E2958F848FCF0108956623C1F0E1
S1132140DC011296ED91FC91139714962D913C911C
S11321501597E217F30729F4ED91FC91DF0111962D
S113216002C0DF01119660831C92FC01B383A28339
S11321700895FC01808191810895DC01ED91FC9129
S113218011971396FC93EE93129710820895FC0115
S11321905183408353834283460F511D55834483A7
S11321A08EE990E19783868389EB90E1918780871C
S11321B08DEB90E193878287CF010895FC01928192
S11321C0838190838183262F30E033832283262FDB
S11321D02927492F422350E055834483262330E0A6
S11321E037832683262F292330E031872087962BB7
S11321F09095692F70E0738762870895FC011182BE
S11322001082138212822EED30E1358724870895DF
S1132210CF92DF92EF92FF920F931F93FC01008104
S1132220118122813381FB01C080D180E280F3805F
S1132230FC01C082D182E282F382FB01008311831C
S1132240228333831F910F91FF90EF90DF90CF9003
S11322500895FB012081FC012083222339F0DB0156
S1132260119631969D9191939111FCCF0895CF933E
S1132270DF93EC019881992399F0FE01319620E0D7
S113228030E0492F50E04617570731F0DE01A20F26
S1132290B31F9C932F5F3F4F91919111F2CF02C0D6
S11322A020E030E0FE01E20FF31F1082DF91CF91B6
S11322B008952F923F924F925F926F927F928F92E6
S11322C09F92AF92BF92CF92DF92EF92FF920F93C1
S11322D01F93CF93DF9300D000D0CDB7DEB72C018E
S11322E01B014B0177231CF42FEF821A920A959459
S11322F08794181419040CF451C06AC09601DD20A7
S11323009CF1F50140815181F40160817181641770
S1132310750754F58C010A0D1B1DD401BC82AB82D8
S1132320BA82A982EB81FC817183608311965C93EC
S11323304E932E193F09C2F0F80140815181E98181
S1132340FA8160817181080F191FE80FF91FFA8360
S1132350E983EB81FC81E80FF91FFC83EB83A80F71
S1132360B91F64177507F4F2FFEFCF1ADF0A22E0F2
S1132370A20EB11CE2E08E0E911CC614D70409F023
S1132380BDCF4701FF201CF4FFEF8F1A9F0A9594DD
S1132390879418141904E4F4740101C074018214BC
S11323A093047CF76401CE18DF085601AA0CBB1C09
S11323B0A40CB51C880C991C840C951C31016E1856
S11323C07F08C701880F991F91958195910996CF30
S11323D00F900F900F900F90DF91CF911F910F915D
S11323E0FF90EF90DF90CF90BF90AF909F908F9031
S11323F07F906F905F904F903F902F900895861735
S113240097070CF4CB0108959B01672B11F40895F1
S11324109A01B9010E94B223AC01822F932F411576
S11324205105B1F70895FC01908180ED890F8A3040
S1132430D0F4319620E030E0A901440F551F220F5B
S1132440331F220F331F220F331F420F531F292F15
S113245030E020533109240F351F919180ED890F0D
S11324608A3050F302C020E030E0C9010895862389
S11324700895009739F020E030E02F5F3F4F821736
S11324809307D9F7089587FF08C09195819591091D
S1132490992791958195910908958F7799270895A2
S11324A091FF08C0919581959109937091958195BB
S11324B09109089591700895615021E030E002C0BF
S11324C0220F331F6A95E2F7A90141505109B9015E
S11324D068237923672B29F084239523821B930B8C
S11324E008958423952308959DEC899F912D1124AB
S11324F0969596959695392F330F232F220F220FF9
S1132500230F821B20E1929F800D11240895982FA0
S113251092959F70990F292F220F220F920F8F707F
S1132520890F0895FC01DB01AC55BE4F1C921616B1
S1132530170614F5908191110CC017C09191911157
S11325400DC015C081932F5F3F4F26173707D4F373
S113255013C0A4EAB1E0319620E030E09D932F5FF0
S11325603F4F6217730751F707C020E030E0F901CD
S1132570EC55FE4F80E2E6CF84EA91E008954F9255
S11325805F926F927F92AF92BF92CF92DF92EF925F
S1132590FF920F931F93CF93DF93CDB7DEB729013B
S11325A03A019B01AC012419350946095709898967
S11325B09A89AB89BC89BC01CD016A197B098C0954
S11325C09D090E948E23A801970124193509460903
S11325D057090E94E823CA01B9016A0D7B1D8C1DAD
S11325E09D1DDF91CF911F910F91FF90EF90DF9090
S11325F0CF90BF90AF907F906F905F904F90089571
S1132600FC012081222341F0319680E090E0019684
S113261021912111FCCF089580E090E00895CF939B
S1132620DF93EC010E9400139C012150310962F0F8
S1132630FE01E80FF91F9291903219F099509230EF
S113264018F421503109B8F7C20FD31F1982C901F8
S1132650DF91CF910895CF93DF93EC010E94001393
S11326609C01215031091216130684F4DE01A80FCF
S1132670B91FFE0180E090E040815E9151934C933C
S113268001962150310982179307B4F3DF91CF915A
S113269008958F929F92AF92BF92CF92DF92EF9262
S11326A0FF920F931F93CF93DF936B017C01DC01A7
S11326B0CB01FF203CF488279927DC018C199D0964
S11326C0AE09BF09BC01CD0110E00F2EFAE08F2E38
S11326D0912CA12CB12CF02D01C0102F01E0010F81
S11326E0C12FD0E0CC55DE4FA50194010E94E82310
S11326F0605D6883622F732F842F952F161617063B
S11327001806190654F3FF2044F4E02FF0E0EC55CA
S1132710FE4F8DE2808302E0010FE02FF0E0EC55E4
S1132720FE4F108284EA91E00E942B1384EA91E028
S1132730DF91CF911F910F91FF90EF90DF90CF9099
S1132740BF90AF909F908F9008950F931F93CF9356
S1132750DF93EC01992324F4882799278C1B9D0B84
S113276020E00AE010E001C0232F31E0320FE22F15
S1132770F0E0EC55FE4FB8010E94B223805D8083E7
S1132780862F972F181619067CF3DD2344F4E32FC4
S1132790F0E0EC55FE4F8DE2808332E0320FE32F00
S11327A0F0E0EC55FE4F108284EA91E00E942B1376
S11327B084EA91E0DF91CF911F910F910895CF9317
S11327C0AC019C01ADECBCEC0E940D249695879560
S11327D096958795969587959C01220F331F880FB0
S11327E0991F880F991F880F991F820F931F9A01B1
S11327F0281B390BC901805D8093A4019A010E94B2
S11328000D24AC0156954795569547955695479591
S11328104115510589F1E1E0C1E0CE0FF0E0EC553E
S1132820FE4F9A01ADECBCEC0E940D249695879561
S113283096958795969587959C01220F331F880F4F
S1132840991F880F991F880F991F820F931F9A0150
S1132850281B390BC901805D80839A010E940D24D5
S1132860AC01569547955695479556954795EC2F47
S11328704115510589F601C0C1E0EC2FF0E0EC559B
S1132880FE4F108284EA91E00E942B1384EA91E0C7
S1132890CF910895982F92959F70990F292F220F09
S11328A0220F920F8F70890F0895AC019C01ADEC3B
S11328B0BCEC0E940D2496958795969587959695E0
S11328C08795BC01660F771F9C01220F331F220FCF
S11328D0331F220F331F260F371F421B530B342F76
S11328E020E1829F300D1124832F0895CF92DF922F
S11328F0EF92FF92CF93DF93CDB7DEB728970FB651
S1132900F894DEBF0FBECDBF6B017C0169837A836F
S11329108B839C832D833E834F835887C216D306B3
S1132920E406F5063CF4BE016B5F7F4FCE010196D1
S11329300E9408118D819E81AF81B885892B8A2BD5
S11329408B2B71F469817A818B819C8120E030E04A
S1132950A9010E94E823611571058105910529F4F7
S11329606D817E818F81988505C06D837E838F8381
S11329709887F6CF28960FB6F894DEBF0FBECDBF6A
S1132980DF91CF91FF90EF90DF90CF90089590E08A
S113299002C0959587956A95E2F7817008959C0128
S11329A02150310981E090E002C0880F991F2A95D7
S11329B0E2F70097B1F0E4EAF1E020E030E0B0E3C0
S11329C0A1E3AB0148235923452B11F0A08301C097
S11329D0B083969587952F5F3F4F3196009789F77F
S11329E002C020E030E0F901EC55FE4F108284EA89
S11329F091E00895AB01BC011092A4014115510569
S1132A006105710509F442C021E0EFEFE20FDB013B
S1132A10CA018F709927AA27B078BB2354F4019771
S1132A20A109B109806F9F6FAF6FBF6F0196A11DA0
S1132A30B11D8A309105A105B10534F4F0E0EC55DF
S1132A40FE4F805D808305C0F0E0EC55FE4F895C4D
S1132A508083E22FF0E0EC55FE4F1082DB01CA01C7
S1132A6077231CF40F96A11DB11DAC01BD01689420
S1132A7013F875956795579547951694D1F72F5F79
S1132A80411551056105710509F0BFCF84EA91E054
S1132A900E942B1384EA91E00895982789279827A8
S1132AA00895FB012081222339F0A82FB92F3196F4
S1132AB02D9321912111FCCF0895FF920F931F9321
S1132AC0CF93DF938C01EB01F42E642F70E080E050
S1132AD090E00E94E5209B01AC0160E070E080E0A2
S1132AE090E40E94092220E030E040E85FE30E9485
S1132AF0CB1F0E94B6209E01262337236023712317
S1132B00CB01822793272823392302C0220F331FA6
S1132B10FA94E2F7822B932BDF91CF911F910F91BF
S1132B20FF900895CF93DF93CDB7DEB79E012B5F5F
S1132B303F4FF901419151919F016FE570E084EAA3
S1132B4091E00E94372499231CF084EA91E002C0AA
S1132B5080E090E0DF91CF910895FC011092030290
S1132B6080E093E1918380838BE293E1938382837A
S1132B708DE595E19583848388E091E1978386834D
S1132B8089E291E19187808787E391E19387828746
S1132B9089E591E19587848785EA93E1978786871C
S1132BA08FED93E1918B808B89E493E1938B828BFE
S1132BB08FE093E1958B848B8FEF91E1978B868BDC
S1132BC084E092E1918F808F83E192E1938F828FF1
S1132BD087E392E1958F848F89E392E1978F868FC3
S1132BE083E492E191A380A380E592E193A382A37D
S1132BF08CE592E195A384A384E792E197A386A34D
S1132C0087E892E191A780A782E992E193A782A73E
S1132C108FEB92E195A784A78AE494E197A786A70E
S1132C2085E594E191AB80AB86E794E193AB82AB0D
S1132C3087EC94E195AB84AB8FEC94E197AB86ABD6
S1132C4083E996E191AF80AF8AEF94E193AF82AFCD
S1132C508DE495E195AF84AF82E995E197AF86AFB6
S1132C60DF01A05CBF4F81E595E18D939C93CF017B
S1132C7008958F929F92AF92BF92EF92FF920F931B
S1132C801F93CF93DF938A01D22F2AE030E040E0F4
S1132C9050E00E94E823605DF8016083622F732F87
S1132CA0842F952F1616170618061906FCF421E032
S1132CB00F2EFAE08F2E912CA12CB12CF02DC1E017
S1132CC0C20F7801E20EF11CA50194010E94E823D1
S1132CD0605DF7016083622F732F842F952F2C2F53
S1132CE0161617061806190654F301C0C1E0CD17CD
S1132CF048F480E3F801EC0FF11D8083CF5FDC130F
S1132D00F9CF01C0DC2FF801ED0FF11D10828D2FDA
S1132D10DF91CF911F910F91FF90EF90BF90AF90F3
S1132D209F908F9008958F929F92AF92BF92CF926F
S1132D30DF92EF92FF920F931F93CF93DF936B0178
S1132D407C01EA01022F20E030E0A9010E94382032
S1132D5088230CF06CC0F7FAF094F7F8F094C701EC
S1132D60B6010E94B6204B015C010E94E5209B0144
S1132D70AC01C701B6010E94CB1F6B017C01B401F9
S1132D80990C880B990B21E0AE010E94391611E0D1
S1132D90180FFE01E80FF11D8DE280835E01A10E84
S1132DA0B11CF5011082CE010E942B138FEF800F0E
S1132DB0863018F58EE2F50180831F5F5E01A10E57
S1132DC0B11C602F70E080E090E00E94E5209B0140
S1132DD0AC0160E070E080E291E40E940922A70166
S1132DE096010E949C210E94AF20202FA5010E94E1
S1132DF03916C5010E942B133AC08EE2F501808377
S1132E001F5FCE01810F911D8C0120E030E048EC62
S1132E1052E4C701B6010E949C210E94AF2022E027
S1132E20A8010E943916C8010E942B1320C0C701B3
S1132E30B6010E94B6204B015C010E94E5209B0173
S1132E40AC01C701B6010E94CB1F6B017C01B40128
S1132E50990C880B990B21E0AE010E94391611E000
S1132E60180FFE01E80FF11D80E2808397CFCE0199
S1132E70DF91CF911F910F91FF90EF90DF90CF9052
S1132E80BF90AF909F908F900895E0913D05F09191
S1132E903E0580818B7F8083E0913D05F0913E0566
S1132EA080818460808308950F931F93CF93C82FEC
S1132EB08B01E0913D05F0913E0580818D7F8083FB
S1132EC0E0914605F091470580818F608083672BF0
S1132ED041F0E0913D05F0913E0580818160808361
S1132EE007C0E0913D05F0913E0580818E7F80838F
S1132EF080E090E00E944517CC2344F4E09148051B
S1132F00F091490580818860808307C0E09148057D
S1132F10F09149058081877F8083C6FF08C0E091D6
S1132F204805F091490580818460808307C0E09161
S1132F304805F091490580818B7F8083C5FF08C0D7
S1132F40E0914805F091490580818260808307C043
S1132F50E0914805F091490580818D7F8083C4FF0D
S1132F6008C0E0914805F091490580818160808323
S1132F7007C0E0914805F091490580818E7F8083E8
S1132F80012B41F0E0913D05F0913E058081816087
S1132F90808307C0E0913D05F0913E0580818E7FDE
S1132FA0808380E090E00E944517C3FF08C0E09151
S1132FB04805F091490580818860808307C0E091CD
S1132FC04805F09149058081877F8083C2FF08C04E
S1132FD0E0914805F091490580818460808307C0B1
S1132FE0E0914805F091490580818B7F8083C1FF82
S1132FF008C0E0914805F091490580818260808392
S113300007C0E0914805F091490580818D7F808358
S1133010C0FF08C0E0914805F091490580818160B6
S1133020808307C0E0914805F091490580818E7F37
S11330308083E0913D05F0913E0580818B7F808304
S1133040CF911F910F91089560E070E081E00E949C
S1133050541783EF9BE00197F1F700C00000089537
S11330600F931F93CF938C01E0914605F091470590
S11330708081807F8083E0914805F09149058081BB
S11330808F608083E0913D05F0913E0580818260F0
S113309080830115110541F0E0913D05F0913E0555
S11330A080818160808307C0E0913D05F0913E05F9
S11330B080818E7F808380E090E00E944517E091BC
S11330C04105F0914205808183FD02C0C0E001C04A
S11330D0C0E8808182FF02C0C06401C0CF7B8081D0
S11330E081FF02C0C06201C0CF7D808180FF02C029
S11330F0C06101C0CF7E012B41F0E0913D05F0910C
S11331003E0580818160808307C0E0913D05F09198
S11331103E0580818E7F808380E090E00E94451789
S1133120E0914105F0914205808183FF03C08C2F1B
S1133130886002C08C2F877F908192FF02C08460D8
S113314001C08B7F908191FF02C0826001C08D7F9E
S1133150908190FF02C0816001C08E7FE0913D05A7
S1133160F0913E0590819B7F9083CF911F910F91A9
S1133170089580E090E00E943018882354F480E0A1
S113318090E00E943018882324F480E090E00E94AC
S11331903018089561E070E00E9454170E94B91835
S11331A00895CF93DF93EC018881882331F0219631
S11331B00E94CA1889918111FBCFDF91CF910895A4
S11331C00F931F93CF93DF93FC01D62F8081882325
S11331D051F08F010F5F1F4F611109C017C0CF5FFE
S11331E0DC1730F401C0C0E0CD1750F00FC0C1E0CF
S11331F00E94CA18F80181918F018111F0CFF4CF98
S113320080E20E94CA18CF5FCD17D0F3DF91CF912F
S11332101F910F910895CF93C82F882329F080E23E
S11332200E94CA18C150D9F7CF910895262F813032
S1133230910581F030F082309105A9F00397E1F017
S1133240089560E070E080E8820F0E9454170E94A5
S1133250B918089560E070E080EC820F0E94541762
S11332600E94B918089560E070E084E9820F0E941A
S113327054170E94B918089560E070E084ED820F3D
S11332800E9454170E94B9180895E0913F05F091E7
S11332904005808187608083E0913D05F0913E0583
S11332A08081886080832FEF89EF90E021508040F7
S11332B09040E1F700C0000060E070E088E30E9405
S11332C0541728E62A95F1F760E070E088E30E943D
S11332D0541788E68A95F1F760E070E088E30E946D
S11332E0541798E69A95F1F760E070E088E20E943E
S11332F0541722E62A95F1F700C060E070E088E2F6
S11333000E94541782E68A95F1F700C060E070E0ED
S113331088E20E9454170E94B91860E070E088E2C5
S11333200E9454170E94B91860E070E08CE00E947B
S113333054170E94B91860E070E08CE00E945417A2
S11333400E94B91860E070E081E00E9454170E9466
S1133350B91860E070E081E00E9454170E94B91827
S113336060E070E086E00E9454170E94B91860E0A3
S113337070E086E00E9454170E94B91860E070E083
S113338080E090E00E9416190895CF92DF92EF92A8
S1133390FF920F931F93CF93DF93EC01709340053B
S11333A060933F05509345054093440530933E0593
S11333B020933D051093470500934605F09242057E
S11333C0E0924105D0924905C0924805FB01108264
S11333D0E0913D05F0913E058FEF8083E091460535
S11333E0F09147051082E0914805F09149058083EA
S11333F0E0914405F09145058081887080934305F0
S11334000E94451984E597E19983888380E398E1D4
S11334109B838A8389EB98E19D838C838AEC98E172
S11334209F838E838AE49AE19987888781ED98E166
S11334309B878A8780EE98E19D878C878BE099E152
S11334409F878E8784E298E1998B888B86E199E146
S11334509B8B8A8B88E39AE19D8B8C8BCE01DF91C9
S1133460CF911F910F91FF90EF90DF90CF9008952F
S1133470CF93E0914405F0914505C081C8708091D7
S113348043058C278C2311F00E944519C0934305F2
S1133490CF910895CF9381E090E00E943018C82F17
S11334A00E94B9188C2FCF910895CF92DF92EF929A
S11334B0FF920F931F93CF93DF93CAE6D6E08E89D2
S11334C09F890F2EF8EEEF2EF6E0FF2EF02DD70198
S11334D0ED91FC916FEF019609958E899F8906EE17
S11334E016E0D801ED91FC9160EF02960995888D64
S11334F0998DD701ED91FC916FEF01960995888D17
S1133500998DD801ED91FC9160EF02960995F70130
S1133510C080D1800F2EFCEEEF2EF6E0FF2EF02DB2
S1133520D701ED91FC9162E081E009952A8D3B8DF4
S1133530682FC9010196F6010995D8010D911C91D6
S1133540D701ED91FC9162E081E009952A8D3B8DD4
S1133550682FC9010296F8010995DF91CF911F9157
S11335600F91FF90EF90DF90CF900895CF93DF936A
S1133570CDB7DEB7C458D1090FB6F894DEBF0FBE7D
S1133580CDBFCE0101960E94640484E8FE01319609
S1133590AAE6B6E001900D928A95E1F70E94551AC9
S11335A0EAE5F6E08EEC95E0918380838EE296E086
S11335B09187808782ED95E09383828382E396E00E
S11335C09387828786ED95E09583848386E396E0EE
S11335D0958784878AED95E0978386838AE396E0CE
S11335E097878687EEECF5E020EE35E080E2819364
S11335F0E217F307E1F7EEE2F6E020E436E080E2DA
S11336008193E217F307E1F782E18093FD05AEECC5
S1133610B5E08AE050968C935097EEE2F6E0808B0A
S113362051961C92118ACE0101960E94AD1582E436
S1133630FE013196A4E5B5E001900D928A95E1F77B
S11336400F2EF8E2CF2ED12CF02D0F2EF6E2EF2E16
S1133650F12CF02D07E210E025E230E043E250E0E7
S113366064E270E0CE0101960E94C51986E1FE0174
S11336703196A7EBB5E001900D928A95E1F70F2EF4
S1133680F7E0EF2EF02D05E024E04BE250E06AE293
S113369070E0CE0101960E9459018FE0FE0131963F
S11336A0A0EEB5E001900D928A95E1F70F2EFAE6AF
S11336B0EF2EF6E0FF2EF02DE091D606F091D7061E
S11336C000E010E021E030E048E050E06CE070E021
S11336D0CE010196099586E1FE013196A0E4B6E09B
S11336E001900D928A95E1F7D7019896ED91FC919E
S11336F0999742E064E0CE0101960995CE010196C6
S11337000E94FE108EE0FE013196AFEEB5E001900E
S11337100D928A95E1F7CE0101960E94FE108EE08B
S1133720FE013196AEEFB6E001900D928A95E1F775
S1133730D701D296ED91FC91D39780E094E009955E
S1133740D7019E96ED91FC919F978FEF099510926A
S11337500E0610920F06109210061092110681E0C8
S11337608093CD0510925606109257061092580673
S113377010925906E091EB05F091EC056FEF80EEA5
S113378095E009950AE516E00F2EF4E9EF2EF5E031
S1133790FF2EF02DD701ED91FC9160E071E0D8018E
S11337A018968D919C9119970995D701ED91FC91EB
S11337B060E071E0D8011A968D919C911B97099550
S11337C0D701ED91FC9160E071E0D8011C968D91D8
S11337D09C911D970995D701ED91FC9160E071E0F2
S11337E0D8011E968D919C911F97099501E080E068
S11337F01FEF0F2EF0E44F2EF6E05F2EF02D0F2E6C
S1133800FAE5CF2EF6E0DF2EF02D0F2EF4EE2F2E5C
S1133810F6E03F2EF02D0F2EF7EBAF2EF5E0BF2E86
S1133820F02D0F2EFAE66F2EF6E07F2EF02D01C05C
S113383080E0811159C0D5015496ED91FC915597C2
S11338400995F301A08DB18DF1012081318160EFE3
S11338508C91F9010995982EF301A689B789EAEEAE
S1133860F6E02081318164E08C91F9010995692D9C
S1133870682BE091FB05F091FC058FEE95E009952E
S1133880F301A28DB38DE0910A07F0910B076C91BF
S11338908EEF96E00995D2011C96ED91FC911D974F
S11338A009959093050280930402BC018EEF95E084
S11338B00E943024D2011A96ED91FC911B97099530
S11338C08E3241F4D2011E96ED91FC911F97099519
S11338D081E0AFCF60910402709105028EEE96E014
S11338E00E94302481E0A5CF813009F0A2CF0230BC
S11338F009F44AC018F4013041F001C1033009F45D
S113390082C0043009F4B7C0FAC0F101808091800C
S1133910ACEEB6E0ED91FC9162E081E00995682F90
S113392080910207F4010995811102E0D5015296B4
S1133930ED91FC91539760E070E080E090E0099590
S1133940D5011696ED91FC9117978AE30995D50157
S11339501C96ED91FC911D9760E18EEE96E0099521
S1133960D5015296ED91FC91539760E070E081E0AF
S113397090E00995D5011C96ED91FC911D9760E1AD
S11339808EE296E00995BBC0F10180809180ACEE97
S1133990B6E0ED91FC9162E081E00995682F809199
S11339A00207F4010995811103E0D5015296ED91C6
S11339B0FC91539760E070E080E090E00995D501B8
S11339C01E96ED91FC911F9784E00995D5011C96F4
S11339D0ED91FC911D9767E084E091E00995D50194
S11339E05296ED91FC91539760E070E081E090E095
S11339F00995D5011C96ED91FC911D9760E18EE22D
S1133A0096E009957CC0F10180809180ACEEB6E02F
S1133A10ED91FC9162E081E00995682F80910207A5
S1133A20F4010995811104E0D5015296ED91FC91C0
S1133A30539760E070E080E090E00995D5011C9612
S1133A40ED91FC911D9760E18CE091E00995D50121
S1133A505296ED91FC91539760E070E081E090E024
S1133A600995D5011C96ED91FC911D9760E18CE0C0
S1133A7091E0099544C0F10180809180ACEEB6E0FC
S1133A80ED91FC9162E081E00995682F8091020735
S1133A90F4010995811101E0D5015296ED91FC9153
S1133AA0539760E070E080E090E00995D5011C96A2
S1133AB0ED91FC911D9760E18CE091E00995D501B1
S1133AC05296ED91FC91539760E070E081E090E0B4
S1133AD00995F50184849584609156067091570682
S1133AE08091580690915906E0918C05F0918D05CE
S1133AF022E04EE156E0099560E1F4010995E09178
S1133B00EB05F091EC05612F80EE95E009956BE1F2
S1133B1071E08EEF95E00E942724892B49F0D101B2
S1133B20ED91FC9161E08091F30509958823D9F02A
S1133B3010FF0DC01E7FD701ED91FC9162E271E090
S1133B40D60118968D919C91199709950CC0116016
S1133B50D701ED91FC9160E071E0D60118968D914A
S1133B609C911997099566E271E08EEF95E00E94A9
S1133B702724892B61F41160D701ED91FC9160E059
S1133B8071E0D60118968D919C911997099561E37E
S1133B9071E08EEF95E00E942724892B49F0D10132
S1133BA0ED91FC9162E08091F30509958823D9F0A9
S1133BB011FF0DC01D7FD701ED91FC9162E271E010
S1133BC0D6011A968D919C911B9709950CC0126091
S1133BD0D701ED91FC9160E071E0D6011A968D91C8
S1133BE09C911B97099568E371E08EEF95E00E9424
S1133BF02724892B61F41260D701ED91FC9160E0D8
S1133C0071E0D6011A968D919C911B97099563E4F6
S1133C1071E08EEF95E00E942724892B49F0D101B1
S1133C20ED91FC9160E18091F30509958823D9F029
S1133C3012FF0DC01B7FD701ED91FC9162E271E090
S1133C40D6011C968D919C911D9709950CC014600A
S1133C50D701ED91FC9160E071E0D6011C968D9145
S1133C609C911D9709956AE471E08EEF95E00E949E
S1133C702724892B61F41460D701ED91FC9160E055
S1133C8071E0D6011C968D919C911D97099565E56F
S1133C9071E08EEF95E00E942724892B49F0D10131
S1133CA0ED91FC9160E28091F30509958823D9F0A8
S1133CB013FF0DC0177FD701ED91FC9162E271E013
S1133CC0D6011E968D919C911F9709950CC0186082
S1133CD0D701ED91FC9160E071E0D6011E968D91C3
S1133CE09C911F9709956CE571E08EEF95E00E9419
S1133CF02724892B61F41860D701ED91FC9160E0D1
S1133D0071E0D6011E968D919C911F97099567E6E7
S1133D1071E08EEF95E00E942724892B69F5D70185
S1133D20ED91FC9160E071E0D60118968D919C9123
S1133D3019970995D701ED91FC9160E071E0D601E6
S1133D401A968D919C911B970995D701ED91FC9141
S1133D5060E071E0D6011C968D919C911D970995A8
S1133D60D701ED91FC9160E071E0D6011E968D9132
S1133D709C911F9709951FEF60E771E08EEF95E026
S1133D800E942724892B09F053CDD2015496ED913A
S1133D90FC9155978EE296E0099580E04ACD8F928A
S1133DA09F92AF92BF92CF92DF92EF92FF92CF9306
S1133DB0DF93EC014A015B01C880D980EA80FB8073
S1133DC020E030E0A901C501B4010E943820882315
S1133DD071F020E030E0A901C501B4010E9438204F
S1133DE088236CF4B7FAB094B7F8B09408C00F2ED7
S1133DF0812C912CF0E8AF2EFFE3BF2EF02D20E0B4
S1133E0030E0A901C701B6010E943820811108C021
S1133E100F2EC12CD12CF0E8EF2EFFE3FF2EF02D56
S1133E20A7019601C501B4010E949C21A701960136
S1133E300E94CB1FA70196010E94CC1F688379833F
S1133E408A839B83DF91CF91FF90EF90DF90CF9097
S1133E50BF90AF909F908F9008951F920F920FB6CE
S1133E600F9211242F933F934F935F936F937F93FC
S1133E708F939F93AF93BF93EF93FF9348E55AECCF
S1133E8062EA7FEB8EE096E00E94CF1E8091CD0522
S1133E90813019F08230E1F16DC020E030E245E874
S1133EA054E460915606709157068091580690919B
S1133EB059060E949721181664F410920E06109267
S1133EC00F06109210061092110682E08093CD0521
S1133ED051C020910E0630910F064091100650916A
S1133EE0110666E67EE585E894E40E94CB1F9B01FB
S1133EF0AC0166E67EE585E894E40E94CB1F6093FE
S1133F00560670935706809358069093590632C00C
S1133F1025EE30ED42EA5FE3609156067091570654
S1133F2080915806909159060E943820882364F4A1
S1133F3010920E0610920F0610921006109211069F
S1133F4081E08093CD0516C020910E0630910F06B6
S1133F50409110065091110666E67EE585E894E4EA
S1133F600E94CB1F609356067093570680935806A1
S1133F7090935906FF91EF91BF91AF919F918F91CB
S1133F807F916F915F914F913F912F910F900FBE51
S1133F900F901F9018955058BB27AA270E94E31F23
S1133FA00C945D210E944F2138F00E94562120F08C
S1133FB039F49F3F19F426F40C944C210EF4E09547
S1133FC0E7FB0C944621E92F0E946E2158F3BA179F
S1133FD0620773078407950720F079F4A6F50C941B
S1133FE090210EF4E0950B2EBA2FA02D0B01B901F0
S1133FF090010C01CA01A0011124FF27591B99F05B
S1134000593F50F4503E68F11A16F040A22F232F66
S1134010342F4427585FF3CF469537952795A795B6
S1134020F0405395C9F77EF41F16BA0B620B730B5D
S1134030840BBAF09150A1F0FF0FBB1F661F771FCE
S1134040881FC2F70EC0BA0F621F731F841F48F483
S1134050879577956795B795F7959E3F08F0B0CF0C
S11340609395880F08F09927EE0F979587950895F3
S11340700E94222108F481E008950E9451200C94AA
S11340805D210E94562158F00E944F2140F029F4EE
S11340905F3F29F00C94462151110C9491210C940A
S11340A04C210E946E2168F39923B1F3552391F3B7
S11340B0951B550BBB27AA2762177307840738F093
S11340C09F5F5F4F220F331F441FAA1FA9F335D0F0
S11340D00E2E3AF0E0E832D091505040E695001CA4
S11340E0CAF72BD0FE2F29D0660F771F881FBB1F5E
S11340F0261737074807AB07B0E809F0BB0B802D3C
S1134100BF01FF2793585F4F3AF09E3F510578F067
S11341100C9446210C9491215F3FE4F3983ED4F330
S1134120869577956795B795F7959F5FC9F7880F3B
S1134130911D9695879597F90895E1E0660F771F8D
S1134140881FBB1F621773078407BA0720F0621B1E
S1134150730B840BBA0BEE1F88F7E09508950E9449
S1134160B6206894B1110C94912108950E9476218F
S113417088F09F5798F0B92F9927B751B0F0E1F024
S1134180660F771F881F991F1AF0BA95C9F714C0D4
S1134190B13091F00E949021B1E008950C949021E7
S11341A0672F782F8827B85F39F0B93FCCF386950D
S11341B077956795B395D9F73EF49095809570956A
S11341C061957F4F8F4F9F4F0895E89409C097FBE7
S11341D03EF490958095709561957F4F8F4F9F4FDA
S11341E09923A9F0F92F96E9BB279395F69587951E
S11341F077956795B795F111F8CFFAF4BB0F11F4E1
S113420060FF1BC06F5F7F4F8F4F9F4F16C0882387
S113421011F096E911C0772321F09EE8872F762FBD
S113422005C0662371F096E8862F70E060E02AF0FE
S11342309A95660F771F881FDAF7880F96958795EA
S113424097F90895990F0008550FAA0BE0E8FEEFBF
S113425016161706E807F907C0F012161306E40746
S1134260F50798F0621B730B840B950B39F40A263F
S113427061F0232B242B252B21F408950A2609F41D
S1134280A140A6958FEF811D811D089597F99F6721
S113429080E870E060E008959FEF80EC08950024CA
S11342A00A941616170618060906089500240A9497
S11342B012161306140605060895092E0394000C1D
S11342C011F4882352F0BB0F40F4BF2B11F460FFAC
S11342D004C06F5F7F4F8F4F9F4F089557FD9058D5
S11342E0440F551F59F05F3F71F04795880F97FBB6
S11342F0991F61F09F3F79F0879508951216130670
S11343001406551FF2CF4695F1DF08C0161617069E
S11343101806991FF1CF86957105610508940895D3
S1134320E894BB2766277727CB0197F908950E9465
S1134330222108F48FEF08950E94AF210C945D218F
S11343400E944F2138F00E94562120F0952311F04D
S11343500C9446210C944C2111240C9491210E941C
S11343606E2170F3959FC1F3950F50E0551F629F26
S1134370F001729FBB27F00DB11D639FAA27F00DBA
S1134380B11DAA1F649F6627B00DA11D661F829FE1
S11343902227B00DA11D621F739FB00DA11D621FC6
S11343A0839FA00D611D221F749F3327A00D611DE3
S11343B0231F849F600D211D822F762F6A2F1124C5
S11343C09F5750409AF0F1F088234AF0EE0FFF1FF8
S11343D0BB1F661F771F881F91505040A9F79E3F4F
S11343E0510580F00C9446210C9491215F3FE4F335
S11343F0983ED4F3869577956795B795F795E795A5
S11344009F5FC1F7FE2B880F911D9695879597F9AD
S11344100895FA01EE0FFF1F309621053105A1F131
S11344206115710561F48038BFE39B0749F1689415
S11344309038810561F08038BFEF9B0741F09923E4
S11344404AF5FF3FE1053105210519F1E894089487
S1134450E795D901AA2329F4AB2FBE2FF85FD0F337
S113446010C0FF5F70F4A695E0F7F73950F019F02B
S1134470FF3A38F49F779F930DD00F9007FC905824
S1134480089546F00C944C2160E070E080E89FE3CE
S113449008954FE79F775F934F933F932F930E9425
S11344A004232F913F914F915F910E949C210C9482
S11344B0612229F416F00C9446210C9490210C945A
S11344C04C210E947621A8F39638A0F707F80F92A2
S11344D0E8942BE33AEA48EB5FE70E94B2210F929B
S11344E00F920F924DB75EB70F920E944C23EAEAE7
S11344F0F0E00E9493224F915F91EF91FF91E59537
S1134500EE1FFF1F49F0FE57E0684427EE0F441FDB
S1134510FA95E1F74195550B0E94C6220F9007FECC
S11345200C94BA220895DF93CF931F930F93FF92B5
S1134530EF92DF927B018C01689406C0DA2EEF01C2
S11345400E94AF21FE01E894A591259135914591F2
S11345505591A6F3EF010E94E31FFE019701A80104
S1134560DA9469F7DF90EF90FF900F911F91CF914C
S1134570DF9108959B01AC0160E070E080E89FE367
S11345800C943D200C9446210C9480230E947621A7
S1134590D8F39923C9F3940F511DA3F391505040BC
S11345A094F059F0882332F0660F771F881F9150DA
S11345B05040C1F79E3F51052CF7880F911D9695E9
S11345C0879597F908955F3FACF0983E9CF0BB2720
S11345D0869577956795B79508F4B1609395C1F77B
S11345E0BB0F58F711F460FFE8CF6F5F7F4F8F4F19
S11345F09F4FE3CF0C94912116F00C9480230C94DC
S11346004C2168940C9446210E947621A8F39923A6
S1134610C1F3AEF3DF93CF931F930F93FF92C92F90
S1134620DD2788232AF02197660F771F881FDAF782
S113463020E030E040E85FEB9FE3883920F0803EE3
S113464038F021968F770E94CC1FE2EDF0E004C091
S11346500E94CC1FEFEFF0E00E9493228B01BE0179
S1134660EC01FB2E6F5771097595771F880B990B19
S11346700E94E72028E132E741E35FE30E94AF2193
S1134680AF2D9801AE01FF900F911F91CF91DF9153
S11346900E94E31F0C945D21FA01DC01AA0FBB1FE9
S11346A09B01AC01BF5728F42227332744275078B5
S11346B020C0B75190F4AB2F002446953795279529
S11346C0011CA395D2F3002071F0220F331F441F65
S11346D0B395DAF30ED00C94CB1F61307105A0E8CA
S11346E08A07B94630F49B01AC01662777278827EF
S11346F09078309621F02083318342835383089548
S11347009F3F31F0915020F4879577956795B79541
S1134710880F911D9695879597F90895DB018F93DE
S11347209F930E941C24BF91AF91A29F800D911D65
S1134730A39F900DB29F900D11240895AA1BBB1B3B
S113474051E107C0AA1FBB1FA617B70710F0A61B8D
S1134750B70B881F991F5A95A9F780959095BC01AE
S1134760CD01089597FB072E16F4009407D077FD2A
S113477009D00E949E2307FC05D03EF490958195B4
S11347809F4F0895709561957F4F0895A1E21A2E69
S1134790AA1BBB1BFD010DC0AA1FBB1FEE1FFF1FE1
S11347A0A217B307E407F50720F0A21BB30BE40B31
S11347B0F50B661F771F881F991F1A9469F7609578
S11347C07095809590959B01AC01BD01CF01089532
S11347D0052E97FB1EF400940E94FF2357FD07D07B
S11347E00E94C62307FC03D04EF40C94FF2350957B
S11347F04095309521953F4F4F4F5F4F08959095C9
S11348008095709561957F4F8F4F9F4F0895EE0F60
S1134810FF1F0590F491E02D0994A29FB001B39F6E
S1134820C001A39F700D811D1124911DB29F700DB5
S1134830811D1124911D08950E940D24A59F900DA2
S1134840B49F900DA49F800D911D11240895FB0128
S1134850DC018D91019080190110D9F3990B089511
S1134860FB01DC0101900D920020E1F70895AEE018
S1134870B0E0EDE3F4E20C9479278C01FA0186E0D0
S11348808C831A83098377FF02C060E070E8CB0150
S113489001979E838D83A901BF01CE0101960E94D9
S11348A063244D815E8157FD0AC02F8138854217EC
S11348B053070CF49A01F801E20FF31F10822E96AD
S11348C0E4E00C949527ABE0B0E0E9E6F4E20C9464
S11348D06B276C017B018A01FC011782168283819C
S11348E081FFCCC1CE0101963C01F6019381F70111
S11348F093FD859193FF81917F01882309F4BAC1C7
S1134900853239F493FD859193FF81917F0185323E
S113491029F4B60190E00E945A26E7CF912C212C6D
S1134920312CFFE1F315D8F08B3279F038F4803272
S113493079F08332A1F4232D20611DC08D3261F002
S1134940803369F4232D216016C0832D8260382EB4
S1134950E32DE4603E2E2AC0F32DF8601DC037FC21
S11349602DC020ED280F2A3040F08E32B9F436FCE9
S113497081C1232D2064322E19C036FE06C08AE080
S1134980989E200D1124922E11C0EAE02E9E200D37
S11349901124222EF32DF0623F2E08C08C3621F410
S11349A0832D8068382E02C0883641F4F70193FDC8
S11349B0859193FF81917F018111B3CF982F9F7DC2
S11349C09554933028F40C5F1F4F9FE399830DC0D7
S11349D0833631F0833771F0833509F059C021C033
S11349E0F801808189830E5F1F4F88248394912C62
S11349F0530113C02801F2E04F0E511CF801A080AE
S1134A00B18036FE03C0692D70E002C06FEF7FEF06
S1134A10C5010E944F264C018201F32DFF773F2EE2
S1134A2016C0280122E0420E511CF801A080B1807A
S1134A3036FE03C0692D70E002C06FEF7FEFC50141
S1134A400E9444264C01F32DF0683F2E820133FC72
S1134A501BC0822D90E088169906B0F4B60180E25E
S1134A6090E00E945A262A94F4CFF50137FC8591F0
S1134A7037FE81915F01B60190E00E945A26211011
S1134A802A9421E0821A91088114910471F7E8C0F4
S1134A90843611F0893641F5F80137FE07C060818C
S1134AA07181828193810C5F1F4F08C06081718185
S1134AB0072E000C880B990B0E5F1F4FF32DFF760A
S1134AC03F2E97FF09C090958095709561957F4F13
S1134AD08F4F9F4FF0683F2E2AE030E0A3010E94E1
S1134AE09626882E861845C0853731F4232D2F7ECF
S1134AF0B22E2AE030E025C0932D997FB92E8F364F
S1134B00C1F018F4883579F0B5C0803719F08837CA
S1134B1021F0B0C0E92FE061BE2EB4FE0DC0FB2D24
S1134B20F460BF2E09C034FE0AC0292F2660B22EBD
S1134B3006C028E030E005C020E130E002C020E1FA
S1134B4032E0F801B7FE07C06081718182819381F0
S1134B500C5F1F4F06C06081718180E090E00E5FA2
S1134B601F4FA3010E949626882E8618FB2DFF77DF
S1134B703F2E36FE0DC0232D2E7FA22E891458F40D
S1134B8034FE0BC032FC09C0832D8E7EA82E05C0D6
S1134B90B82CA32C03C0B82C01C0B92CA4FE0FC0A0
S1134BA0FE01E80DF11D8081803321F49A2D997E58
S1134BB0A92E09C0A2FE06C0B394B39404C08A2DE2
S1134BC0867809F0B394A3FC11C0A0FE06C0B21409
S1134BD088F4280C922C9B180EC0B21460F4B60111
S1134BE080E290E00E945A26B394F7CFB21418F4EE
S1134BF02B1802C0982C212CA4FE10C0B60180E30F
S1134C0090E00E945A26A2FE17C0A1FC03C088E7C8
S1134C1090E002C088E590E0B6010CC08A2D867849
S1134C2059F0A1FE02C08BE201C080E2A7FC8DE234
S1134C30B60190E00E945A26891438F4B60180E344
S1134C4090E00E945A269A94F7CF8A94F301E80DD3
S1134C50F11D8081B60190E00E945A268110F5CFA3
S1134C60222009F442CEB60180E290E00E945A2646
S1134C702A94F6CFF6018681978102C08FEF9FEFC9
S1134C802B96E2E10C948727FC010590615070405B
S1134C900110D8F7809590958E0F9F1F0895FC0101
S1134CA06150704001900110D8F7809590958E0F57
S1134CB09F1F08950F931F93CF93DF93FB012381CD
S1134CC021FD03C08FEF9FEF2CC022FF16C0468149
S1134CD05781248135814217530744F4A081B1815F
S1134CE09D012F5F3F4F318320838C932681378131
S1134CF02F5F3F4F3783268314C08B01EC01FB01E8
S1134D000084F185E02D0995892BE1F6D8011696EA
S1134D108D919C911797019617969C938E93169755
S1134D20CE01DF91CF911F910F910895FA01AA2727
S1134D30283051F1203181F1E8946F936E7F6E5FDA
S1134D407F4F8F4F9F4FAF4FB1E03ED0B4E03CD088
S1134D50670F781F891F9A1FA11D680F791F8A1F6B
S1134D60911DA11D6A0F711D811D911DA11D20D0D2
S1134D7009F468943F912AE0269F11243019305D8C
S1134D803193DEF6CF010895462F4770405D41937D
S1134D90B3E00FD0C9F7F6CF462F4F70405D4A33CA
S1134DA018F0495D31FD4052419302D0A9F7EACF92
S1134DB0B4E0A6959795879577956795BA95C9F7C1
S1134DC000976105710508959B01AC010A2E0694B4
S1134DD05795479537952795BA95C9F7620F731F6D
S1134DE0841F951FA01D0895DC01CB01FC01F999D6
S1134DF0FECF06C0F2BDE1BDF89A319600B40D9223
S1134E0041505040B8F70895F999FECF92BD81BD45
S1134E10F89A992780B50895A8E1B0E042E050E0FF
S1134E200C94F626DC01A40FB51F4150504048F005
S1134E30CB01840F951F2E910E942327415050408F
S1134E40D0F70895262FF999FECF92BD81BDF89A27
S1134E50019700B4021639F01FBA20BD0FB6F894BA
S1134E60FA9AF99A0FBE08950396272F0E942327D2
S1134E700E942227252F0E942327242F0C942327C6
S1134E800196272F0E9423270C942227DC01CB01B3
S1134E9003C02D910E94512741505040D0F70895EE
S1134EA0262FF999FECF1FBA92BD81BD20BD0FB642
S1134EB0F894FA9AF99A0FBE01960895242F0E9445
S1134EC05127252F0E9451270C9466270E945027B2
S1134ED0272F0C9451272F923F924F925F926F92FB
S1134EE07F928F929F92AF92BF92CF92DF92EF9276
S1134EF0FF920F931F93CF93DF93CDB7DEB7CA1BF7
S1134F00DB0B0FB6F894DEBF0FBECDBF09942A8821
S1134F10398848885F846E847D848C849B84AA84C9
S1134F20B984C884DF80EE80FD800C811B81AA8156
S1134F30B981CE0FD11D0FB6F894DEBF0FBECDBF21
S10B4F40ED010895F894FFCF80
S1134F486F66660057656C636F6D650054657374AE
S1134F58696E672C203120322033006C656420315F
S1134F682E006F6E20006C65642031206F66662EFB
S1134F78006C656420322E006C65642032206F66F4
S1134F88662E006C656420332E006C656420332023
S1134F986F66662E006C656420342E006C65642090
S1134FA834206F66662E00616C6C206F66662E0076
S10B4FB87374617475732E001B
S9030000FC
