S011000041746D6567613332382E7372656327
S11300000C9496000C94B3000C94B3000C94B300BD
S11300100C94B3000C94B3000C94B3000C94B30090
S11300200C94B3000C94B3000C94B3000C94B30080
S11300300C94B3000C94B3000C94B3000C94B30070
S11300400C94AE190C94B3000C94180D0C944C0D34
S11300500C94B3000C94EC020C94B3000C94B30015
S11300600C94B3000C94B300D707DB07DF07E30756
S1130070E707EB07EF07530859085F0865086B08A3
S113008074087D0886088C0895089E08A708AD08A2
S1130090B608BF08DE08E208E608EA08EE08F20837
S11300A0F608FA08FE080209060907634236B79BF8
S11300B0D8A71A39685618AEBAAB558C1D3CB7CCC4
S11300C05763BD6DEDFD753EF6177231BF0000003C
S11300D0803F08000000BE922449123EABAAAA2A1F
S11300E0BECDCCCC4C3E00000080BEABAAAAAA3E3A
S11300F000000000BF000000803F00000000000876
S11301004178D3BB4387D1133D190E3CC3BD428212
S1130110AD2B3E68EC8276BED98FE1A93E4C80EFD0
S1130120FFBE01C4FF7F3F000000000011241FBE7A
S1130130CFEFD8E0DEBFCDBF11E0A0E0B1E0E4E452
S1130140F2E402C005900D92A038B107D9F723E07C
S1130150A0E8B1E001C01D92A93FB207E1F70E94F7
S11301601E170C9420210C940000882389F0E09140
S11301701002F0911102208181E090E000901202BF
S113018002C0880F991F0A94E2F7822B808311C062
S1130190E0911002F0911102208181E090E0009042
S11301A0120202C0880F991F0A94E2F780958223F5
S11301B08083E0911002F0911102408181E090E08F
S11301C09C010090140202C0220F331F0A94E2F72C
S11301D0242B2083E0911002F091110220810090E1
S11301E0140202C0880F991F0A94E2F780958223B3
S11301F080830895E0911002F0911102408181E022
S113020090E09C010090130202C0220F331F0A9455
S1130210E2F7242B2083E0911002F0911102208157
S11302200090130202C0880F991F0A94E2F7809588
S1130230822380830895FF920F931F93CF93DF93BC
S1130240F82EC0E0D0E001E010E0C8010C2E02C09E
S1130250880F991F0A94E2F78F210E94B500219616
S1130260C830D10591F70E94FA00DF91CF911F9118
S11302700F91FF900895FF920F931F93CF93DF93F5
S1130280F82EC7E0D0E001E010E0C8010C2E02C057
S1130290880F991F0A94E2F78F210E94B5002197D5
S11302A0A0F70E94FA00DF91CF911F910F91FF9068
S11302B008950F93CF93DF93CDB7DEB728970FB68A
S11302C0F894DEBF0FBECDBF90930F0280930E0251
S11302D0709311026093100240931202209314024F
S11302E000931302FC01308161E070E0DB0102C085
S11302F0AA0FBB1F2A95E2F7FB0102C0EE0FFF1FF6
S11303000A95E2F7EA2B02C0660F771F4A95E2F7D7
S11303106E2B232F262BFC012083E0911002F091F9
S11303201102808160956823608325EB30E03A8375
S113033029834BE151E05C834B836BE371E07E8363
S11303406D838AEF90E098878F833A815C817E8108
S1130350988528960FB6F894DEBF0FBECDBFDF9107
S1130360CF910F910895E0911902F0911A02228120
S113037026FD02C020642283FC01EE0FFF1FE75616
S1130380FE4F808191810895EF92FF920F931F9306
S1130390CF93DF93CDB7DEB7EE970FB6F894DEBFF9
S11303A00FBECDBF28960FAD289729961FAD29976C
S11303B02B96EEACFFAC2B97CE0101960E94200445
S11303C08EE3FE013196A5E1B2E001900D928A958B
S11303D0E1F7E5E1F2E0A085B18591964C91919722
S11303E0842F8F7791968C93F0928801E092870105
S11303F01092860110928501109280010480F5818B
S1130400E02D84818F738483013019F0033051F01F
S113041012C0E0911902F0911A02848180648483ED
S113042051E00AC0E0911902F0911A028481806CB3
S1130430848353E001C050E0E0911902F0911A0264
S113044084818F7D84831E141F0494F4DE01A55BD4
S1130450BF4F80E090E02D913D91FC01EE0FFF1F16
S1130460E757FE4F318320830196E816F90699F782
S1130470E5E1F2E0A481B58114968C911497807F14
S113048014968C93A0918501B0918601AA0FBB1F8D
S1130490A757BE4F8D919C91A481B5818F709927E8
S11304A014969C911497892B14968C93A481B581EE
S11304B012968C911297806812968C93A481B581C0
S11304C012968C911297806412968C93A481B581B4
S11304D012968C9112978F7D12968C93A481B5817C
S11304E013968C911397887F13968C93A481B5816E
S11304F012968C911297886012968C930480F581E1
S1130500E02D8281887F8283103109F138F4143020
S113051061F0183099F01230F1F546C0103449F109
S1130520103881F11032B9F51BC0E0911902F09135
S11305301A0282818260828324E037C0E09119022A
S1130540F0911A0282818360828328E02EC0E091B8
S11305501902F0911A0282818460828320E125C00D
S1130560E0911902F0911A0282818560828320E26F
S11305701CC0E0911902F0911A0282818660828384
S113058020E413C0E0911902F0911A02828187607D
S1130590828320E80AC0E0911902F0911A02828154
S11305A08760828320E801C022E0E0911D02F0917F
S11305B01E02406841A3652F722F83EB91E0EE96F3
S11305C00FB6F894DEBF0FBECDBFDF91CF911F9160
S11305D00F91FF90EF9008951F920F920FB60F9214
S11305E011242F933F938F939F93AF93BF93EF93D4
S11305F0FF938091780090E0909382018093810131
S1130600209179008091810190918201922B9093A5
S1130610820180938101809180018430A0F48091D3
S113062080018F5F8093800120918101309182014C
S11306308091830190918401820F931F9093840190
S1130640809383014DC0E0918501F09186018091F2
S11306508301909184019595879595958795EE0FE3
S1130660FF1FE756FE4F91838083109284011092FE
S1130670830110928001209185013091860180913F
S11306808701909188012817390754F480918501D6
S1130690909186010196909386018093850104C010
S11306A01092860110928501A5E1B2E01496ED91B5
S11306B0FC9115978481807F8483E0918501F0917A
S11306C08601EE0FFF1FE757FE4F8081918114963C
S11306D0ED91FC9115978F7099279481892B8483D0
S11306E0FF91EF91BF91AF919F918F913F912F9186
S11306F00F900FBE0F901F90189584B78F708230A3
S113070071F018F4813031F019C0843069F0883008
S113071081F014C084B78E7F84BF80E0089584B7CD
S11307208D7F84BF81E0089584B78B7F84BF82E08E
S1130730089584B7877F84BF83E0089584B7807F5A
S113074084BF80E00895882319F08130C9F030C057
S1130750E898E9E6F0E080818C7F8083623019F0CC
S1130760633039F00BC0E9E6F0E080818260808379
S113077005C0E9E6F0E0808183608083E89A08950B
S1130780E998E9E6F0E08081837F8083623019F0A4
S1130790633039F00BC0E9E6F0E080818860808343
S11307A005C0E9E6F0E080818C608083E99A0895D1
S11307B01DBA0895882319F0813019F004C0E8980F
S11307C00895E99808951DBA0895CF93DF9300D052
S11307D000D000D0CDB7DEB71DBA23EA33E03A83A8
S11307E029834AED53E05C834B836DE773E07E839A
S11307F06D833A815C817E8180E090E026960FB61D
S1130800F894DEBF0FBECDBFDF91CF910895292F9D
S113081030E0322F2227A901482BCA010895282F3E
S113082030E0322F2227A901492BCA0108950895E7
S1130830282F892F922F089598278927982708957C
S1130840FC011182108280E590E09383828388E723
S113085090E09583848384EC91E0978386838EE390
S113086090E0918780878FE390E0938782878BE382
S113087090E09787868785EE93E0918B808B83E267
S113088090E0938B828B86E290E0958B848B89E257
S113089090E0978B868B8CE490E0918F808F86E339
S11308A090E0938F828F89E198E0958F848F85E320
S11308B090E0978F868F85E497E091A380A387E3E8
S11308C090E093A382A380E399E095A384A388EBAB
S11308D090E097A386A38DE59AE091A780A780EC8A
S11308E090E093A782A784E79BE095A784A780E67E
S11308F090E097A786A780E091E091AB80AB87E07A
S113090094E095AB84AB8FE094E097AB86AB87E142
S113091094E091AF80AF88E194E093AF82AF8CE133
S113092094E095AF84AFCF0108952091AB012111DC
S113093071C0E3E5F2E0A68DB78D2FEF52962C93AC
S1130940068CF78DE02D2089287F208B8830910537
S113095001F158F483309105E1F18530910509F4F2
S113096040C0019709F045C00CC0811521E09207F1
S113097001F1811524E0920721F180349105C9F534
S113098010C0E0917102F091720280898160808BC5
S113099037C0E0917102F091720280898260808B8D
S11309A02FC0E0917102F091720280898360808B84
S11309B027C0E0917102F091720280898460808B7B
S11309C01FC0E0917102F091720280898560808B72
S11309D017C0E0917102F091720280898660808B69
S11309E00FC0E0917102F091720280898760808B60
S11309F007C0E0917102F091720280898560808B5A
S1130A00E0915B02F0915C0281A1806881A381E0A6
S1130A108093AB010895E0917102F0917202978581
S1130A209F739787823061F0833091F08130B9F4FD
S1130A30E0917102F091720287858064878708953E
S1130A40E0917102F091720287858068878708952A
S1130A50E0917102F09172028785806C8787089516
S1130A60E0917102F091720297859F7C97878230A2
S1130A7061F0833091F08130B9F4E0917102F0912A
S1130A8072028785806187870895E0917102F091F1
S1130A9072028785806287870895E0917102F091E0
S1130AA072028785806387870895E0917102F091CF
S1130AB07202828B0895E0917102F0917202838B2D
S1130AC00895E3E5F2E0A68DB78D50968C9150978A
S1130AD0887F50968C93068CF78DE02D118A1092A6
S1130AE0AB010895EF92FF920F931F93CF93DF937F
S1130AF0EC019091AA01911172C003E512E0D801B2
S1130B005A96ED90FC905B97B2E5EB0EF11CD80180
S1130B10DA96ED91FC91DB978FEF9FEF0995F70142
S1130B2091838083D8015A962D913C915B97F9016A
S1130B30E55BFF4F8081887F8083C830D105E1F079
S1130B4048F4C330D10581F1C530D10599F121971D
S1130B50B9F50CC0C115B1E0DB07D1F0C115E4E073
S1130B60DE07E1F0C034D10559F50CC0F901E55BAD
S1130B70FF4F8160808329C0F901E55BFF4F8260EC
S1130B80808323C0F901E55BFF4F836080831DC030
S1130B90F901E55BFF4F8460808317C0F901E55BD1
S1130BA0FF4F8560808311C0F901E55BFF4F8660CC
S1130BB080830BC0F901E55BFF4F8760808305C02C
S1130BC0F901E55BFF4F85608083E0915B02F09162
S1130BD05C0281A1806881A381E08093AA01DF91F6
S1130BE0CF911F910F91FF90EF90089520916D0286
S1130BF030916E02F901E65BFF4F90819F73823062
S1130C0061F0833081F0813011F090830895F9010F
S1130C10E65BFF4F906490830895F901E65BFF4F14
S1130C20906890830895F901E65BFF4F906C908380
S1130C30089520916D0230916E02F901E65BFF4F39
S1130C4090819F7C823061F0833081F0813011F09B
S1130C5090830895F901E65BFF4F906190830895B6
S1130C60F901E65BFF4F906290830895F901E65B1A
S1130C70FF4F906390830895CF93DF93E3E5F2E011
S1130C80C28DD38DCE5ADF4F02ACF3ADE02D099562
S1130C9099838883DF91CF910895CF93DF93E3E520
S1130CA0F2E0C28DD38DCC5ADF4F02ACF3ADE02D10
S1130CB0099599838883DF91CF910895CF93DF932A
S1130CC0E3E5F2E0828D938DDC01A55BBF4F2C91AF
S1130CD0287F2C93EC01C25BDF4F02ACF3ADE02D17
S1130CE080E090E00995998388831092AA01DF91AE
S1130CF0CF910895AC018091A901811160C0209128
S1130D00750230917602F901E458FF4F8FEF80832A
S1130D1032979081987F90834034510549F150F483
S1130D2048305105C9F040325105E1F041305105D8
S1130D30B9F50CC0411581E0580731F1411584E043
S1130D40580741F14038510559F518C0F901E658E2
S1130D50FF4F9160908329C0F901E658FF4F9260DC
S1130D60908323C0F901E658FF4F936090831DC020
S1130D70F901E658FF4F9460908317C0F901E658D3
S1130D80FF4F9560908311C0F901E658FF4F9660BC
S1130D9090830BC0F901E658FF4F9760908305C01C
S1130DA0F901E658FF4F97609083E0915B02F09160
S1130DB05C0281A1806881A381E08093A9010895E8
S1130DC02091750230917602F901E758FF4F908126
S1130DD09F73823061F0833081F0813011F0908311
S1130DE00895F901E758FF4F906490830895F9013D
S1130DF0E758FF4F906890830895F901E758FF4F33
S1130E00906C908308952091750230917602F901D7
S1130E10E758FF4F90819F7C823061F0833081F0EE
S1130E20813011F090830895F901E758FF4F9061E4
S1130E3090830895F901E758FF4F906290830895D5
S1130E40F901E758FF4F906390830895E09175028C
S1130E50F0917602E458FF4F80830895E091750283
S1130E60F0917602E358FF4F8083089580917502D4
S1130E7090917602FC01E658FF4F2081287F208361
S1130E80319610821092A9010895EF92FF920F9368
S1130E901F93CF93DF93CDB7DEB7EE970FB6F894D9
S1130EA0DEBF0FBECDBF8C01E62EF42ECE0101961F
S1130EB00E9420048EE3FE013196A3E5B2E0019086
S1130EC00D928A95E1F71092AB01E3E5F2E0A68D6D
S1130ED0B78D1F968C911F978C7F1F968C93068CD1
S1130EE0F78DE02D8089877F808B83E0E81601F100
S1130EF08E1538F0E1E0EE1659F0F2E0EF1681F0CD
S1130F0040C085E0E816E1F0E7E0EE1651F139C0A3
S1130F10E0917102F091720287858160878731C008
S1130F20E0917102F091720287858260878729C0FF
S1130F30E0917102F091720287858360878721C0F6
S1130F40E3E5F2E0A68DB78D1F968C911F97816023
S1130F501F968C93068CF78DE02D80898860808B9A
S1130F6010C0E3E5F2E0A68DB78D1F968C911F9714
S1130F7083601F968C93068CF78DE02D80898860A2
S1130F80808BA0917102B0917202D9968C91D997FD
S1130F90887F4F2D50E0FA013197E730F10520F4B6
S1130FA0EC5CFF4F0C94FC1DD9968C931BC08160A4
S1130FB0D9968C9317C08260D9968C9313C08460A1
S1130FC0D9968C930FC08360D9968C930BC085609F
S1130FD0D9968C9307C08760D9968C9303C086609A
S1130FE0D9968C938BE095E0F8019183808380E31C
S1130FF095E09383828385E595E0958384838BE5EF
S113100095E09783868385E994E09187808781E6DC
S113101095E093878287C801EE960FB6F894DEBFF9
S11310200FBECDBFDF91CF911F910F91FF90EF9035
S11310300895EF92FF920F931F93CF93DF93CDB751
S1131040DEB7EE970FB6F894DEBF0FBECDBF7C01BE
S1131050062F142FCE0101960E9420048EE3FE0178
S11310603196A3E5B2E001900D928A95E1F71092D2
S1131070AA0120916D0230916E02F901E65BFF4FE7
S113108050815C7F508331964081477E4083802F1E
S113109090E0FC013197EF30F10508F078C0E55C91
S11310A0FF4F0C94FC1DF901E65BFF4F5160508328
S11310B06EC0F901E65BFF4F5260508368C0F901CE
S11310C0E65BFF4F5360508362C0F901E55BFF4F5D
S11310D0486040835CC0F901E65BFF4F5160508378
S11310E031964860408353C0F901E65BFF4F52607C
S11310F050833196486040834AC0F901E65BFF4F54
S11311005360508331964860408341C0F901E55BE8
S1131110FF4F406140833BC0F901E65BFF4F5160E4
S1131120508331964061408332C0F901E65BFF4F42
S11311305260508331964061408329C0F901E65BD7
S1131140FF4F5360508331964061408320C0F901C2
S1131150E55BFF4F486140831AC0F901E65BFF4F2E
S11311605160508331964861408311C0F901E65BB8
S1131170FF4F5260508331964861408308C0F901A3
S1131180E65BFF4F53605083319648614083F90119
S1131190E65BFF4F80818F708083F90181AD887D8C
S11311A0412F50E0FA013197EB30F10520F4E65B72
S11311B0FF4F0C94FC1DF90181AF2BC08160F90134
S11311C081AF27C08260F90181AF23C08460F90137
S11311D081AF1FC08062F90181AF1BC08660F90135
S11311E081AF17C08360F90181AF13C08560F90135
S11311F081AF0FC08162F90181AF0BC08760F90133
S113120081AF07C08762F90181AF03C08660F9012D
S113121081AF86EF95E0F7019183808389E196E0C1
S1131220938382838CE396E0958384838DE496E0B4
S11312309783868382E795E0918780878EE596E0A1
S113124093878287C701EE960FB6F894DEBF0FBE70
S1131250CDBFDF91CF911F910F91FF90EF90089533
S1131260EF92FF920F931F93CF93DF93CDB7DEB727
S1131270EE970FB6F894DEBF0FBECDBF8C01E62EFD
S1131280F42ECE0101960E9420048EE3FE013196D5
S1131290A3E5B2E001900D928A95E1F71092A901BD
S11312A0E0917502F0917602DF01A758BF4F8C914F
S11312B08C7F8C9311969C91977F9C9323E0E216EC
S11312C0E1F02E1538F091E0E91659F022E0E2162B
S11312D071F02AC025E0E216B1F027E0E216E1F051
S11312E023C0DF01A758BF4F81608C931DC0DF016D
S11312F0A758BF4F82608C9317C0DF01A758BF4F18
S113130083608C9311C0DF01A758BF4F81608C9319
S1131310119698609C9308C0DF01A758BF4F836063
S11313208C93119698609C9381AD887F93E0F91615
S1131330C9F09F1538F021E0F21671F092E0F91629
S113134071F008C025E0F21699F0F21670F096E0FC
S1131350F91689F081AF11C0816081AF0EC082603F
S113136081AF0BC0836081AF08C0856081AF05C0C9
S1131370866081AF02C0876081AF80EE96E0F8019D
S11313809183808383E097E09383828386E297E06E
S1131390958384838EE297E0978386838AE796E039
S11313A09187808786E397E093878287C801EE96CA
S11313B00FB6F894DEBF0FBECDBFDF91CF911F9162
S11313C00F91FF90EF900895E0913B02F0913C0261
S11313D08181887F0895E0913B02F0913C0284E989
S11313E0848387EC90E00197F1F700C00000089532
S11313F0CF93DF9318161CF4880F816001C081E03D
S1131400E5E1F2E0A6A1B7A112968C93A689B7896B
S113141011968C911197806311968C930688F789A5
S1131420E02D828180638283643089F018F4613016
S113143031F025C0603199F06034C9F020C0E091EA
S11314403B02F0913C0281818C7F818320C0E0913A
S11314503B02F0913C0281818160818318C0E0915C
S11314603B02F0913C0281818260818310C0E09153
S11314703B02F0913C0281818360818308C0E0914A
S11314803B02F0913C0281818C7F818361E0C091B9
S11314903B02D0913C02262F30E0220F331F032E53
S11314A0000C440B550B60E470E080E090E00E9477
S11314B0BB1D2883DF91CF910895BF92CF92DF9215
S11314C0EF92FF920F931F93CF93DF93CDB7DEB7C5
S11314D0EE970FB6F894DEBF0FBECDBF8C01E62E9B
S11314E0B42ECE0101960E9420048EE3FE013196B3
S11314F0A5E1B2E001900D928A95E1F70F2EF5E196
S1131500CF2EF2E0DF2EF02DD6011896ED91FC914E
S11315101997F1A08F2D8F7781A36B2D8E2D0E94AB
S1131520F809D6011896ED91FC911997F1A281ED75
S11315309AE0F8019183808382EE9AE09383828318
S113154080E09BE09583848386E19BE09783868398
S11315508BEE99E09187808784EE99E09387828768
S1131560C801EE960FB6F894DEBF0FBECDBFDF9173
S1131570CF911F910F91FF90EF90DF90CF90BF908C
S11315800895E0913B02F0913C022481222344F02F
S113159021E030E08217930718F02F5F3F4FFACF16
S11315A00895E0913B02F0913C0284EA84838FEF3A
S11315B093E00E94C10A0E94E409883011F00E945D
S11315C0EB090895662319F0880F816001C0880F24
S11315D0E5E1F2E0A6A1B7A113968C9306A0F7A1CA
S11315E0E02D84E884838FEF93E00E94C10A0E9477
S11315F0E409883121F0803411F00E94EB09089548
S1131600E5E1F2E0A6A1B7A113968C9306A0F7A199
S1131610E02D84E884838FEF93E00E94C10A0E9446
S1131620E409883211F00E94EB090895882311F02F
S113163080E401C080E0E0913B02F0913C028468C8
S113164084838FEF93E00E94C10A0E94E4098833E7
S113165011F40E94EB09E0913B02F0913C0283817A
S11316600895E0919A02F0919B0282E992E0099533
S11316700895E0919C02F0919D0282E992E009951F
S1131680089580919E0210929E02EFECF7E031974C
S1131690F1F700C0000008950E94410B0895E5E1B0
S11316A0F2E0A2A5B3A516968C9302A4F3A5E02DAF
S11316B08181806281838FEC97E00197F1F700C00C
S11316C0000008950E944F0B0895CF93DF93EC011F
S11316D08881882331F021960E944F0B89918111D2
S11316E0FBCFDF91CF9108953F924F925F926F921B
S11316F07F928F929F92AF92BF92CF92DF92EF929E
S1131700FF920F931F93CF93DF93CDB7DEB7EE977E
S11317100FB6F894DEBF0FBECDBF7C015B016A013A
S113172029013801E0911D02F0911E0231A0832DA0
S11317308F7781A3CE0101960E9420048EE3FE01DF
S11317403196A5E1B2E001900D928A95E1F74FE957
S113175052E060E2CE0101960E948C0D8CE0FE0105
S11317603196A2E9B2E001900D928A95E1F7BB208F
S11317704CF4E0913F02F091400282E08083C50185
S11317809F7701C0C50105E112E0D8019A968D90BA
S11317909C909B97D896ED91FC91D9970995F4016B
S11317A095838483D8019A96ED91FC919B9788E95F
S11317B08183B7E0CB16D104D9F158F4F5E0CF1604
S11317C0D10409F46BC086E0C816D10409F44BC0F7
S11317D078C0A8E0CA16D104C1F0B9E0CB16D10490
S11317E009F06FC0E5E1F2E0A2A5B3A511968C91D2
S11317F01197846011968C9302A4F3A5E02D828145
S11318008660828369E070E06EC0E5E1F2E0A2A543
S1131810B3A511968C9111978B7F11968C9302A48A
S1131820F3A5E02D82818660828368E070E05BC06E
S1131830E5E1F2E0A2A5B3A511968C9111978B7FF7
S113184011968C93A2A5B3A512968C9112978460DD
S113185012968C9302A4F3A5E02D82818D7F82835E
S113186067E070E040C0E5E1F2E0A2A5B3A51196FF
S11318708C9111978B7F11968C93A2A5B3A5129688
S11318808C9112978B7F12968C9302A4F3A5E02D72
S113189082818260828366E070E025C0E5E1F2E047
S11318A0A2A5B3A511968C9111978B7F11968C9359
S11318B002A4F3A5E02D8281897F828365E070E034
S11318C012C0E5E1F2E0A2A5B3A511968C9111979F
S11318D08B7F11968C9302A4F3A5E02D8281866000
S11318E0828368E070E0E1E04E16510429F0F2E0F2
S11318F04F16510459F014C0E0913F02F091400298
S11319008281877F828341E050E013C0E0913F02EF
S1131910F091400282818860828342E050E009C0F5
S1131920E0913F02F09140028281877F828341E00F
S113193050E082E06816710481F0A3E06A16710435
S1131940F9F0672839F5E0913F02F0914002828175
S11319508F7C828320E030E026C0E5E1F2E0A2A59E
S1131960B3A512968C911297806212968C9302A45E
S1131970F3A5E02D82818F7E828322E030E013C0C4
S1131980E0913F02F091400282818063828323E0F0
S113199030E009C0E0913F02F091400282818F7CE7
S11319A0828320E030E0E0911D02F0911E02832D3D
S11319B0806881A3F701B182A08273836283558317
S11319C044833783268381E49BE0918780878CE47A
S11319D09BE09387828781E39BE09587848789E3F3
S11319E09BE0978786878FE49BE0918B808B82E6D0
S11319F09BE0938B828B85E69BE0958B848BC70160
S1131A00EE960FB6F894DEBF0FBECDBFDF91CF9137
S1131A101F910F91FF90EF90DF90CF90BF90AF9008
S1131A209F908F907F906F905F904F903F9008951C
S1131A301F920F920FB60F9211242F933F934F933F
S1131A405F936F937F938F939F93AF93BF93EF9322
S1131A50FF93E0913F02F09140028081887180936E
S1131A609102668160939E02E0919802F09199023E
S1131A7082E992E00995FF91EF91BF91AF919F9117
S1131A808F917F916F915F914F913F912F910F9023
S1131A900FBE0F901F9018951F920F920FB60F92C2
S1131AA011248F93EF93FF93E0913F02F091400252
S1131AB081818F7D8183FF91EF918F910F900FBE74
S1131AC00F901F9018956623C1F0DC011296ED91DA
S1131AD0FC91139714962D913C911597E217F307F7
S1131AE029F4ED91FC91DF01119602C0DF011196FA
S1131AF060831C92FC01B383A2830895FC0180815E
S1131B0091810895DC01ED91FC9111971396FC935A
S1131B10EE93129710820895FC01518340835383FE
S1131B20428370E061507109460F571F5583448307
S1131B3083E69DE0978386838EE79DE09187808787
S1131B4082E89DE093878287CF010895CF92DF9248
S1131B50EF92FF920F931F93FC0100811181228168
S1131B603381FB01C080D180E280F380FC01C0821C
S1131B70D182E282F382FB010083118322833383C7
S1131B801F910F91FF90EF90DF90CF900895FB018C
S1131B902081FC012083222339F0DB011196319648
S1131BA09D9191939111FCCF0895CF93DF93EC0114
S1131BB09881992399F0FE01319620E030E0492F75
S1131BC050E04617570731F0DE01A20FB31F9C9374
S1131BD02F5F3F4F91919111F2CF02C020E030E08E
S1131BE0FE01E20FF31F1082DF91CF9108952F922F
S1131BF03F924F925F926F927F928F929F92AF9299
S1131C00BF92CF92DF92EF92FF920F931F93CF93E5
S1131C10DF9300D000D0CDB7DEB72C011B014B0100
S1131C2077231CF42FEF821A920A95948794181440
S1131C3019040CF451C06AC09601DD209CF1F50131
S1131C4040815181F401608171816417750754F5F5
S1131C508C010A0D1B1DD401BC82AB82BA82A982FD
S1131C60EB81FC817183608311965C934E932E19F2
S1131C703F09C2F0F80140815181E981FA81608114
S1131C807181080F191FE80FF91FFA83E983EB81AB
S1131C90FC81E80FF91FFC83EB83A80FB91F6417BD
S1131CA07507F4F2FFEFCF1ADF0A22E0A20EB11C8F
S1131CB0E2E08E0E911CC614D70409F0BDCF470193
S1131CC0FF201CF4FFEF8F1A9F0A95948794181431
S1131CD01904E4F4740101C07401821493047CF7C0
S1131CE06401CE18DF085601AA0CBB1CA40CB51C59
S1131CF0880C991C840C951C31016E187F08C7014F
S1131D00880F991F91958195910996CF0F900F9007
S1131D100F900F90DF91CF911F910F91FF90EF9053
S1131D20DF90CF90BF90AF909F908F907F906F90F7
S1131D305F904F903F902F900895861797070CF46B
S1131D40CB0108959B01672B11F408959A01B90101
S1131D500E94A71DAC01822F932F41155105B1F7A5
S1131D600895FC01908180ED890F8A30D0F431967A
S1131D7020E030E0A901440F551F220F331F220F2A
S1131D80331F220F331F420F531F292F30E02053DC
S1131D903109240F351F919180ED890F8A3050F35A
S1131DA002C020E030E0C901089586230895009719
S1131DB039F020E030E02F5F3F4F82179307D9F7C7
S1131DC0089587FF08C09195819591099927919568
S1131DD08195910908958F779927089591FF08C0F7
S1131DE091958195910993709195819591090895A3
S1131DF091700895615021E030E002C0220F331F3A
S1131E006A95E2F7A90141505109B9016823792380
S1131E10672B29F084239523821B930B0895842335
S1131E20952308959DEC899F912D1124969596955F
S1131E309695392F330F232F220F220F230F821B46
S1131E4020E1929F800D11240895982F92959F7000
S1131E50990F292F220F220F920F8F70890F089547
S1131E60FC01DB01A455BE4F1C921616170614F58F
S1131E70908191110CC017C0919191110DC015C0A2
S1131E8081932F5F3F4F26173707D4F313C0ACEA73
S1131E90B1E0319620E030E09D932F5F3F4F621711
S1131EA0730751F707C020E030E0F901E455FE4F15
S1131EB080E2E6CF8CEA91E008954F925F926F92B0
S1131EC07F92AF92BF92CF92DF92EF92FF920F93E5
S1131ED01F93CF93DF93CDB7DEB729013A019B015E
S1131EE0AC01241935094609570989899A89AB89AE
S1131EF0BC89BC01CD016A197B098C099D090E942A
S1131F00831DA801970124193509460957090E9420
S1131F10DD1DCA01B9016A0D7B1D8C1D9D1DDF915C
S1131F20CF911F910F91FF90EF90DF90CF90BF90D2
S1131F30AF907F906F905F904F900895FC01208147
S1131F40222341F0319680E090E001962191211105
S1131F50FCCF089580E090E00895CF93DF93EC01E7
S1131F600E949E0F9C012150310962F0FE01E80F8E
S1131F70F91F9291903219F09950923018F421502F
S1131F803109B8F7C20FD31F1982C901DF91CF916C
S1131F900895CF93DF93EC010E949E0F9C01215082
S1131FA031091216130684F4DE01A80FB91FFE01CD
S1131FB080E090E040815E9151934C9301962150D2
S1131FC0310982179307B4F3DF91CF9108958F926B
S1131FD09F92AF92BF92CF92DF92EF92FF920F93B4
S1131FE01F93CF93DF936B017C01DC01CB01FF20B6
S1131FF03CF488279927DC018C199D09AE09BF0997
S1132000BC01CD0110E00F2EFAE08F2E912CA12CF3
S1132010B12CF02D01C0102F01E0010FC12FD0E031
S1132020C455DE4FA50194010E94DD1D605D6883E7
S1132030622F732F842F952F16161706180619066C
S113204054F3FF2044F4E02FF0E0E455FE4F8DE21A
S1132050808302E0010FE02FF0E0E455FE4F108290
S11320608CEA91E00E94C90F8CEA91E0DF91CF9154
S11320701F910F91FF90EF90DF90CF90BF90AF90A2
S11320809F908F9008950F931F93CF93DF93EC014C
S1132090992324F4882799278C1B9D0B20E00AE0C0
S11320A010E001C0232F31E0320FE22FF0E0E455BD
S11320B0FE4FB8010E94A71D805D8083862F972F55
S11320C0181619067CF3DD2344F4E32FF0E0E455FD
S11320D0FE4F8DE2808332E0320FE32FF0E0E455CF
S11320E0FE4F10828CEA91E00E94C90F8CEA91E0C5
S11320F0DF91CF911F910F910895CF93AC019C0173
S1132100ADECBCEC0E94021E96958795969587953A
S1132110969587959C01220F331F880F991F880F6E
S1132120991F880F991F820F931F9A01281B390B3F
S1132130C901805D8093AC019A010E94021EAC012A
S1132140569547955695479556954795411551058A
S113215089F1E1E0C1E0CE0FF0E0E455FE4F9A01D1
S1132160ADECBCEC0E94021E9695879596958795DA
S1132170969587959C01220F331F880F991F880F0E
S1132180991F880F991F820F931F9A01281B390BDF
S1132190C901805D80839A010E94021EAC0156959C
S11321A047955695479556954795EC2F41155105FA
S11321B089F601C0C1E0EC2FF0E0E455FE4F108237
S11321C08CEA91E00E94C90F8CEA91E0CF910895C6
S11321D0982F92959F70990F292F220F220F920FFB
S11321E08F70890F0895AC019C01ADECBCEC0E948A
S11321F0021E969587959695879596958795BC0129
S1132200660F771F9C01220F331F220F331F220FEB
S1132210331F260F371F421B530B342F20E1829F9D
S1132220300D1124832F0895CF92DF92EF92FF9205
S1132230CF93DF93CDB7DEB728970FB6F894DEBF00
S11322400FBECDBF6B017C0169837A838B839C8332
S11322502D833E834F835887C216D306E406F506C2
S11322603CF4BE016B5F7F4FCE0101960E94A60D28
S11322708D819E81AF81B885892B8A2B8B2B71F43C
S113228069817A818B819C8120E030E0A9010E94E0
S1132290DD1D611571058105910529F46D817E812E
S11322A08F81988505C06D837E838F839887F6CF51
S11322B028960FB6F894DEBF0FBECDBFDF91CF9145
S11322C0FF90EF90DF90CF90089590E002C0959535
S11322D087956A95E2F7817008959C012150310930
S11322E081E090E002C0880F991F2A95E2F70097D9
S11322F0B1F0ECEAF1E020E030E0B0E3A1E3AB01BF
S113230048235923452B11F0A08301C0B08396952F
S113231087952F5F3F4F3196009789F702C020E0E1
S113232030E0F901E455FE4F10828CEA91E0089503
S1132330AB01BC011092AC01411551056105710559
S113234009F442C021E0EFEFE20FDB01CA018F7014
S11323509927AA27B078BB2354F40197A109B1099E
S1132360806F9F6FAF6FBF6F0196A11DB11D8A3043
S11323709105A105B10534F4F0E0E455FE4F805D0C
S1132380808305C0F0E0E455FE4F895C8083E22F32
S1132390F0E0E455FE4F1082DB01CA0177231CF400
S11323A00F96A11DB11DAC01BD01689413F875957C
S11323B06795579547951694D1F72F5F41155105A9
S11323C06105710509F0BFCF8CEA91E00E94C90F45
S11323D08CEA91E00895282F30E0322F2227A901BA
S11323E0492BCA010895292F30E0322F2227A90151
S11323F0482BCA010895282F892F922F08950895F4
S11324009827892798270895FB012081222339F0F2
S1132410A82FB92F31962D9321912111FCCF089526
S1132420FF920F931F93CF93DF938C01EB01F42E54
S1132430642F70E080E090E00E94DF1A9B01AC0101
S113244060E070E080E090E40E94FE1B20E030E059
S113245040E85FE30E94C5190E94B01A9E0126233A
S1132460372360237123CB01822793272823392321
S113247002C0220F331FFA94E2F7822B932BDF91D1
S1132480CF911F910F91FF900895CF93DF93CDB714
S1132490DEB79E012B5F3F4FF901419151919F019E
S11324A06FE570E08CEA91E00E942C1E99231CF0E9
S11324B08CEA91E002C080E090E0DF91CF91089532
S11324C0FC0110920B028EE99FE09183808389ECDA
S11324D09FE09383828380E192E19583848386EAFB
S11324E09DE09783868387EC9DE09187808785EDC7
S11324F09DE09387828787EF9DE09587848783E4B7
S113250090E1978786878DE790E1918B808B87EEAA
S11325109FE0938B828B8DEA9FE0958B848B8DE972
S11325209EE0978B868B82EA9EE0918F808F81EB71
S11325309EE0938F828F85ED9EE0958F848F87ED4B
S11325409EE0978F868F81EE9EE091A380A38EEE0E
S11325509EE093A382A38AEF9EE095A384A382E1E5
S11325609FE097A386A385E29FE091A780A780E3DD
S11325709FE093A782A78DE59FE095A784A788EEA7
S113258090E197A786A783EF90E191AB80AB84E1BC
S113259091E193AB82AB85E691E195AB84AB8DE69B
S11325A091E197AB86AB8EE593E191AF80AF88E97B
S11325B091E193AF82AF8BEE91E195AF84AF83EF5E
S11325C091E197AF86AFDF01A05CBF4F8BEF91E144
S11325D011969C938E9312968FEF91E111969C9392
S11325E08E93129680E092E111969C938E931296AC
S11325F085E492E111969C938E93129684E092E185
S11326008D939C93CF0108958F929F92AF92BF9226
S1132610EF92FF920F931F93CF93DF938A01D22FF0
S11326202AE030E040E050E00E94DD1D605DF801EA
S11326306083622F732F842F952F161617061806A2
S11326401906FCF421E00F2EFAE08F2E912CA12C18
S1132650B12CF02DC1E0C20F7801E20EF11CA501EE
S113266094010E94DD1D605DF7016083622F732F6A
S1132670842F952F2C2F161617061806190654F3B7
S113268001C0C1E0CD1748F480E3F801EC0FF11D5F
S11326908083CF5FDC13F9CF01C0DC2FF801ED0F8D
S11326A0F11D10828D2FDF91CF911F910F91FF901B
S11326B0EF90BF90AF909F908F9008958F929F92CC
S11326C0AF92BF92CF92DF92EF92FF920F931F933C
S11326D0CF93DF936B017C01EA01022F20E030E00D
S11326E0A9010E94321A88230CF06CC0F7FAF09406
S11326F0F7F8F094C701B6010E94B01A4B015C01CF
S11327000E94DF1A9B01AC01C701B6010E94C519E2
S11327106B017C01B401990C880B990B21E0AE018B
S11327200E94041311E0180FFE01E80FF11D8DE261
S113273080835E01A10EB11CF5011082CE010E94BE
S1132740C90F8FEF800F863018F58EE2F501808374
S11327501F5F5E01A10EB11C602F70E080E090E06D
S11327600E94DF1A9B01AC0160E070E080E291E41A
S11327700E94FE1BA70196010E94911B0E94A91AA8
S1132780202FA5010E940413C5010E94C90F3AC05D
S11327908EE2F50180831F5FCE01810F911D8C01B4
S11327A020E030E048EC52E4C701B6010E94911BDE
S11327B00E94A91A22E0A8010E940413C8010E94E1
S11327C0C90F20C0C701B6010E94B01A4B015C01B9
S11327D00E94DF1A9B01AC01C701B6010E94C51912
S11327E06B017C01B401990C880B990B21E0AE01BB
S11327F00E94041311E0180FFE01E80FF11D80E29E
S1132800808397CFCE01DF91CF911F910F91FF90DD
S1132810EF90DF90CF90BF90AF909F908F900895EE
S1132820E091C002F091C10280818B7F8083E091AE
S1132830C002F091C10280818460808308950F9367
S11328401F93CF93C82F8B01E091C002F091C10276
S113285080818D7F8083E091C902F091CA028081DA
S11328608F608083672B41F0E091C002F091C10238
S113287080818160808307C0E091C002F091C10231
S113288080818E7F808380E090E00E941014CC23AE
S113289044F4E091CB02F091CC0280818860808383
S11328A007C0E091CB02F091CC028081877F8083C6
S11328B0C6FF08C0E091CB02F091CC028081846015
S11328C0808307C0E091CB02F091CC0280818B7FA2
S11328D08083C5FF08C0E091CB02F091CC028081D7
S11328E08260808307C0E091CB02F091CC028081AA
S11328F08D7F8083C4FF08C0E091CB02F091CC02AD
S113290080818160808307C0E091CB02F091CC028A
S113291080818E7F8083012B41F0E091C002F09191
S1132920C10280818160808307C0E091C002F09180
S1132930C10280818E7F808380E090E00E94101429
S1132940C3FF08C0E091CB02F091CC028081886083
S1132950808307C0E091CB02F091CC028081877F15
S11329608083C2FF08C0E091CB02F091CC02808149
S11329708460808307C0E091CB02F091CC02808117
S11329808B7F8083C1FF08C0E091CB02F091CC0221
S113299080818260808307C0E091CB02F091CC02F9
S11329A080818D7F8083C0FF08C0E091CB02F091CD
S11329B0CC0280818160808307C0E091CB02F091DA
S11329C0CC0280818E7F8083E091C002F091C102AD
S11329D080818B7F8083CF911F910F91089560E058
S11329E070E081E00E941F1487EE97E10197F1F7F0
S11329F000C0000008950F931F93CF938C01E091C2
S1132A00C902F091CA028081807F8083E091CB0269
S1132A10F091CC0280818F608083E091C002F091BC
S1132A20C1028081826080830115110541F0E0912B
S1132A30C002F091C10280818160808307C0E0916F
S1132A40C002F091C10280818E7F808380E090E09B
S1132A500E941014E091C402F091C502808183FDAC
S1132A6002C0C0E001C0C0E8808182FF02C0C0642F
S1132A7001C0CF7B808181FF02C0C06201C0CF7DD5
S1132A80808180FF02C0C06101C0CF7E012B41F074
S1132A90E091C002F091C10280818160808307C00F
S1132AA0E091C002F091C10280818E7F808380E03A
S1132AB090E00E941014E091C402F091C50280815C
S1132AC083FF03C08C2F886002C08C2F877F908186
S1132AD092FF02C0846001C08B7F908191FF02C08D
S1132AE0826001C08D7F908190FF02C0816001C02F
S1132AF08E7FE091C002F091C10290819B7F908310
S1132B00CF911F910F91089580E090E00E94FB14F3
S1132B10882354F480E090E00E94FB14882324F47A
S1132B2080E090E00E94FB14089561E070E00E9450
S1132B301F140E9484150895CF93DF93EC018881BC
S1132B40882331F021960E94951589918111FBCF3C
S1132B50DF91CF9108950F931F93CF93DF93FC01DF
S1132B60D62F8081882351F08F010F5F1F4F611191
S1132B7009C017C0CF5FDC1730F401C0C0E0CD1727
S1132B8050F00FC0C1E00E949515F80181918F01AA
S1132B908111F0CFF4CF80E20E949515CF5FCD175D
S1132BA0D0F3DF91CF911F910F910895CF93C82F48
S1132BB0882329F080E20E949515C150D9F7CF915E
S1132BC00895262F8130910581F030F082309105EF
S1132BD0A9F00397E1F0089560E070E080E8820FC7
S1132BE00E941F140E948415089560E070E080EC38
S1132BF0820F0E941F140E948415089560E070E003
S1132C0084E9820F0E941F140E948415089560E0D5
S1132C1070E084ED820F0E941F140E9484150895B1
S1132C20E091C202F091C30287E08083E091C00288
S1132C30F091C10288E080832FEF83EF91E021506F
S1132C4080409040E1F700C0000060E070E088E35D
S1132C500E941F1420ED2A95F1F760E070E088E3EC
S1132C600E941F1480ED8A95F1F760E070E088E31C
S1132C700E941F1490ED9A95F1F760E070E088E2ED
S1132C800E941F1425EC2A95F1F7000060E070E023
S1132C9088E20E941F1485EC8A95F1F7000060E039
S1132CA070E088E20E941F140E94841560E070E0C6
S1132CB088E20E941F140E94841560E070E08CE09A
S1132CC00E941F140E94841560E070E08CE00E9452
S1132CD01F140E94841560E070E081E00E941F14BC
S1132CE00E94841560E070E081E00E941F140E943D
S1132CF0841560E070E086E00E941F140E94841531
S1132D0060E070E086E00E941F140E94841560E079
S1132D1070E080E090E00E94E1150895CF92DF9288
S1132D20EF92FF920F931F93CF93DF93EC01709375
S1132D30C3026093C2025093C8024093C702309307
S1132D40C1022093C0021093CA020093C902F092F8
S1132D50C502E092C402D092CC02C092CB02FB0125
S1132D601082E091C002F091C1028FEF8083E09164
S1132D70C902F091CA021082E091CB02F091CC0218
S1132D808083E091C702F091C802808188708093AB
S1132D90C6020E9410168FE194E1998388838BEF19
S1132DA094E19B838A8384E895E19D838C8385E900
S1132DB095E19F838E8383E197E1998788878CE9E6
S1132DC095E19B878A878BEA95E19D878C8786EDC1
S1132DD095E19F878E878FEE94E1998B888B81EEA6
S1132DE095E19B8B8A8B81E097E19D8B8C8BCE0147
S1132DF0DF91CF911F910F91FF90EF90DF90CF90D3
S1132E000895CF93E091C702F091C802C081C870C1
S1132E108091C6028C278C2311F00E941016C09357
S1132E20C602CF910895CF9381E090E00E94FB14F5
S1132E30C82F0E9484158C2FCF910895CF93DF93D0
S1132E40CDB7DEB7C858D1090FB6F894DEBF0FBEB0
S1132E50CDBFE9ECF3E088E593E09183808381EAD8
S1132E6093E0918780878CE593E09383828385EA5E
S1132E7093E09387828780E693E09583848389EA4D
S1132E8093E09587848784E693E0978386838DEA2D
S1132E9093E097878687E8E5F3E02AE633E080E26B
S1132EA081932E173F07E1F7E1EAF3E023EB33E0E8
S1132EB080E281932E173F07E1F782E180937E033E
S1132EC0A8E5B3E08AE050968C935097E1EAF3E0EA
S1132ED0808B51961C92118ACE0101960E94200487
S1132EE08EE3FE013196A5E1B2E001900D928A9540
S1132EF0E1F7CE01CF960E9460128AE4FE01FF96AC
S1132F00A7EDB2E001900D928A95E1F70F2EF8E259
S1132F10CF2ED12CF02D0F2EF6E2EF2EF12CF02D2A
S1132F2007E210E025E230E043E250E064E270E0C2
S1132F30CE0101960E948E1686E1FE013196A2E42E
S1132F40B3E001900D928A95E1F707E025E044E0B3
S1132F506BE270E08AE290E00E9459010F2EF6E7DE
S1132F60EF2EF3E0FF2EF02DD7012C9311963C9316
S1132F70119712964C93129713965C931397149689
S1132F806C93149715967C93159716968C931697B5
S1132F9017969C930F2EF5E1CF2EF2E0DF2EF02D45
S1132FA0D6019C96ED91FC919D9700E010E021E004
S1132FB030E048E050E06CE070E0CE010196099505
S1132FC086E1FE013196A3EBB3E001900D928A9560
S1132FD0E1F7D6019096ED91FC91919741E061E083
S1132FE0CE01019609958CE0FE013196AAE6B3E084
S1132FF001900D928A95E1F7E0917203F0917303C9
S11330008FEF9FEF09951092A00310929F03D701B1
S11330101496ED91FC9115978FEF0995E091560365
S1133020F091570309951FEF0F2EF3EBAF2EF3E04A
S1133030BF2EF02D312C222423940F2EF9ECCF2E09
S1133040F3E0DF2EF02D0F2EFFE1EF2EF3E0FF2E45
S1133050F02D0F2EF6E78F2EF3E09F2EF02D6894BF
S1133060662465F8712C0AC0D5011E96ED91FC9179
S11330701F9709957092800360927F03D5011C9677
S1133080ED91FC911D97099590930D0280930C028C
S1133090D5011A96ED91FC911B9709958A3051F44C
S11330A060910C0270910D028FE793E00E94251E3F
S11330B0422C01C0432CE0915403F091550360E08D
S11330C070E080E090E00995E0914E03F0914F03A9
S11330D067E080E091E00995E0915403F091550395
S11330E060E070E081E090E0099568E071E08FE7CE
S11330F093E00E941C1E892BD9F410FF0DC01E7F83
S1133100D701ED91FC9163E171E0D60118968D91A0
S11331109C91199709950CC01160D701ED91FC9110
S113312067E171E0D60118968D919C9119970995E4
S11331306BE171E08FE793E00E941C1E892B61F420
S11331401160D701ED91FC9167E171E0D601189609
S11331508D919C911997099567E271E08FE793E04F
S11331600E941C1E892BD9F411FF0DC01D7FD701AD
S1133170ED91FC9163E171E0D6011A968D919C91D9
S11331801B9709950CC01260D701ED91FC9167E182
S113319071E0D6011A968D919C911B97099562E373
S11331A071E08FE793E00E941C1E892B61F412608A
S11331B0D701ED91FC9167E171E0D6011A968D91EA
S11331C09C911B9709956EE371E08FE793E00E9451
S11331D01C1E892BD9F412FF0DC01B7FD701ED9162
S11331E0FC9163E171E0D6011C968D919C911D9731
S11331F009950CC01460D701ED91FC9167E171E071
S1133200D6011C968D919C911D97099569E471E0F6
S11332108FE793E00E941C1E892B61F41460D70190
S1133220ED91FC9167E171E0D6011C968D919C9122
S11332301D97099565E571E08FE793E00E941C1ED8
S1133240892BD9F413FF0DC0177FD701ED91FC91A1
S113325063E171E0D6011E968D919C911F970995AB
S11332600CC01860D701ED91FC9167E171E0D601C3
S11332701E968D919C911F97099560E671E08FE7EA
S113328093E00E941C1E892B61F41860D701ED9114
S1133290FC9167E171E0D6011E968D919C911F9778
S11332A009956CE671E08FE793E00E941C1E892B60
S11332B069F5D701ED91FC9167E171E0D6011896AB
S11332C08D919C9119970995D701ED91FC9167E136
S11332D071E0D6011A968D919C911B970995D7019F
S11332E0ED91FC9167E171E0D6011C968D919C9162
S11332F01D970995D701ED91FC9167E171E0D60125
S11333001E968D919C911F9709951FEF66E771E0BA
S11333108FE793E00E941C1E892B41F4D50154963B
S1133320ED91FC91559781EA93E00995E0914E0364
S1133330F0914F0360E181EA93E00995D40114967A
S1133340ED91FC911597812F0995E0915603F09129
S113335057030995442009F491CE86CE1F920F920B
S11333600FB60F9211248F939F9380919F03909196
S1133370A00301969093A00380939F039F918F9144
S11333800F900FBE0F901F9018955058BB27AA2777
S11333900E94DD190C94571B0E94491B38F00E94AF
S11333A0501B20F039F49F3F19F426F40C94461B6B
S11333B00EF4E095E7FB0C94401BE92F0E94681B78
S11333C058F3BA17620773078407950720F079F456
S11333D0A6F50C948A1B0EF4E0950B2EBA2FA02DA3
S11333E00B01B90190010C01CA01A0011124FF27AE
S11333F0591B99F0593F50F4503E68F11A16F040A9
S1133400A22F232F342F4427585FF3CF46953795A7
S11334102795A795F0405395C9F77EF41F16BA0B6C
S1133420620B730B840BBAF09150A1F0FF0FBB1F1A
S1133430661F771F881FC2F70EC0BA0F621F731F63
S1133440841F48F4879577956795B795F7959E3FC0
S113345008F0B0CF9395880F08F09927EE0F979551
S1133460879508950E941C1B08F481E008950E942A
S11334704B1A0C94571B0E94501B58F00E94491B76
S113348040F029F45F3F29F00C94401B51110C9437
S11334908B1B0C94461B0E94681B68F39923B1F3A1
S11334A0552391F3951B550BBB27AA276217730766
S11334B0840738F09F5F5F4F220F331F441FAA1FFA
S11334C0A9F335D00E2E3AF0E0E832D091505040B6
S11334D0E695001CCAF72BD0FE2F29D0660F771F64
S11334E0881FBB1F261737074807AB07B0E809F04A
S11334F0BB0B802DBF01FF2793585F4F3AF09E3FCF
S1133500510578F00C94401B0C948B1B5F3FE4F343
S1133510983ED4F3869577956795B795F7959F5F11
S1133520C9F7880F911D9695879597F90895E1E05D
S1133530660F771F881FBB1F621773078407BA07BC
S113354020F0621B730B840BBA0BEE1F88F7E09517
S113355008950E94B01A6894B1110C948B1B0895BD
S11335600E94701B88F09F5798F0B92F9927B75184
S1133570B0F0E1F0660F771F881F991F1AF0BA9513
S1133580C9F714C0B13091F00E948A1BB1E00895CC
S11335900C948A1B672F782F8827B85F39F0B93FBE
S11335A0CCF3869577956795B395D9F73EF49095C6
S11335B08095709561957F4F8F4F9F4F0895E89444
S11335C009C097FB3EF490958095709561957F4F67
S11335D08F4F9F4F9923A9F0F92F96E9BB27939515
S11335E0F695879577956795B795F111F8CFFAF425
S11335F0BB0F11F460FF1BC06F5F7F4F8F4F9F4F56
S113360016C0882311F096E911C0772321F09EE8B3
S1133610872F762F05C0662371F096E8862F70E019
S113362060E02AF09A95660F771F881FDAF7880FF3
S11336309695879597F90895990F0008550FAA0B49
S1133640E0E8FEEF16161706E807F907C0F01216B1
S11336501306E407F50798F0621B730B840B950BB4
S113366039F40A2661F0232B242B252B21F4089509
S11336700A2609F4A140A6958FEF811D811D0895A6
S113368097F99F6780E870E060E008959FEF80EC11
S1133690089500240A9416161706180609060895B4
S11336A000240A9412161306140605060895092E1A
S11336B00394000C11F4882352F0BB0F40F4BF2B89
S11336C011F460FF04C06F5F7F4F8F4F9F4F0895C9
S11336D057FD9058440F551F59F05F3F71F04795BF
S11336E0880F97FB991F61F09F3F79F087950895A4
S11336F0121613061406551FF2CF4695F1DF08C0C3
S1133700161617061806991FF1CF869571056105DF
S113371008940895E894BB2766277727CB0197F987
S113372008950E94A41B0C94571B0E94491B38F057
S11337300E94501B20F0952311F00C94401B0C9414
S1133740461B11240C948B1B0E94681B70F3959FDD
S1133750C1F3950F50E0551F629FF001729FBB2784
S1133760F00DB11D639FAA27F00DB11DAA1F649F20
S11337706627B00DA11D661F829F2227B00DA11DD3
S1133780621F739FB00DA11D621F839FA00D611D59
S1133790221F749F3327A00D611D231F849F600D7A
S11337A0211D822F762F6A2F11249F5750409AF0A3
S11337B0F1F088234AF0EE0FFF1FBB1F661F771F2F
S11337C0881F91505040A9F79E3F510580F00C94FA
S11337D0401B0C948B1B5F3FE4F3983ED4F3869517
S11337E077956795B795F795E7959F5FC1F7FE2B9A
S11337F0880F911D9695879597F90895FA01EE0F14
S1133800FF1F309621053105A1F16115710561F4A1
S11338108038BFE39B0749F168949038810561F0D3
S11338208038BFEF9B0741F099234AF5FF3FE1053C
S11338303105210519F1E8940894E795D901AA23E3
S113384029F4AB2FBE2FF85FD0F310C0FF5F70F4E4
S1133850A695E0F7F73950F019F0FF3A38F49F775E
S11338609F930DD00F9007FC9058089546F00C9448
S1133870461B60E070E080E89FE308954FE79F7780
S11338805F934F933F932F930E94F91C2F913F9185
S11338904F915F910E94911B0C94561C29F416F0D1
S11338A00C94401B0C948A1B0C94461B0E94701BA6
S11338B0A8F39638A0F707F80F92E8942BE33AEAB6
S11338C048EB5FE70E94A71B0F920F920F924DB730
S11338D05EB70F920E94411DEAEAF0E00E94881C44
S11338E04F915F91EF91FF91E595EE1FFF1F49F016
S11338F0FE57E0684427EE0F441FFA95E1F741951F
S1133900550B0E94BB1C0F9007FE0C94AF1C08952E
S1133910DF93CF931F930F93FF92EF92DF927B017C
S11339208C01689406C0DA2EEF010E94A41BFE01EC
S1133930E894A5912591359145915591A6F3EF0110
S11339400E94DD19FE019701A801DA9469F7DF905E
S1133950EF90FF900F911F91CF91DF9108959B01FC
S1133960AC0160E070E080E89FE30C94371A0C949B
S1133970401B0C94751D0E94701BD8F39923C9F346
S1133980940F511DA3F39150504094F059F08823A3
S113399032F0660F771F881F91505040C1F79E3F49
S11339A051052CF7880F911D9695879597F90895E1
S11339B05F3FACF0983E9CF0BB2786957795679562
S11339C0B79508F4B1609395C1F7BB0F58F711F49C
S11339D060FFE8CF6F5F7F4F8F4F9F4FE3CF0C9413
S11339E08B1B16F00C94751D0C94461B68940C9458
S11339F0401B0E94701BA8F39923C1F3AEF3DF931D
S1133A00CF931F930F93FF92C92FDD2788232AF0AA
S1133A102197660F771F881FDAF720E030E040E82F
S1133A205FEB9FE3883920F0803E38F021968F7752
S1133A300E94C619E2EDF0E004C00E94C619EFEF3F
S1133A40F0E00E94881C8B01BE01EC01FB2E6F5735
S1133A5071097595771F880B990B0E94E11A28E16B
S1133A6032E741E35FE30E94A41BAF2D9801AE014E
S1133A70FF900F911F91CF91DF910E94DD190C945B
S1133A80571BFA01DC01AA0FBB1F9B01AC01BF57F6
S1133A9028F4222733274427507820C0B75190F4C4
S1133AA0AB2F0024469537952795011CA395D2F397
S1133AB0002071F0220F331F441FB395DAF30ED0A8
S1133AC00C94C51961307105A0E88A07B94630F431
S1133AD09B01AC016627772788279078309621F0E0
S1133AE0208331834283538308959F3F31F0915063
S1133AF020F4879577956795B795880F911D9695CE
S1133B00879597F90895DB018F939F930E94111E67
S1133B10BF91AF91A29F800D911DA39F900DB29F65
S1133B20900D11240895AA1BBB1B51E107C0AA1FC5
S1133B30BB1FA617B70710F0A61BB70B881F991F4A
S1133B405A95A9F780959095BC01CD01089597FBEE
S1133B50072E16F4009407D077FD09D00E94931D18
S1133B6007FC05D03EF4909581959F4F089570957C
S1133B7061957F4F0895A1E21A2EAA1BBB1BFD017C
S1133B800DC0AA1FBB1FEE1FFF1FA217B307E40738
S1133B90F50720F0A21BB30BE40BF50B661F771F90
S1133BA0881F991F1A9469F7609570958095909570
S1133BB09B01AC01BD01CF010895052E97FB1EF4B6
S1133BC000940E94F41D57FD07D00E94BB1D07FC02
S1133BD003D04EF40C94F41D5095409530952195E6
S1133BE03F4F4F4F5F4F0895909580957095619525
S1133BF07F4F8F4F9F4F0895EE0FFF1F0590F49155
S1133C00E02D0994A29FB001B39FC001A39F700D42
S1133C10811D1124911DB29F700D811D1124911DD0
S1133C2008950E94021EA59F900DB49F900DA49F1D
S1133C30800D911D11240895FB01DC018D910190EB
S1133C4080190110D9F3990B0895FB01DC0101904F
S1133C500D920020E1F70895AEE0B0E0E2E3FEE16A
S1133C600C94F7208C01FA0186E08C831A83098373
S1133C7077FF02C060E070E8CB0101979E838D83DB
S1133C80A901BF01CE0101960E94581E4D815E819B
S1133C9057FD0AC02F813885421753070CF49A0147
S1133CA0F801E20FF31F10822E96E4E00C94132126
S1133CB0ABE0B0E0EEE5FEE10C94E9206C017B01A1
S1133CC08A01FC0117821682838181FFCCC1CE0157
S1133CD001963C01F6019381F70193FD859193FFD1
S1133CE081917F01882309F4BAC1853239F493FDA7
S1133CF0859193FF81917F01853229F4B60190E08B
S1133D000E944F20E7CF912C212C312CFFE1F31599
S1133D10D8F08B3279F038F4803279F08332A1F420
S1133D20232D20611DC08D3261F0803369F4232D71
S1133D30216016C0832D8260382EE32DE4603E2E70
S1133D402AC0F32DF8601DC037FC2DC020ED280FCC
S1133D502A3040F08E32B9F436FC81C1232D206420
S1133D60322E19C036FE06C08AE0989E200D11241A
S1133D70922E11C0EAE02E9E200D1124222EF32D46
S1133D80F0623F2E08C08C3621F4832D8068382ED3
S1133D9002C0883641F4F70193FD859193FF819128
S1133DA07F018111B3CF982F9F7D9554933028F4D0
S1133DB00C5F1F4F9FE399830DC0833631F0833727
S1133DC071F0833509F059C021C0F80180818983DD
S1133DD00E5F1F4F88248394912C530113C0280134
S1133DE0F2E04F0E511CF801A080B18036FE03C0F2
S1133DF0692D70E002C06FEF7FEFC5010E9444207F
S1133E004C018201F32DFF773F2E16C0280122E0DA
S1133E10420E511CF801A080B18036FE03C0692D0A
S1133E2070E002C06FEF7FEFC5010E9439204C01A2
S1133E30F32DF0683F2E820133FC1BC0822D90E0ED
S1133E4088169906B0F4B60180E290E00E944F20F3
S1133E502A94F4CFF50137FC859137FE81915F01F7
S1133E60B60190E00E944F2021102A9421E0821A8A
S1133E7091088114910471F7E8C0843611F08936F1
S1133E8041F5F80137FE07C0608171818281938119
S1133E900C5F1F4F08C060817181072E000C880BD6
S1133EA0990B0E5F1F4FF32DFF763F2E97FF09C02E
S1133EB090958095709561957F4F8F4F9F4FF068D7
S1133EC03F2E2AE030E0A3010E948B20882E861822
S1133ED045C0853731F4232D2F7EB22E2AE030E001
S1133EE025C0932D997FB92E8F36C1F018F48835EB
S1133EF079F0B5C0803719F0883721F0B0C0E92FC8
S1133F00E061BE2EB4FE0DC0FB2DF460BF2E09C0CF
S1133F1034FE0AC0292F2660B22E06C028E030E005
S1133F2005C020E130E002C020E132E0F801B7FE34
S1133F3007C060817181828193810C5F1F4F06C02D
S1133F406081718180E090E00E5F1F4FA3010E94A9
S1133F508B20882E8618FB2DFF773F2E36FE0DC052
S1133F60232D2E7FA22E891458F434FE0BC032FC6C
S1133F7009C0832D8E7EA82E05C0B82CA32C03C0A7
S1133F80B82C01C0B92CA4FE0FC0FE01E80DF11D30
S1133F908081803321F49A2D997EA92E09C0A2FE36
S1133FA006C0B394B39404C08A2D867809F0B39400
S1133FB0A3FC11C0A0FE06C0B21488F4280C922CF5
S1133FC09B180EC0B21460F4B60180E290E00E9427
S1133FD04F20B394F7CFB21418F42B1802C0982CC6
S1133FE0212CA4FE10C0B60180E390E00E944F2073
S1133FF0A2FE17C0A1FC03C088E790E002C088E5D8
S113400090E0B6010CC08A2D867859F0A1FE02C05A
S11340108BE201C080E2A7FC8DE2B60190E00E9431
S11340204F20891438F4B60180E390E00E944F20B9
S11340309A94F7CF8A94F301E80DF11D8081B601BB
S113404090E00E944F208110F5CF222009F442CE47
S1134050B60180E290E00E944F202A94F6CFF60148
S11340608681978102C08FEF9FEF2B96E2E10C943B
S11340700521FC010590615070400110D8F780952E
S113408090958E0F9F1F0895FC0161507040019020
S11340900110D8F7809590958E0F9F1F08950F9368
S11340A01F93CF93DF93FB01238121FD03C08FEF87
S11340B09FEF2CC022FF16C0468157812481358191
S11340C04217530744F4A081B1819D012F5F3F4FF4
S11340D0318320838C93268137812F5F3F4F378331
S11340E0268314C08B01EC01FB010084F185E02DD3
S11340F00995892BE1F6D80116968D919C91179715
S1134100019617969C938E931697CE01DF91CF91CB
S11341101F910F910895FA01AA27283051F12031F7
S113412081F1E8946F936E7F6E5F7F4F8F4F9F4F47
S1134130AF4FB1E03ED0B4E03CD0670F781F891F89
S11341409A1FA11D680F791F8A1F911DA11D6A0F57
S1134150711D811D911DA11D20D009F468943F910A
S11341602AE0269F11243019305D3193DEF6CF0109
S11341700895462F4770405D4193B3E00FD0C9F7CF
S1134180F6CF462F4F70405D4A3318F0495D31FD3C
S11341904052419302D0A9F7EACFB4E0A69597958F
S11341A0879577956795BA95C9F700976105710565
S11341B008959B01AC010A2E0694579547953795AF
S11341C02795BA95C9F7620F731F841F951FA01D09
S11341D008952F923F924F925F926F927F928F92A7
S11341E09F92AF92BF92CF92DF92EF92FF920F9382
S11341F01F93CF93DF93CDB7DEB7CA1BDB0B0FB68C
S1134200F894DEBF0FBECDBF09942A883988488848
S11342105F846E847D848C849B84AA84B984C884DE
S1134220DF80EE80FD800C811B81AA81B981CE0FD5
S1134230D11D0FB6F894DEBF0FBECDBFED010895BA
S1074240F894FFCF1C
S113424457656C636F6D65006C65642031206F6E17
S11342540D0A006F6E20006F6666006C6564203181
S1134264206F66660D0A006C65642032206F6E0D43
S11342740A006C65642032206F66660D0A006C6562
S1134284642033206F6E0D0A006C65642033206F44
S113429466660D0A006C65642034206F6E0D0A0096
S11342A46C65642034206F66660D0A00616C6C20B2
S11342B46F66660D0A007374617475730D0A0000E9
S9030000FC
