S011000041746D6567613332382E7372656327
S11300000C9496000C94B3000C94B3000C94B300BD
S11300100C94B3000C94B3000C94B3000C94B30090
S11300200C94B3000C94B3000C94B3000C94B30080
S11300300C94B3000C94B3000C94B3000C94B30070
S11300400C9487190C94B3000C94180D0C944C0D5B
S11300500C94B3000C94EC020C94B3000C94B30015
S11300600C94B3000C94B300D707DB07DF07E30756
S1130070E707EB07EF07530859085F0865086B08A3
S113008074087D0886088C0895089E08A708AD08A2
S1130090B608BF08DE08E208E608EA08EE08F20837
S11300A0F608FA08FE080209060907634236B79BF8
S11300B0D8A71A39685618AEBAAB558C1D3CB7CCC4
S11300C05763BD6DEDFD753EF6177231BF0000003C
S11300D0803F08000000BE922449123EABAAAA2A1F
S11300E0BECDCCCC4C3E00000080BEABAAAAAA3E3A
S11300F000000000BF000000803F00000000000876
S11301004178D3BB4387D1133D190E3CC3BD428212
S1130110AD2B3E68EC8276BED98FE1A93E4C80EFD0
S1130120FFBE01C4FF7F3F000000000011241FBE7A
S1130130CFEFD8E0DEBFCDBF12E0A0E0B1E0E6EF44
S1130140F1E402C005900D92A432B107D9F724E07E
S1130150A4E2B2E001C01D92A636B207E1F70E9404
S11301600C170C94F9200C940000882389F0E0917A
S1130170B402F091B502208181E090E00090B602D3
S113018002C0880F991F0A94E2F7822B808311C062
S1130190E091B402F091B502208181E090E00090FA
S11301A0B60202C0880F991F0A94E2F78095822351
S11301B08083E091B402F091B502408181E090E047
S11301C09C010090B80202C0220F331F0A94E2F788
S11301D0242B2083E091B402F091B5022081009099
S11301E0B80202C0880F991F0A94E2F7809582230F
S11301F080830895E091B402F091B502408181E0DA
S113020090E09C010090B70202C0220F331F0A94B1
S1130210E2F7242B2083E091B402F091B50220810F
S11302200090B70202C0880F991F0A94E2F78095E4
S1130230822380830895FF920F931F93CF93DF93BC
S1130240F82EC0E0D0E001E010E0C8010C2E02C09E
S1130250880F991F0A94E2F78F210E94B500219616
S1130260C830D10591F70E94FA00DF91CF911F9118
S11302700F91FF900895FF920F931F93CF93DF93F5
S1130280F82EC7E0D0E001E010E0C8010C2E02C057
S1130290880F991F0A94E2F78F210E94B5002197D5
S11302A0A0F70E94FA00DF91CF911F910F91FF9068
S11302B008950F93CF93DF93CDB7DEB728970FB68A
S11302C0F894DEBF0FBECDBF9093B3028093B20209
S11302D07093B5026093B4024093B6022093B802BF
S11302E00093B702FC01308161E070E0DB0102C0E1
S11302F0AA0FBB1F2A95E2F7FB0102C0EE0FFF1FF6
S11303000A95E2F7EA2B02C0660F771F4A95E2F7D7
S11303106E2B232F262BFC012083E091B402F09155
S1130320B502808160956823608325EB30E03A83D1
S113033029834BE151E05C834B836BE371E07E8363
S11303406D838AEF90E098878F833A815C817E8108
S1130350988528960FB6F894DEBF0FBECDBFDF9107
S1130360CF910F910895E091BD02F091BE022281D8
S113037026FD02C020642283FC01EE0FFF1FE35C14
S1130380FD4F808191810895EF92FF920F931F9307
S1130390CF93DF93CDB7DEB7EE970FB6F894DEBFF9
S11303A00FBECDBF28960FAD289729961FAD29976C
S11303B02B96EEACFFAC2B97CE0101960E94200445
S11303C08EE3FE013196A9EBB2E001900D928A957D
S11303D0E1F7E9EBF2E0A085B18591964C91919714
S11303E0842F8F7791968C93F0922C02E0922B02BB
S11303F010922A0210922902109224020480F5819C
S1130400E02D84818F738483013019F0033051F01F
S113041012C0E091BD02F091BE02848180648483A5
S113042051E00AC0E091BD02F091BE028481806C6B
S1130430848353E001C050E0E091BD02F091BE021C
S113044084818F7D84831E141F0494F4DE01A55BD4
S1130450BF4F80E090E02D913D91FC01EE0FFF1F16
S1130460E35DFD4F318320830196E816F90699F781
S1130470E9EBF2E0A481B58114968C911497807F06
S113048014968C93A0912902B0912A02AA0FBB1F43
S1130490A35DBD4F8D919C91A481B5818F709927E7
S11304A014969C911497892B14968C93A481B581EE
S11304B012968C911297806812968C93A481B581C0
S11304C012968C911297806412968C93A481B581B4
S11304D012968C9112978F7D12968C93A481B5817C
S11304E013968C911397887F13968C93A481B5816E
S11304F012968C911297886012968C930480F581E1
S1130500E02D8281887F8283103109F138F4143020
S113051061F0183099F01230F1F546C0103449F109
S1130520103881F11032B9F51BC0E091BD02F09191
S1130530BE0282818260828324E037C0E091BD02E2
S1130540F091BE0282818360828328E02EC0E09114
S1130550BD02F091BE0282818460828320E125C0C5
S1130560E091BD02F091BE0282818560828320E227
S11305701CC0E091BD02F091BE028281866082833C
S113058020E413C0E091BD02F091BE028281876035
S1130590828320E80AC0E091BD02F091BE0282810C
S11305A08760828320E801C022E0E091C102F091DB
S11305B0C202406841A3652F722F83EB91E0EE964F
S11305C00FB6F894DEBF0FBECDBFDF91CF911F9160
S11305D00F91FF90EF9008951F920F920FB60F9214
S11305E011242F933F938F939F93AF93BF93EF93D4
S11305F0FF938091780090E09093260280932502E7
S1130600209179008091250290912602922B90935B
S1130610260280932502809124028430A0F48091E4
S113062024028F5F809324022091250230912602B8
S11306308091270290912802820F931F90932802A1
S1130640809327024DC0E0912902F0912A02809103
S11306502702909128029595879595958795EE0F99
S1130660FF1FE35CFD4F9183808310922802109258
S11306702702109224022091290230912A028091AB
S11306802B0290912C022817390754F480912902E7
S113069090912A02019690932A028093290204C021
S11306A010922A0210922902A9EBB2E01496ED915D
S11306B0FC9115978481807F8483E0912902F091D5
S11306C02A02EE0FFF1FE35DFD4F80819181149696
S11306D0ED91FC9115978F7099279481892B8483D0
S11306E0FF91EF91BF91AF919F918F913F912F9186
S11306F00F900FBE0F901F90189584B78F708230A3
S113070071F018F4813031F019C0843069F0883008
S113071081F014C084B78E7F84BF80E0089584B7CD
S11307208D7F84BF81E0089584B78B7F84BF82E08E
S1130730089584B7877F84BF83E0089584B7807F5A
S113074084BF80E00895882319F08130C9F030C057
S1130750E898E9E6F0E080818C7F8083623019F0CC
S1130760633039F00BC0E9E6F0E080818260808379
S113077005C0E9E6F0E0808183608083E89A08950B
S1130780E998E9E6F0E08081837F8083623019F0A4
S1130790633039F00BC0E9E6F0E080818860808343
S11307A005C0E9E6F0E080818C608083E99A0895D1
S11307B01DBA0895882319F0813019F004C0E8980F
S11307C00895E99808951DBA0895CF93DF9300D052
S11307D000D000D0CDB7DEB71DBA23EA33E03A83A8
S11307E029834AED53E05C834B836DE773E07E839A
S11307F06D833A815C817E8180E090E026960FB61D
S1130800F894DEBF0FBECDBFDF91CF910895292F9D
S113081030E0322F2227A901482BCA010895282F3E
S113082030E0322F2227A901492BCA0108950895E7
S1130830282F892F922F089598278927982708957C
S1130840FC011182108280E590E09383828388E723
S113085090E09583848384EC91E0978386838EE390
S113086090E0918780878FE390E0938782878BE382
S113087090E09787868785EE93E0918B808B83E267
S113088090E0938B828B86E290E0958B848B89E257
S113089090E0978B868B8CE490E0918F808F86E339
S11308A090E0938F828F89E198E0958F848F85E320
S11308B090E0978F868F85E497E091A380A387E3E8
S11308C090E093A382A380E399E095A384A388EBAB
S11308D090E097A386A38DE59AE091A780A780EC8A
S11308E090E093A782A784E79BE095A784A780E67E
S11308F090E097A786A780E091E091AB80AB87E07A
S113090094E095AB84AB8FE094E097AB86AB87E142
S113091094E091AF80AF88E194E093AF82AF8CE133
S113092094E095AF84AFCF01089520914F02211137
S113093071C0E7EFF2E0A68DB78D2FEF52962C939E
S1130940068CF78DE02D2089287F208B8830910537
S113095001F158F483309105E1F18530910509F4F2
S113096040C0019709F045C00CC0811521E09207F1
S113097001F1811524E0920721F180349105C9F534
S113098010C0E0911503F091160380898160808B7B
S113099037C0E0911503F091160380898260808B43
S11309A02FC0E0911503F091160380898360808B3A
S11309B027C0E0911503F091160380898460808B31
S11309C01FC0E0911503F091160380898560808B28
S11309D017C0E0911503F091160380898660808B1F
S11309E00FC0E0911503F091160380898760808B16
S11309F007C0E0911503F091160380898560808B10
S1130A00E091FF02F091000381A1806881A381E05D
S1130A1080934F020895E0911503F0911603978592
S1130A209F739787823061F0833091F08130B9F4FD
S1130A30E0911503F09116038785806487870895F4
S1130A40E0911503F09116038785806887870895E0
S1130A50E0911503F09116038785806C87870895CC
S1130A60E0911503F091160397859F7C9787823058
S1130A7061F0833091F08130B9F4E0911503F09185
S1130A8016038785806187870895E0911503F091A7
S1130A9016038785806287870895E0911503F09196
S1130AA016038785806387870895E0911503F09185
S1130AB01603828B0895E0911503F0911603838B3E
S1130AC00895E7EFF2E0A68DB78D50968C9150977C
S1130AD0887F50968C93068CF78DE02D118A1092A6
S1130AE04F020895EF92FF920F931F93CF93DF93DA
S1130AF0EC0190914E02911172C007EF12E0D801FF
S1130B005A96ED90FC905B97B2E5EB0EF11CD80180
S1130B10DA96ED91FC91DB978FEF9FEF0995F70142
S1130B2091838083D8015A962D913C915B97F9016A
S1130B30E55BFF4F8081887F8083C830D105E1F079
S1130B4048F4C330D10581F1C530D10599F121971D
S1130B50B9F50CC0C115B1E0DB07D1F0C115E4E073
S1130B60DE07E1F0C034D10559F50CC0F901E55BAD
S1130B70FF4F8160808329C0F901E55BFF4F8260EC
S1130B80808323C0F901E55BFF4F836080831DC030
S1130B90F901E55BFF4F8460808317C0F901E55BD1
S1130BA0FF4F8560808311C0F901E55BFF4F8660CC
S1130BB080830BC0F901E55BFF4F8760808305C02C
S1130BC0F901E55BFF4F85608083E091FF02F091BE
S1130BD0000381A1806881A381E080934E02DF91AC
S1130BE0CF911F910F91FF90EF90089520911103E1
S1130BF030911203F901E65BFF4F90819F738230BD
S1130C0061F0833081F0813011F090830895F9010F
S1130C10E65BFF4F906490830895F901E65BFF4F14
S1130C20906890830895F901E65BFF4F906C908380
S1130C3008952091110330911203F901E65BFF4FEF
S1130C4090819F7C823061F0833081F0813011F09B
S1130C5090830895F901E65BFF4F906190830895B6
S1130C60F901E65BFF4F906290830895F901E65B1A
S1130C70FF4F906390830895CF93DF93E7EFF2E003
S1130C80C28DD38DCE5ADF4F02ACF3ADE02D099562
S1130C9099838883DF91CF910895CF93DF93E7EF12
S1130CA0F2E0C28DD38DCC5ADF4F02ACF3ADE02D10
S1130CB0099599838883DF91CF910895CF93DF932A
S1130CC0E7EFF2E0828D938DDC01A55BBF4F2C91A1
S1130CD0287F2C93EC01C25BDF4F02ACF3ADE02D17
S1130CE080E090E009959983888310924E02DF9109
S1130CF0CF910895AC0180914D02811160C0209183
S1130D00190330911A03F901E458FF4F8FEF8083E0
S1130D1032979081987F90834034510549F150F483
S1130D2048305105C9F040325105E1F041305105D8
S1130D30B9F50CC0411581E0580731F1411584E043
S1130D40580741F14038510559F518C0F901E658E2
S1130D50FF4F9160908329C0F901E658FF4F9260DC
S1130D60908323C0F901E658FF4F936090831DC020
S1130D70F901E658FF4F9460908317C0F901E658D3
S1130D80FF4F9560908311C0F901E658FF4F9660BC
S1130D9090830BC0F901E658FF4F9760908305C01C
S1130DA0F901E658FF4F97609083E091FF02F091BC
S1130DB0000381A1806881A381E080934D0208959E
S1130DC02091190330911A03F901E758FF4F9081DC
S1130DD09F73823061F0833081F0813011F0908311
S1130DE00895F901E758FF4F906490830895F9013D
S1130DF0E758FF4F906890830895F901E758FF4F33
S1130E00906C908308952091190330911A03F9018D
S1130E10E758FF4F90819F7C823061F0833081F0EE
S1130E20813011F090830895F901E758FF4F9061E4
S1130E3090830895F901E758FF4F906290830895D5
S1130E40F901E758FF4F906390830895E0911903E7
S1130E50F0911A03E458FF4F80830895E091190339
S1130E60F0911A03E358FF4F80830895809119038A
S1130E7090911A03FC01E658FF4F2081287F2083BC
S1130E803196108210924D020895EF92FF920F93C3
S1130E901F93CF93DF93CDB7DEB7EE970FB6F894D9
S1130EA0DEBF0FBECDBF8C01E62EF42ECE0101961F
S1130EB00E9420048EE3FE013196A7EFB2E0019078
S1130EC00D928A95E1F710924F02E7EFF2E0A68DBA
S1130ED0B78D1F968C911F978C7F1F968C93068CD1
S1130EE0F78DE02D8089877F808B83E0E81601F100
S1130EF08E1538F0E1E0EE1659F0F2E0EF1681F0CD
S1130F0040C085E0E816E1F0E7E0EE1651F139C0A3
S1130F10E0911503F091160387858160878731C0BE
S1130F20E0911503F091160387858260878729C0B5
S1130F30E0911503F091160387858360878721C0AC
S1130F40E7EFF2E0A68DB78D1F968C911F97816015
S1130F501F968C93068CF78DE02D80898860808B9A
S1130F6010C0E7EFF2E0A68DB78D1F968C911F9706
S1130F7083601F968C93068CF78DE02D80898860A2
S1130F80808BA0911503B0911603D9968C91D997B3
S1130F90887F4F2D50E0FA013197E730F10520F4B6
S1130FA0EC5CFF4F0C94D51DD9968C931BC08160CB
S1130FB0D9968C9317C08260D9968C9313C08460A1
S1130FC0D9968C930FC08360D9968C930BC085609F
S1130FD0D9968C9307C08760D9968C9303C086609A
S1130FE0D9968C938BE095E0F8019183808380E31C
S1130FF095E09383828385E595E0958384838BE5EF
S113100095E09783868385E994E09187808781E6DC
S113101095E093878287C801EE960FB6F894DEBFF9
S11310200FBECDBFDF91CF911F910F91FF90EF9035
S11310300895EF92FF920F931F93CF93DF93CDB751
S1131040DEB7EE970FB6F894DEBF0FBECDBF7C01BE
S1131050062F142FCE0101960E9420048EE3FE0178
S11310603196A7EFB2E001900D928A95E1F71092C4
S11310704E022091110330911203F901E65BFF4FF8
S113108050815C7F508331964081477E4083802F1E
S113109090E0FC013197EF30F10508F078C0E55C91
S11310A0FF4F0C94D51DF901E65BFF4F516050834F
S11310B06EC0F901E65BFF4F5260508368C0F901CE
S11310C0E65BFF4F5360508362C0F901E55BFF4F5D
S11310D0486040835CC0F901E65BFF4F5160508378
S11310E031964860408353C0F901E65BFF4F52607C
S11310F050833196486040834AC0F901E65BFF4F54
S11311005360508331964860408341C0F901E55BE8
S1131110FF4F406140833BC0F901E65BFF4F5160E4
S1131120508331964061408332C0F901E65BFF4F42
S11311305260508331964061408329C0F901E65BD7
S1131140FF4F5360508331964061408320C0F901C2
S1131150E55BFF4F486140831AC0F901E65BFF4F2E
S11311605160508331964861408311C0F901E65BB8
S1131170FF4F5260508331964861408308C0F901A3
S1131180E65BFF4F53605083319648614083F90119
S1131190E65BFF4F80818F708083F90181AD887D8C
S11311A0412F50E0FA013197EB30F10520F4E65B72
S11311B0FF4F0C94D51DF90181AF2BC08160F9015B
S11311C081AF27C08260F90181AF23C08460F90137
S11311D081AF1FC08062F90181AF1BC08660F90135
S11311E081AF17C08360F90181AF13C08560F90135
S11311F081AF0FC08162F90181AF0BC08760F90133
S113120081AF07C08762F90181AF03C08660F9012D
S113121081AF86EF95E0F7019183808389E196E0C1
S1131220938382838CE396E0958384838DE496E0B4
S11312309783868382E795E0918780878EE596E0A1
S113124093878287C701EE960FB6F894DEBF0FBE70
S1131250CDBFDF91CF911F910F91FF90EF90089533
S1131260EF92FF920F931F93CF93DF93CDB7DEB727
S1131270EE970FB6F894DEBF0FBECDBF8C01E62EFD
S1131280F42ECE0101960E9420048EE3FE013196D5
S1131290A7EFB2E001900D928A95E1F710924D020A
S11312A0E0911903F0911A03DF01A758BF4F8C9105
S11312B08C7F8C9311969C91977F9C9323E0E216EC
S11312C0E1F02E1538F091E0E91659F022E0E2162B
S11312D071F02AC025E0E216B1F027E0E216E1F051
S11312E023C0DF01A758BF4F81608C931DC0DF016D
S11312F0A758BF4F82608C9317C0DF01A758BF4F18
S113130083608C9311C0DF01A758BF4F81608C9319
S1131310119698609C9308C0DF01A758BF4F836063
S11313208C93119698609C9381AD887F93E0F91615
S1131330C9F09F1538F021E0F21671F092E0F91629
S113134071F008C025E0F21699F0F21670F096E0FC
S1131350F91689F081AF11C0816081AF0EC082603F
S113136081AF0BC0836081AF08C0856081AF05C0C9
S1131370866081AF02C0876081AF80EE96E0F8019D
S11313809183808383E097E09383828386E297E06E
S1131390958384838EE297E0978386838AE796E039
S11313A09187808786E397E093878287C801EE96CA
S11313B00FB6F894DEBF0FBECDBFDF91CF911F9162
S11313C00F91FF90EF900895E091DF02F091E00219
S11313D08181887F0895E091DF02F091E00284E941
S11313E0848387EC90E00197F1F700C00000089532
S11313F0CF93DF9318161CF4880F816001C081E03D
S1131400E9EBF2E0A6A1B7A112968C93A689B7895D
S113141011968C911197806311968C930688F789A5
S1131420E02D828180638283643089F018F4613016
S113143031F025C0603199F06034C9F020C0E091EA
S1131440DF02F091E00281818C7F818320C0E091F2
S1131450DF02F091E00281818160818318C0E09114
S1131460DF02F091E00281818260818310C0E0910B
S1131470DF02F091E00281818360818308C0E09102
S1131480DF02F091E00281818C7F818361E0C09171
S1131490DF02D091E002262F30E0220F331F032E0B
S11314A0000C440B550B60E470E080E090E00E9477
S11314B0941D2883DF91CF910895BF92CF92DF923C
S11314C0EF92FF920F931F93CF93DF93CDB7DEB7C5
S11314D0EE970FB6F894DEBF0FBECDBF8C01E62E9B
S11314E0B42ECE0101960E9420048EE3FE013196B3
S11314F0A9EBB2E001900D928A95E1F70F2EF9EB7A
S1131500CF2EF2E0DF2EF02DD6011896ED91FC914E
S11315101997F1A08F2D8F7781A36B2D8E2D0E94AB
S1131520F809D6011896ED91FC911997F1A281ED75
S11315309AE0F8019183808382EE9AE09383828318
S113154080E09BE09583848386E19BE09783868398
S11315508BEE99E09187808784EE99E09387828768
S1131560C801EE960FB6F894DEBF0FBECDBFDF9173
S1131570CF911F910F91FF90EF90DF90CF90BF908C
S11315800895E091DF02F091E0022481222344F0E7
S113159021E030E08217930718F02F5F3F4FFACF16
S11315A00895E091DF02F091E00284EA84838FEFF2
S11315B093E00E94C10A0E94E409883011F00E945D
S11315C0EB090895662319F0880F816001C0880F24
S11315D0E9EBF2E0A6A1B7A113968C9306A0F7A1BC
S11315E0E02D84E884838FEF93E00E94C10A0E9477
S11315F0E409883121F0803411F00E94EB09089548
S1131600E9EBF2E0A6A1B7A113968C9306A0F7A18B
S1131610E02D84E884838FEF93E00E94C10A0E9446
S1131620E409883211F00E94EB090895882311F02F
S113163080E401C080E0E091DF02F091E002846880
S113164084838FEF93E00E94C10A0E94E4098833E7
S113165011F40E94EB09E091DF02F091E002838132
S11316600895E0913E03F0913F0386E393E00995EA
S11316700895E0914003F091410386E393E00995D6
S113168008958091420310924203EFECF7E0319702
S1131690F1F700C0000008950E94410B0895E9EBA2
S11316A0F2E0A2A5B3A516968C9302A4F3A5E02DAF
S11316B08181806281838FEC97E00197F1F700C00C
S11316C0000008950E944F0B0895CF93DF93EC011F
S11316D08881882331F021960E944F0B89918111D2
S11316E0FBCFDF91CF9108953F924F925F926F921B
S11316F07F928F929F92AF92BF92CF92DF92EF929E
S1131700FF920F931F93CF93DF93CDB7DEB7EE977E
S11317100FB6F894DEBF0FBECDBF7C015B016A013A
S113172029013801E091C102F091C20231A0832D58
S11317308F7781A3CE0101960E9420048EE3FE01DF
S11317403196A9EBB2E001900D928A95E1F743E45A
S113175053E060E2CE0101960E948C0D8CE0FE0104
S11317603196A6E3B3E001900D928A95E1F7BB2090
S11317704CF4E091E302F091E40282E08083C5013D
S11317809F7701C0C50109EB12E0D8019A968D90AC
S11317909C909B97D896ED91FC91D9970995F4016B
S11317A095838483D8019A96ED91FC919B9788E95F
S11317B08183B7E0CB16D104D9F158F4F5E0CF1604
S11317C0D10409F46BC086E0C816D10409F44BC0F7
S11317D078C0A8E0CA16D104C1F0B9E0CB16D10490
S11317E009F06FC0E9EBF2E0A2A5B3A511968C91C4
S11317F01197846011968C9302A4F3A5E02D828145
S11318008660828369E070E06EC0E9EBF2E0A2A535
S1131810B3A511968C9111978B7F11968C9302A48A
S1131820F3A5E02D82818660828368E070E05BC06E
S1131830E9EBF2E0A2A5B3A511968C9111978B7FE9
S113184011968C93A2A5B3A512968C9112978460DD
S113185012968C9302A4F3A5E02D82818D7F82835E
S113186067E070E040C0E9EBF2E0A2A5B3A51196F1
S11318708C9111978B7F11968C93A2A5B3A5129688
S11318808C9112978B7F12968C9302A4F3A5E02D72
S113189082818260828366E070E025C0E9EBF2E039
S11318A0A2A5B3A511968C9111978B7F11968C9359
S11318B002A4F3A5E02D8281897F828365E070E034
S11318C012C0E9EBF2E0A2A5B3A511968C91119791
S11318D08B7F11968C9302A4F3A5E02D8281866000
S11318E0828368E070E0E1E04E16510429F0F2E0F2
S11318F04F16510459F014C0E091E302F091E40250
S11319008281877F828341E050E013C0E091E3024B
S1131910F091E40282818860828342E050E009C051
S1131920E091E302F091E4028281877F828341E0C7
S113193050E082E06816710481F0A3E06A16710435
S1131940F9F0672839F5E091E302F091E40282812D
S11319508F7C828320E030E026C0E9EBF2E0A2A590
S1131960B3A512968C911297806212968C9302A45E
S1131970F3A5E02D82818F7E828322E030E013C0C4
S1131980E091E302F091E40282818063828323E0A8
S113199030E009C0E091E302F091E40282818F7C9F
S11319A0828320E030E0E091C102F091C202832DF5
S11319B0806881A3F701B182A08273836283558317
S11319C044833783268381E49BE0918780878CE47A
S11319D09BE09387828781E39BE09587848789E3F3
S11319E09BE0978786878FE49BE0918B808B82E6D0
S11319F09BE0938B828B85E69BE0958B848BC70160
S1131A00EE960FB6F894DEBF0FBECDBFDF91CF9137
S1131A101F910F91FF90EF90DF90CF90BF90AF9008
S1131A209F908F907F906F905F904F903F9008951C
S1131A301F920F920FB60F9211242F933F934F933F
S1131A405F936F937F938F939F93AF93BF93EF9322
S1131A50FF93E091E302F091E40280818871809326
S1131A603503668160934203E0913C03F0913D03AA
S1131A7086E393E00995FF91EF91BF91AF919F9118
S1131A808F917F916F915F914F913F912F910F9023
S1131A900FBE0F901F9018951F920F920FB60F92C2
S1131AA011248F93EF93FF93E091E302F091E4020A
S1131AB081818F7D8183FF91EF918F910F900FBE74
S1131AC00F901F9018956623C1F0DC011296ED91DA
S1131AD0FC91139714962D913C911597E217F307F7
S1131AE029F4ED91FC91DF01119602C0DF011196FA
S1131AF060831C92FC01B383A2830895FC0180815E
S1131B0091810895DC01ED91FC9111971396FC935A
S1131B10EE93129710820895FC01518340835383FE
S1131B20428370E061507109460F571F5583448307
S1131B3083E69DE0978386838EE79DE09187808787
S1131B4082E89DE093878287CF010895CF92DF9248
S1131B50EF92FF920F931F93FC0100811181228168
S1131B603381FB01C080D180E280F380FC01C0821C
S1131B70D182E282F382FB010083118322833383C7
S1131B801F910F91FF90EF90DF90CF900895FB018C
S1131B902081FC012083222339F0DB011196319648
S1131BA09D9191939111FCCF0895CF93DF93EC0114
S1131BB09881992399F0FE01319620E030E0492F75
S1131BC050E04617570731F0DE01A20FB31F9C9374
S1131BD02F5F3F4F91919111F2CF02C020E030E08E
S1131BE0FE01E20FF31F1082DF91CF9108952F922F
S1131BF03F924F925F926F927F928F929F92AF9299
S1131C00BF92CF92DF92EF92FF920F931F93CF93E5
S1131C10DF9300D000D0CDB7DEB72C011B014B0100
S1131C2077231CF42FEF821A920A95948794181440
S1131C3019040CF451C06AC09601DD209CF1F50131
S1131C4040815181F401608171816417750754F5F5
S1131C508C010A0D1B1DD401BC82AB82BA82A982FD
S1131C60EB81FC817183608311965C934E932E19F2
S1131C703F09C2F0F80140815181E981FA81608114
S1131C807181080F191FE80FF91FFA83E983EB81AB
S1131C90FC81E80FF91FFC83EB83A80FB91F6417BD
S1131CA07507F4F2FFEFCF1ADF0A22E0A20EB11C8F
S1131CB0E2E08E0E911CC614D70409F0BDCF470193
S1131CC0FF201CF4FFEF8F1A9F0A95948794181431
S1131CD01904E4F4740101C07401821493047CF7C0
S1131CE06401CE18DF085601AA0CBB1CA40CB51C59
S1131CF0880C991C840C951C31016E187F08C7014F
S1131D00880F991F91958195910996CF0F900F9007
S1131D100F900F90DF91CF911F910F91FF90EF9053
S1131D20DF90CF90BF90AF909F908F907F906F90F7
S1131D305F904F903F902F900895861797070CF46B
S1131D40CB0108959B01672B11F408959A01B90101
S1131D500E94801DAC01822F932F41155105B1F7CC
S1131D600895FC01908180ED890F8A30D0F431967A
S1131D7020E030E0A901440F551F220F331F220F2A
S1131D80331F220F331F420F531F292F30E02053DC
S1131D903109240F351F919180ED890F8A3050F35A
S1131DA002C020E030E0C901089586230895009719
S1131DB039F020E030E02F5F3F4F82179307D9F7C7
S1131DC0089587FF08C09195819591099927919568
S1131DD08195910908958F779927089591FF08C0F7
S1131DE091958195910993709195819591090895A3
S1131DF091700895615021E030E002C0220F331F3A
S1131E006A95E2F7A90141505109B9016823792380
S1131E10672B29F084239523821B930B0895842335
S1131E20952308959DEC899F912D1124969596955F
S1131E309695392F330F232F220F220F230F821B46
S1131E4020E1929F800D11240895982F92959F7000
S1131E50990F292F220F220F920F8F70890F089547
S1131E60FC01DB01A05BBD4F1C921616170614F58E
S1131E70908191110CC017C0919191110DC015C0A2
S1131E8081932F5F3F4F26173707D4F313C0A0E584
S1131E90B2E0319620E030E09D932F5F3F4F621710
S1131EA0730751F707C020E030E0F901E05BFD4F14
S1131EB080E2E6CF80E592E008954F925F926F92C0
S1131EC07F92AF92BF92CF92DF92EF92FF920F93E5
S1131ED01F93CF93DF93CDB7DEB729013A019B015E
S1131EE0AC01241935094609570989899A89AB89AE
S1131EF0BC89BC01CD016A197B098C099D090E942A
S1131F005C1DA801970124193509460957090E9447
S1131F10B61DCA01B9016A0D7B1D8C1D9D1DDF9183
S1131F20CF911F910F91FF90EF90DF90CF90BF90D2
S1131F30AF907F906F905F904F900895FC01208147
S1131F40222341F0319680E090E001962191211105
S1131F50FCCF089580E090E00895CF93DF93EC01E7
S1131F600E949E0F9C012150310962F0FE01E80F8E
S1131F70F91F9291903219F09950923018F421502F
S1131F803109B8F7C20FD31F1982C901DF91CF916C
S1131F900895CF93DF93EC010E949E0F9C01215082
S1131FA031091216130684F4DE01A80FB91FFE01CD
S1131FB080E090E040815E9151934C9301962150D2
S1131FC0310982179307B4F3DF91CF9108958F926B
S1131FD09F92AF92BF92CF92DF92EF92FF920F93B4
S1131FE01F93CF93DF936B017C01DC01CB01FF20B6
S1131FF03CF488279927DC018C199D09AE09BF0997
S1132000BC01CD0110E00F2EFAE08F2E912CA12CF3
S1132010B12CF02D01C0102F01E0010FC12FD0E031
S1132020C05BDD4FA50194010E94B61D605D68830D
S1132030622F732F842F952F16161706180619066C
S113204054F3FF2044F4E02FF0E0E05BFD4F8DE219
S1132050808302E0010FE02FF0E0E05BFD4F10828F
S113206080E592E00E94C90F80E592E0DF91CF9174
S11320701F910F91FF90EF90DF90CF90BF90AF90A2
S11320809F908F9008950F931F93CF93DF93EC014C
S1132090992324F4882799278C1B9D0B20E00AE0C0
S11320A010E001C0232F31E0320FE22FF0E0E05BBB
S11320B0FD4FB8010E94801D805D8083862F972F7D
S11320C0181619067CF3DD2344F4E32FF0E0E05BFB
S11320D0FD4F8DE2808332E0320FE32FF0E0E05BCE
S11320E0FD4F108280E592E00E94C90F80E592E0E6
S11320F0DF91CF911F910F910895CF93AC019C0173
S1132100ADECBCEC0E94DB1D969587959695879562
S1132110969587959C01220F331F880F991F880F6E
S1132120991F880F991F820F931F9A01281B390B3F
S1132130C901805D809350029A010E94DB1DAC01AD
S1132140569547955695479556954795411551058A
S113215089F1E1E0C1E0CE0FF0E0E05BFD4F9A01D0
S1132160ADECBCEC0E94DB1D969587959695879502
S1132170969587959C01220F331F880F991F880F0E
S1132180991F880F991F820F931F9A01281B390BDF
S1132190C901805D80839A010E94DB1DAC015695C4
S11321A047955695479556954795EC2F41155105FA
S11321B089F601C0C1E0EC2FF0E0E05BFD4F108236
S11321C080E592E00E94C90F80E592E0CF910895E6
S11321D0982F92959F70990F292F220F220F920FFB
S11321E08F70890F0895AC019C01ADECBCEC0E948A
S11321F0DB1D969587959695879596958795BC0151
S1132200660F771F9C01220F331F220F331F220FEB
S1132210331F260F371F421B530B342F20E1829F9D
S1132220300D1124832F0895CF92DF92EF92FF9205
S1132230CF93DF93CDB7DEB728970FB6F894DEBF00
S11322400FBECDBF6B017C0169837A838B839C8332
S11322502D833E834F835887C216D306E406F506C2
S11322603CF4BE016B5F7F4FCE0101960E94A60D28
S11322708D819E81AF81B885892B8A2B8B2B71F43C
S113228069817A818B819C8120E030E0A9010E94E0
S1132290B61D611571058105910529F46D817E8155
S11322A08F81988505C06D837E838F839887F6CF51
S11322B028960FB6F894DEBF0FBECDBFDF91CF9145
S11322C0FF90EF90DF90CF90089590E002C0959535
S11322D087956A95E2F7817008959C012150310930
S11322E081E090E002C0880F991F2A95E2F70097D9
S11322F0B1F0E0E5F2E020E030E0B0E3A1E3AB01CF
S113230048235923452B11F0A08301C0B08396952F
S113231087952F5F3F4F3196009789F702C020E0E1
S113232030E0F901E05BFD4F108280E592E0089512
S1132330AB01BC01109250024115510561057105B4
S113234009F442C021E0EFEFE20FDB01CA018F7014
S11323509927AA27B078BB2354F40197A109B1099E
S1132360806F9F6FAF6FBF6F0196A11DB11D8A3043
S11323709105A105B10534F4F0E0E05BFD4F805D0B
S1132380808305C0F0E0E05BFD4F895C8083E22F31
S1132390F0E0E05BFD4F1082DB01CA0177231CF4FF
S11323A00F96A11DB11DAC01BD01689413F875957C
S11323B06795579547951694D1F72F5F41155105A9
S11323C06105710509F0BFCF80E592E00E94C90F55
S11323D080E592E00895282F30E0322F2227A901CA
S11323E0492BCA010895292F30E0322F2227A90151
S11323F0482BCA010895282F892F922F08950895F4
S11324009827892798270895FF920F931F93CF93B6
S1132410DF938C01EB01F42E642F70E080E090E0F8
S11324200E94B81A9B01AC0160E070E080E090E487
S11324300E94D71B20E030E040E85FE30E949E1931
S11324400E94891A9E012623372360237123CB011E
S1132450822793272823392302C0220F331FFA949B
S1132460E2F7822B932BDF91CF911F910F91FF9075
S11324700895CF93DF93CDB7DEB79E012B5F3F4F17
S1132480F901419151919F016FE570E080E592E07F
S11324900E94051E99231CF080E592E002C080E0B2
S11324A090E0DF91CF910895FC011092AF028EE984
S11324B09FE09183808389EC9FE09383828384E00F
S11324C092E19583848386EA9DE09783868387ECF3
S11324D09DE09187808785ED9DE09387828787EFD4
S11324E09DE09587848783E490E1978786878DE7CD
S11324F090E1918B808B87EE9FE0938B828B8DEAAA
S11325009FE0958B848B8DE99EE0978B868B82EA86
S11325109EE0918F808F81EB9EE0938F828F85ED7B
S11325209EE0958F848F87ED9EE0978F868F81EE56
S11325309EE091A380A38EEE9EE093A382A38AEFF4
S11325409EE095A384A382E19FE097A386A385E2FE
S11325509FE091A780A780E39FE093A782A78DE5E2
S11325609FE095A784A788EE90E197A786A783EFBD
S113257090E191AB80AB84E191E193AB82AB85E6D2
S113258091E195AB84AB8DE691E197AB86AB8CE49E
S113259093E191AF80AF88E991E193AF82AF8BEE85
S11325A091E195AF84AF83EF91E197AF86AFDF01FF
S11325B0A05CBF4F8BEF91E111969C938E93129682
S11325C08FEF91E111969C938E93129680E092E1A5
S11325D011969C938E93129689E392E18D939C932A
S11325E0CF0108958F929F92AF92BF92EF92FF9284
S11325F00F931F93CF93DF938A01D22F2AE030E009
S113260040E050E00E94B61D605DF8016083622FD7
S1132610732F842F952F1616170618061906FCF427
S113262021E00F2EFAE08F2E912CA12CB12CF02D4D
S1132630C1E0C20F7801E20EF11CA50194010E94D1
S1132640B61D605DF7016083622F732F842F952F71
S11326502C2F161617061806190654F301C0C1E0EC
S1132660CD1748F480E3F801EC0FF11D8083CF5FB0
S1132670DC13F9CF01C0DC2FF801ED0FF11D10823E
S11326808D2FDF91CF911F910F91FF90EF90BF900D
S1132690AF909F908F9008958F929F92AF92BF9228
S11326A0CF92DF92EF92FF920F931F93CF93DF931A
S11326B06B017C01EA01022F20E030E0A9010E94B5
S11326C00B1A88230CF06CC0F7FAF094F7F8F09426
S11326D0C701B6010E94891A4B015C010E94B81A15
S11326E09B01AC01C701B6010E949E196B017C01DC
S11326F0B401990C880B990B21E0AE010E94F212EF
S113270011E0180FFE01E80FF11D8DE280835E01D8
S1132710A10EB11CF5011082CE010E94C90F8FEFEA
S1132720800F863018F58EE2F50180831F5F5E010D
S1132730A10EB11C602F70E080E090E00E94B81AF6
S11327409B01AC0160E070E080E291E40E94D71B41
S1132750A70196010E946A1B0E94821A202FA501DC
S11327600E94F212C5010E94C90F3AC08EE2F5011F
S113277080831F5FCE01810F911D8C0120E030E02A
S113278048EC52E4C701B6010E946A1B0E94821AF7
S113279022E0A8010E94F212C8010E94C90F20C0C1
S11327A0C701B6010E94891A4B015C010E94B81A44
S11327B09B01AC01C701B6010E949E196B017C010B
S11327C0B401990C880B990B21E0AE010E94F2121E
S11327D011E0180FFE01E80FF11D80E2808397CF0E
S11327E0CE01DF91CF911F910F91FF90EF90DF9079
S11327F0CF90BF90AF909F908F900895E091640325
S1132800F091650380818B7F8083E0916403F09174
S1132810650380818460808308950F931F93CF9311
S1132820C82F8B01E0916403F091650380818D7F53
S11328308083E0916D03F0916E0380818F608083CB
S1132840672B41F0E0916403F0916503808181601E
S1132850808307C0E0916403F091650380818E7FDB
S1132860808380E090E00E94FE13CC2344F4E09146
S11328706F03F091700380818860808307C0E091CA
S11328806F03F09170038081877F8083C6FF08C047
S1132890E0916F03F091700380818460808307C0AE
S11328A0E0916F03F091700380818B7F8083C5FF7B
S11328B008C0E0916F03F09170038081826080838F
S11328C007C0E0916F03F091700380818D7F808356
S11328D0C4FF08C0E0916F03F091700380818160B0
S11328E0808307C0E0916F03F091700380818E7F35
S11328F08083012B41F0E0916403F09165038081B2
S11329008160808307C0E0916403F0916503808156
S11329108E7F808380E090E00E94FE13C3FF08C096
S1132920E0916F03F091700380818860808307C019
S1132930E0916F03F09170038081877F8083C2FFF1
S113294008C0E0916F03F0917003808184608083FC
S113295007C0E0916F03F091700380818B7F8083C7
S1132960C1FF08C0E0916F03F09170038081826021
S1132970808307C0E0916F03F091700380818D7FA5
S11329808083C0FF08C0E0916F03F09170038081E1
S11329908160808307C0E0916F03F09170038081B0
S11329A08E7F8083E0916403F091650380818B7F47
S11329B08083CF911F910F91089560E070E081E0D2
S11329C00E940D1487EE97E10197F1F700C0000013
S11329D008950F931F93CF938C01E0916D03F091B1
S11329E06E038081807F8083E0916F03F091700398
S11329F080818F608083E0916403F091650380811E
S1132A00826080830115110541F0E0916403F09127
S1132A10650380818160808307C0E0916403F09145
S1132A20650380818E7F808380E090E00E94FE13A6
S1132A30E0916803F0916903808183FD02C0C0E0E6
S1132A4001C0C0E8808182FF02C0C06401C0CF7BA6
S1132A50808181FF02C0C06201C0CF7D808180FF80
S1132A6002C0C06101C0CF7E012B41F0E09164033C
S1132A70F091650380818160808307C0E0916403E5
S1132A80F091650380818E7F808380E090E00E94D6
S1132A90FE13E0916803F0916903808183FF03C012
S1132AA08C2F886002C08C2F877F908192FF02C098
S1132AB0846001C08B7F908191FF02C0826001C05D
S1132AC08D7F908190FF02C0816001C08E7FE09174
S1132AD06403F091650390819B7F9083CF911F9154
S1132AE00F91089580E090E00E94E914882354F443
S1132AF080E090E00E94E914882324F480E090E0D0
S1132B000E94E914089561E070E00E940D140E948F
S1132B1072150895CF93DF93EC018881882331F0F7
S1132B2021960E94831589918111FBCFDF91CF916A
S1132B3008950F931F93CF93DF93FC01D62F8081C9
S1132B40882351F08F010F5F1F4F611109C017C017
S1132B50CF5FDC1730F401C0C0E0CD1750F00FC0D8
S1132B60C1E00E948315F80181918F018111F0CF9A
S1132B70F4CF80E20E948315CF5FCD17D0F3DF91AD
S1132B80CF911F910F910895CF93C82F882329F0D7
S1132B9080E20E948315C150D9F7CF910895262F62
S1132BA08130910581F030F082309105A9F00397CE
S1132BB0E1F0089560E070E080E8820F0E940D1457
S1132BC00E947215089560E070E080EC820F0E940C
S1132BD00D140E947215089560E070E084E9820F7C
S1132BE00E940D140E947215089560E070E084ED57
S1132BF0820F0E940D140E9472150895E0916603DD
S1132C00F091670387E08083E0916403F0916503AA
S1132C1088E080832FEF83EF91E021508040904043
S1132C20E1F700C0000060E070E088E30E940D144A
S1132C3020ED2A95F1F760E070E088E30E940D141E
S1132C4080ED8A95F1F760E070E088E30E940D144E
S1132C5090ED9A95F1F760E070E088E20E940D141F
S1132C6025EC2A95F1F7000060E070E088E20E940C
S1132C700D1485EC8A95F1F7000060E070E088E2BD
S1132C800E940D140E94721560E070E088E20E94B8
S1132C900D140E94721560E070E08CE00E940D1427
S1132CA00E94721560E070E08CE00E940D140E9496
S1132CB0721560E070E081E00E940D140E947215AC
S1132CC060E070E081E00E940D140E94721560E0E3
S1132CD070E086E00E940D140E94721560E070E0BE
S1132CE086E00E940D140E94721560E070E080E09E
S1132CF090E00E94CF150895CF92DF92EF92FF9259
S1132D000F931F93CF93DF93EC017093670360934A
S1132D10660350936C0340936B03309365032093D5
S1132D20640310936E0300936D03F0926903E092C1
S1132D306803D0927003C0926F03FB011082E0918C
S1132D406403F09165038FEF8083E0916D03F0914C
S1132D506E031082E0916F03F09170038083E09121
S1132D606B03F0916C038081887080936A030E94E6
S1132D70FE158DE094E19983888389EE94E19B8329
S1132D808A8382E795E19D838C8383E895E19F8321
S1132D908E8381E097E1998788878AE895E19B870C
S1132DA08A8789E995E19D878C8784EC95E19F87E3
S1132DB08E878DED94E1998B888B8FEC95E19B8BBD
S1132DC08A8B8FEE96E19D8B8C8BCE01DF91CF9118
S1132DD01F910F91FF90EF90DF90CF900895CF93C4
S1132DE0E0916B03F0916C03C081C87080916A0319
S1132DF08C278C2311F00E94FE15C0936A03CF9197
S1132E000895CF9381E090E00E94E914C82F0E94B6
S1132E1072158C2FCF910895CF93DF93CDB7DEB782
S1132E20C658D1090FB6F894DEBF0FBECDBFCE0190
S1132E3001960E9420048EE3FE013196A9EBB2E0D4
S1132E4001900D928A95E1F7CE01CF960E9454121B
S1132E5088E4FE01FF96ABE7B3E001900D928A95FA
S1132E60E1F70F2EF8E2CF2ED12CF02D0F2EF6E243
S1132E70EF2EF12CF02D07E210E025E230E043E2E2
S1132E8050E064E270E0CE0101960E947C1686E177
S1132E90FE013196A4EEB3E001900D928A95E1F71C
S1132EA007E025E044E06BE270E08AE290E00E94F3
S1132EB059010F2EF6E0EF2EF4E0FF2EF02DD7018E
S1132EC02C9311963C93119712964C931297139648
S1132ED05C93139714966C93149715967C9315979B
S1132EE016968C93169717969C930F2EF9EBCF2E6C
S1132EF0F2E0DF2EF02DD6019C96ED91FC919D978A
S1132F0000E010E021E030E048E050E06CE070E0E8
S1132F10CE010196099586E1FE013196A0E3B4E065
S1132F2001900D928A95E1F7D6019096ED91FC916E
S1132F30919741E061E0CE01019609958CE0FE0194
S1132F403196AAEFB3E001900D928A95E1F7E091F2
S1132F500204F09103048FEF9FEF099510922F0460
S1132F6010922E04D7011496ED91FC9115978FEFD2
S1132F700995E091F803F091F90309951FEF0F2EDD
S1132F80F0E3CF2EF4E0DF2EF02D712C6624639451
S1132F900F2EF4EEEF2EF3E0FF2EF02D0F2EF6E0C1
S1132FA0AF2EF4E0BF2EF02D6894882485F8912C80
S1132FB00AC0D6011E96ED91FC911F970995909237
S1132FC00F0480920E04D6011C96ED91FC911D977E
S1132FD009959093B1028093B002D6011A96ED91AF
S1132FE0FC911B9709958A3051F46091B00270915D
S1132FF0B1028EE094E00E94FE1D062D01C0072D53
S1133000D7015296ED91FC91539760E070E080E017
S113301090E00995D7011C96ED91FC911D9767E00E
S113302080E091E00995D7015296ED91FC91539778
S113303060E070E081E090E0099568E071E08EE086
S113304094E00E94F51D892B39F510FF13C01E7FF3
S113305089E0E3E1F1E0A6E4B4E001900D928A9501
S1133060E1F7D6015496ED91FC9155978CE191E0EE
S1133070099512C011608AE0E6E2F1E0A6E4B4E04A
S113308001900D928A95E1F7D6015496ED91FC9149
S1133090559780E391E009956BE371E08EE094E04D
S11330A00E94F51D892B91F411608AE0E6E2F1E0BB
S11330B0A6E4B4E001900D928A95E1F7D601549606
S11330C0ED91FC91559780E391E0099567E471E0F7
S11330D08EE094E00E94F51D892B39F511FF13C091
S11330E01D7F89E0E2E5F1E0A6E4B4E001900D92F1
S11330F08A95E1F7D6015496ED91FC9155978BE5AD
S113310091E0099512C012608AE0E5E6F1E0A6E4D8
S1133110B4E001900D928A95E1F7D6015496ED91B1
S1133120FC9155978FE691E009956AE771E08EE08E
S113313094E00E94F51D892B91F412608AE0E5E683
S1133140F1E0A6E4B4E001900D928A95E1F7D6018E
S11331505496ED91FC9155978FE691E0099566E8B8
S113316071E08EE094E00E94F51D892B39F512FF81
S113317013C01B7F89E0E1E9F1E0A6E4B4E001902B
S11331800D928A95E1F7D6015496ED91FC915597ED
S11331908AE991E0099512C014608AE0E4EAF1E05A
S11331A0A6E4B4E001900D928A95E1F7D601549615
S11331B0ED91FC9155978EEA91E0099569EB71E0E8
S11331C08EE094E00E94F51D892B91F414608AE04E
S11331D0E4EAF1E0A6E4B4E001900D928A95E1F707
S11331E0D6015496ED91FC9155978EEA91E009959C
S11331F065EC71E086E494E00E94F51D892B39F5B5
S113320013FF13C0177F89E0E0EDF1E0A6E4B4E01A
S113321001900D928A95E1F7D6015496ED91FC91B7
S1133220559789ED91E0099512C018608AE0E3EEA4
S1133230F1E0A6E4B4E001900D928A95E1F7D6019D
S11332405496ED91FC9155978DEE91E0099568EFB8
S113325071E08EE094E00E94F51D892B91F41860D2
S11332608AE0E3EEF1E0A6E4B4E001900D928A95E1
S1133270E1F7D6015496ED91FC9155978DEE91E0CE
S1133280099564E072E08EE094E00E94F51D892BBC
S1133290D9F488E0EEE0F2E0A6E4B4E001900D9207
S11332A08A95E1F7D6015496ED91FC91559786E104
S11332B092E00995BFEFE0E7F2E0B150E040F04062
S11332C0E1F700C000001FEFD7011C96ED91FC91BF
S11332D01D9763E08FE192E00995D7011C96ED916B
S11332E0FC911D976DE086E494E00995D501149650
S11332F0ED91FC911597812F0995D7015496ED9185
S1133300FC9155970995002309F45DCE52CE1F9286
S11333100F920FB60F9211248F939F9380912E04D6
S113332090912F04019690932F0480932E049F91E3
S11333308F910F900FBE0F901F9018955058BB2778
S1133340AA270E94B6190C94301B0E94221B38F045
S11333500E94291B20F039F49F3F19F426F40C94A1
S11333601F1B0EF4E095E7FB0C94191BE92F0E9438
S1133370411B58F3BA17620773078407950720F0B7
S113338079F4A6F50C94631B0EF4E0950B2EBA2F7A
S1133390A02D0B01B90190010C01CA01A001112457
S11333A0FF27591B99F0593F50F4503E68F11A1603
S11333B0F040A22F232F342F4427585FF3CF469594
S11333C037952795A795F0405395C9F77EF41F16B6
S11333D0BA0B620B730B840BBAF09150A1F0FF0F80
S11333E0BB1F661F771F881FC2F70EC0BA0F621F6C
S11333F0731F841F48F4879577956795B795F7955C
S11334009E3F08F0B0CF9395880F08F09927EE0FF0
S11334109795879508950E94F51A08F481E0089518
S11334200E94241A0C94301B0E94291B58F00E94FD
S1133430221B40F029F45F3F29F00C94191B511111
S11334400C94641B0C941F1B0E94411B68F399236A
S1133450B1F3552391F3951B550BBB27AA2762178C
S11334607307840738F09F5F5F4F220F331F441F99
S1133470AA1FA9F335D00E2E3AF0E0E832D09150CD
S11334805040E695001CCAF72BD0FE2F29D0660FBA
S1133490771F881FBB1F261737074807AB07B0E8FD
S11334A009F0BB0B802DBF01FF2793585F4F3AF003
S11334B09E3F510578F00C94191B0C94641B5F3FDC
S11334C0E4F3983ED4F3869577956795B795F79589
S11334D09F5FC9F7880F911D9695879597F9089571
S11334E0E1E0660F771F881FBB1F6217730784070D
S11334F0BA0720F0621B730B840BBA0BEE1F88F71C
S1133500E09508950E94891A6894B1110C94641B83
S113351008950E94491B88F09F5798F0B92F992766
S1133520B751B0F0E1F0660F771F881F991F1AF0AA
S1133530BA95C9F714C0B13091F00E94631BB1E091
S113354008950C94631B672F782F8827B85F39F090
S1133550B93FCCF3869577956795B395D9F73EF443
S113356090958095709561957F4F8F4F9F4F0895EB
S1133570E89409C097FB3EF4909580957095619509
S11335807F4F8F4F9F4F9923A9F0F92F96E9BB27BF
S11335909395F695879577956795B795F111F8CF3B
S11335A0FAF4BB0F11F460FF1BC06F5F7F4F8F4FA6
S11335B09F4F16C0882311F096E911C0772321F09C
S11335C09EE8872F762F05C0662371F096E8862F34
S11335D070E060E02AF09A95660F771F881FDAF78B
S11335E0880F9695879597F90895990F0008550FB8
S11335F0AA0BE0E8FEEF16161706E807F907C0F075
S113360012161306E407F50798F0621B730B840B7C
S1133610950B39F40A2661F0232B242B252B21F456
S113362008950A2609F4A140A6958FEF811D811DF6
S1133630089597F99F6780E870E060E008959FEF30
S113364080EC089500240A94161617061806090635
S1133650089500240A941216130614060506089504
S1133660092E0394000C11F4882352F0BB0F40F48C
S1133670BF2B11F460FF04C06F5F7F4F8F4F9F4FCC
S1133680089557FD9058440F551F59F05F3F71F04E
S11336904795880F97FB991F61F09F3F79F08795B5
S11336A00895121613061406551FF2CF4695F1DF3E
S11336B008C0161617061806991FF1CF86957105CE
S11336C0610508940895E894BB2766277727CB0102
S11336D097F908950E947D1B0C94301B0E94221BB5
S11336E038F00E94291B20F0952311F00C94191B2B
S11336F00C941F1B11240C94641B0E94411B70F337
S1133700959FC1F3950F50E0551F629FF001729F82
S1133710BB27F00DB11D639FAA27F00DB11DAA1F91
S1133720649F6627B00DA11D661F829F2227B00DDE
S1133730A11D621F739FB00DA11D621F839FA00D69
S1133740611D221F749F3327A00D611D231F849FB9
S1133750600D211D822F762F6A2F11249F57504010
S11337609AF0F1F088234AF0EE0FFF1FBB1F661F8B
S1133770771F881F91505040A9F79E3F510580F054
S11337800C94191B0C94641B5F3FE4F3983ED4F330
S1133790869577956795B795F795E7959F5FC1F7F8
S11337A0FE2B880F911D9695879597F90895FA0138
S11337B0EE0FFF1F309621053105A1F1611571054A
S11337C061F48038BFE39B0749F168949038810520
S11337D061F08038BFEF9B0741F099234AF5FF3F22
S11337E0E1053105210519F1E8940894E795D9011B
S11337F0AA2329F4AB2FBE2FF85FD0F310C0FF5FCC
S113380070F4A695E0F7F73950F019F0FF3A38F460
S11338109F779F930DD00F9007FC9058089546F022
S11338200C941F1B60E070E080E89FE308954FE76D
S11338309F775F934F933F932F930E94D21C2F91B6
S11338403F914F915F910E946A1B0C942F1C29F4A5
S113385016F00C94191B0C94631B0C941F1B0E94F0
S1133860491BA8F39638A0F707F80F92E8942BE3C6
S11338703AEA48EB5FE70E94801B0F920F920F9287
S11338804DB75EB70F920E941A1DEAEAF0E00E945B
S1133890611C4F915F91EF91FF91E595EE1FFF1F22
S11338A049F0FE57E0684427EE0F441FFA95E1F70C
S11338B04195550B0E94941C0F9007FE0C94881C94
S11338C00895DF93CF931F930F93FF92EF92DF92AC
S11338D07B018C01689406C0DA2EEF010E947D1BE7
S11338E0FE01E894A5912591359145915591A6F352
S11338F0EF010E94B619FE019701A801DA9469F755
S1133900DF90EF90FF900F911F91CF91DF91089579
S11339109B01AC0160E070E080E89FE30C94101A16
S11339200C94191B0C944E1D0E94491BD8F3992327
S1133930C9F3940F511DA3F39150504094F059F0E2
S1133940882332F0660F771F881F91505040C1F7CB
S11339509E3F51052CF7880F911D9695879597F9F1
S113396008955F3FACF0983E9CF0BB278695779511
S11339706795B79508F4B1609395C1F7BB0F58F7F5
S113398011F460FFE8CF6F5F7F4F8F4F9F4FE3CFFE
S11339900C94641B16F00C944E1D0C941F1B68941D
S11339A00C94191B0E94491BA8F39923C1F3AEF38D
S11339B0DF93CF931F930F93FF92C92FDD278823A3
S11339C02AF02197660F771F881FDAF720E030E08E
S11339D040E85FEB9FE3883920F0803E38F0219681
S11339E08F770E949F19E2EDF0E004C00E949F19B6
S11339F0EFEFF0E00E94611C8B01BE01EC01FB2E95
S1133A006F5771097595771F880B990B0E94BA1A25
S1133A1028E132E741E35FE30E947D1BAF2D98016B
S1133A20AE01FF900F911F91CF91DF910E94B619C3
S1133A300C94301BFA01DC01AA0FBB1F9B01AC01E3
S1133A40BF5728F4222733274427507820C0B75182
S1133A5090F4AB2F0024469537952795011CA39528
S1133A60D2F3002071F0220F331F441FB395DAF311
S1133A700ED00C949E1961307105A0E88A07B946EE
S1133A8030F49B01AC01662777278827907830961D
S1133A9021F0208331834283538308959F3F31F083
S1133AA0915020F4879577956795B795880F911D68
S1133AB09695879597F90895DB018F939F930E94BC
S1133AC0EA1DBF91AF91A29F800D911DA39F900D00
S1133AD0B29F900D11240895AA1BBB1B51E107C08E
S1133AE0AA1FBB1FA617B70710F0A61BB70B881F8A
S1133AF0991F5A95A9F780959095BC01CD01089519
S1133B0097FB072E16F4009407D077FD09D00E9486
S1133B106C1D07FC05D03EF4909581959F4F089548
S1133B20709561957F4F0895A1E21A2EAA1BBB1BC5
S1133B30FD010DC0AA1FBB1FEE1FFF1FA217B30775
S1133B40E407F50720F0A21BB30BE40BF50B661F8B
S1133B50771F881F991F1A9469F76095709580954F
S1133B6090959B01AC01BD01CF010895052E97FBF3
S1133B701EF400940E94CD1D57FD07D00E94941D91
S1133B8007FC03D04EF40C94CD1D50954095309510
S1133B9021953F4F4F4F5F4F0895909580957095B5
S1133BA061957F4F8F4F9F4F0895EE0FFF1F059034
S1133BB0F491E02D0994A29FB001B39FC001A39F8B
S1133BC0700D811D1124911DB29F700D811D112452
S1133BD0911D08950E94DB1DA59F900DB49F900D2B
S1133BE0A49F800D911D11240895FB01DC018D918A
S1133BF0019080190110D9F3990B0895FB01DC01A0
S1133C0001900D920020E1F70895AEE0B0E0EBE002
S1133C10FEE10C94D0208C01FA0186E08C831A8397
S1133C20098377FF02C060E070E8CB0101979E83AF
S1133C308D83A901BF01CE0101960E94311E4D81E1
S1133C405E8157FD0AC02F813885421753070CF453
S1133C509A01F801E20FF31F10822E96E4E00C940F
S1133C60EC20ABE0B0E0E7E3FEE10C94C2206C0191
S1133C707B018A01FC0117821682838181FFCCC1FA
S1133C80CE0101963C01F6019381F70193FD8591E4
S1133C9093FF81917F01882309F4BAC1853239F4F5
S1133CA093FD859193FF81917F01853229F4B601BB
S1133CB090E00E942820E7CF912C212C312CFFE1A9
S1133CC0F315D8F08B3279F038F4803279F08332FE
S1133CD0A1F4232D20611DC08D3261F0803369F47D
S1133CE0232D216016C0832D8260382EE32DE460DD
S1133CF03E2E2AC0F32DF8601DC037FC2DC020EDE8
S1133D00280F2A3040F08E32B9F436FC81C1232DBD
S1133D102064322E19C036FE06C08AE0989E200D1B
S1133D201124922E11C0EAE02E9E200D1124222E81
S1133D30F32DF0623F2E08C08C3621F4832D806869
S1133D40382E02C0883641F4F70193FD859193FF24
S1133D5081917F018111B3CF982F9F7D955493302A
S1133D6028F40C5F1F4F9FE399830DC0833631F015
S1133D70833771F0833509F059C021C0F80180817F
S1133D8089830E5F1F4F88248394912C530113C0A1
S1133D902801F2E04F0E511CF801A080B18036FEDC
S1133DA003C0692D70E002C06FEF7FEFC5010E9470
S1133DB01D204C018201F32DFF773F2E16C02801F0
S1133DC022E0420E511CF801A080B18036FE03C0EF
S1133DD0692D70E002C06FEF7FEFC5010E941220D1
S1133DE04C01F32DF0683F2E820133FC1BC0822D61
S1133DF090E088169906B0F4B60180E290E00E9443
S1133E0028202A94F4CFF50137FC859137FE81915F
S1133E105F01B60190E00E94282021102A9421E03D
S1133E20821A91088114910471F7E8C0843611F064
S1133E30893641F5F80137FE07C0608171818281BE
S1133E4093810C5F1F4F08C060817181072E000CA5
S1133E50880B990B0E5F1F4FF32DFF763F2E97FFB4
S1133E6009C090958095709561957F4F8F4F9F4FB6
S1133E70F0683F2E2AE030E0A3010E946420882EDF
S1133E80861845C0853731F4232D2F7EB22E2AE0C3
S1133E9030E025C0932D997FB92E8F36C1F018F4E8
S1133EA0883579F0B5C0803719F0883721F0B0C073
S1133EB0E92FE061BE2EB4FE0DC0FB2DF460BF2ED1
S1133EC009C034FE0AC0292F2660B22E06C028E09D
S1133ED030E005C020E130E002C020E132E0F8012A
S1133EE0B7FE07C060817181828193810C5F1F4F8F
S1133EF006C06081718180E090E00E5F1F4FA301D6
S1133F000E946420882E8618FB2DFF773F2E36FEF4
S1133F100DC0232D2E7FA22E891458F434FE0BC01D
S1133F2032FC09C0832D8E7EA82E05C0B82CA32C8C
S1133F3003C0B82C01C0B92CA4FE0FC0FE01E80DCB
S1133F40F11D8081803321F49A2D997EA92E09C018
S1133F50A2FE06C0B394B39404C08A2D867809F0F7
S1133F60B394A3FC11C0A0FE06C0B21488F4280CBC
S1133F70922C9B180EC0B21460F4B60180E290E05B
S1133F800E942820B394F7CFB21418F42B1802C05F
S1133F90982C212CA4FE10C0B60180E390E00E946E
S1133FA02820A2FE17C0A1FC03C088E790E002C04D
S1133FB088E590E0B6010CC08A2D867859F0A1FE00
S1133FC002C08BE201C080E2A7FC8DE2B60190E062
S1133FD00E942820891438F4B60180E390E00E94FE
S1133FE028209A94F7CF8A94F301E80DF11D80817B
S1133FF0B60190E00E9428208110F5CF222009F418
S113400042CEB60180E290E00E9428202A94F6CFA6
S1134010F6018681978102C08FEF9FEF2B96E2E134
S11340200C94DE20FC010590615070400110D8F71B
S1134030809590958E0F9F1F0895FC0161507040EC
S113404001900110D8F7809590958E0F9F1F0895C9
S11340500F931F93CF93DF93FB01238121FD03C0B3
S11340608FEF9FEF2CC022FF16C046815781248119
S113407035814217530744F4A081B1819D012F5F1C
S11340803F4F318320838C93268137812F5F3F4FAD
S11340903783268314C08B01EC01FB010084F18576
S11340A0E02D0995892BE1F6D80116968D919C9106
S11340B01797019617969C938E931697CE01DF91CE
S11340C0CF911F910F910895FA01AA27283051F139
S11340D0203181F1E8946F936E7F6E5F7F4F8F4F35
S11340E09F4FAF4FB1E03ED0B4E03CD0670F781F94
S11340F0891F9A1FA11D680F791F8A1F911DA11D79
S11341006A0F711D811D911DA11D20D009F46894B1
S11341103F912AE0269F11243019305D3193DEF659
S1134120CF010895462F4770405D4193B3E00FD00F
S1134130C9F7F6CF462F4F70405D4A3318F0495DFA
S113414031FD4052419302D0A9F7EACFB4E0A695DD
S11341509795879577956795BA95C9F700976105FF
S1134160710508959B01AC010A2E06945795479555
S113417037952795BA95C9F7620F731F841F951F4A
S1134180A01D08952F923F924F925F926F927F925B
S11341908F929F92AF92BF92CF92DF92EF92FF9253
S11341A00F931F93CF93DF93CDB7DEB7CA1BDB0BFF
S11341B00FB6F894DEBF0FBECDBF09942A883988A4
S11341C048885F846E847D848C849B84AA84B984AB
S11341D0C884DF80EE80FD800C811B81AA81B981B7
S11341E0CE0FD11D0FB6F894DEBF0FBECDBFED01CB
S10941F00895F894FFCFCE
S11341F657656C636F6D65006C65642031206F6E66
S11342060D0A006C65642031206F6E006C656420B5
S113421631206F6E0A006C65642031206F6666007B
S11342266C65642031206F66660A006C6564203113
S1134236206F66660D0A006C65642032206F6E0D71
S11342460A006C65642032206F6E006C656420324F
S1134256206F6E0A006C65642032206F6666006CFF
S113426665642032206F66660A006C65642032201D
S11342766F66660D0A006C65642033206F6E0D0A46
S1134286006C65642033206F6E006C6564203320F7
S11342966F6E0A006C65642033206F6666006C6579
S11342A6642033206F66660A006C65642033206FD1
S11342B666660D0A006C65642034206F6E0D0A0074
S11342C66C65642034206F6E006C65642034206F46
S11342D66E0A006C65642034206F6666006C656443
S11342E62034206F66660A006C65642034206F668D
S11342F6660D0A00616C6C206F66660D0A00616CBF
S11343066C206F666600616C6C206F66660A0048F6
S1074316433A000022
S9030000FC
