:100000000C9496000C94B3000C94B3000C94B300C1
:100010000C94B3000C94B3000C94B3000C94B30094
:100020000C94B3000C94B3000C94B3000C94CF1C4C
:100030000C94B3000C94B3000C94B3000C94B30074
:100040000C94B3000C94B3000C940C0E0C94400E62
:100050000C94B3000C94EC020C94B3000C94B30019
:100060000C94B3000C94B300CB08CF08D308D70886
:10007000DB08DF08E30847094D09530959095F09FF
:10008000680971097A098009890992099B09A109FE
:10009000AA09B309D209D609DA09DE09E209E60993
:1000A000EA09EE09F209F609FA0907634236B79B35
:1000B000D8A71A39685618AEBAAB558C1D3CB7CCC8
:1000C0005763BD6DEDFD753EF6177231BF00000040
:1000D000803F08000000BE922449123EABAAAA2A23
:1000E000BECDCCCC4C3E00000080BEABAAAAAA3E3E
:1000F00000000000BF000000803F0000000000087A
:100100004178D3BB4387D1133D190E3CC3BD428216
:10011000AD2B3E68EC8276BED98FE1A93E4C80EFD4
:10012000FFBE01C4FF7F3F000000000011241FBE7E
:10013000CFEFD8E0DEBFCDBF11E0A0E0B1E0ECE84A
:10014000FAE402C005900D92A837B107D9F725E06F
:10015000A8E7B1E001C01D92A232B207E1F70E9408
:1001600063180C9444250C940000882389F0E091D6
:100170000802F0910902208181E090E000900A02DB
:1001800002C0880F991F0A94E2F7822B808311C066
:10019000E0910802F0910902208181E090E0009056
:1001A0000A0202C0880F991F0A94E2F78095822301
:1001B0008083E0910802F0910902408181E090E0A3
:1001C0009C0100900C0202C0220F331F0A94E2F738
:1001D000242B2083E0910802F091090220810090F5
:1001E0000C0202C0880F991F0A94E2F780958223BF
:1001F00080830895E0910802F0910902408181E036
:1002000090E09C0100900B0202C0220F331F0A9461
:10021000E2F7242B2083E0910802F091090220816B
:1002200000900B0202C0880F991F0A94E2F7809594
:10023000822380830895FF920F931F93CF93DF93C0
:10024000F82EC0E0D0E001E010E0C8010C2E02C0A2
:10025000880F991F0A94E2F78F210E94B50021961A
:10026000C830D10591F70E94FA00DF91CF911F911C
:100270000F91FF900895FF920F931F93CF93DF93F9
:10028000F82EC7E0D0E001E010E0C8010C2E02C05B
:10029000880F991F0A94E2F78F210E94B5002197D9
:1002A000A0F70E94FA00DF91CF911F910F91FF906C
:1002B00008950F93CF93DF93CDB7DEB728970FB68E
:1002C000F894DEBF0FBECDBF909307028093060265
:1002D000709309026093080240930A0220930C0273
:1002E00000930B02FC01308161E070E0DB0102C091
:1002F000AA0FBB1F2A95E2F7FB0102C0EE0FFF1FFA
:100300000A95E2F7EA2B02C0660F771F4A95E2F7DB
:100310006E2B232F262BFC012083E0910802F09105
:100320000902808160956823608325EB30E03A8381
:1003300029834BE151E05C834B836BE371E07E8367
:100340006D838AEF90E098878F833A815C817E810C
:10035000988528960FB6F894DEBF0FBECDBFDF910B
:10036000CF910F910895E0911102F0911202228134
:1003700026FD02C020642283FC01EE0FFF1FEF5612
:10038000FE4F808191810895EF92FF920F931F930A
:10039000CF93DF93CDB7DEB7EE970FB6F894DEBFFD
:1003A0000FBECDBF28960FAD289729961FAD299770
:1003B0002B96EEACFFAC2B97CE0101960E94560413
:1003C0008EE3FE013196ADE0B2E001900D928A9588
:1003D000E1F7EDE0F2E0A085B18591964C9191971F
:1003E000842F8F7791968C93F0928001E0927F0119
:1003F00010927E0110927D01109278010480F581A7
:10040000E02D84818F738483013019F0033051F023
:1004100012C0E0911102F091120284818064848301
:1004200051E00AC0E0911102F09112028481806CC7
:10043000848353E001C050E0E0911102F091120278
:1004400084818F7D84831E141F0494F4DE01A55BD8
:10045000BF4F80E090E02D913D91FC01EE0FFF1F1A
:10046000EF57FE4F318320830196E816F90699F77E
:10047000EDE0F2E0A481B58114968C911497807F11
:1004800014968C93A0917D01B0917E01AA0FBB1FA1
:10049000AF57BE4F8D919C91A481B5818F709927E4
:1004A00014969C911497892B14968C93A481B581F2
:1004B00012968C911297806812968C93A481B581C4
:1004C00012968C911297806412968C93A481B581B8
:1004D00012968C9112978F7D12968C93A481B58180
:1004E00013968C911397887F13968C93A481B58172
:1004F00012968C911297886012968C930480F581E5
:10050000E02D8281887F8283103109F138F4143024
:1005100061F0183099F01230F1F546C0103449F10D
:10052000103881F11032B9F51BC0E0911102F09141
:10053000120282818260828324E037C0E09111023E
:10054000F091120282818360828328E02EC0E091C4
:100550001102F091120282818460828320E125C021
:10056000E0911102F091120282818560828320E283
:100570001CC0E0911102F091120282818660828398
:1005800020E413C0E0911102F09112028281876091
:10059000828320E80AC0E0911102F0911202828168
:1005A0008760828320E801C022E0E0911502F0918B
:1005B0001602406841A3652F722F83EB91E0EE96FF
:1005C0000FB6F894DEBF0FBECDBFDF91CF911F9164
:1005D0000F91FF90EF9008951F920F920FB60F9218
:1005E00011242F933F938F939F93AF93BF93EF93D8
:1005F000FF938091780090E090937A018093790145
:10060000209179008091790190917A01922B9093B9
:100610007A0180937901809178018430A0F48091EF
:1006200078018F5F809378012091790130917A0170
:1006300080917B0190917C01820F931F90937C01AC
:1006400080937B014DC0E0917D01F0917E0180910E
:100650007B0190917C019595879595958795EE0FF7
:10066000FF1FEF56FE4F9183808310927C01109202
:100670007B011092780120917D0130917E01809163
:100680007F01909180012817390754F480917D01F2
:1006900090917E01019690937E0180937D0104C02C
:1006A00010927E0110927D01ADE0B2E01496ED91C2
:1006B000FC9115978481807F8483E0917D01F09186
:1006C0007E01EE0FFF1FEF57FE4F80819181149640
:1006D000ED91FC9115978F7099279481892B8483D4
:1006E000FF91EF91BF91AF919F918F913F912F918A
:1006F0000F900FBE0F901F901895E0915302F0914C
:1007000054028689982F9F70923069F018F49130C6
:1007100031F015C0943059F0983069F010C08E7FD8
:10072000868B80E008958D7F868B81E008958B7F96
:10073000868B82E00895877F868B83E00895807F93
:10074000868B80E00895882319F08130F9F03CC051
:10075000EBE4F2E0A685B78512968C9112978E7F16
:1007600012968C930684F785E02D86A58C7F6230E7
:1007700021F0633029F086A705C0826086A702C0F9
:10078000836086A78281816082830895EBE4F2E032
:10079000A685B78512968C9112978D7F12968C93B1
:1007A0000684F785E02D86A5837F623021F06330D3
:1007B00029F086A705C0886086A702C08C6086A73E
:1007C0008281826082830895E0915902F0915A02F9
:1007D00012820895882319F0813049F010C0E09109
:1007E0005902F0915A0282818E7F82830895E091AE
:1007F0005902F0915A0282818D7F82830895E0919F
:100800005902F0915A0212820895CF93DF93CDB727
:10081000DEB7C454D1090FB6F894DEBF0FBECDBF0A
:10082000CE0107960E9456048EE3FE013796ABE494
:10083000B2E001900D928A95E1F7E0915902F091B2
:100840005A02128223EA33E03A8329834AEE53E0C4
:100850005C834B836DE773E07E836D833A815C81BB
:100860007E8180E090E0CC5BDF4F0FB6F894DEBF76
:100870000FBECDBFDF91CF910895292F30E0322FE9
:100880002227A901482BCA010895282F30E0322FD2
:100890002227A901492BCA0108950895282F892FDD
:1008A000922F08959827892798270895E9E8F2E07C
:1008B0001182108220E530E03383228328E730E084
:1008C0003583248324EC31E0378326832EE330E024
:1008D000318720872FE330E03387228727E53EE00A
:1008E000358724872BE330E03787268725E034E0FF
:1008F000318B208B23E230E0338B228B26E230E0F9
:10090000358B248B29E230E0378B268B2CE430E0CA
:10091000318F208F26E330E0338F228F2DE039E0B6
:10092000358F248F25E330E0378F268F29E338E099
:1009300031A320A327E330E033A322A324E23AE04B
:1009400035A324A328EB30E037A326A321E53BE021
:1009500031A720A720EC30E033A722A728E63CE00F
:1009600035A724A720E630E037A726A720E031E00E
:1009700031AB20AB2DE334E035AB24AB25E434E0E0
:1009800037AB26AB2DE434E031AF20AF2EE434E0BA
:1009900033AF22AF22E534E035AF24AF2EE3DC01E4
:1009A00001900D922A95E1F708952091A30121115C
:1009B00071C0E7ECF2E0A68DB78D2FEF52962C9325
:1009C000068CF78DE02D2089287F208B88309105BB
:1009D00001F158F483309105E1F18530910509F476
:1009E00040C0019709F045C00CC0811521E0920775
:1009F00001F1811524E0920721F180349105C9F5B8
:100A000010C0E091E502F091E60280898160808B60
:100A100037C0E091E502F091E60280898260808B28
:100A20002FC0E091E502F091E60280898360808B1F
:100A300027C0E091E502F091E60280898460808B16
:100A40001FC0E091E502F091E60280898560808B0D
:100A500017C0E091E502F091E60280898660808B04
:100A60000FC0E091E502F091E60280898760808BFB
:100A700007C0E091E502F091E60280898560808BF5
:100A8000E091CF02F091D00281A1806881A381E042
:100A90008093A3010895E091E502F091E602978525
:100AA0009F7397878230A9F0833021F1813091F5CF
:100AB000E7ECF2E0A689B78911968C9111978064D2
:100AC00011968C93068CF78DE02D8785806487873F
:100AD0000895E7ECF2E0A689B78911968C911197F9
:100AE000806411968C93068CF78DE02D8785806845
:100AF00087870895E7ECF2E0A689B78911968C9173
:100B00001197806411968C93068CF78DE02D878564
:100B1000806C87870895E091E502F091E602978561
:100B20009F7C97878230A9F0833021F1813091F545
:100B3000E7ECF2E0A689B78911968C911197806253
:100B400011968C93068CF78DE02D878580618787C1
:100B50000895E7ECF2E0A689B78911968C91119778
:100B6000806211968C93068CF78DE02D87858062CC
:100B700087870895E7ECF2E0A689B78911968C91F2
:100B80001197806211968C93068CF78DE02D8785E6
:100B9000806387870895E091E502F091E602828BF9
:100BA0000895E091E502F091E602838B0895E7EC69
:100BB000F2E0A68DB78D50968C915097887F509615
:100BC0008C93068CF78DE02D118A1092A301089565
:100BD000E091E102F091E202E65BFF4F90819F73AA
:100BE00090838230B9F0833041F18130C1F5E7EC78
:100BF000F2E0A289B38911968C91119782601196C7
:100C00008C93028CF38DE02DE65BFF4F8081806436
:100C100080830895E7ECF2E0A289B38911968C9164
:100C20001197826011968C93028CF38DE02DE65B18
:100C3000FF4F8081806880830895E7ECF2E0A2890D
:100C4000B38911968C911197826011968C93028CC6
:100C5000F38DE02DE65BFF4F8081806C80830895EB
:100C6000E091E102F091E202E65BFF4F90819F7C10
:100C700090838230B9F0833041F18130C1F5E7ECE7
:100C8000F2E0A289B38911968C9111978460119634
:100C90008C93028CF38DE02DE65BFF4F80818061A9
:100CA00080830895E7ECF2E0A289B38911968C91D4
:100CB0001197846011968C93028CF38DE02DE65B86
:100CC000FF4F8081806280830895E7ECF2E0A28983
:100CD000B38911968C911197846011968C93028C34
:100CE000F38DE02DE65BFF4F808180638083089564
:100CF000CF93DF93E7ECF2E0C28DD38DCE5ADF4F76
:100D000000ACF1ADE02D099599838883DF91CF91F7
:100D10000895CF93DF93E7ECF2E0C28DD38DCC5AE8
:100D2000DF4F00ACF1ADE02D099599838883DF9109
:100D3000CF910895CF93DF932091A201211165C037
:100D4000EC018FEF9FEF0E9478068FEF9FEF0E94DC
:100D500089062091E1023091E202F901E55BFF4F43
:100D60008081887F8083C830D105E1F048F4C330AA
:100D7000D10581F1C530D10599F12197B9F50CC0A4
:100D8000C11591E0D907D1F0C11594E0D907E1F080
:100D9000C034D10559F50CC0F901E55BFF4F816006
:100DA000808329C0F901E55BFF4F8260808323C007
:100DB000F901E55BFF4F836080831DC0F901E55BAE
:100DC000FF4F8460808317C0F901E55BFF4F8560AA
:100DD000808311C0F901E55BFF4F866080830BC003
:100DE000F901E55BFF4F8760808305C0F901E55B92
:100DF000FF4F85608083E091CF02F091D00281A106
:100E0000806881A381E08093A201DF91CF91089552
:100E1000CF93DF93E7ECF2E0828D938DDC01A55B4D
:100E2000BF4F2C91287F2C93EC01C25BDF4F00ACAD
:100E3000F1ADE02D80E090E00995998388831092D0
:100E4000A201DF91CF910895AC018091A1018111A0
:100E500060C02091E9023091EA02F901E458FF4FA5
:100E60008FEF808332979081987F90834034510533
:100E700049F150F448305105C9F040325105E1F0D4
:100E800041305105B9F50CC0411581E0580731F1E9
:100E9000411584E0580741F14038510559F518C013
:100EA000F901E658FF4F9160908329C0F901E65897
:100EB000FF4F9260908323C0F901E658FF4F936083
:100EC00090831DC0F901E658FF4F9460908317C0CE
:100ED000F901E658FF4F9560908311C0F901E6587B
:100EE000FF4F966090830BC0F901E658FF4F976063
:100EF000908305C0F901E658FF4F97609083E09119
:100F0000CF02F091D00281A1806881A381E080931B
:100F1000A1010895E091E902F091EA02E758FF4F3C
:100F200090819F7390838230B9F0833041F181309A
:100F3000C1F5E7ECF2E0A289B38911968C91119783
:100F4000886011968C9302A0F3A1E02DE758FF4F23
:100F50008081806480830895E7ECF2E0A289B38900
:100F600011968C911197886011968C9302A0F3A131
:100F7000E02DE758FF4F8081806880830895E7EC7B
:100F8000F2E0A289B38911968C911197886011962D
:100F90008C9302A0F3A1E02DE758FF4F8081806C75
:100FA00080830895E091E902F091EA02E758FF4F4B
:100FB00090819F7C90838230B9F0833041F1813001
:100FC000C1F5E7ECF2E0A689B78911968C911197EB
:100FD000886011968C9302A0F3A1E02DE758FF4F93
:100FE0008081806180830895E7ECF2E0A689B7896B
:100FF00011968C911197886011968C9302A0F3A1A1
:10100000E02DE758FF4F8081806280830895E7ECF0
:10101000F2E0A689B78911968C9111978860119694
:101020008C9302A0F3A1E02DE758FF4F80818063ED
:1010300080830895E091E902F091EA02E458FF4FBD
:1010400080830895E091E902F091EA02E358FF4FAE
:10105000808308958091E9029091EA02FC01E658AC
:10106000FF4F2081287F2083319610821092A101AA
:101070000895EF92FF920F931F93CF93DF93CDB715
:10108000DEB7EE970FB6F894DEBF0FBECDBF8C0172
:10109000E62EF42ECE0101960E9456048EE3FE0148
:1010A0003196A7ECB2E001900D928A95E1F710928B
:1010B000A301E7ECF2E0A68DB78D1F968C911F97E8
:1010C0008C7F1F968C93068CF78DE02D8089877F0F
:1010D000808B83E0E81601F18E1538F0E1E0EE1622
:1010E00059F0F2E0EF1681F040C085E0E816E1F03B
:1010F000E7E0EE1651F139C0E091E502F091E60229
:1011000087858160878731C0E091E502F091E60232
:1011100087858260878729C0E091E502F091E60229
:1011200087858360878721C0E7ECF2E0A68DB78DC5
:101130001F968C911F9781601F968C93068CF78D5C
:10114000E02D80898860808B10C0E7ECF2E0A68DEE
:10115000B78D1F968C911F9783601F968C93068C7A
:10116000F78DE02D80898860808BA091E502B09199
:10117000E602D9968C91D997887F4F2D50E0FA01DD
:101180003197E730F10520F4EC5CFF4F0C94A92176
:10119000D9968C931BC08160D9968C9317C08260BE
:1011A000D9968C9313C08460D9968C930FC08360BA
:1011B000D9968C930BC08560D9968C9307C08760B5
:1011C000D9968C9303C08660D9968C938BE495E076
:1011D000F801918380838BE895E0938382838BEC85
:1011E00095E09583848381ED95E09783868385EDF3
:1011F00094E09187808787ED95E093878287C80187
:10120000EE960FB6F894DEBF0FBECDBFDF91CF9143
:101210001F910F91FF90EF900895EF92FF920F931F
:101220001F93CF93DF93CDB7DEB7EE970FB6F89449
:10123000DEBF0FBECDBF7C01062F142FCE0101965D
:101240000E9456048EE3FE013196A7ECB2E00190B5
:101250000D928A95E1F71092A2012091E10230915E
:10126000E202F901E65BFF4F50815C7F50833196CB
:101270004081477E4083802F90E0FC013197EF3022
:10128000F10508F078C0E55CFF4F0C94A921F90145
:10129000E65BFF4F516050836EC0F901E65BFF4F84
:1012A0005260508368C0F901E65BFF4F5360508382
:1012B00062C0F901E55BFF4F486040835CC0F90103
:1012C000E65BFF4F5160508331964860408353C0C6
:1012D000F901E65BFF4F52605083319648604083CE
:1012E0004AC0F901E65BFF4F536050833196486076
:1012F000408341C0F901E55BFF4F406140833BC043
:10130000F901E65BFF4F51605083319640614083A5
:1013100032C0F901E65BFF4F526050833196406165
:10132000408329C0F901E65BFF4F5360508331963B
:101330004061408320C0F901E55BFF4F4861408375
:101340001AC0F901E65BFF4F516050833196486146
:10135000408311C0F901E65BFF4F52605083319624
:101360004861408308C0F901E65BFF4F536050833A
:10137000319648614083F901E65BFF4F80818F70B1
:101380008083F90181AD887D412F50E0FA013197CA
:10139000EB30F10520F4E65BFF4F0C94A921F90135
:1013A00081AF2BC08160F90181AF27C08260F90154
:1013B00081AF23C08460F90181AF1FC08062F90151
:1013C00081AF1BC08660F90181AF17C08360F9014E
:1013D00081AF13C08560F90181AF0FC08162F9014F
:1013E00081AF0BC08760F90181AF07C08762F90147
:1013F00081AF03C08660F90181AF88EE95E0F70107
:101400009183808380E396E09383828388E796E0EC
:101410009583848389E896E0978386838AE996E0BA
:101420009187808788E097E093878287C701EE964F
:101430000FB6F894DEBF0FBECDBFDF91CF911F91E5
:101440000F91FF90EF900895EF92FF920F931F93EB
:10145000CF93DF93CDB7DEB7EE970FB6F894DEBF2C
:101460000FBECDBF8C01E62EF42ECE0101960E9458
:1014700056048EE3FE013196A7ECB2E001900D9286
:101480008A95E1F71092A101E091E902F091EA0258
:10149000DF01A758BF4F8C918C7F8C9311969C9144
:1014A000977F9C9323E0E216E1F02E1538F091E04F
:1014B000E91659F022E0E21671F02AC025E0E216A2
:1014C000B1F027E0E216E1F023C0DF01A758BF4FDB
:1014D00081608C931DC0DF01A758BF4F82608C9341
:1014E00017C0DF01A758BF4F83608C9311C0DF0185
:1014F000A758BF4F81608C93119698609C9308C049
:10150000DF01A758BF4F83608C93119698609C931E
:1015100081AD887F93E0F916C9F09F1538F021E07E
:10152000F21671F092E0F91671F008C025E0F2169B
:1015300099F0F21670F096E0F91689F081AF11C0BB
:10154000816081AF0EC0826081AF0BC0836081AFCC
:1015500008C0856081AF05C0866081AF02C087602A
:1015600081AF8AE897E0F8019183808382ED97E06C
:10157000938382838AE198E09583848382E298E072
:101580009783868384E297E0918780878AE298E058
:1015900093878287C801EE960FB6F894DEBF0FBE20
:1015A000CDBFDF91CF911F910F91FF90EF900895E4
:1015B000E0912B03F0912C038181887F0895E091C5
:1015C0002B03F0912C0384E9848387EC90E001974E
:1015D000F1F700C000000895CF93DF9318161CF4B4
:1015E000880F816001C081E0E5E0F3E0A6A1B7A12A
:1015F00012968C93A689B78911968C911197806366
:1016000011968C930688F789E02D8281806382830E
:10161000643089F018F4613031F025C0603199F000
:101620006034C9F020C0E0912B03F0912C0381813C
:101630008C7F818320C0E0912B03F0912C0381816A
:101640008160818318C0E0912B03F0912C0381818C
:101650008260818310C0E0912B03F0912C03818183
:101660008360818308C0E0912B03F0912C0381817A
:101670008C7F818361E0C0912B03D0912C03262FB6
:1016800030E0220F331F032E000C440B550B60E497
:1016900070E080E090E00E9468212883DF91CF9184
:1016A0000895BF92CF92DF92EF92FF920F931F9314
:1016B000CF93DF93CDB7DEB7EE970FB6F894DEBFCA
:1016C0000FBECDBF8C01E62EB42ECE0101960E9436
:1016D00056048EE3FE013196A5E0B3E001900D9231
:1016E0008A95E1F70F2EF5E0CF2EF3E0DF2EF02DF7
:1016F000D6011896ED91FC911997F1A08F2D8F7757
:1017000081A36B2D8E2D0E94EC0AD6011896ED91C7
:10171000FC911997F1A285EC9BE0F80191838083FD
:1017200086ED9BE09383828384EF9BE095838483A3
:101730008AE09CE0978386838FED9AE0918780878B
:1017400088ED9AE093878287C801EE960FB6F894E9
:10175000DEBF0FBECDBFDF91CF911F910F91FF90E4
:10176000EF90DF90CF90BF900895E0912B03F09120
:101770002C032481222344F021E030E082179307D8
:1017800018F02F5F3F4FFACF0895E0912B03F091AF
:101790002C0384EA84838FEF93E00E94B50B0E94B0
:1017A000D80A883011F00E94DF0A0895662319F0E4
:1017B000880F816001C0880FE5E0F3E0A6A1B7A122
:1017C00013968C9306A0F7A1E02D84E884838FEF15
:1017D00093E00E94B50B0E94D80A883121F0803432
:1017E00011F00E94DF0A0895E5E0F3E0A6A1B7A199
:1017F00013968C9306A0F7A1E02D84E884838FEFE5
:1018000093E00E94B50B0E94D80A883211F00E9422
:10181000DF0A0895882311F080E401C080E0E091A0
:101820002B03F0912C03846884838FEF93E00E9454
:10183000B50B0E94D80A883311F40E94DF0AE091A8
:101840002B03F0912C0383810895E0914C03F091D8
:101850004D0384E493E009950895E0914E03F091DF
:101860004F0384E493E00995089580918E031092CC
:101870008E03EFECF7E03197F1F700C00000089518
:101880000E94350C0895E0E5F3E0A2A5B3A51696F5
:101890008C9302A4F3A5E02D8181806281838FEC7B
:1018A00097E00197F1F700C0000008950E94430CF3
:1018B0000895CF93DF93EC018881882331F021963E
:1018C0000E94430C89918111FBCFDF91CF91089544
:1018D0003F924F925F926F927F928F929F92AF92C0
:1018E000BF92CF92DF92EF92FF920F931F93CF930D
:1018F000DF93CDB7DEB7EE970FB6F894DEBF0FBE1D
:10190000CDBF7C015B016A0129013801E0915803D8
:10191000F091590331A0832D8F7781A3CE010196D9
:101920000E9456048EE3FE013196A0E5B3E00190DB
:101930000D928A95E1F74FE853E060E1CE01019600
:101940000E94B30E8CE0FE013196A4E4B3E0019056
:101950000D928A95E1F7BB204CF4E0917A03F09167
:101960007B0382E08083C5019F7701C0C50100E54C
:1019700013E0D8019A968D909C909B97D896ED9104
:10198000FC91D9970995F40195838483D8019A969F
:10199000ED91FC919B9788E98183B7E0CB16D10448
:1019A000D9F158F4F5E0CF16D10409F46BC086E004
:1019B000C816D10409F44BC078C0A8E0CA16D104F7
:1019C000C1F0B9E0CB16D10409F06FC0E0E5F3E057
:1019D000A2A5B3A511968C911197846011968C9352
:1019E00002A4F3A5E02D82818660828369E070E025
:1019F0006EC0E0E5F3E0A2A5B3A511968C91119716
:101A00008B7F11968C9302A4F3A5E02D82818660D2
:101A1000828368E070E05BC0E0E5F3E0A2A5B3A5D7
:101A200011968C9111978B7F11968C93A2A5B3A5DB
:101A300012968C911297846012968C9302A4F3A54F
:101A4000E02D82818D7F828367E070E040C0E0E519
:101A5000F3E0A2A5B3A511968C9111978B7F1196F7
:101A60008C93A2A5B3A512968C9112978B7F129698
:101A70008C9302A4F3A5E02D82818260828366E0CC
:101A800070E025C0E0E5F3E0A2A5B3A511968C9126
:101A900011978B7F11968C9302A4F3A5E02D828180
:101AA000897F828365E070E012C0E0E5F3E0A2A5E3
:101AB000B3A511968C9111978B7F11968C9302A4EC
:101AC000F3A5E02D82818660828368E070E0E1E02A
:101AD0004E16510429F0F2E04F16510459F014C08B
:101AE000E0917A03F0917B038281877F828341E0DA
:101AF00050E013C0E0917A03F0917B03828188600B
:101B0000828342E050E009C0E0917A03F0917B03C8
:101B10008281877F828341E050E082E06816710411
:101B200081F0A3E06A167104F9F0672839F5E091B5
:101B30007A03F0917B0382818F7C828320E030E006
:101B400026C0E0E5F3E0A2A5B3A512968C9112970A
:101B5000806212968C9302A4F3A5E02D82818F7E81
:101B6000828322E030E013C0E0917A03F0917B039E
:101B700082818063828323E030E009C0E0917A03B0
:101B8000F0917B0382818F7C828320E030E0E091C2
:101B90005803F0915903832D806881A3F701B18226
:101BA000A08273836283558344833783268385E3CE
:101BB0009CE09187808780E49CE09387828785E220
:101BC0009CE0958784878DE29CE09787868783E4F5
:101BD0009CE0918B808B86E59CE0938B828B89E5E2
:101BE0009CE0958B848BC701EE960FB6F894DEBF10
:101BF0000FBECDBFDF91CF911F910F91FF90EF905E
:101C0000DF90CF90BF90AF909F908F907F906F901C
:101C10005F904F903F9008951F920F920FB60F92D2
:101C200011242F933F934F935F936F937F938F93E1
:101C30009F93AF93BF93EF93FF93E0917A03F0915B
:101C40007B038081887180934303668160938E0358
:101C5000E0914A03F0914B0384E493E00995FF91EE
:101C6000EF91BF91AF919F918F917F916F915F9114
:101C70004F913F912F910F900FBE0F901F9018958D
:101C80001F920F920FB60F9211248F93EF93FF9331
:101C9000E0917A03F0917B0381818F7D8183FF91B5
:101CA000EF918F910F900FBE0F901F901895FC0130
:101CB00086EA94E29183808382EF94E29383828325
:101CC00084EC94E2958384838EEA94E297838683FE
:101CD00088E095E29187808782EE94E293878287FD
:101CE00080E095E29787868780E095E2958B848BEC
:101CF00086ED94E2978B868B86E994E2918F808FB4
:101D000088EE94E2938F828F84EB94E2958F848F98
:101D1000CF0108956623C1F0DC011296ED91FC918C
:101D2000139714962D913C911597E217F30729F418
:101D3000ED91FC91DF01119602C0DF0111966083E5
:101D40001C92FC01B383A2830895FC0180819181E0
:101D50000895DC01ED91FC9111971396FC93EE939D
:101D6000129710820895FC0151834083538342836C
:101D7000460F511D558344838AE89EE097838683EE
:101D800085EA9EE09187808789EA9EE09387828733
:101D9000CF010895FC019281838190838183262F56
:101DA00030E033832283262F2927492F422350E016
:101DB00055834483262330E037832683262F292327
:101DC00030E031872087962B9095692F70E07387DC
:101DD00062870895FC0111821082138212822AEC1C
:101DE0003EE0358724870895CF92DF92EF92FF92ED
:101DF0000F931F93FC010081118122813381FB012C
:101E0000C080D180E280F380FC01C082D182E28276
:101E1000F382FB0100831183228333831F910F918F
:101E2000FF90EF90DF90CF900895FB012081FC019F
:101E30002083222339F0DB01119631969D919193F5
:101E40009111FCCF0895CF93DF93EC0198819923F2
:101E500099F0FE01319620E030E0492F50E046171E
:101E6000570731F0DE01A20FB31F9C932F5F3F4F46
:101E700091919111F2CF02C020E030E0FE01E20F1B
:101E8000F31F1082DF91CF9108952F923F924F92CE
:101E90005F926F927F928F929F92AF92BF92CF92FA
:101EA000DF92EF92FF920F931F93CF93DF9300D0B7
:101EB00000D0CDB7DEB72C011B014B0177231CF4FA
:101EC0002FEF821A920A95948794181419040CF42F
:101ED00051C06AC09601DD209CF1F501408151811D
:101EE000F401608171816417750754F58C010A0D46
:101EF0001B1DD401BC82AB82BA82A982EB81FC811A
:101F00007183608311965C934E932E193F09C2F042
:101F1000F80140815181E981FA8160817181080F66
:101F2000191FE80FF91FFA83E983EB81FC81E80FA1
:101F3000F91FFC83EB83A80FB91F64177507F4F230
:101F4000FFEFCF1ADF0A22E0A20EB11CE2E08E0EF4
:101F5000911CC614D70409F0BDCF4701FF201CF423
:101F6000FFEF8F1A9F0A9594879418141904E4F4CC
:101F7000740101C07401821493047CF76401CE18CB
:101F8000DF085601AA0CBB1CA40CB51C880C991CBC
:101F9000840C951C31016E187F08C701880F991FAA
:101FA00091958195910996CF0F900F900F900F907A
:101FB000DF91CF911F910F91FF90EF90DF90CF9025
:101FC000BF90AF909F908F907F906F905F904F9059
:101FD0003F902F900895861797070CF4CB01089532
:101FE0009B01672B11F408959A01B9010E945421B5
:101FF000AC01822F932F41155105B1F70895FC01D3
:10200000908180ED890F8A30D0F4319620E030E065
:10201000A901440F551F220F331F220F331F220F18
:10202000331F420F531F292F30E020533109240F53
:10203000351F919180ED890F8A3050F302C020E066
:1020400030E0C901089586230895009739F020E013
:1020500030E02F5F3F4F82179307D9F7089587FF2E
:1020600008C091958195910999279195819591093C
:1020700008958F779927089591FF08C091958195CC
:1020800091099370919581959109089591700895A2
:10209000615021E030E002C0220F331F6A95E2F761
:1020A000A90141505109B90168237923672B29F00F
:1020B00084239523821B930B0895842395230895ED
:1020C0009DEC899F912D1124969596959695392F83
:1020D000330F232F220F220F230F821B20E1929F09
:1020E000800D11240895982F92959F70990F292F94
:1020F000220F220F920F8F70890F0895FC01DB01D0
:10210000AC55BE4F1C921616170614F5908191110E
:102110000CC017C0919191110DC015C081932F5F14
:102120003F4F26173707D4F313C0A4EAB1E0319626
:1021300020E030E09D932F5F3F4F6217730751F708
:1021400007C020E030E0F901EC55FE4F80E2E6CF19
:1021500084EA91E008954F925F926F927F92AF92DE
:10216000BF92CF92DF92EF92FF920F931F93CF9384
:10217000DF93CDB7DEB729013A019B01AC012419E9
:1021800035094609570989899A89AB89BC89BC01F7
:10219000CD016A197B098C099D090E943021A80193
:1021A000970124193509460957090E948A21CA0155
:1021B000B9016A0D7B1D8C1D9D1DDF91CF911F9173
:1021C0000F91FF90EF90DF90CF90BF90AF907F90F6
:1021D0006F905F904F900895FC012081222341F081
:1021E000319680E090E0019621912111FCCF089575
:1021F00080E090E00895CF93DF93EC010E94EC1013
:102200009C012150310962F0FE01E80FF91F929103
:10221000903219F09950923018F421503109B8F7E2
:10222000C20FD31F1982C901DF91CF910895CF93B7
:10223000DF93EC010E94EC109C0121503109121631
:10224000130684F4DE01A80FB91FFE0180E090E0C0
:1022500040815E9151934C93019621503109821730
:102260009307B4F3DF91CF9108958F929F92AF922D
:10227000BF92CF92DF92EF92FF920F931F93CF9373
:10228000DF936B017C01DC01CB01FF203CF488274C
:102290009927DC018C199D09AE09BF09BC01CD014C
:1022A00010E00F2EFAE08F2E912CA12CB12CF02DE6
:1022B00001C0102F01E0010FC12FD0E0CC55DE4F3F
:1022C000A50194010E948A21605D6883622F732FAB
:1022D000842F952F161617061806190654F3FF209B
:1022E00044F4E02FF0E0EC55FE4F8DE2808302E0F5
:1022F000010FE02FF0E0EC55FE4F108284EA91E0F0
:102300000E94171184EA91E0DF91CF911F910F9104
:10231000FF90EF90DF90CF90BF90AF909F908F9005
:1023200008950F931F93CF93DF93EC01992324F427
:10233000882799278C1B9D0B20E00AE010E001C044
:10234000232F31E0320FE22FF0E0EC55FE4FB801C1
:102350000E945421805D8083862F972F18161906BE
:102360007CF3DD2344F4E32FF0E0EC55FE4F8DE2E7
:10237000808332E0320FE32FF0E0EC55FE4F108205
:1023800084EA91E00E94171184EA91E0DF91CF91F5
:102390001F910F910895CF93AC019C01ADECBCEC63
:1023A0000E94AF21969587959695879596958795E6
:1023B0009C01220F331F880F991F880F991F880FC8
:1023C000991F820F931F9A01281B390BC901805D49
:1023D0008093A4019A010E94AF21AC0156954795C4
:1023E00056954795569547954115510589F1E1E078
:1023F000C1E0CE0FF0E0EC55FE4F9A01ADECBCEC25
:102400000E94AF2196958795969587959695879585
:102410009C01220F331F880F991F880F991F880F67
:10242000991F820F931F9A01281B390BC901805DE8
:1024300080839A010E94AF21AC015695479556952D
:10244000479556954795EC2F4115510589F601C0E2
:10245000C1E0EC2FF0E0EC55FE4F108284EA91E0F1
:102460000E94171184EA91E0CF910895982F9295D8
:102470009F70990F292F220F220F920F8F70890FB3
:102480000895AC019C01ADECBCEC0E94AF21969587
:1024900087959695879596958795BC01660F771FCA
:1024A0009C01220F331F220F331F220F331F260FD1
:1024B000371F421B530B342F20E1829F300D112414
:1024C000832F0895CF92DF92EF92FF92CF93DF9305
:1024D000CDB7DEB728970FB6F894DEBF0FBECDBFDD
:1024E0006B017C0169837A838B839C832D833E837C
:1024F0004F835887C216D306E406F5063CF4BE01A6
:102500006B5F7F4FCE0101960E94F40E8D819E81FC
:10251000AF81B885892B8A2B8B2B71F469817A81E5
:102520008B819C8120E030E0A9010E948A21611505
:1025300071058105910529F46D817E818F819885D2
:1025400005C06D837E838F839887F6CF28960FB65C
:10255000F894DEBF0FBECDBFDF91CF91FF90EF901B
:10256000DF90CF90089590E002C0959587956A9589
:10257000E2F7817008959C012150310981E090E0DB
:1025800002C0880F991F2A95E2F70097B1F0E4EA9C
:10259000F1E020E030E0B0E3A1E3AB0148235923B0
:1025A000452B11F0A08301C0B083969587952F5FCE
:1025B0003F4F3196009789F702C020E030E0F901E3
:1025C000EC55FE4F108284EA91E00895AB01BC0106
:1025D0001092A401411551056105710509F442C02D
:1025E00021E0EFEFE20FDB01CA018F709927AA27E4
:1025F000B078BB2354F40197A109B109806F9F6F94
:10260000AF6FBF6F0196A11DB11D8A309105A10565
:10261000B10534F4F0E0EC55FE4F805D808305C0D9
:10262000F0E0EC55FE4F895C8083E22FF0E0EC5542
:10263000FE4F1082DB01CA0177231CF40F96A11D07
:10264000B11DAC01BD01689413F875956795579558
:1026500047951694D1F72F5F411551056105710516
:1026600009F0BFCF84EA91E00E94171184EA91E05B
:1026700008959827892798270895FB012081222310
:1026800039F0A82FB92F31962D9321912111FCCF2C
:102690000895FF920F931F93CF93DF938C01EB016B
:1026A000F42E642F70E080E090E00E94871E9B0172
:1026B000AC0160E070E080E090E40E94AB1F20E09D
:1026C00030E040E85FE30E946D1D0E94581E9E01AD
:1026D0002623372360237123CB01822793272823C6
:1026E000392302C0220F331FFA94E2F7822B932B77
:1026F000DF91CF911F910F91FF900895CF93DF93BA
:10270000CDB7DEB79E012B5F3F4FF901419151914B
:102710009F016FE570E084EA91E00E94D92199233E
:102720001CF084EA91E002C080E090E0DF91CF915C
:102730000895FC01109203028CEE90E19183808356
:1027400087E191E19383828389E493E19583848394
:1027500084EF9EE09783868385E19FE09187808761
:1027600083E29FE09387828785E49FE09587848753
:1027700081E991E1978786878BEC91E1918B808B42
:1027800085E391E1938B828B8BEF90E1958B848B2A
:102790008BEE9FE0978B868B80EF9FE0918F808FF1
:1027A0008FEF9FE0938F828F83E290E1958F848FEC
:1027B00085E290E1978F868F8FE290E191A380A3CD
:1027C0008CE390E193A382A388E490E195A384A392
:1027D00080E690E197A386A383E790E191A780A785
:1027E0008EE790E193A782A78BEA90E195A784A753
:1027F00086E392E197A786A781E492E191AB80AB53
:1028000082E692E193AB82AB83EB92E195AB84AB32
:102810008BEB92E197AB86AB8FE794E191AF80AF02
:1028200086EE92E193AF82AF89E393E195AF84AFF7
:102830008EE793E197AF86AFDF01A05CBF4F8DE3DA
:1028400093E18D939C93CF0108958F929F92AF92C5
:10285000BF92EF92FF920F931F93CF93DF938A0162
:10286000D22F2AE030E040E050E00E948A21605DF3
:10287000F8016083622F732F842F952F1616170689
:1028800018061906FCF421E00F2EFAE08F2E912C89
:10289000A12CB12CF02DC1E0C20F7801E20EF11C89
:1028A000A50194010E948A21605DF7016083622F77
:1028B000732F842F952F2C2F16161706180619061E
:1028C00054F301C0C1E0CD1748F480E3F801EC0FE8
:1028D000F11D8083CF5FDC13F9CF01C0DC2FF8013D
:1028E000ED0FF11D10828D2FDF91CF911F910F9170
:1028F000FF90EF90BF90AF909F908F9008958F9230
:102900009F92AF92BF92CF92DF92EF92FF920F937E
:102910001F93CF93DF936B017C01EA01022F20E02C
:1029200030E0A9010E94DA1D88230CF06CC0F7FA90
:10293000F094F7F8F094C701B6010E94581E4B01BD
:102940005C010E94871E9B01AC01C701B6010E9479
:102950006D1D6B017C01B401990C880B990B21E072
:10296000AE010E94251411E0180FFE01E80FF11DC1
:102970008DE280835E01A10EB11CF5011082CE01B3
:102980000E9417118FEF800F863018F58EE2F50147
:1029900080831F5F5E01A10EB11C602F70E080E09C
:1029A00090E00E94871E9B01AC0160E070E080E235
:1029B00091E40E94AB1FA70196010E943E1F0E9456
:1029C000511E202FA5010E942514C5010E94171138
:1029D0003AC08EE2F50180831F5FCE01810F911D09
:1029E0008C0120E030E048EC52E4C701B6010E94BF
:1029F0003E1F0E94511E22E0A8010E942514C8011A
:102A00000E94171120C0C701B6010E94581E4B0139
:102A10005C010E94871E9B01AC01C701B6010E94A8
:102A20006D1D6B017C01B401990C880B990B21E0A1
:102A3000AE010E94251411E0180FFE01E80FF11DF0
:102A400080E2808397CFCE01DF91CF911F910F91CC
:102A5000FF90EF90DF90CF90BF90AF909F908F90BE
:102A60000895E091A003F091A10380818B7F808382
:102A7000E091A003F091A103808184608083089598
:102A80000F931F93CF93C82F8B01E091A003F09178
:102A9000A10380818D7F8083E091A903F091AA0337
:102AA00080818F608083672B41F0E091A003F091DB
:102AB000A10380818160808307C0E091A003F09131
:102AC000A10380818E7F808380E090E00E94311599
:102AD000CC2344F4E091AB03F091AC038081886097
:102AE000808307C0E091AB03F091AC038081877FC6
:102AF0008083C6FF08C0E091AB03F091AC038081F6
:102B00008460808307C0E091AB03F091AC038081C7
:102B10008B7F8083C5FF08C0E091AB03F091AC03CD
:102B200080818260808307C0E091AB03F091AC03A9
:102B300080818D7F8083C4FF08C0E091AB03F0915A
:102B4000AC0380818160808307C0E091AB03F0918A
:102B5000AC0380818E7F8083012B41F0E091A00344
:102B6000F091A10380818160808307C0E091A00380
:102B7000F091A10380818E7F808380E090E00E94AD
:102B80003115C3FF08C0E091AB03F091AC03808125
:102B90008860808307C0E091AB03F091AC03808133
:102BA000877F8083C2FF08C0E091AB03F091AC0344
:102BB00080818460808307C0E091AB03F091AC0317
:102BC00080818B7F8083C1FF08C0E091AB03F091CF
:102BD000AC0380818260808307C0E091AB03F091F9
:102BE000AC0380818D7F8083C0FF08C0E091AB0380
:102BF000F091AC0380818160808307C0E091AB03DA
:102C0000F091AC0380818E7F8083E091A003F091EE
:102C1000A10380818B7F8083CF911F910F910895B5
:102C200060E070E081E00E94401583EF9BE0019737
:102C3000F1F700C0000008950F931F93CF938C010C
:102C4000E091A903F091AA038081807F8083E091C5
:102C5000AB03F091AC0380818F608083E091A0038F
:102C6000F091A1038081826080830115110541F0FC
:102C7000E091A003F091A10380818160808307C06F
:102C8000E091A003F091A10380818E7F808380E09A
:102C900090E00E943115E091A403F091A50380819A
:102CA00083FD02C0C0E001C0C0E8808182FF02C095
:102CB000C06401C0CF7B808181FF02C0C06201C0BF
:102CC000CF7D808180FF02C0C06101C0CF7E012B1B
:102CD00041F0E091A003F091A103808181608083A5
:102CE00007C0E091A003F091A10380818E7F8083D3
:102CF00080E090E00E943115E091A403F091A503DB
:102D0000808183FF03C08C2F886002C08C2F877F57
:102D1000908192FF02C0846001C08B7F908191FFFF
:102D200002C0826001C08D7F908190FF02C08160EF
:102D300001C08E7FE091A003F091A10390819B7F61
:102D40009083CF911F910F91089580E090E00E94B1
:102D50001C16882354F480E090E00E941C168823FF
:102D600024F480E090E00E941C16089561E070E079
:102D70000E9440150E94A5160895CF93DF93EC01A1
:102D80008881882331F021960E94B616899181119D
:102D9000FBCFDF91CF9108950F931F93CF93DF93D4
:102DA000FC01D62F8081882351F08F010F5F1F4FC8
:102DB000611109C017C0CF5FDC1730F401C0C0E05B
:102DC000CD1750F00FC0C1E00E94B616F8018191F6
:102DD0008F018111F0CFF4CF80E20E94B616CF5F51
:102DE000CD17D0F3DF91CF911F910F910895CF931D
:102DF000C82F882329F080E20E94B616C150D9F767
:102E0000CF910895262F8130910581F030F08230E6
:102E10009105A9F00397E1F0089560E070E080E883
:102E2000820F0E9440150E94A516089560E070E090
:102E300080EC820F0E9440150E94A516089560E064
:102E400070E084E9820F0E9440150E94A516089543
:102E500060E070E084ED820F0E9440150E94A5168C
:102E60000895E091A203F091A3038081876080839D
:102E7000E091A003F091A1038081886080832FEF0F
:102E800089EF90E0215080409040E1F700C00000C1
:102E900060E070E088E30E94401528E62A95F1F78B
:102EA00060E070E088E30E94401588E68A95F1F7BB
:102EB00060E070E088E30E94401598E69A95F1F78B
:102EC00060E070E088E20E94401522E62A95F1F762
:102ED00000C060E070E088E20E94401582E68A95BA
:102EE000F1F700C060E070E088E20E9440150E94A7
:102EF000A51660E070E088E20E9440150E94A516C9
:102F000060E070E08CE00E9440150E94A51660E031
:102F100070E08CE00E9440150E94A51660E070E011
:102F200081E00E9440150E94A51660E070E081E0FB
:102F30000E9440150E94A51660E070E086E00E94A5
:102F400040150E94A51660E070E086E00E944015E2
:102F50000E94A51660E070E080E090E00E940217F9
:102F60000895CF92DF92EF92FF920F931F93CF932A
:102F7000DF93EC017093A3036093A2035093A80323
:102F80004093A7033093A1032093A0031093AA03B7
:102F90000093A903F092A503E092A403D092AC039E
:102FA000C092AB03FB011082E091A003F091A1035A
:102FB0008FEF8083E091A903F091AA031082E09142
:102FC000AB03F091AC038083E091A703F091A803D9
:102FD000808188708093A6030E94311780E495E178
:102FE000998388838CE196E19B838A8385EA96E1C5
:102FF0009D838C8386EB96E19F838E8386E398E1A5
:10300000998788878DEB96E19B878A878CEC96E180
:103010009D878C8787EF96E19F878E8780E196E179
:10302000998B888B82E097E19B8B8A8B84E298E175
:103030009D8B8C8BCE01DF91CF911F910F91FF90D3
:10304000EF90DF90CF900895CF93E091A703F09198
:10305000A803C081C8708091A6038C278C2311F02F
:103060000E943117C093A603CF910895CF9381E0BA
:1030700090E00E941C16C82F0E94A5168C2FCF919D
:103080000895E6ECF4E0A289B38911961C92A28916
:10309000B38980EF12968C93A489B58911961C92FE
:1030A000A489B58912968C93A689B78911968C91BB
:1030B00011978B7F11968C930688F789E02D82817A
:1030C000846082830895CF93DF93CDB7DEB7C25873
:1030D000D1090FB6F894DEBF0FBECDBF0E944118D4
:1030E000E6EBF4E081E394E0918380838AE894E066
:1030F0009187808785E394E0938382838EE894E0D0
:103100009387828789E394E09583848382E994E0BE
:10311000958784878DE394E09783868386E994E09E
:1031200097878687E1E3F4E023E434E080E281934B
:10313000E217F307E1F7EAE8F4E02CE934E080E293
:103140008193E217F307E1F782E180935904A1E349
:10315000B4E08AE050968C935097EAE8F4E0808BD4
:1031600051961C92118ACE0101960E9456048EE35C
:10317000FE013196A6ECB4E001900D928A95E1F73C
:10318000CE01CF960E94991382E4FE01FF96A7EB31
:10319000B3E001900D928A95E1F70F2EF8E2CF2E61
:1031A000D12CF02D0F2EF6E2EF2EF12CF02D07E2B0
:1031B00010E025E230E043E250E064E270E0CE014E
:1031C00001960E94B11786E1FE013196AAE1B4E0B2
:1031D00001900D928A95E1F707E025E044E06BE26B
:1031E00070E08AE290E00E9459010F2EF3E4EF2E86
:1031F000F4E0FF2EF02DD7012C9311963C931197FC
:1032000012964C93129713965C93139714966C93A3
:10321000149715967C93159716968C931697179678
:103220009C930F2EF6ECCF2EF4E0DF2EF02DD6017E
:103230009C96ED91FC919D9700E010E021E030E03C
:1032400048E050E06CE070E0CE010196099586E11F
:10325000FE013196ACE9B4E001900D928A95E1F758
:10326000D6015C96ED91FC915D9742E064E0CE0161
:10327000019609958CE0FE013196AEE6B4E001902E
:103280000D928A95E1F7CE0101960E94EA0E8EE03A
:10329000FE013196ABE4B4E001900D928A95E1F71E
:1032A000CE0101960E94EA0E8EE0FE013196A4E165
:1032B000B5E001900D928A95E1F70EE614E0D80191
:1032C0001896ED91FC91199780E094E00995D8014A
:1032D0001496ED91FC9115978FEF9AE10995109254
:1032E0006A0410926B0410926C0410926D0481E0D9
:1032F00080933004D7011496ED91FC9115978FEFD0
:10330000099506EB14E00F2EF7EFEF2EF3E0FF2EFA
:10331000F02DD701ED91FC9160E071E0D801189695
:103320008D919C9119970995D701ED91FC9160E0E1
:1033300071E0D8011A968D919C911B970995D70140
:10334000ED91FC9160E071E0D8011C968D919C910B
:103350001D970995D701ED91FC9160E071E0D801CE
:103360001E968D919C911F97099501E080E01FEFBB
:103370000F2EFCE94F2EF4E05F2EF02D312C0F2E96
:10338000F6EBEF2EF4E0FF2EF02D0F2EFBE46F2E68
:10339000F4E07F2EF02D0F2EF4E18F2EF5E09F2E1E
:1033A000F02D0F2EFAE1CF2EF4E0DF2EF02D2224A7
:1033B00023940F2EF6ECAF2EF4E0BF2EF02D01C0BB
:1033C000832D81114FC0D6015496ED91FC915597F4
:1033D0000995D5015496ED91FC9155976081607FD8
:1033E0005296ED91FC915397808182958F70682B56
:1033F000D3011C96ED91FC911D97C3010995F50130
:10340000A689B789F401248535856C91C401F90139
:103410000995D2011C96ED91FC911D970995909309
:10342000050280930402BC018AE594E00E94D22147
:10343000D2011A96ED91FC911B9709958E3241F4B9
:10344000D2011E96ED91FC911F970995822DB9CF5F
:10345000609104027091050284E095E00E94D221FF
:10346000822DAFCF813009F0ACCF0230E9F118F4F2
:10347000013041F0D9C0033009F468C0043009F4C8
:1034800090C0D2C0F401848182FD02E0D601529640
:10349000ED91FC91539760E070E080E090E0099539
:1034A000D6011696ED91FC9117978AE30995D601FE
:1034B0001C96ED91FC911D9760E184E095E00995E3
:1034C000D6015296ED91FC91539760E070E081E057
:1034D00090E00995D6011C96ED91FC911D9760E155
:1034E0008AE894E00995A0C0F401848182FD03E09C
:1034F000D6015296ED91FC91539760E070E080E028
:1035000090E00995D6011E96ED91FC911F9784E0FD
:103510000995D6011C96ED91FC911D9767E084E01A
:1035200091E00995D6015296ED91FC91539760E098
:1035300070E081E090E00995D6011C96ED91FC9138
:103540001D9760E18AE894E009956EC0F4018481DA
:1035500082FD04E0D6015296ED91FC91539760E014
:1035600070E080E090E00995D6011C96ED91FC9109
:103570001D9760E18CE091E00995D6015296ED919E
:10358000FC91539760E070E081E090E00995D601EE
:103590001C96ED91FC911D9760E18CE091E00995FE
:1035A00043C0F401848182FD022DD6015296ED9133
:1035B000FC91539760E070E080E090E00995D601BF
:1035C0001C96ED91FC911D9760E18CE091E00995CE
:1035D000D6015296ED91FC91539760E070E081E046
:1035E00090E00995F6010484F585E02DCF57DF4F73
:1035F000F983E883C158D0406091B2047091B3045C
:103600008091B4049091B504E091EF03F091F00340
:1036100022E04AE754E0099560E1CF57DF4FE881A7
:10362000F981C158D0400995E0914704F0914804D0
:10363000812F09956BE171E08AE594E00E94C92130
:10364000892B29F0D30114968C9180FF1DC010FFA7
:103650000EC01E7FA7EFB3E0ED91FC9162E271E036
:10366000D70118968D919C91199709950DC01160FD
:10367000A7EFB3E0ED91FC9160E071E0D7011896FF
:103680008D919C911997099566E271E08AE594E025
:103690000E94C921892B69F41160A7EFB3E0ED9175
:1036A000FC9160E071E0D70118968D919C9119977B
:1036B000099561E371E08AE594E00E94C921892BB4
:1036C00021F0F301848181FF1DC011FF0EC01D7F19
:1036D000A7EFB3E0ED91FC9162E271E0D7011A9699
:1036E0008D919C911B9709950DC01260A7EFB3E0D7
:1036F000ED91FC9160E071E0D7011A968D919C915B
:103700001B97099568E371E08AE594E00E94C9215E
:10371000892B69F41260A7EFB3E0ED91FC9160E0B2
:1037200071E0D7011A968D919C911B97099563E4DE
:1037300071E08AE594E00E94C921892B21F0F30110
:10374000848184FF1DC012FF0EC01B7FA7EFB3E072
:10375000ED91FC9162E271E0D7011C968D919C91F4
:103760001D9709950DC01460A7EFB3E0ED91FC9192
:1037700060E071E0D7011C968D919C911D97099591
:103780006AE471E08AE594E00E94C921892B69F41A
:103790001460A7EFB3E0ED91FC9160E071E0D70118
:1037A0001C968D919C911D97099565E571E08AE5C0
:1037B00094E00E94C921892B21F0F301848185FFC7
:1037C0001DC013FF0EC0177FA7EFB3E0ED91FC9172
:1037D00062E271E0D7011E968D919C911F97099529
:1037E0000DC01860A7EFB3E0ED91FC9160E071E0CF
:1037F000D7011E968D919C911F9709956CE571E0FC
:103800008AE594E00E94C921892B69F41860A7EF2A
:10381000B3E0ED91FC9160E071E0D7011E968D91CF
:103820009C911F97099567E671E08AE594E00E94F4
:10383000C921892B89F5A7EFB3E0ED91FC9160E0F8
:1038400071E0D70118968D919C9119970995A7EF72
:10385000B3E0ED91FC9160E071E0D7011A968D9193
:103860009C911B970995A7EFB3E0ED91FC9160E067
:1038700071E0D7011C968D919C911D970995A7EF3A
:10388000B3E0ED91FC9160E071E0D7011E968D915F
:103890009C911F9709951FEF60E771E08AE594E01E
:1038A0000E94C921892B09F08BCDD2015496ED914C
:1038B000FC9155978AE894E00995832D82CD4F922B
:1038C0005F926F927F92AF92BF92CF92DF92EF9210
:1038D000FF920F931F93CF93DF93EC01142F052FCB
:1038E000F62EE72ED880C980BA80AB8020E030E089
:1038F000A901612F702F8F2D9E2D0E94DA1D882324
:10390000A4F4212F302F4F2D5E2D6D2D7C2D8B2D6E
:103910009A2D0E943E1F90582D2D3C2D4B2D5A2D37
:103920000E946D1D2B013C0112C0212F302F4F2D05
:103930005E2D6D2D7C2D8B2D9A2D0E943E1F2D2DE1
:103940003C2D4B2D5A2D0E946D1D2B013C0120E07A
:1039500030E0A901C301B2010E94DA1D811104C047
:10396000D12EC02EBF2CAE2CA30192016D2D7C2D2B
:103970008B2D9A2D0E946E1D688379838A839B8389
:10398000DF91CF911F910F91FF90EF90DF90CF903B
:10399000BF90AF907F906F905F904F9008951F926F
:1039A0000F920FB60F9211242F933F934F935F9373
:1039B0006F937F938F939F93AF93BF93EF93FF93F7
:1039C00048E55AEC62EA7FE38AE694E00E945F1CD5
:1039D00080913004813019F08230E1F16DC020E037
:1039E00030E245E854E46091B2047091B3048091F0
:1039F000B4049091B5040E94391F181664F4109213
:103A00006A0410926B0410926C0410926D0482E0B0
:103A10008093300451C020916A0430916B0440912E
:103A20006C0450916D0466E67EE585E894E40E949E
:103A30006D1D9B01AC0166E67EE585E894E40E947D
:103A40006D1D6093B2047093B3048093B40490939B
:103A5000B50432C025EE30ED42EA5FE36091B20476
:103A60007091B3048091B4049091B5040E94DA1D62
:103A7000882364F410926A0410926B0410926C0410
:103A800010926D0481E08093300416C020916A0486
:103A900030916B0440916C0450916D0466E67EE5B4
:103AA00085E894E40E946D1D6093B2047093B304A2
:103AB0008093B4049093B504FF91EF91BF91AF91BF
:103AC0009F918F917F916F915F914F913F912F9136
:103AD0000F900FBE0F901F9018955058BB27AA2724
:103AE0000E94851D0C94FF1E0E94F11E38F00E945A
:103AF000F81E20F039F49F3F19F426F40C94EE1EC2
:103B00000EF4E095E7FB0C94E81EE92F0E94101FCD
:103B100058F3BA17620773078407950720F079F402
:103B2000A6F50C94321F0EF4E0950B2EBA2FA02DA3
:103B30000B01B90190010C01CA01A0011124FF275A
:103B4000591B99F0593F50F4503E68F11A16F04055
:103B5000A22F232F342F4427585FF3CF4695379554
:103B60002795A795F0405395C9F77EF41F16BA0B19
:103B7000620B730B840BBAF09150A1F0FF0FBB1FC7
:103B8000661F771F881FC2F70EC0BA0F621F731F10
:103B9000841F48F4879577956795B795F7959E3F6D
:103BA00008F0B0CF9395880F08F09927EE0F9795FE
:103BB000879508950E94C41E08F481E008950E942C
:103BC000F31D0C94FF1E0E94F81E58F00E94F11E77
:103BD00040F029F45F3F29F00C94E81E51110C9439
:103BE000331F0C94EE1E0E94101F68F39923B1F34B
:103BF000552391F3951B550BBB27AA276217730713
:103C0000840738F09F5F5F4F220F331F441FAA1FA6
:103C1000A9F335D00E2E3AF0E0E832D09150504062
:103C2000E695001CCAF72BD0FE2F29D0660F771F10
:103C3000881FBB1F261737074807AB07B0E809F0F6
:103C4000BB0B802DBF01FF2793585F4F3AF09E3F7B
:103C5000510578F00C94E81E0C94331F5F3FE4F399
:103C6000983ED4F3869577956795B795F7959F5FBE
:103C7000C9F7880F911D9695879597F90895E1E00A
:103C8000660F771F881FBB1F621773078407BA0769
:103C900020F0621B730B840BBA0BEE1F88F7E095C4
:103CA00008950E94581E6894B1110C94331F089512
:103CB0000E94181F88F09F5798F0B92F9927B75185
:103CC000B0F0E1F0660F771F881F991F1AF0BA95C0
:103CD000C9F714C0B13091F00E94321FB1E00895CD
:103CE0000C94321F672F782F8827B85F39F0B93FBF
:103CF000CCF3869577956795B395D9F73EF4909573
:103D00008095709561957F4F8F4F9F4F0895E894F0
:103D100009C097FB3EF490958095709561957F4F13
:103D20008F4F9F4F9923A9F0F92F96E9BB279395C1
:103D3000F695879577956795B795F111F8CFFAF4D1
:103D4000BB0F11F460FF1BC06F5F7F4F8F4F9F4F02
:103D500016C0882311F096E911C0772321F09EE860
:103D6000872F762F05C0662371F096E8862F70E0C6
:103D700060E02AF09A95660F771F881FDAF7880FA0
:103D80009695879597F90895990F0008550FAA0BF6
:103D9000E0E8FEEF16161706E807F907C0F012165E
:103DA0001306E407F50798F0621B730B840B950B61
:103DB00039F40A2661F0232B242B252B21F40895B6
:103DC0000A2609F4A140A6958FEF811D811D089553
:103DD00097F99F6780E870E060E008959FEF80ECBE
:103DE000089500240A941616170618060906089561
:103DF00000240A9412161306140605060895092EC7
:103E00000394000C11F4882352F0BB0F40F4BF2B35
:103E100011F460FF04C06F5F7F4F8F4F9F4F089575
:103E200057FD9058440F551F59F05F3F71F047956B
:103E3000880F97FB991F61F09F3F79F08795089550
:103E4000121613061406551FF2CF4695F1DF08C06F
:103E5000161617061806991FF1CF8695710561058C
:103E600008940895E894BB2766277727CB0197F934
:103E700008950E94C41E08F48FEF08950E94511FF8
:103E80000C94FF1E0E94F11E38F00E94F81E20F0D4
:103E9000952311F00C94E81E0C94EE1E11240C9442
:103EA000331F0E94101F70F3959FC1F3950F50E0D0
:103EB000551F629FF001729FBB27F00DB11D639FDC
:103EC000AA27F00DB11DAA1F649F6627B00DA11D82
:103ED000661F829F2227B00DA11D621F739FB00D28
:103EE000A11D621F839FA00D611D221F749F332798
:103EF000A00D611D231F849F600D211D822F762F31
:103F00006A2F11249F5750409AF0F1F088234AF00D
:103F1000EE0FFF1FBB1F661F771F881F9150504079
:103F2000A9F79E3F510580F00C94E81E0C94331FB6
:103F30005F3FE4F3983ED4F3869577956795B79500
:103F4000F795E7959F5FC1F7FE2B880F911D96951A
:103F5000879597F90895FA01EE0FFF1F3096210516
:103F60003105A1F16115710561F48038BFE39B074C
:103F700049F168949038810561F08038BFEF9B0764
:103F800041F099234AF5FF3FE1053105210519F17B
:103F9000E8940894E795D901AA2329F4AB2FBE2F02
:103FA000F85FD0F310C0FF5F70F4A695E0F7F73923
:103FB00050F019F0FF3A38F49F779F930DD00F908F
:103FC00007FC9058089546F00C94EE1E60E070E0F7
:103FD00080E89FE308954FE79F775F934F933F9368
:103FE0002F930E94A6202F913F914F915F910E94A5
:103FF0003E1F0C94032029F416F00C94E81E0C9438
:10400000321F0C94EE1E0E94181FA8F39638A0F7DA
:1040100007F80F92E8942BE33AEA48EB5FE70E9437
:10402000541F0F920F920F924DB75EB70F920E94DE
:10403000EE20EAEAF0E00E9435204F915F91EF9187
:10404000FF91E595EE1FFF1F49F0FE57E0684427FA
:10405000EE0F441FFA95E1F74195550B0E94682039
:104060000F9007FE0C945C200895DF93CF931F936D
:104070000F93FF92EF92DF927B018C01689406C050
:10408000DA2EEF010E94511FFE01E894A5912591BF
:10409000359145915591A6F3EF010E94851DFE01D2
:1040A0009701A801DA9469F7DF90EF90FF900F91E4
:1040B0001F91CF91DF9108959B01AC0160E070E00A
:1040C00080E89FE30C94DF1D0C94E81E0C942221E1
:1040D0000E94181FD8F39923C9F3940F511DA3F31D
:1040E0009150504094F059F0882332F0660F771FBA
:1040F000881F91505040C1F79E3F51052CF7880F03
:10410000911D9695879597F908955F3FACF0983E7D
:104110009CF0BB27869577956795B79508F4B160B5
:104120009395C1F7BB0F58F711F460FFE8CF6F5FAD
:104130007F4F8F4F9F4FE3CF0C94331F16F00C949B
:1041400022210C94EE1E68940C94E81E0E94181F05
:10415000A8F39923C1F3AEF3DF93CF931F930F938B
:10416000FF92C92FDD2788232AF02197660F771F3A
:10417000881FDAF720E030E040E85FEB9FE3883902
:1041800020F0803E38F021968F770E946E1DE2ED80
:10419000F0E004C00E946E1DEFEFF0E00E943520B9
:1041A0008B01BE01EC01FB2E6F5771097595771FCE
:1041B000880B990B0E94891E28E132E741E35FE3F7
:1041C0000E94511FAF2D9801AE01FF900F911F91DA
:1041D000CF91DF910E94851D0C94FF1EFA01DC0136
:1041E000AA0FBB1F9B01AC01BF5728F4222733271E
:1041F0004427507820C0B75190F4AB2F0024469547
:1042000037952795011CA395D2F3002071F0220F5A
:10421000331F441FB395DAF30ED00C946D1D61303B
:104220007105A0E88A07B94630F49B01AC01662706
:10423000772788279078309621F020833183428336
:10424000538308959F3F31F0915020F487957795DF
:104250006795B795880F911D9695879597F908955D
:10426000DB018F939F930E94BE21BF91AF91A29FCC
:10427000800D911DA39F900DB29F900D1124089564
:10428000AA1BBB1B51E107C0AA1FBB1FA617B7077C
:1042900010F0A61BB70B881F991F5A95A9F7809598
:1042A0009095BC01CD01089597FB072E16F400945C
:1042B00007D077FD09D00E94402107FC05D03EF4CD
:1042C000909581959F4F0895709561957F4F0895C2
:1042D000A1E21A2EAA1BBB1BFD010DC0AA1FBB1F0A
:1042E000EE1FFF1FA217B307E407F50720F0A21B7C
:1042F000B30BE40BF50B661F771F881F991F1A94E9
:1043000069F760957095809590959B01AC01BD0112
:10431000CF010895052E97FB1EF400940E94A12161
:1043200057FD07D00E94682107FC03D04EF40C947F
:10433000A12150954095309521953F4F4F4F5F4FAC
:10434000089590958095709561957F4F8F4F9F4F01
:104350000895EE0FFF1F0590F491E02D0994A29FA0
:10436000B001B39FC001A39F700D811D1124911D49
:10437000B29F700D811D1124911D08950E94AF21DF
:10438000A59F900DB49F900DA49F800D911D1124A9
:104390000895FB01DC018D91019080190110D9F382
:1043A000990B0895FB01DC0101900D920020E1F7CB
:1043B0000895AEE0B0E0EFEDF1E20C941B258C0126
:1043C000FA0186E08C831A83098377FF02C060E0DC
:1043D00070E8CB0101979E838D83A901BF01CE01B7
:1043E00001960E9405224D815E8157FD0AC02F81F2
:1043F0003885421753070CF49A01F801E20FF31FB6
:1044000010822E96E4E00C943725ABE0B0E0EBE0B0
:10441000F2E20C940D256C017B018A01FC011782EC
:104420001682838181FFCCC1CE0101963C01F60149
:104430009381F70193FD859193FF81917F018823FB
:1044400009F4BAC1853239F493FD859193FF8191C6
:104450007F01853229F4B60190E00E94FC23E7CF6A
:10446000912C212C312CFFE1F315D8F08B3279F00F
:1044700038F4803279F08332A1F4232D20611DC0FD
:104480008D3261F0803369F4232D216016C0832DB5
:104490008260382EE32DE4603E2E2AC0F32DF860B2
:1044A0001DC037FC2DC020ED280F2A3040F08E3281
:1044B000B9F436FC81C1232D2064322E19C036FE9A
:1044C00006C08AE0989E200D1124922E11C0EAE0C9
:1044D0002E9E200D1124222EF32DF0623F2E08C0B7
:1044E0008C3621F4832D8068382E02C0883641F442
:1044F000F70193FD859193FF81917F018111B3CFE6
:10450000982F9F7D9554933028F40C5F1F4F9FE3A5
:1045100099830DC0833631F0833771F0833509F00C
:1045200059C021C0F801808189830E5F1F4F882404
:104530008394912C530113C02801F2E04F0E511CBB
:10454000F801A080B18036FE03C0692D70E002C082
:104550006FEF7FEFC5010E94F1234C018201F32D23
:10456000FF773F2E16C0280122E0420E511CF801B1
:10457000A080B18036FE03C0692D70E002C06FEFED
:104580007FEFC5010E94E6234C01F32DF0683F2E1A
:10459000820133FC1BC0822D90E088169906B0F48E
:1045A000B60180E290E00E94FC232A94F4CFF5014A
:1045B00037FC859137FE81915F01B60190E00E9442
:1045C000FC2321102A9421E0821A9108811491047D
:1045D00071F7E8C0843611F0893641F5F80137FEED
:1045E00007C060817181828193810C5F1F4F08C079
:1045F00060817181072E000C880B990B0E5F1F4F95
:10460000F32DFF763F2E97FF09C09095809570950A
:1046100061957F4F8F4F9F4FF0683F2E2AE030E02B
:10462000A3010E943824882E861845C0853731F4AE
:10463000232D2F7EB22E2AE030E025C0932D997FC6
:10464000B92E8F36C1F018F4883579F0B5C08037AF
:1046500019F0883721F0B0C0E92FE061BE2EB4FE1A
:104660000DC0FB2DF460BF2E09C034FE0AC0292FF7
:104670002660B22E06C028E030E005C020E130E020
:1046800002C020E132E0F801B7FE07C0608171810D
:10469000828193810C5F1F4F06C06081718180E031
:1046A00090E00E5F1F4FA3010E943824882E8618C9
:1046B000FB2DFF773F2E36FE0DC0232D2E7FA22E21
:1046C000891458F434FE0BC032FC09C0832D8E7E51
:1046D000A82E05C0B82CA32C03C0B82C01C0B92C3F
:1046E000A4FE0FC0FE01E80DF11D8081803321F48E
:1046F0009A2D997EA92E09C0A2FE06C0B394B39448
:1047000004C08A2D867809F0B394A3FC11C0A0FEE2
:1047100006C0B21488F4280C922C9B180EC0B21458
:1047200060F4B60180E290E00E94FC23B394F7CFDE
:10473000B21418F42B1802C0982C212CA4FE10C01F
:10474000B60180E390E00E94FC23A2FE17C0A1FC0A
:1047500003C088E790E002C088E590E0B6010CC095
:104760008A2D867859F0A1FE02C08BE201C080E25A
:10477000A7FC8DE2B60190E00E94FC23891438F476
:10478000B60180E390E00E94FC239A94F7CF8A94CC
:10479000F301E80DF11D8081B60190E00E94FC2339
:1047A0008110F5CF222009F442CEB60180E290E0DC
:1047B0000E94FC232A94F6CFF6018681978102C0DD
:1047C0008FEF9FEF2B96E2E10C942925FC010590D9
:1047D000615070400110D8F7809590958E0F9F1F03
:1047E0000895FC016150704001900110D8F7809548
:1047F00090958E0F9F1F08950F931F93CF93DF9374
:10480000FB01238121FD03C08FEF9FEF2CC022FF0E
:1048100016C046815781248135814217530744F4DD
:10482000A081B1819D012F5F3F4F318320838C9305
:10483000268137812F5F3F4F3783268314C08B013A
:10484000EC01FB010084F185E02D0995892BE1F64F
:10485000D80116968D919C911797019617969C9367
:104860008E931697CE01DF91CF911F910F910895EE
:10487000FA01AA27283051F1203181F1E8946F9391
:104880006E7F6E5F7F4F8F4F9F4FAF4FB1E03ED037
:10489000B4E03CD0670F781F891F9A1FA11D680FD5
:1048A000791F8A1F911DA11D6A0F711D811D911D08
:1048B000A11D20D009F468943F912AE0269F11247D
:1048C0003019305D3193DEF6CF010895462F4770E1
:1048D000405D4193B3E00FD0C9F7F6CF462F4F703C
:1048E000405D4A3318F0495D31FD4052419302D09A
:1048F000A9F7EACFB4E0A695979587957795679540
:10490000BA95C9F700976105710508959B01AC013F
:104910000A2E06945795479537952795BA95C9F766
:10492000620F731F841F951FA01D0895DC01CB012A
:10493000FC01F999FECF06C0F2BDE1BDF89A3196AF
:1049400000B40D9241505040B8F70895F999FECF48
:1049500092BD81BDF89A992780B50895A8E1B0E08D
:1049600042E050E00C949824DC01A40FB51F4150A4
:10497000504048F0CB01840F951F2E910E94C52412
:1049800041505040D0F70895262FF999FECF92BD9F
:1049900081BDF89A019700B4021639F01FBA20BD04
:1049A0000FB6F894FA9AF99A0FBE08950396272F36
:1049B0000E94C5240E94C424252F0E94C524242FB0
:1049C0000C94C5240196272F0E94C5240C94C4245E
:1049D000DC01CB0103C02D910E94F32441505040D3
:1049E000D0F70895262FF999FECF1FBA92BD81BD49
:1049F00020BD0FB6F894FA9AF99A0FBE0196089561
:104A0000242F0E94F324252F0E94F3240C940825C0
:104A10000E94F224272F0C94F3242F923F924F925E
:104A20005F926F927F928F929F92AF92BF92CF923E
:104A3000DF92EF92FF920F931F93CF93DF93CDB747
:104A4000DEB7CA1BDB0B0FB6F894DEBF0FBECDBFBF
:104A500009942A88398848885F846E847D848C8490
:104A60009B84AA84B984C884DF80EE80FD800C8199
:104A70001B81AA81B981CE0FD11D0FB6F894DEBF7C
:0C4A80000FBECDBFED010895F894FFCFEC
:104A8C006F66660057656C636F6D65005465737473
:104A9C00696E672C203120322033006C6564203124
:104AAC002E006F6E20006C65642031206F66662EC0
:104ABC00006C656420322E006C65642032206F66B9
:104ACC00662E006C656420332E006C6564203320E8
:104ADC006F66662E006C656420342E006C65642055
:104AEC0034206F66662E00616C6C206F66662E003B
:084AFC007374617475732E00E0
:00000001FF
