S011000041746D6567613332382E7372656327
S11300000C9496000C94B3000C94B3000C94B300BD
S11300100C94B3000C94B3000C94B3000C94B30090
S11300200C94B3000C94B3000C94B3000C94B30080
S11300300C94B3000C94B3000C94B3000C94B30070
S11300400C948D1A0C94B3000C94520D0C94860DE0
S11300500C94B3000C94EC020C94B3000C94B30015
S11300600C94B3000C94B300130817081B081F0862
S1130070230827082B088F0895089B08A108A708C0
S1130080B008B908C208C808D108DA08E308E908C2
S1130090F208FB081A091E09220926092A092E0951
S11300A0320936093A093E09420907634236B79BC9
S11300B0D8A71A39685618AEBAAB558C1D3CB7CCC4
S11300C05763BD6DEDFD753EF6177231BF0000003C
S11300D0803F08000000BE922449123EABAAAA2A1F
S11300E0BECDCCCC4C3E00000080BEABAAAAAA3E3A
S11300F000000000BF000000803F00000000000876
S11301004178D3BB4387D1133D190E3CC3BD428212
S1130110AD2B3E68EC8276BED98FE1A93E4C80EFD0
S1130120FFBE01C4FF7F3F000000000011241FBE7A
S1130130CFEFD8E0DEBFCDBF11E0A0E0B1E0ECE14D
S1130140F4E402C005900D92A236B107D9F724E079
S1130150A2E6B1E001C01D92AF3EB207E1F70E94F2
S11301609B170C940C220C940000882389F0E091D6
S1130170F201F091F301208181E090E00090F4011C
S113018002C0880F991F0A94E2F7822B808311C062
S1130190E091F201F091F301208181E090E0009080
S11301A0F40102C0880F991F0A94E2F78095822314
S11301B08083E091F201F091F301408181E090E0CD
S11301C09C010090F60102C0220F331F0A94E2F74B
S11301D0242B2083E091F201F091F301208100901F
S11301E0F60102C0880F991F0A94E2F780958223D2
S11301F080830895E091F201F091F301408181E060
S113020090E09C010090F50102C0220F331F0A9474
S1130210E2F7242B2083E091F201F091F301208195
S11302200090F50102C0880F991F0A94E2F78095A7
S1130230822380830895FF920F931F93CF93DF93BC
S1130240F82EC0E0D0E001E010E0C8010C2E02C09E
S1130250880F991F0A94E2F78F210E94B500219616
S1130260C830D10591F70E94FA00DF91CF911F9118
S11302700F91FF900895FF920F931F93CF93DF93F5
S1130280F82EC7E0D0E001E010E0C8010C2E02C057
S1130290880F991F0A94E2F78F210E94B5002197D5
S11302A0A0F70E94FA00DF91CF911F910F91FF9068
S11302B008950F93CF93DF93CDB7DEB728970FB68A
S11302C0F894DEBF0FBECDBF9093F1018093F0018F
S11302D07093F3016093F2014093F4012093F601CB
S11302E00093F501FC01308161E070E0DB0102C0A4
S11302F0AA0FBB1F2A95E2F7FB0102C0EE0FFF1FF6
S11303000A95E2F7EA2B02C0660F771F4A95E2F7D7
S11303106E2B232F262BFC012083E091F201F09118
S1130320F301808160956823608325EB30E03A8394
S113033029834BE151E05C834B836BE371E07E8363
S11303406D838AEF90E098878F833A815C817E8108
S1130350988528960FB6F894DEBF0FBECDBFDF9107
S1130360CF910F910895E091FB01F091FC0122815E
S113037026FD02C020642283FC01EE0FFF1FE55816
S1130380FE4F808191810895EF92FF920F931F9306
S1130390CF93DF93CDB7DEB7EE970FB6F894DEBFF9
S11303A00FBECDBF28960FAD289729961FAD29976C
S11303B02B96EEACFFAC2B97CE0101960E9456040F
S11303C08EE3FE013196A7EFB1E001900D928A957C
S11303D0E1F7E7EFF1E0A085B18591964C91919713
S11303E0842F8F7791968C93F0926A01E092690141
S11303F01092680110926701109262010480F581E5
S1130400E02D84818F738483013019F0033051F01F
S113041012C0E091FB01F091FC018481806484832B
S113042051E00AC0E091FB01F091FC018481806CF1
S1130430848353E001C050E0E091FB01F091FC01A2
S113044084818F7D84831E141F0494F4DE01A55BD4
S1130450BF4F80E090E02D913D91FC01EE0FFF1F16
S1130460E559FE4F318320830196E816F90699F782
S1130470E7EFF1E0A481B58114968C911497807F05
S113048014968C93A0916701B0916801AA0FBB1FC9
S1130490A559BE4F8D919C91A481B5818F709927E8
S11304A014969C911497892B14968C93A481B581EE
S11304B012968C911297806812968C93A481B581C0
S11304C012968C911297806412968C93A481B581B4
S11304D012968C9112978F7D12968C93A481B5817C
S11304E013968C911397887F13968C93A481B5816E
S11304F012968C911297886012968C930480F581E1
S1130500E02D8281887F8283103109F138F4143020
S113051061F0183099F01230F1F546C0103449F109
S1130520103881F11032B9F51BC0E091FB01F09154
S1130530FC0182818260828324E037C0E091FB0168
S1130540F091FC0182818360828328E02EC0E091D7
S1130550FB01F091FC0182818460828320E125C04B
S1130560E091FB01F091FC0182818560828320E2AD
S11305701CC0E091FB01F091FC01828186608283C2
S113058020E413C0E091FB01F091FC0182818760BB
S1130590828320E80AC0E091FB01F091FC01828192
S11305A08760828320E801C022E0E091FF01F0919E
S11305B00002406841A3652F722F83EB91E0EE9611
S11305C00FB6F894DEBF0FBECDBFDF91CF911F9160
S11305D00F91FF90EF9008951F920F920FB60F9214
S11305E011242F933F938F939F93AF93BF93EF93D4
S11305F0FF938091780090E090936401809363016D
S1130600209179008091630190916401922B9093E1
S1130610640180936301809162018430A0F480912D
S113062062018F5F809362012091630130916401C4
S11306308091650190916601820F931F90936601EA
S1130640809365014DC0E0916701F091680180914C
S11306506501909166019595879595958795EE0F1F
S1130660FF1FE558FE4F918380831092660110921C
S113067065011092620120916701309168018091B7
S1130680690190916A012817390754F48091670130
S1130690909168010196909368018093670104C06A
S11306A01092680110926701A7EFB1E01496ED91E2
S11306B0FC9115978481807F8483E0916701F09198
S11306C06801EE0FFF1FE559FE4F8081918114965A
S11306D0ED91FC9115978F7099279481892B8483D0
S11306E0FF91EF91BF91AF919F918F913F912F9186
S11306F00F900FBE0F901F901895E0913D02F0915E
S11307003E028689982F9F70923069F018F49130D8
S113071031F015C0943059F0983069F010C08E7FD4
S1130720868B80E008958D7F868B81E008958B7F92
S1130730868B82E00895877F868B83E00895807F8F
S1130740868B80E00895882319F08130F9F03CC04D
S1130750E5E3F2E0A685B78512968C9112978E7F19
S113076012968C930684F785E02D86A58C7F6230E3
S113077021F0633029F086A705C0826086A702C0F5
S1130780836086A78281816082830895E5E3F2E035
S1130790A685B78512968C9112978D7F12968C93AD
S11307A00684F785E02D86A5837F623021F06330CF
S11307B029F086A705C0886086A702C08C6086A73A
S11307C08281826082830895E0914302F091440221
S11307D012820895882319F0813049F010C0E09105
S11307E04302F091440282818E7F82830895E091D6
S11307F04302F091440282818D7F82830895E091C7
S11308004302F091440212820895CF93DF93CDB74F
S1130810DEB7C454D1090FB6F894DEBF0FBECDBF06
S1130820CE0107960E9456048EE3FE013796A5E397
S1130830B2E001900D928A95E1F7E0914302F091C4
S11308404402128223EA33E03A8329834AEE53E0D6
S11308505C834B836DE773E07E836D833A815C81B7
S11308607E8180E090E0CC5BDF4F0FB6F894DEBF72
S11308700FBECDBFDF91CF910895292F30E0322FE5
S11308802227A901482BCA010895282F30E0322FCE
S11308902227A901492BCA0108950895282F892FD9
S11308A0922F08959827892798270895E3E7F2E07F
S11308B01182108220E530E03383228328E730E080
S11308C03583248324EC31E0378326832EE330E020
S11308D0318720872FE330E0338722872BE330E012
S11308E03787268725E034E0318B208B23E230E004
S11308F0338B228B26E230E0358B248B29E230E0E7
S1130900378B268B2CE430E0318F208F26E330E0C8
S1130910338F228F25E538E0358F248F25E330E0AF
S1130920378F268F21E837E031A320A327E330E077
S113093033A322A32CE639E035A324A328EB30E02B
S113094037A326A327E93AE031A720A720EC30E01B
S113095033A722A72EEA3BE035A724A720E630E000
S113096037A726A720E031E031AB20AB2DE334E0FC
S113097035AB24AB25E434E037AB26AB2DE434E0CF
S113098031AF20AF2EE434E033AF22AF22E534E0C0
S113099035AF24AF2EE3DC0101900D922A95E1F7E7
S11309A0089520918D01211171C0E1EBF2E0A68D33
S11309B0B78D2FEF52962C93068CF78DE02D20895E
S11309C0287F208B8830910501F158F483309105FC
S11309D0E1F18530910509F440C0019709F045C063
S11309E00CC0811521E0920701F1811524E09207E2
S11309F021F180349105C9F510C0E091CF02F09146
S1130A00D00280898160808B37C0E091CF02F09161
S1130A10D00280898260808B2FC0E091CF02F09158
S1130A20D00280898360808B27C0E091CF02F0914F
S1130A30D00280898460808B1FC0E091CF02F09146
S1130A40D00280898560808B17C0E091CF02F0913D
S1130A50D00280898660808B0FC0E091CF02F09134
S1130A60D00280898760808B07C0E091CF02F0912B
S1130A70D00280898560808BE091B902F091BA023E
S1130A8081A1806881A381E080938D010895E09124
S1130A90CF02F091D00297859F739787823061F0DF
S1130AA0833091F08130B9F4E091CF02F091D0021B
S1130AB08785806487870895E091CF02F091D00202
S1130AC08785806887870895E091CF02F091D002EE
S1130AD08785806C87870895E091CF02F091D002DA
S1130AE097859F7C9787823061F0833091F08130C5
S1130AF0B9F4E091CF02F091D002878580618787B5
S1130B000895E091CF02F091D002878580628787B3
S1130B100895E091CF02F091D002878580638787A2
S1130B200895E091CF02F091D002828B0895E09174
S1130B30CF02F091D002838B0895E1EBF2E0A68D11
S1130B40B78D50968C915097887F50968C93068CD5
S1130B50F78DE02D118A10928D010895EF92FF9286
S1130B600F931F93CF93DF93EC0190918C0191111C
S1130B7072C001EB12E0D8015A96ED90FC905B979D
S1130B80B2E5EB0EF11CD801DA96ED91FC91DB97FE
S1130B908FEF9FEF0995F70191838083D8015A96CF
S1130BA02D913C915B97F901E55BFF4F8081887F34
S1130BB08083C830D105E1F048F4C330D10581F118
S1130BC0C530D10599F12197B9F50CC0C115B1E033
S1130BD0DB07D1F0C115E4E0DE07E1F0C034D10554
S1130BE059F50CC0F901E55BFF4F8160808329C092
S1130BF0F901E55BFF4F8260808323C0F901E55B67
S1130C00FF4F836080831DC0F901E55BFF4F846063
S1130C10808317C0F901E55BFF4F8560808311C0B5
S1130C20F901E55BFF4F866080830BC0F901E55B4A
S1130C30FF4F8760808305C0F901E55BFF4F856046
S1130C408083E091B902F091BA0281A1806881A306
S1130C5081E080938C01DF91CF911F910F91FF90E0
S1130C60EF9008952091CB023091CC02F901E65B1C
S1130C70FF4F90819F73823061F0833081F0813027
S1130C8011F090830895F901E65BFF4F906490831F
S1130C900895F901E65BFF4F906890830895F90188
S1130CA0E65BFF4F906C908308952091CB023091C6
S1130CB0CC02F901E65BFF4F90819F7C823061F0AA
S1130CC0833081F0813011F090830895F901E65B5F
S1130CD0FF4F906190830895F901E65BFF4F9062A6
S1130CE090830895F901E65BFF4F90639083089524
S1130CF0CF93DF93E1EBF2E0C28DD38DCE5ADF4F79
S1130D0002ACF3ADE02D099599838883DF91CF91EF
S1130D100895CF93DF93E1EBF2E0C28DD38DCC5AEB
S1130D20DF4F02ACF3ADE02D099599838883DF9101
S1130D30CF910895CF93DF93E1EBF2E0828D938D11
S1130D40DC01A55BBF4F2C91287F2C93EC01C25B87
S1130D50DF4F02ACF3ADE02D80E090E0099599837C
S1130D60888310928C01DF91CF910895AC0180911A
S1130D708B01811160C02091D3023091D402F9011A
S1130D80E458FF4F8FEF808332979081987F908350
S1130D904034510549F150F448305105C9F040320E
S1130DA05105E1F041305105B9F50CC0411581E020
S1130DB0580731F1411584E0580741F14038510595
S1130DC059F518C0F901E658FF4F9160908329C086
S1130DD0F901E658FF4F9260908323C0F901E65869
S1130DE0FF4F936090831DC0F901E658FF4F946054
S1130DF0908317C0F901E658FF4F9560908311C0A6
S1130E00F901E658FF4F966090830BC0F901E6584C
S1130E10FF4F9760908305C0F901E658FF4F976034
S1130E209083E091B902F091BA0281A1806881A314
S1130E3081E080938B0108952091D3023091D402F4
S1130E40F901E758FF4F90819F73823061F083303E
S1130E5081F0813011F090830895F901E758FF4F34
S1130E60906490830895F901E758FF4F9068908348
S1130E700895F901E758FF4F906C908308952091ED
S1130E80D3023091D402F901E758FF4F90819F7C3F
S1130E90823061F0833081F0813011F090830895C5
S1130EA0F901E758FF4F906190830895F901E758DD
S1130EB0FF4F906290830895F901E758FF4F9063C4
S1130EC090830895E091D302F091D402E458FF4F47
S1130ED080830895E091D302F091D402E358FF4F48
S1130EE0808308958091D3029091D402FC01E65846
S1130EF0FF4F2081287F20833196108210928B012E
S1130F000895EF92FF920F931F93CF93DF93CDB782
S1130F10DEB7EE970FB6F894DEBF0FBECDBF8C01DF
S1130F20E62EF42ECE0101960E9456048EE3FE01B5
S1130F303196A1EBB2E001900D928A95E1F71092FF
S1130F408D01E1EBF2E0A68DB78D1F968C911F9772
S1130F508C7F1F968C93068CF78DE02D8089877F7C
S1130F60808B83E0E81601F18E1538F0E1E0EE168F
S1130F7059F0F2E0EF1681F040C085E0E816E1F0A8
S1130F80E7E0EE1651F139C0E091CF02F091D002C2
S1130F9087858160878731C0E091CF02F091D002CC
S1130FA087858260878729C0E091CF02F091D002C3
S1130FB087858360878721C0E1EBF2E0A68DB78D3A
S1130FC01F968C911F9781601F968C93068CF78DCA
S1130FD0E02D80898860808B10C0E1EBF2E0A68D63
S1130FE0B78D1F968C911F9783601F968C93068CE8
S1130FF0F78DE02D80898860808BA091CF02B0911D
S1131000D002D9968C91D997887F4F2D50E0FA0160
S11310103197E730F10520F4EC5CFF4F0C94E81EA7
S1131020D9968C931BC08160D9968C9317C082602B
S1131030D9968C9313C08460D9968C930FC0836027
S1131040D9968C930BC08560D9968C9307C0876022
S1131050D9968C9303C08660D9968C9387E495E0E7
S1131060F801918380838CE695E09383828381E900
S113107095E09583848387E995E09783868381ED62
S113108094E0918780878DE995E093878287C801F2
S1131090EE960FB6F894DEBF0FBECDBFDF91CF91B1
S11310A01F910F91FF90EF900895EF92FF920F938D
S11310B01F93CF93DF93CDB7DEB7EE970FB6F894B7
S11310C0DEBF0FBECDBF7C01062F142FCE010196CB
S11310D00E9456048EE3FE013196A1EBB2E001902A
S11310E00D928A95E1F710928C012091CB023091F8
S11310F0CC02F901E65BFF4F50815C7F508331964F
S11311004081477E4083802F90E0FC013197EF308F
S1131110F10508F078C0E55CFF4F0C94E81EF90176
S1131120E65BFF4F516050836EC0F901E65BFF4FF1
S11311305260508368C0F901E65BFF4F53605083EF
S113114062C0F901E55BFF4F486040835CC0F90170
S1131150E65BFF4F5160508331964860408353C033
S1131160F901E65BFF4F526050833196486040833B
S11311704AC0F901E65BFF4F5360508331964860E3
S1131180408341C0F901E55BFF4F406140833BC0B0
S1131190F901E65BFF4F5160508331964061408313
S11311A032C0F901E65BFF4F5260508331964061D3
S11311B0408329C0F901E65BFF4F536050833196A9
S11311C04061408320C0F901E55BFF4F48614083E3
S11311D01AC0F901E65BFF4F5160508331964861B4
S11311E0408311C0F901E65BFF4F52605083319692
S11311F04861408308C0F901E65BFF4F53605083A8
S1131200319648614083F901E65BFF4F80818F701E
S11312108083F90181AD887D412F50E0FA01319737
S1131220EB30F10520F4E65BFF4F0C94E81EF90166
S113123081AF2BC08160F90181AF27C08260F901C1
S113124081AF23C08460F90181AF1FC08062F901BE
S113125081AF1BC08660F90181AF17C08360F901BB
S113126081AF13C08560F90181AF0FC08162F901BC
S113127081AF0BC08760F90181AF07C08762F901B4
S113128081AF03C08660F90181AF82E396E0F70184
S11312909183808385E596E09383828388E796E053
S11312A09583848389E896E0978386838EEA95E024
S11312B0918780878AE996E093878287C701EE96B3
S11312C00FB6F894DEBF0FBECDBFDF91CF911F9153
S11312D00F91FF90EF900895EF92FF920F931F9359
S11312E0CF93DF93CDB7DEB7EE970FB6F894DEBF9A
S11312F00FBECDBF8C01E62EF42ECE0101960E94C6
S113130056048EE3FE013196A1EBB2E001900D92FA
S11313108A95E1F710928B01E091D302F091D40207
S1131320DF01A758BF4F8C918C7F8C9311969C91B1
S1131330977F9C9323E0E216E1F02E1538F091E0BC
S1131340E91659F022E0E21671F02AC025E0E2160F
S1131350B1F027E0E216E1F023C0DF01A758BF4F48
S113136081608C931DC0DF01A758BF4F82608C93AE
S113137017C0DF01A758BF4F83608C9311C0DF01F2
S1131380A758BF4F81608C93119698609C9308C0B6
S1131390DF01A758BF4F83608C93119698609C938C
S11313A081AD887F93E0F916C9F09F1538F021E0EC
S11313B0F21671F092E0F91671F008C025E0F21609
S11313C099F0F21670F096E0F91689F081AF11C029
S11313D0816081AF0EC0826081AF0BC0836081AF3A
S11313E008C0856081AF05C0866081AF02C0876098
S11313F081AF8CE197E0F801918380838FE397E0DC
S11314009383828382E697E0958384838AE697E0D8
S11314109783868386EB96E09187808782E797E0BF
S113142093878287C801EE960FB6F894DEBF0FBE8D
S1131430CDBFDF91CF911F910F91FF90EF90089551
S1131440E0911503F09116038181887F0895E0915E
S11314501503F091160384E9848381E28A95F1F7F8
S113146000000895CF93DF9318161CF4880F816051
S113147001C081E0EFEEF2E0A6A1B7A112968C9331
S1131480A689B78911968C911197806311968C93D4
S11314900688F789E02D828180638283643089F035
S11314A018F4613031F025C0603199F06034C9F02E
S11314B020C0E0911503F091160381818C7F818314
S11314C020C0E0911503F09116038181816081832E
S11314D018C0E0911503F091160381818260818325
S11314E010C0E0911503F09116038181836081831C
S11314F008C0E0911503F091160381818C7F8183EC
S113150061E0C0911503D0911603262F30E0220F1D
S1131510331F032E000C440B550B6AEF7FEF8FEF44
S11315209FEF0E94A71E2883DF91CF910895BF9259
S1131530CF92DF92EF92FF920F931F93CF93DF939B
S1131540CDB7DEB7EE970FB6F894DEBF0FBECDBFB2
S11315508C01E62EB42ECE0101960E9456048EE331
S1131560FE013196AFEEB2E001900D928A95E1F75B
S11315700F2EFFEECF2EF2E0DF2EF02DD6011896BF
S1131580ED91FC911997F1A08F2D8F7781A36B2D8D
S11315908E2D0E94320AD6011896ED91FC9119976E
S11315A0F1A28BE09BE0F801918380838CE19BE0C6
S11315B0938382838AE39BE09583848380E59BE025
S11315C09783868387E29AE09187808780E29AE016
S11315D093878287C801EE960FB6F894DEBF0FBEDC
S11315E0CDBFDF91CF911F910F91FF90EF90DF90CE
S11315F0CF90BF900895E0911503F09116032481D4
S1131600222344F021E030E08217930718F02F5F83
S11316103F4FFACF0895E0911503F091160384EA41
S113162084838FEF93E00E94FB0A0E94200A883093
S113163011F00E94270A0895662319F0880F81602B
S113164001C0880FEFEEF2E0A6A1B7A113968C9328
S113165006A0F7A1E02D84E884838FEF93E00E9435
S1131660FB0A0E94200A883121F0803411F00E9484
S1131670270A0895EFEEF2E0A6A1B7A113968C9382
S113168006A0F7A1E02D84E884838FEF93E00E9405
S1131690FB0A0E94200A883211F00E94270A08954A
S11316A0882311F080E401C080E0E0911503F091FB
S11316B01603846884838FEF93E00E94FB0A0E94E0
S11316C0200A883311F40E94270AE0911503F0914F
S11316D0160383810895E0913603F09137038EE277
S11316E093E009950895E0913803F09139038EE26F
S11316F093E0099508958091780310927803E9EFB7
S1131700F0E03197F1F700C0000008950E947B0BD0
S11317100895EAE3F3E0A2A5B3A516968C9302A478
S1131720F3A5E02D81818062818389EF90E00197A8
S1131730F1F700C0000008950E94890B0895CF932B
S1131740DF93EC018881882331F021960E94890B74
S113175089918111FBCFDF91CF9108953F924F92F0
S11317605F926F927F928F929F92AF92BF92CF922D
S1131770DF92EF92FF920F931F93CF93DF93CDB736
S1131780DEB7EE970FB6F894DEBF0FBECDBF7C0177
S11317905B016A0129013801E0914203F09143039E
S11317A031A0832D8F7781A3CE0101960E94560428
S11317B08EE3FE013196AAE3B3E001900D928A957F
S11317C0E1F749E753E060E1CE0101960E94C60DBE
S11317D08CE0FE013196AEE2B3E001900D928A9561
S11317E0E1F7BB204CF4E0916403F091650382E0DF
S11317F08083C5019F7701C0C5010AE313E0D801C6
S11318009A968D909C909B97D896ED91FC91D99740
S11318100995F40195838483D8019A96ED91FC91FE
S11318209B9788E98183B7E0CB16D104D9F158F4AA
S1131830F5E0CF16D10409F46BC086E0C816D104D4
S113184009F44BC078C0A8E0CA16D104C1F0B9E0CD
S1131850CB16D10409F06FC0EAE3F3E0A2A5B3A567
S113186011968C911197846011968C9302A4F3A520
S1131870E02D82818660828369E070E06EC0EAE3D5
S1131880F3E0A2A5B3A511968C9111978B7F1196C5
S11318908C9302A4F3A5E02D82818660828368E0A4
S11318A070E05BC0EAE3F3E0A2A5B3A511968C91C6
S11318B011978B7F11968C93A2A5B3A512968C9148
S11318C01297846012968C9302A4F3A5E02D828172
S11318D08D7F828367E070E040C0EAE3F3E0A2A575
S11318E0B3A511968C9111978B7F11968C93A2A519
S11318F0B3A512968C9112978B7F12968C9302A4A7
S1131900F3A5E02D82818260828366E070E025C0C9
S1131910EAE3F3E0A2A5B3A511968C9111978B7F0E
S113192011968C9302A4F3A5E02D8281897F828392
S113193065E070E012C0EAE3F3E0A2A5B3A5119656
S11319408C9111978B7F11968C9302A4F3A5E02DB3
S113195082818660828368E070E0E1E04E16510483
S113196029F0F2E04F16510459F014C0E0916403D9
S1131970F09165038281877F828341E050E013C048
S1131980E0916403F091650382818860828342E080
S113199050E009C0E0916403F09165038281877F80
S11319A0828341E050E082E06816710481F0A3E094
S11319B06A167104F9F0672839F5E0916403F0912F
S11319C0650382818F7C828320E030E026C0EAE3D5
S11319D0F3E0A2A5B3A512968C9112978062129699
S11319E08C9302A4F3A5E02D82818F7E828322E072
S11319F030E013C0E0916403F09165038281806359
S1131A00828323E030E009C0E0916403F091650330
S1131A1082818F7C828320E030E0E0914203F09168
S1131A204303832D806881A3F701B182A08273836D
S1131A30628355834483378326838BE79BE09187B6
S1131A40808786E89BE0938782878BE69BE0958777
S1131A50848783E79BE09787868789E89BE0918B5F
S1131A60808B8CE99BE0938B828B8FE99BE0958B39
S1131A70848BC701EE960FB6F894DEBF0FBECDBFC0
S1131A80DF91CF911F910F91FF90EF90DF90CF9056
S1131A90BF90AF909F908F907F906F905F904F908A
S1131AA03F9008951F920F920FB60F9211242F9317
S1131AB03F934F935F936F937F938F939F93AF93D2
S1131AC0BF93EF93FF93E0916403F09165038081EA
S1131AD0887180932D03668160937803E0913403C9
S1131AE0F09135038EE293E00995FF91EF91BF9158
S1131AF0AF919F918F917F916F915F914F913F91A2
S1131B002F910F900FBE0F901F9018951F920F9258
S1131B100FB60F9211248F93EF93FF93E091640318
S1131B20F091650381818F7D8183FF91EF918F9186
S1131B300F900FBE0F901F9018956623C1F0DC0123
S1131B401296ED91FC91139714962D913C91159753
S1131B50E217F30729F4ED91FC91DF01119602C01D
S1131B60DF01119660831C92FC01B383A283089564
S1131B70FC01808191810895DC01ED91FC91119724
S1131B801396FC93EE93129710820895FC015183EF
S1131B90408353834283460F511D558344838DE90B
S1131BA09DE09783868388EB9DE0918780878CEB0B
S1131BB09DE093878287CF010895FC019281838100
S1131BC090838183262F30E033832283262F292795
S1131BD0492F422350E055834483262330E0378342
S1131BE02683262F292330E031872087962B909552
S1131BF0692F70E0738762870895FC011182108257
S1131C00138212822DED3DE0358724870895CF920B
S1131C10DF92EF92FF920F931F93FC0100811181D9
S1131C2022813381FB01C080D180E280F380FC01FA
S1131C30C082D182E282F382FB010083118322837A
S1131C4033831F910F91FF90EF90DF90CF90089511
S1131C50FB012081FC012083222339F0DB01119652
S1131C6031969D9191939111FCCF0895CF93DF9379
S1131C70EC019881992399F0FE01319620E030E03F
S1131C80492F50E04617570731F0DE01A20FB31F6A
S1131C909C932F5F3F4F91919111F2CF02C020E0AE
S1131CA030E0FE01E20FF31F1082DF91CF9108951F
S1131CB02F923F924F925F926F927F928F929F9258
S1131CC0AF92BF92CF92DF92EF92FF920F931F9346
S1131CD0CF93DF9300D000D0CDB7DEB72C011B012A
S1131CE04B0177231CF42FEF821A920A9594879460
S1131CF0181419040CF451C06AC09601DD209CF13B
S1131D00F50140815181F401608171816417750787
S1131D1054F58C010A0D1B1DD401BC82AB82BA821E
S1131D20A982EB81FC817183608311965C934E934D
S1131D302E193F09C2F0F80140815181E981FA81ED
S1131D4060817181080F191FE80FF91FFA83E98375
S1131D50EB81FC81E80FF91FFC83EB83A80FB91F0B
S1131D6064177507F4F2FFEFCF1ADF0A22E0A20E20
S1131D70B11CE2E08E0E911CC614D70409F0BDCF4D
S1131D804701FF201CF4FFEF8F1A9F0A9594879454
S1131D9018141904E4F4740101C074018214930446
S1131DA07CF76401CE18DF085601AA0CBB1CA40CF6
S1131DB0B51C880C991C840C951C31016E187F0885
S1131DC0C701880F991F91958195910996CF0F901E
S1131DD00F900F900F90DF91CF911F910F91FF9073
S1131DE0EF90DF90CF90BF90AF909F908F907F90B7
S1131DF06F905F904F903F902F90089586179707AC
S1131E000CF4CB0108959B01672B11F408959A01FA
S1131E10B9010E94931EAC01822F932F41155105E5
S1131E20B1F70895FC01908180ED890F8A30D0F4D8
S1131E30319620E030E0A901440F551F220F331FD3
S1131E40220F331F220F331F420F531F292F30E05D
S1131E5020533109240F351F919180ED890F8A3069
S1131E6050F302C020E030E0C901089586230895AC
S1131E70009739F020E030E02F5F3F4F821793073F
S1131E80D9F7089587FF08C09195819591099927FD
S1131E9091958195910908958F779927089591FFD8
S1131EA008C09195819591099370919581959109B7
S1131EB0089591700895615021E030E002C0220F2E
S1131EC0331F6A95E2F7A90141505109B90168230A
S1131ED07923672B29F084239523821B930B089580
S1131EE08423952308959DEC899F912D1124969523
S1131EF096959695392F330F232F220F220F230FF8
S1131F00821B20E1929F800D11240895982F9295B1
S1131F109F70990F292F220F220F920F8F70890F14
S1131F200895FC01DB01A257BE4F1C92161617063A
S1131F3014F5908191110CC017C0919191110DC0AD
S1131F4015C081932F5F3F4F26173707D4F313C073
S1131F50AEE8B1E0319620E030E09D932F5F3F4F33
S1131F606217730751F707C020E030E0F901E25728
S1131F70FE4F80E2E6CF8EE891E008954F925F92A3
S1131F806F927F92AF92BF92CF92DF92EF92FF92C5
S1131F900F931F93CF93DF93CDB7DEB729013A0197
S1131FA09B01AC01241935094609570989899A8985
S1131FB0AB89BC89BC01CD016A197B098C099D09D7
S1131FC00E946F1EA8019701241935094609570973
S1131FD00E94C91ECA01B9016A0D7B1D8C1D9D1D7D
S1131FE0DF91CF911F910F91FF90EF90DF90CF90F1
S1131FF0BF90AF907F906F905F904F900895FC01D9
S11320002081222341F0319680E090E001962191D5
S11320102111FCCF089580E090E00895CF93DF93E1
S1132020EC010E94FF0F9C012150310962F0FE0176
S1132030E80FF91F9291903219F09950923018F4E8
S113204021503109B8F7C20FD31F1982C901DF919A
S1132050CF910895CF93DF93EC010E94FF0F9C0171
S1132060215031091216130684F4DE01A80FB91F9A
S1132070FE0180E090E040815E9151934C93019683
S11320802150310982179307B4F3DF91CF9108955A
S11320908F929F92AF92BF92CF92DF92EF92FF9274
S11320A00F931F93CF93DF936B017C01DC01CB0172
S11320B0FF203CF488279927DC018C199D09AE097F
S11320C0BF09BC01CD0110E00F2EFAE08F2E912C38
S11320D0A12CB12CF02D01C0102F01E0010FC12F54
S11320E0D0E0C257DE4FA50194010E94C91E605D75
S11320F06883622F732F842F952F161617061806E0
S1132100190654F3FF2044F4E02FF0E0E257FE4FA9
S11321108DE2808302E0010FE02FF0E0E257FE4FF2
S113212010828EE891E00E942A108EE891E0DF91FF
S1132130CF911F910F91FF90EF90DF90CF90BF90C0
S1132140AF909F908F9008950F931F93CF93DF9339
S1132150EC01992324F4882799278C1B9D0B20E0FC
S11321600AE010E001C0232F31E0320FE22FF0E04B
S1132170E257FE4FB8010E94931E805D8083862F34
S1132180972F181619067CF3DD2344F4E32FF0E0AF
S1132190E257FE4F8DE2808332E0320FE32FF0E00E
S11321A0E257FE4F10828EE891E00E942A108EE8DA
S11321B091E0DF91CF911F910F910895CF93AC01DE
S11321C09C01ADECBCEC0E94EE1E9695879596950D
S11321D08795969587959C01220F331F880F991F29
S11321E0880F991F880F991F820F931F9A01281B2C
S11321F0390BC901805D80938E019A010E94EE1E05
S1132200AC01569547955695479556954795411572
S1132210510589F1E1E0C1E0CE0FF0E0E257FE4F55
S11322209A01ADECBCEC0E94EE1E969587959695AE
S11322308795969587959C01220F331F880F991FC8
S1132240880F991F880F991F820F931F9A01281BCB
S1132250390BC901805D80839A010E94EE1EAC0196
S1132260569547955695479556954795EC2F4115A4
S1132270510589F601C0C1E0EC2FF0E0E257FE4FB2
S113228010828EE891E00E942A108EE891E0CF91AE
S11322900895982F92959F70990F292F220F220F3E
S11322A0920F8F70890F0895AC019C01ADECBCECCA
S11322B00E94EE1E96958795969587959695879597
S11322C0BC01660F771F9C01220F331F220F331F9F
S11322D0220F331F260F371F421B530B342F20E1CD
S11322E0829F300D1124832F0895CF92DF92EF92B5
S11322F0FF92CF93DF93CDB7DEB728970FB6F8944C
S1132300DEBF0FBECDBF6B017C0169837A838B83F3
S11323109C832D833E834F835887C216D306E406DD
S1132320F5063CF4BE016B5F7F4FCE0101960E941F
S1132330070E8D819E81AF81B885892B8A2B8B2BCB
S113234071F469817A818B819C8120E030E0A9015C
S11323500E94C91E611571058105910529F46D81DD
S11323607E818F81988505C06D837E838F83988756
S1132370F6CF28960FB6F894DEBF0FBECDBFDF911F
S1132380CF91FF90EF90DF90CF90089590E002C03E
S1132390959587956A95E2F7817008959C0121507F
S11323A0310981E090E002C0880F991F2A95E2F775
S11323B00097B1F0EEE8F1E020E030E0B0E3A1E313
S11323C0AB0148235923452B11F0A08301C0B083EE
S11323D0969587952F5F3F4F3196009789F702C0F6
S11323E020E030E0F901E257FE4F10828EE891E0E0
S11323F00895AB01BC0110928E0141155105610590
S1132400710509F442C021E0EFEFE20FDB01CA01DC
S11324108F709927AA27B078BB2354F40197A10998
S1132420B109806F9F6FAF6FBF6F0196A11DB11D82
S11324308A309105A105B10534F4F0E0E257FE4F6E
S1132440805D808305C0F0E0E257FE4F895C8083A5
S1132450E22FF0E0E257FE4F1082DB01CA0177233E
S11324601CF40F96A11DB11DAC01BD01689413F8B5
S113247075956795579547951694D1F72F5F411534
S113248051056105710509F0BFCF8EE891E00E9406
S11324902A108EE891E00895282F30E0322F222769
S11324A0A901492BCA010895292F30E0322F222790
S11324B0A901482BCA010895282F892F922F089526
S11324C008959827892798270895FB0120812223BE
S11324D039F0A82FB92F31962D9321912111FCCFDA
S11324E00895FF920F931F93CF93DF938C01EB0119
S11324F0F42E642F70E080E090E00E94CB1B9B01DF
S1132500AC0160E070E080E090E40E94EA1C20E00E
S113251030E040E85FE30E94B11A0E949C1B9E01D8
S11325202623372360237123CB0182279327282373
S1132530392302C0220F331FFA94E2F7822B932B24
S1132540DF91CF911F910F91FF900895CF93DF9367
S1132550CDB7DEB79E012B5F3F4FF90141915191F9
S11325609F016FE570E08EE891E00E94181F9923A7
S11325701CF08EE891E002C080E090E0DF91CF9102
S11325800895FC011092ED018FEF9FE09183808309
S11325908AE290E19383828381E792E19583848345
S11325A087E09EE09783868388E29EE09187808718
S11325B086E39EE09387828788E59EE095878487FB
S11325C084EA90E1978786878EED90E1918B808BEA
S11325D088E490E1938B828B8EE090E1958B848BE1
S11325E08EEF9EE0978B868B83E09FE0918F808FA8
S11325F082E19FE0938F828F86E39FE0958F848FA3
S113260088E39FE0978F868F82E49FE091A380A365
S11326108FE49FE093A382A38BE59FE095A384A31B
S113262083E79FE097A386A386E89FE091A780A70E
S113263081E99FE093A782A78EEB9FE095A784A7EB
S113264089E491E197A786A784E591E191AB80ABFA
S113265085E791E193AB82AB86EC91E195AB84ABDA
S11326608EEC91E197AB86AB8FEB93E191AF80AFAA
S113267089EF91E193AF82AF8CE492E195AF84AF9F
S113268084E592E197AF86AFDF01A05CBF4F8CE594
S113269092E111969C938E93129680E692E11196A4
S11326A09C938E93129681E692E111969C938E935D
S11326B0129686EA92E111969C938E93129685E681
S11326C092E18D939C93CF0108958F929F92AF9244
S11326D0BF92EF92FF920F931F93CF93DF938A01E0
S11326E0D22F2AE030E040E050E00E94C91E605D35
S11326F0F8016083622F732F842F952F1616170607
S113270018061906FCF421E00F2EFAE08F2E912C06
S1132710A12CB12CF02DC1E0C20F7801E20EF11C06
S1132720A50194010E94C91E605DF7016083622FB8
S1132730732F842F952F2C2F16161706180619069B
S113274054F301C0C1E0CD1748F480E3F801EC0F65
S1132750F11D8083CF5FDC13F9CF01C0DC2FF801BA
S1132760ED0FF11D10828D2FDF91CF911F910F91ED
S1132770FF90EF90BF90AF909F908F9008958F92AD
S11327809F92AF92BF92CF92DF92EF92FF920F93FC
S11327901F93CF93DF936B017C01EA01022F20E0AA
S11327A030E0A9010E941E1B88230CF06CC0F7FACC
S11327B0F094F7F8F094C701B6010E949C1B4B01FA
S11327C05C010E94CB1B9B01AC01C701B6010E94B6
S11327D0B11A6B017C01B401990C880B990B21E0AF
S11327E0AE010E94651311E0180FFE01E80FF11D00
S11327F08DE280835E01A10EB11CF5011082CE0131
S11328000E942A108FEF800F863018F58EE2F501B2
S113281080831F5F5E01A10EB11C602F70E080E019
S113282090E00E94CB1B9B01AC0160E070E080E271
S113283091E40E94EA1CA70196010E947D1C0E945B
S1132840951B202FA5010E946513C5010E942A1023
S11328503AC08EE2F50180831F5FCE01810F911D86
S11328608C0120E030E048EC52E4C701B6010E943C
S11328707D1C0E94951B22E0A8010E946513C801DB
S11328800E942A1020C0C701B6010E949C1B4B0164
S11328905C010E94CB1B9B01AC01C701B6010E94E5
S11328A0B11A6B017C01B401990C880B990B21E0DE
S11328B0AE010E94651311E0180FFE01E80FF11D2F
S11328C080E2808397CFCE01DF91CF911F910F914A
S11328D0FF90EF90DF90CF90BF90AF909F908F903C
S11328E00895E0918A03F0918B0380818B7F80832C
S11328F0E0918A03F0918B03808184608083089542
S11329000F931F93CF93C82F8B01E0918A03F0910B
S11329108B0380818D7F8083E0919303F0919403F6
S113292080818F608083672B41F0E0918A03F0916E
S11329308B0380818160808307C0E0918A03F091DA
S11329408B0380818E7F808380E090E00E947114ED
S1132950CC2344F4E0919503F09196038081886040
S1132960808307C0E0919503F09196038081877F6F
S11329708083C6FF08C0E0919503F091960380819F
S11329808460808307C0E0919503F0919603808171
S11329908B7F8083C5FF08C0E0919503F091960377
S11329A080818260808307C0E0919503F091960353
S11329B080818D7F8083C4FF08C0E0919503F091EE
S11329C0960380818160808307C0E0919503F09134
S11329D0960380818E7F8083012B41F0E0918A03EE
S11329E0F0918B0380818160808307C0E0918A032A
S11329F0F0918B0380818E7F808380E090E00E9441
S1132A007114C3FF08C0E0919503F091960380818F
S1132A108860808307C0E0919503F09196038081DC
S1132A20877F8083C2FF08C0E0919503F0919603ED
S1132A3080818460808307C0E0919503F0919603C0
S1132A4080818B7F8083C1FF08C0E0919503F09162
S1132A50960380818260808307C0E0919503F091A2
S1132A60960380818D7F8083C0FF08C0E091950329
S1132A70F091960380818160808307C0E091950383
S1132A80F091960380818E7F8083E0918A03F09198
S1132A908B0380818B7F8083CF911F910F91089549
S1132AA060E070E081E00E9480148EE791E001977D
S1132AB0F1F7000008950F931F93CF938C01E091D9
S1132AC09303F09194038081807F8083E091950348
S1132AD0F091960380818F608083E0918A03F09166
S1132AE08B038081826080830115110541F0E091A0
S1132AF08A03F0918B0380818160808307C0E09119
S1132B008A03F0918B0380818E7F808380E090E044
S1132B100E947114E0918E03F0918F03808183FDF4
S1132B2002C0C0E001C0C0E8808182FF02C0C0646E
S1132B3001C0CF7B808181FF02C0C06201C0CF7D14
S1132B40808180FF02C0C06101C0CF7E012B41F0B3
S1132B50E0918A03F0918B0380818160808307C0B8
S1132B60E0918A03F0918B0380818E7F808380E0E3
S1132B7090E00E947114E0918E03F0918F038081A4
S1132B8083FF03C08C2F886002C08C2F877F9081C5
S1132B9092FF02C0846001C08B7F908191FF02C0CC
S1132BA0826001C08D7F908190FF02C0816001C06E
S1132BB08E7FE0918A03F0918B0390819B7F9083B9
S1132BC0CF911F910F91089580E090E00E945B15D2
S1132BD0882354F480E090E00E945B15882324F459
S1132BE080E090E00E945B15089561E070E00E942F
S1132BF080140E94E4150895CF93DF93EC0188813B
S1132C00882331F021960E94F51589918111FBCF1B
S1132C10DF91CF9108950F931F93CF93DF93FC011E
S1132C20D62F8081882351F08F010F5F1F4F6111D0
S1132C3009C017C0CF5FDC1730F401C0C0E0CD1766
S1132C4050F00FC0C1E00E94F515F80181918F0189
S1132C508111F0CFF4CF80E20E94F515CF5FCD173C
S1132C60D0F3DF91CF911F910F910895CF93C82F87
S1132C70882329F080E20E94F515C150D9F7CF913D
S1132C800895262F8130910581F030F0823091052E
S1132C90A9F00397E1F0089560E070E080E8820F06
S1132CA00E9480140E94E415089560E070E080ECB6
S1132CB0820F0E9480140E94E415089560E070E081
S1132CC084E9820F0E9480140E94E415089560E054
S1132CD070E084ED820F0E9480140E94E415089530
S1132CE0E0918C03F0918D03808187608083E09173
S1132CF08A03F0918B038081886080838FE097E260
S1132D000197F1F700C0000060E070E088E30E94E2
S1132D1080149DE09A95F1F760E070E088E30E94EA
S1132D2080148DE08A95F1F760E070E088E30E94FA
S1132D3080149DE09A95F1F760E070E088E20E94CB
S1132D4080148CE08A95F1F7000060E070E088E27E
S1132D500E9480149CE09A95F1F7000060E070E016
S1132D6088E20E9480140E94E41560E070E088E22A
S1132D700E9480140E94E41560E070E08CE00E94E0
S1132D8080140E94E41560E070E08CE00E948014DE
S1132D900E94E41560E070E081E00E9480140E94CB
S1132DA0E41560E070E081E00E9480140E94E41564
S1132DB060E070E086E00E9480140E94E41560E008
S1132DC070E086E00E9480140E94E41560E070E0E8
S1132DD080E090E00E9441160895CF92DF92EF9236
S1132DE0FF920F931F93CF93DF93EC0170938D03A6
S1132DF060938C03509392034093910330938B031D
S1132E0020938A031093940300939303F0928F0307
S1132E10E0928E03D0929603C0929503FB01108238
S1132E20E0918A03F0918B038FEF8083E091930309
S1132E30F09194031082E0919503F09196038083BE
S1132E40E0919103F09192038081887080939003C4
S1132E500E94701680E894E1998388838BE595E15C
S1132E609B838A8384EE95E19D838C8385EF95E132
S1132E709F838E8382E797E1998788878CEF95E11A
S1132E809B878A878BE096E19D878C8786E396E112
S1132E909F878E8780E595E1998B888B81E496E105
S1132EA09B8B8A8B80E697E19D8B8C8BCE01DF9187
S1132EB0CF911F910F91FF90EF90DF90CF900895E5
S1132EC0CF93E0919103F0919203C081C8708091F7
S1132ED090038C278C2311F00E947016C0939003EA
S1132EE0CF910895CF9381E090E00E945B15C82FA5
S1132EF00E94E4158C2FCF910895809167049091DE
S1132F006804019690936804809367040895E1EA45
S1132F10F4E0A289B38911961C92A289B38980EF47
S1132F2012968C93A489B58911961C920488F5890C
S1132F30E02D82830895CF93DF93CDB7DEB7C858D1
S1132F40D1090FB6F894DEBF0FBECDBF0E9487171C
S1132F50E1E9F4E082E294E09183808389E694E0FD
S1132F609187808786E294E0938382838DE694E060
S1132F70938782878AE294E09583848381E794E04F
S1132F80958784878EE294E09783868385E794E02F
S1132F9097878687E2E2F4E024E334E080E28193D9
S1132FA0E217F307E1F7E9E6F4E02BE734E080E227
S1132FB08193E217F307E1F782E180935604A2E2DA
S1132FC0B4E08AE050968C935097E9E6F4E0808B65
S1132FD051961C92118ACE0101960E9456048EE3EA
S1132FE0FE013196A1EAB4E001900D928A95E1F7D1
S1132FF0CE01CF960E94C1128AE4FE01FF96A1EA97
S1133000B3E001900D928A95E1F70F2EF8E2CF2EEE
S1133010D12CF02D0F2EF6E2EF2EF12CF02D07E23D
S113302010E025E230E043E250E064E270E0CE01DB
S113303001960E94ED1686E1FE013196ACE0B4E003
S113304001900D928A95E1F707E025E044E06BE2F8
S113305070E08AE290E00E9459010F2EF0E4EF2E16
S1133060F4E0FF2EF02DD7012C9311963C93119789
S113307012964C93129713965C93139714966C9331
S1133080149715967C93159716968C931697179606
S11330909C930F2EF1EACF2EF4E0DF2EF02DD60113
S11330A09C96ED91FC919D9700E010E021E030E0CA
S11330B048E050E06CE070E0CE010196099586E1AD
S11330C0FE013196ABE7B4E001900D928A95E1F7E9
S11330D0D6019096ED91FC91919741E061E0CE018B
S11330E0019609958CE0FE013196A4E3B4E00190C9
S11330F00D928A95E1F7CE0101960E94FD0D8EE0B6
S1133100FE013196A8E4B4E001900D928A95E1F7AE
S1133110E0913C04F0913D048FEF9FEF09951092EC
S1133120680410926704D7011496ED91FC911597E9
S11331308FEF099501E914E00F2EF9EEEF2EF3E07D
S1133140FF2EF02DD701ED91FC9160E071E0D801E4
S113315018968D919C9119970995D701ED91FC9141
S113316060E071E0D8011A968D919C911B970995A6
S1133170D701ED91FC9160E071E0D8011C968D912E
S11331809C911D970995D701ED91FC9160E071E048
S1133190D8011E968D919C911F9709951FEF0F2EB4
S11331A0FCE04F2EF4E05F2EF02D0F2EF8E4AF2E4E
S11331B0F4E0BF2EF02D0F2EFBE78F2EF4E09F2EB0
S11331C0F02D0F2EF0E46F2EF4E07F2EF02D0F2E55
S11331D0F1E9CF2EF4E0DF2EF02DD2015496ED91DB
S11331E0FC915597099566B183B1607F82958F7084
S11331F0682BD5011C96ED91FC911D97C50109958D
S1133200D4011C96ED91FC911D9709959093EF01C3
S11332108093EE01BC0187E594E00E94111FD40164
S11332201A96ED91FC911B9709958E3239F4D401CD
S11332301E96ED91FC911F97099508C06091EE01CF
S11332407091EF018FED94E00E94111FD301149649
S1133250ED91FC911597812F0995D2015296ED912C
S1133260FC91539760E070E080E090E00995D20112
S11332701696ED91FC9117978AE30995D2011C9655
S1133280ED91FC911D9760E18FED94E00995D201D9
S11332905296ED91FC91539760E070E081E090E0EC
S11332A00995D2011C96ED91FC911D9760E189E688
S11332B094E0099564E071E087E594E00E94081FBA
S11332C0892B21F0F501848180FF1BC010FF0DC004
S11332D01E7FD701ED91FC916BE071E0D601189649
S11332E08D919C91199709950CC01160D701ED91AE
S11332F0FC9160E071E0D60118968D919C9119972C
S113330009956FE071E087E594E00E94081F892B1E
S113331061F41160D701ED91FC9160E071E0D60198
S113332018968D919C91199709956AE171E087E54A
S113333094E00E94081F892B21F0F501848181FF0C
S11333401BC011FF0DC01D7FD701ED91FC916BE0F7
S113335071E0D6011A968D919C911B9709950CC02A
S11333601260D701ED91FC9160E071E0D6011A96EC
S11333708D919C911B97099561E271E087E594E03A
S11333800E94081F892B61F41260D701ED91FC9112
S113339060E071E0D6011A968D919C911B97099576
S11333A06CE271E087E594E00E94081F892B21F00C
S11333B0F501848184FF1BC012FF0DC01B7FD70160
S11333C0ED91FC916BE071E0D6011C968D919C917E
S11333D01D9709950CC01460D701ED91FC9160E034
S11333E071E0D6011C968D919C911D97099563E31C
S11333F071E087E594E00E94081F892B61F4146052
S1133400D701ED91FC9160E071E0D6011C968D919D
S11334109C911D9709956EE371E087E594E00E9405
S1133420081F892B21F0F501848185FF1BC013FF40
S11334300DC0177FD701ED91FC916BE071E0D601CF
S11334401E968D919C911F9709950CC01860D70109
S1133450ED91FC9160E071E0D6011E968D919C91F6
S11334601F97099565E471E087E594E00E94081FC1
S1133470892B61F41860D701ED91FC9160E071E053
S1133480D6011E968D919C911F97099560E571E078
S113349087E594E00E94081F892B69F5D701ED9117
S11334A0FC9160E071E0D60118968D919C9119977A
S11334B00995D701ED91FC9160E071E0D6011A966F
S11334C08D919C911B970995D701ED91FC9160E03A
S11334D071E0D6011C968D919C911D970995D70199
S11334E0ED91FC9160E071E0D6011E968D919C9166
S11334F01F9709951FEF69E571E087E594E00E9445
S1133500081F892B09F069CED4015496ED91FC91E2
S1133510559789E694E0099560CE1F920F920FB6F5
S11335200F9211242F933F934F935F936F937F9345
S11335308F939F93AF93BF93EF93FF930E947D1755
S1133540FF91EF91BF91AF919F918F917F916F9177
S11335505F914F913F912F910F900FBE0F901F904D
S113356018955058BB27AA270E94C91A0C94431CCB
S11335700E94351C38F00E943C1C20F039F49F3F17
S113358019F426F40C94321C0EF4E095E7FB0C9429
S11335902C1CE92F0E94541C58F3BA1762077307B6
S11335A08407950720F079F4A6F50C94761C0EF4A4
S11335B0E0950B2EBA2FA02D0B01B90190010C013F
S11335C0CA01A0011124FF27591B99F0593F50F457
S11335D0503E68F11A16F040A22F232F342F4427AF
S11335E0585FF3CF469537952795A795F0405395A7
S11335F0C9F77EF41F16BA0B620B730B840BBAF077
S11336009150A1F0FF0FBB1F661F771F881FC2F7E1
S11336100EC0BA0F621F731F841F48F487957795F5
S11336206795B795F7959E3F08F0B0CF9395880FAF
S113363008F09927EE0F9795879508950E94081C26
S113364008F481E008950E94371B0C94431C0E94E7
S11336503C1C58F00E94351C40F029F45F3F29F0CF
S11336600C942C1C51110C94771C0C94321C0E9449
S1133670541C68F39923B1F3552391F3951B550B0F
S1133680BB27AA2762177307840738F09F5F5F4F31
S1133690220F331F441FAA1FA9F335D00E2E3AF070
S11336A0E0E832D091505040E695001CCAF72BD088
S11336B0FE2F29D0660F771F881FBB1F26173707D9
S11336C04807AB07B0E809F0BB0B802DBF01FF270B
S11336D093585F4F3AF09E3F510578F00C942C1CA0
S11336E00C94771C5F3FE4F3983ED4F3869577956A
S11336F06795B795F7959F5FC9F7880F911D9695C4
S1133700879597F90895E1E0660F771F881FBB1F1F
S1133710621773078407BA0720F0621B730B840BCC
S1133720BA0BEE1F88F7E09508950E949C1B6894DD
S1133730B1110C94771C08950E945C1C88F09F576B
S113374098F0B92F9927B751B0F0E1F0660F771FC1
S1133750881F991F1AF0BA95C9F714C0B13091F0B7
S11337600E94761CB1E008950C94761C672F782F84
S11337708827B85F39F0B93FCCF38695779567957C
S1133780B395D9F73EF490958095709561957F4FE8
S11337908F4F9F4F0895E89409C097FB3EF490958E
S11337A08095709561957F4F8F4F9F4F9923A9F016
S11337B0F92F96E9BB279395F695879577956795A5
S11337C0B795F111F8CFFAF4BB0F11F460FF1BC0E9
S11337D06F5F7F4F8F4F9F4F16C0882311F096E97C
S11337E011C0772321F09EE8872F762F05C066232A
S11337F071F096E8862F70E060E02AF09A95660FE3
S1133800771F881FDAF7880F9695879597F908959B
S1133810990F0008550FAA0BE0E8FEEF16161706DD
S1133820E807F907C0F012161306E407F50798F045
S1133830621B730B840B950B39F40A2661F0232B5E
S1133840242B252B21F408950A2609F4A140A695DA
S11338508FEF811D811D089597F99F6780E870E0BF
S113386060E008959FEF80EC089500240A941616F2
S1133870170618060906089500240A94121613065A
S1133880140605060895092E0394000C11F48823E8
S113389052F0BB0F40F4BF2B11F460FF04C06F5F04
S11338A07F4F8F4F9F4F089557FD9058440F551FDA
S11338B059F05F3F71F04795880F97FB991F61F0AE
S11338C09F3F79F087950895121613061406551F25
S11338D0F2CF4695F1DF08C0161617061806991F91
S11338E0F1CF86957105610508940895E894BB2786
S11338F066277727CB0197F908950E94901C0C94B2
S1133900431C0E94351C38F00E943C1C20F0952377
S113391011F00C942C1C0C94321C11240C94771C64
S11339200E94541C70F3959FC1F3950F50E0551FEE
S1133930629FF001729FBB27F00DB11D639FAA2700
S1133940F00DB11DAA1F649F6627B00DA11D661F4F
S1133950829F2227B00DA11D621F739FB00DA11D70
S1133960621F839FA00D611D221F749F3327A00D2A
S1133970611D231F849F600D211D822F762F6A2FC6
S113398011249F5750409AF0F1F088234AF0EE0F2B
S1133990FF1FBB1F661F771F881F91505040A9F758
S11339A09E3F510580F00C942C1C0C94771C5F3FB7
S11339B0E4F3983ED4F3869577956795B795F79594
S11339C0E7959F5FC1F7FE2B880F911D969587950C
S11339D097F90895FA01EE0FFF1F3096210531057E
S11339E0A1F16115710561F48038BFE39B0749F1CA
S11339F068949038810561F08038BFEF9B0741F0EF
S1133A0099234AF5FF3FE1053105210519F1E894B1
S1133A100894E795D901AA2329F4AB2FBE2FF85FA8
S1133A20D0F310C0FF5F70F4A695E0F7F73950F0BB
S1133A3019F0FF3A38F49F779F930DD00F9007FC4D
S1133A409058089546F00C94321C60E070E080E8D1
S1133A509FE308954FE79F775F934F933F932F938F
S1133A600E94E51D2F913F914F915F910E947D1C13
S1133A700C94421D29F416F00C942C1C0C94761C06
S1133A800C94321C0E945C1CA8F39638A0F707F82B
S1133A900F92E8942BE33AEA48EB5FE70E94931C09
S1133AA00F920F920F924DB75EB70F920E942D1E88
S1133AB0EAEAF0E00E94741D4F915F91EF91FF914B
S1133AC0E595EE1FFF1F49F0FE57E0684427EE0F0F
S1133AD0441FFA95E1F74195550B0E94A71D0F90DD
S1133AE007FE0C949B1D0895DF93CF931F930F93B0
S1133AF0FF92EF92DF927B018C01689406C0DA2E6C
S1133B00EF010E94901CFE01E894A5912591359146
S1133B1045915591A6F3EF010E94C91AFE01970140
S1133B20A801DA9469F7DF90EF90FF900F911F914D
S1133B30CF91DF9108959B01AC0160E070E080E8D3
S1133B409FE30C94231B0C942C1C0C94611E0E9468
S1133B505C1CD8F39923C9F3940F511DA3F391501E
S1133B60504094F059F0882332F0660F771F881F75
S1133B7091505040C1F79E3F51052CF7880F911D7D
S1133B809695879597F908955F3FACF0983E9CF021
S1133B90BB27869577956795B79508F4B16093959B
S1133BA0C1F7BB0F58F711F460FFE8CF6F5F7F4F89
S1133BB08F4F9F4FE3CF0C94771C16F00C94611E2B
S1133BC00C94321C68940C942C1C0E945C1CA8F36A
S1133BD09923C1F3AEF3DF93CF931F930F93FF9217
S1133BE0C92FDD2788232AF02197660F771F881FA6
S1133BF0DAF720E030E040E85FEB9FE3883920F01B
S1133C00803E38F021968F770E94B21AE2EDF0E000
S1133C1004C00E94B21AEFEFF0E00E94741D8B0101
S1133C20BE01EC01FB2E6F5771097595771F880B48
S1133C30990B0E94CD1B28E132E741E35FE30E9428
S1133C40901CAF2D9801AE01FF900F911F91CF9161
S1133C50DF910E94C91A0C94431CFA01DC01AA0FDB
S1133C60BB1F9B01AC01BF5728F4222733274427ED
S1133C70507820C0B75190F4AB2F00244695379567
S1133C802795011CA395D2F3002071F0220F331F56
S1133C90441FB395DAF30ED00C94B11A6130710558
S1133CA0A0E88A07B94630F49B01AC016627772760
S1133CB088279078309621F0208331834283538380
S1133CC008959F3F31F0915020F48795779567953B
S1133CD0B795880F911D9695879597F90895DB01FF
S1133CE08F939F930E94FD1EBF91AF91A29F800D61
S1133CF0911DA39F900DB29F900D11240895AA1BAE
S1133D00BB1B51E107C0AA1FBB1FA617B70710F0C2
S1133D10A61BB70B881F991F5A95A9F780959095F4
S1133D20BC01CD01089597FB072E16F4009407D02B
S1133D3077FD09D00E947F1E07FC05D03EF49095C4
S1133D4081959F4F0895709561957F4F0895A1E2E5
S1133D501A2EAA1BBB1BFD010DC0AA1FBB1FEE1F01
S1133D60FF1FA217B307E407F50720F0A21BB30B4C
S1133D70E40BF50B661F771F881F991F1A9469F7C8
S1133D8060957095809590959B01AC01BD01CF0124
S1133D900895052E97FB1EF400940E94E01E57FD23
S1133DA007D00E94A71E07FC03D04EF40C94E01E1B
S1133DB050954095309521953F4F4F4F5F4F089553
S1133DC090958095709561957F4F8F4F9F4F089583
S1133DD0EE0FFF1F0590F491E02D0994A29FB0010E
S1133DE0B39FC001A39F700D811D1124911DB29F2B
S1133DF0700D811D1124911D08950E94EE1EA59F32
S1133E00900DB49F900DA49F800D911D11240895D1
S1133E10FB01DC018D91019080190110D9F3990BFC
S1133E200895FB01DC0101900D920020E1F7089553
S1133E30AEE0B0E0EEE1FFE10C94E3218C01FA0185
S1133E4086E08C831A83098377FF02C060E070E800
S1133E50CB0101979E838D83A901BF01CE010196F9
S1133E600E94441F4D815E8157FD0AC02F81388511
S1133E70421753070CF49A01F801E20FF31F108262
S1133E802E96E4E00C94FF21ABE0B0E0EAE4FFE11D
S1133E900C94D5216C017B018A01FC0117821682E6
S1133EA0838181FFCCC1CE0101963C01F60193814F
S1133EB0F70193FD859193FF81917F01882309F494
S1133EC0BAC1853239F493FD859193FF81917F01C5
S1133ED0853229F4B60190E00E943B21E7CF912C72
S1133EE0212C312CFFE1F315D8F08B3279F038F422
S1133EF0803279F08332A1F4232D20611DC08D32EC
S1133F0061F0803369F4232D216016C0832D826013
S1133F10382EE32DE4603E2E2AC0F32DF8601DC038
S1133F2037FC2DC020ED280F2A3040F08E32B9F432
S1133F3036FC81C1232D2064322E19C036FE06C002
S1133F408AE0989E200D1124922E11C0EAE02E9E44
S1133F50200D1124222EF32DF0623F2E08C08C3642
S1133F6021F4832D8068382E02C0883641F4F7018D
S1133F7093FD859193FF81917F018111B3CF982F98
S1133F809F7D9554933028F40C5F1F4F9FE39983D2
S1133F900DC0833631F0833771F0833509F059C091
S1133FA021C0F801808189830E5F1F4F8824839488
S1133FB0912C530113C02801F2E04F0E511CF8015B
S1133FC0A080B18036FE03C0692D70E002C06FEF9F
S1133FD07FEFC5010E9430214C018201F32DFF7750
S1133FE03F2E16C0280122E0420E511CF801A08089
S1133FF0B18036FE03C0692D70E002C06FEF7FEF21
S1134000C5010E9425214C01F32DF0683F2E820149
S113401033FC1BC0822D90E088169906B0F4B601DB
S113402080E290E00E943B212A94F4CFF50137FC12
S1134030859137FE81915F01B60190E00E943B219A
S113404021102A9421E0821A91088114910471F7B5
S1134050E8C0843611F0893641F5F80137FE07C00F
S113406060817181828193810C5F1F4F08C06081E0
S11340707181072E000C880B990B0E5F1F4FF32DD7
S1134080FF763F2E97FF09C09095809570956195B6
S11340907F4F8F4F9F4FF0683F2E2AE030E0A301FF
S11340A00E947721882E861845C0853731F4232D48
S11340B02F7EB22E2AE030E025C0932D997FB92EB1
S11340C08F36C1F018F4883579F0B5C0803719F00F
S11340D0883721F0B0C0E92FE061BE2EB4FE0DC0D8
S11340E0FB2DF460BF2E09C034FE0AC0292F2660C0
S11340F0B22E06C028E030E005C020E130E002C066
S113410020E132E0F801B7FE07C06081718182814D
S113411093810C5F1F4F06C06081718180E090E045
S11341200E5F1F4FA3010E947721882E8618FB2D56
S1134130FF773F2E36FE0DC0232D2E7FA22E89142D
S113414058F434FE0BC032FC09C0832D8E7EA82E99
S113415005C0B82CA32C03C0B82C01C0B92CA4FEF4
S11341600FC0FE01E80DF11D8081803321F49A2DEA
S1134170997EA92E09C0A2FE06C0B394B39404C0CC
S11341808A2D867809F0B394A3FC11C0A0FE06C062
S1134190B21488F4280C922C9B180EC0B21460F44C
S11341A0B60180E290E00E943B21B394F7CFB214B1
S11341B018F42B1802C0982C212CA4FE10C0B601B0
S11341C080E390E00E943B21A2FE17C0A1FC03C043
S11341D088E790E002C088E590E0B6010CC08A2D23
S11341E0867859F0A1FE02C08BE201C080E2A7FCF0
S11341F08DE2B60190E00E943B21891438F4B601A7
S113420080E390E00E943B219A94F7CF8A94F301D3
S1134210E80DF11D8081B60190E00E943B218110E0
S1134220F5CF222009F442CEB60180E290E00E944C
S11342303B212A94F6CFF6018681978102C08FEF45
S11342409FEF2B96E2E10C94F121FC010590615063
S113425070400110D8F7809590958E0F9F1F089598
S1134260FC016150704001900110D8F78095909541
S11342708E0F9F1F08950F931F93CF93DF93FB011E
S1134280238121FD03C08FEF9FEF2CC022FF16C0B6
S113429046815781248135814217530744F4A08114
S11342A0B1819D012F5F3F4F318320838C93268101
S11342B037812F5F3F4F3783268314C08B01EC0176
S11342C0FB010084F185E02D0995892BE1F6D801E5
S11342D016968D919C911797019617969C938E93A1
S11342E01697CE01DF91CF911F910F910895FA0196
S11342F0AA27283051F1203181F1E8946F936E7F21
S11343006E5F7F4F8F4F9F4FAF4FB1E03ED0B4E011
S11343103CD0670F781F891F9A1FA11D680F791F52
S11343208A1F911DA11D6A0F711D811D911DA11D63
S113433020D009F468943F912AE0269F1124301973
S1134340305D3193DEF6CF010895462F4770405D0E
S11343504193B3E00FD0C9F7F6CF462F4F70405DBD
S11343604A3318F0495D31FD4052419302D0A9F718
S1134370EACFB4E0A6959795879577956795BA9512
S1134380C9F700976105710508959B01AC010A2ED8
S113439006945795479537952795BA95C9F7620FAF
S11343A0731F841F951FA01D08952F923F924F9253
S11343B05F926F927F928F929F92AF92BF92CF92B1
S11343C0DF92EF92FF920F931F93CF93DF93CDB7BA
S11343D0DEB7CA1BDB0B0FB6F894DEBF0FBECDBF32
S11343E009942A88398848885F846E847D848C8403
S11343F09B84AA84B984C884DF80EE80FD800C810C
S11344001B81AA81B981CE0FD11D0FB6F894DEBFEE
S10F44100FBECDBFED010895F894FFCF5E
S113441C6F6666006C656420312E006F6E20006C34
S113442C65642031206F66662E006C656420322E24
S113443C006C65642032206F66662E006C65642007
S113444C332E006C65642033206F66662E006C6519
S113445C6420342E006C65642034206F66662E0054
S113446C616C6C206F66662E007374617475732EA8
S105447C00003A
S9030000FC
