:100000000C9496000C94B3000C94B3000C94B300C1
:100010000C94B3000C94B3000C94B3000C94B30094
:100020000C94B3000C94B3000C94B3000C94B30084
:100030000C94B3000C94B3000C94B3000C94B30074
:100040000C94DC190C94B3000C94180D0C944C0D0A
:100050000C94B3000C94EC020C94B3000C94B30019
:100060000C94B3000C94B300D707DB07DF07E3075A
:10007000E707EB07EF07530859085F0865086B08A7
:1000800074087D0886088C0895089E08A708AD08A6
:10009000B608BF08DE08E208E608EA08EE08F2083B
:1000A000F608FA08FE080209060907634236B79BFC
:1000B000D8A71A39685618AEBAAB558C1D3CB7CCC8
:1000C0005763BD6DEDFD753EF6177231BF00000040
:1000D000803F08000000BE922449123EABAAAA2A23
:1000E000BECDCCCC4C3E00000080BEABAAAAAA3E3E
:1000F00000000000BF000000803F0000000000087A
:100100004178D3BB4387D1133D190E3CC3BD428216
:10011000AD2B3E68EC8276BED98FE1A93E4C80EFD4
:10012000FFBE01C4FF7F3F000000000011241FBE7E
:10013000CFEFD8E0DEBFCDBF11E0A0E0B1E0E0EA54
:10014000F2E402C005900D92A437B107D9F723E07D
:10015000A4E7B1E001C01D92AD3EB207E1F70E94F5
:100160001E170C944E210C940000882389F0E09116
:100170000402F0910502208181E090E000900602E7
:1001800002C0880F991F0A94E2F7822B808311C066
:10019000E0910402F0910502208181E090E000905E
:1001A000060202C0880F991F0A94E2F78095822305
:1001B0008083E0910402F0910502408181E090E0AB
:1001C0009C010090080202C0220F331F0A94E2F73C
:1001D000242B2083E0910402F091050220810090FD
:1001E000080202C0880F991F0A94E2F780958223C3
:1001F00080830895E0910402F0910502408181E03E
:1002000090E09C010090070202C0220F331F0A9465
:10021000E2F7242B2083E0910402F0910502208173
:100220000090070202C0880F991F0A94E2F7809598
:10023000822380830895FF920F931F93CF93DF93C0
:10024000F82EC0E0D0E001E010E0C8010C2E02C0A2
:10025000880F991F0A94E2F78F210E94B50021961A
:10026000C830D10591F70E94FA00DF91CF911F911C
:100270000F91FF900895FF920F931F93CF93DF93F9
:10028000F82EC7E0D0E001E010E0C8010C2E02C05B
:10029000880F991F0A94E2F78F210E94B5002197D9
:1002A000A0F70E94FA00DF91CF911F910F91FF906C
:1002B00008950F93CF93DF93CDB7DEB728970FB68E
:1002C000F894DEBF0FBECDBF90930302809302026D
:1002D0007093050260930402409306022093080283
:1002E00000930702FC01308161E070E0DB0102C095
:1002F000AA0FBB1F2A95E2F7FB0102C0EE0FFF1FFA
:100300000A95E2F7EA2B02C0660F771F4A95E2F7DB
:100310006E2B232F262BFC012083E0910402F09109
:100320000502808160956823608325EB30E03A8385
:1003300029834BE151E05C834B836BE371E07E8367
:100340006D838AEF90E098878F833A815C817E810C
:10035000988528960FB6F894DEBF0FBECDBFDF910B
:10036000CF910F910895E0910D02F0910E0222813C
:1003700026FD02C020642283FC01EE0FFF1FE3571D
:10038000FE4F808191810895EF92FF920F931F930A
:10039000CF93DF93CDB7DEB7EE970FB6F894DEBFFD
:1003A0000FBECDBF28960FAD289729961FAD299770
:1003B0002B96EEACFFAC2B97CE0101960E94200449
:1003C0008EE3FE013196A9E0B2E001900D928A958C
:1003D000E1F7E9E0F2E0A085B18591964C91919723
:1003E000842F8F7791968C93F0927C01E0927B0121
:1003F00010927A0110927901109274010480F581B3
:10040000E02D84818F738483013019F0033051F023
:1004100012C0E0910D02F0910E0284818064848309
:1004200051E00AC0E0910D02F0910E028481806CCF
:10043000848353E001C050E0E0910D02F0910E0280
:1004400084818F7D84831E141F0494F4DE01A55BD8
:10045000BF4F80E090E02D913D91FC01EE0FFF1F1A
:10046000E358FE4F318320830196E816F90699F789
:10047000E9E0F2E0A481B58114968C911497807F15
:1004800014968C93A0917901B0917A01AA0FBB1FA9
:10049000A358BE4F8D919C91A481B5818F709927EF
:1004A00014969C911497892B14968C93A481B581F2
:1004B00012968C911297806812968C93A481B581C4
:1004C00012968C911297806412968C93A481B581B8
:1004D00012968C9112978F7D12968C93A481B58180
:1004E00013968C911397887F13968C93A481B58172
:1004F00012968C911297886012968C930480F581E5
:10050000E02D8281887F8283103109F138F4143024
:1005100061F0183099F01230F1F546C0103449F10D
:10052000103881F11032B9F51BC0E0910D02F09145
:100530000E0282818260828324E037C0E0910D0246
:10054000F0910E0282818360828328E02EC0E091C8
:100550000D02F0910E0282818460828320E125C029
:10056000E0910D02F0910E0282818560828320E28B
:100570001CC0E0910D02F0910E02828186608283A0
:1005800020E413C0E0910D02F0910E028281876099
:10059000828320E80AC0E0910D02F0910E02828170
:1005A0008760828320E801C022E0E0911102F0918F
:1005B0001202406841A3652F722F83EB91E0EE9603
:1005C0000FB6F894DEBF0FBECDBFDF91CF911F9164
:1005D0000F91FF90EF9008951F920F920FB60F9218
:1005E00011242F933F938F939F93AF93BF93EF93D8
:1005F000FF938091780090E090937601809375014D
:10060000209179008091750190917601922B9093C1
:10061000760180937501809174018430A0F48091FB
:1006200074018F5F80937401209175013091760180
:100630008091770190917801820F931F90937801B8
:10064000809377014DC0E0917901F0917A0180911A
:100650007701909178019595879595958795EE0FFF
:10066000FF1FE357FE4F9183808310927801109211
:100670007701109274012091790130917A01809173
:100680007B0190917C012817390754F480917901FE
:1006900090917A01019690937A018093790104C038
:1006A00010927A0110927901A9E0B2E01496ED91CE
:1006B000FC9115978481807F8483E0917901F0918A
:1006C0007A01EE0FFF1FE358FE4F8081918114964F
:1006D000ED91FC9115978F7099279481892B8483D4
:1006E000FF91EF91BF91AF919F918F913F912F918A
:1006F0000F900FBE0F901F90189584B78F708230A7
:1007000071F018F4813031F019C0843069F088300C
:1007100081F014C084B78E7F84BF80E0089584B7D1
:100720008D7F84BF81E0089584B78B7F84BF82E092
:10073000089584B7877F84BF83E0089584B7807F5E
:1007400084BF80E00895882319F08130C9F030C05B
:10075000E898E9E6F0E080818C7F8083623019F0D0
:10076000633039F00BC0E9E6F0E08081826080837D
:1007700005C0E9E6F0E0808183608083E89A08950F
:10078000E998E9E6F0E08081837F8083623019F0A8
:10079000633039F00BC0E9E6F0E080818860808347
:1007A00005C0E9E6F0E080818C608083E99A0895D5
:1007B0001DBA0895882319F0813019F004C0E89813
:1007C0000895E99808951DBA0895CF93DF9300D056
:1007D00000D000D0CDB7DEB71DBA23EA33E03A83AC
:1007E00029834AED53E05C834B836DE773E07E839E
:1007F0006D833A815C817E8180E090E026960FB621
:10080000F894DEBF0FBECDBFDF91CF910895292FA1
:1008100030E0322F2227A901482BCA010895282F42
:1008200030E0322F2227A901492BCA0108950895EB
:10083000282F892F922F0895982789279827089580
:10084000FC011182108280E590E09383828388E727
:1008500090E09583848384EC91E0978386838EE394
:1008600090E0918780878FE390E0938782878BE386
:1008700090E09787868785EE93E0918B808B83E26B
:1008800090E0938B828B86E290E0958B848B89E25B
:1008900090E0978B868B8CE490E0918F808F86E33D
:1008A00090E0938F828F89E198E0958F848F85E324
:1008B00090E0978F868F85E497E091A380A387E3EC
:1008C00090E093A382A380E399E095A384A388EBAF
:1008D00090E097A386A38DE59AE091A780A780EC8E
:1008E00090E093A782A784E79BE095A784A780E682
:1008F00090E097A786A780E091E091AB80AB87E07E
:1009000094E095AB84AB8FE094E097AB86AB87E146
:1009100094E091AF80AF88E194E093AF82AF8CE137
:1009200094E095AF84AFCF01089520919F012111EC
:1009300071C0E7E4F2E0A68DB78D2FEF52962C93AD
:10094000068CF78DE02D2089287F208B883091053B
:1009500001F158F483309105E1F18530910509F4F6
:1009600040C0019709F045C00CC0811521E09207F5
:1009700001F1811524E0920721F180349105C9F538
:1009800010C0E0916502F091660280898160808BE1
:1009900037C0E0916502F091660280898260808BA9
:1009A0002FC0E0916502F091660280898360808BA0
:1009B00027C0E0916502F091660280898460808B97
:1009C0001FC0E0916502F091660280898560808B8E
:1009D00017C0E0916502F091660280898660808B85
:1009E0000FC0E0916502F091660280898760808B7C
:1009F00007C0E0916502F091660280898560808B76
:100A0000E0914F02F091500281A1806881A381E0C2
:100A100080939F010895E0916502F09166029785A9
:100A20009F739787823061F0833091F08130B9F401
:100A3000E0916502F091660287858064878708955A
:100A4000E0916502F0916602878580688787089546
:100A5000E0916502F09166028785806C8787089532
:100A6000E0916502F091660297859F7C97878230BE
:100A700061F0833091F08130B9F4E0916502F0913A
:100A800066028785806187870895E0916502F0910D
:100A900066028785806287870895E0916502F091FC
:100AA00066028785806387870895E0916502F091EB
:100AB0006602828B0895E0916502F0916602838B55
:100AC0000895E7E4F2E0A68DB78D50968C9150978B
:100AD000887F50968C93068CF78DE02D118A1092AA
:100AE0009F010895EF92FF920F931F93CF93DF938F
:100AF000EC0190919E01911172C007E412E0D801BF
:100B00005A96ED90FC905B97B2E5EB0EF11CD80184
:100B1000DA96ED91FC91DB978FEF9FEF0995F70146
:100B200091838083D8015A962D913C915B97F9016E
:100B3000E55BFF4F8081887F8083C830D105E1F07D
:100B400048F4C330D10581F1C530D10599F1219721
:100B5000B9F50CC0C115B1E0DB07D1F0C115E4E077
:100B6000DE07E1F0C034D10559F50CC0F901E55BB1
:100B7000FF4F8160808329C0F901E55BFF4F8260F0
:100B8000808323C0F901E55BFF4F836080831DC034
:100B9000F901E55BFF4F8460808317C0F901E55BD5
:100BA000FF4F8560808311C0F901E55BFF4F8660D0
:100BB00080830BC0F901E55BFF4F8760808305C030
:100BC000F901E55BFF4F85608083E0914F02F09172
:100BD000500281A1806881A381E080939E01DF9112
:100BE000CF911F910F91FF90EF9008952091610296
:100BF00030916202F901E65BFF4F90819F73823072
:100C000061F0833081F0813011F090830895F90113
:100C1000E65BFF4F906490830895F901E65BFF4F18
:100C2000906890830895F901E65BFF4F906C908384
:100C300008952091610230916202F901E65BFF4F55
:100C400090819F7C823061F0833081F0813011F09F
:100C500090830895F901E65BFF4F906190830895BA
:100C6000F901E65BFF4F906290830895F901E65B1E
:100C7000FF4F906390830895CF93DF93E7E4F2E012
:100C8000C28DD38DCE5ADF4F02ACF3ADE02D099566
:100C900099838883DF91CF910895CF93DF93E7E421
:100CA000F2E0C28DD38DCC5ADF4F02ACF3ADE02D14
:100CB000099599838883DF91CF910895CF93DF932E
:100CC000E7E4F2E0828D938DDC01A55BBF4F2C91B0
:100CD000287F2C93EC01C25BDF4F02ACF3ADE02D1B
:100CE00080E090E009959983888310929E01DF91BE
:100CF000CF910895AC0180919D01811160C0209138
:100D0000690230916A02F901E458FF4F8FEF808346
:100D100032979081987F90834034510549F150F487
:100D200048305105C9F040325105E1F041305105DC
:100D3000B9F50CC0411581E0580731F1411584E047
:100D4000580741F14038510559F518C0F901E658E6
:100D5000FF4F9160908329C0F901E658FF4F9260E0
:100D6000908323C0F901E658FF4F936090831DC024
:100D7000F901E658FF4F9460908317C0F901E658D7
:100D8000FF4F9560908311C0F901E658FF4F9660C0
:100D900090830BC0F901E658FF4F9760908305C020
:100DA000F901E658FF4F97609083E0914F02F09170
:100DB000500281A1806881A381E080939D01089504
:100DC0002091690230916A02F901E758FF4F908142
:100DD0009F73823061F0833081F0813011F0908315
:100DE0000895F901E758FF4F906490830895F90141
:100DF000E758FF4F906890830895F901E758FF4F37
:100E0000906C908308952091690230916A02F901F3
:100E1000E758FF4F90819F7C823061F0833081F0F2
:100E2000813011F090830895F901E758FF4F9061E8
:100E300090830895F901E758FF4F906290830895D9
:100E4000F901E758FF4F906390830895E09169029C
:100E5000F0916A02E458FF4F80830895E09169029F
:100E6000F0916A02E358FF4F8083089580916902F0
:100E700090916A02FC01E658FF4F2081287F208371
:100E80003196108210929D010895EF92FF920F9378
:100E90001F93CF93DF93CDB7DEB7EE970FB6F894DD
:100EA000DEBF0FBECDBF8C01E62EF42ECE01019623
:100EB0000E9420048EE3FE013196A7E4B2E0019087
:100EC0000D928A95E1F710929F01E7E4F2E0A68D7A
:100ED000B78D1F968C911F978C7F1F968C93068CD5
:100EE000F78DE02D8089877F808B83E0E81601F104
:100EF0008E1538F0E1E0EE1659F0F2E0EF1681F0D1
:100F000040C085E0E816E1F0E7E0EE1651F139C0A7
:100F1000E0916502F091660287858160878731C024
:100F2000E0916502F091660287858260878729C01B
:100F3000E0916502F091660287858360878721C012
:100F4000E7E4F2E0A68DB78D1F968C911F97816024
:100F50001F968C93068CF78DE02D80898860808B9E
:100F600010C0E7E4F2E0A68DB78D1F968C911F9715
:100F700083601F968C93068CF78DE02D80898860A6
:100F8000808BA0916502B0916602D9968C91D99719
:100F9000887F4F2D50E0FA013197E730F10520F4BA
:100FA000EC5CFF4F0C942A1ED9968C931BC0816079
:100FB000D9968C9317C08260D9968C9313C08460A5
:100FC000D9968C930FC08360D9968C930BC08560A3
:100FD000D9968C9307C08760D9968C9303C086609E
:100FE000D9968C938BE095E0F8019183808380E320
:100FF00095E09383828385E595E0958384838BE5F3
:1010000095E09783868385E994E09187808781E6E0
:1010100095E093878287C801EE960FB6F894DEBFFD
:101020000FBECDBFDF91CF911F910F91FF90EF9039
:101030000895EF92FF920F931F93CF93DF93CDB755
:10104000DEB7EE970FB6F894DEBF0FBECDBF7C01C2
:10105000062F142FCE0101960E9420048EE3FE017C
:101060003196A7E4B2E001900D928A95E1F71092D3
:101070009E012091610230916202F901E65BFF4F0F
:1010800050815C7F508331964081477E4083802F22
:1010900090E0FC013197EF30F10508F078C0E55C95
:1010A000FF4F0C942A1EF901E65BFF4F51605083FD
:1010B0006EC0F901E65BFF4F5260508368C0F901D2
:1010C000E65BFF4F5360508362C0F901E55BFF4F61
:1010D000486040835CC0F901E65BFF4F516050837C
:1010E00031964860408353C0F901E65BFF4F526080
:1010F00050833196486040834AC0F901E65BFF4F58
:101100005360508331964860408341C0F901E55BEC
:10111000FF4F406140833BC0F901E65BFF4F5160E8
:10112000508331964061408332C0F901E65BFF4F46
:101130005260508331964061408329C0F901E65BDB
:10114000FF4F5360508331964061408320C0F901C6
:10115000E55BFF4F486140831AC0F901E65BFF4F32
:101160005160508331964861408311C0F901E65BBC
:10117000FF4F5260508331964861408308C0F901A7
:10118000E65BFF4F53605083319648614083F9011D
:10119000E65BFF4F80818F708083F90181AD887D90
:1011A000412F50E0FA013197EB30F10520F4E65B76
:1011B000FF4F0C942A1EF90181AF2BC08160F90109
:1011C00081AF27C08260F90181AF23C08460F9013B
:1011D00081AF1FC08062F90181AF1BC08660F90139
:1011E00081AF17C08360F90181AF13C08560F90139
:1011F00081AF0FC08162F90181AF0BC08760F90137
:1012000081AF07C08762F90181AF03C08660F90131
:1012100081AF86EF95E0F7019183808389E196E0C5
:10122000938382838CE396E0958384838DE496E0B8
:101230009783868382E795E0918780878EE596E0A5
:1012400093878287C701EE960FB6F894DEBF0FBE74
:10125000CDBFDF91CF911F910F91FF90EF90089537
:10126000EF92FF920F931F93CF93DF93CDB7DEB72B
:10127000EE970FB6F894DEBF0FBECDBF8C01E62E01
:10128000F42ECE0101960E9420048EE3FE013196D9
:10129000A7E4B2E001900D928A95E1F710929D01CA
:1012A000E0916902F0916A02DF01A758BF4F8C916B
:1012B0008C7F8C9311969C91977F9C9323E0E216F0
:1012C000E1F02E1538F091E0E91659F022E0E2162F
:1012D00071F02AC025E0E216B1F027E0E216E1F055
:1012E00023C0DF01A758BF4F81608C931DC0DF0171
:1012F000A758BF4F82608C9317C0DF01A758BF4F1C
:1013000083608C9311C0DF01A758BF4F81608C931D
:10131000119698609C9308C0DF01A758BF4F836067
:101320008C93119698609C9381AD887F93E0F91619
:10133000C9F09F1538F021E0F21671F092E0F9162D
:1013400071F008C025E0F21699F0F21670F096E000
:10135000F91689F081AF11C0816081AF0EC0826043
:1013600081AF0BC0836081AF08C0856081AF05C0CD
:10137000866081AF02C0876081AF80EE96E0F801A1
:101380009183808383E097E09383828386E297E072
:10139000958384838EE297E0978386838AE796E03D
:1013A0009187808786E397E093878287C801EE96CE
:1013B0000FB6F894DEBF0FBECDBFDF91CF911F9166
:1013C0000F91FF90EF900895E0912F02F09130027D
:1013D0008181887F0895E0912F02F091300284E9A5
:1013E000848387EC90E00197F1F700C00000089536
:1013F000CF93DF9318161CF4880F816001C081E041
:10140000E9E0F2E0A6A1B7A112968C93A689B7896C
:1014100011968C911197806311968C930688F789A9
:10142000E02D828180638283643089F018F461301A
:1014300031F025C0603199F06034C9F020C0E091EE
:101440002F02F091300281818C7F818320C0E09156
:101450002F02F091300281818160818318C0E09178
:101460002F02F091300281818260818310C0E0916F
:101470002F02F091300281818360818308C0E09166
:101480002F02F091300281818C7F818361E0C091D5
:101490002F02D0913002262F30E0220F331F032E6F
:1014A000000C440B550B60E470E080E090E00E947B
:1014B000E91D2883DF91CF910895BF92CF92DF92EB
:1014C000EF92FF920F931F93CF93DF93CDB7DEB7C9
:1014D000EE970FB6F894DEBF0FBECDBF8C01E62E9F
:1014E000B42ECE0101960E9420048EE3FE013196B7
:1014F000A9E0B2E001900D928A95E1F70F2EF9E094
:10150000CF2EF2E0DF2EF02DD6011896ED91FC9152
:101510001997F1A08F2D8F7781A36B2D8E2D0E94AF
:10152000F809D6011896ED91FC911997F1A281ED79
:101530009AE0F8019183808382EE9AE0938382831C
:1015400080E09BE09583848386E19BE0978386839C
:101550008BEE99E09187808784EE99E0938782876C
:10156000C801EE960FB6F894DEBF0FBECDBFDF9177
:10157000CF911F910F91FF90EF90DF90CF90BF9090
:101580000895E0912F02F09130022481222344F04B
:1015900021E030E08217930718F02F5F3F4FFACF1A
:1015A0000895E0912F02F091300284EA84838FEF56
:1015B00093E00E94C10A0E94E409883011F00E9461
:1015C000EB090895662319F0880F816001C0880F28
:1015D000E9E0F2E0A6A1B7A113968C9306A0F7A1CB
:1015E000E02D84E884838FEF93E00E94C10A0E947B
:1015F000E409883121F0803411F00E94EB0908954C
:10160000E9E0F2E0A6A1B7A113968C9306A0F7A19A
:10161000E02D84E884838FEF93E00E94C10A0E944A
:10162000E409883211F00E94EB090895882311F033
:1016300080E401C080E0E0912F02F09130028468E4
:1016400084838FEF93E00E94C10A0E94E4098833EB
:1016500011F40E94EB09E0912F02F0913002838196
:101660000895E0918E02F0918F0286E892E009954C
:101670000895E0919002F091910286E892E0099538
:1016800008958091920210929202EFECF7E0319768
:10169000F1F700C0000008950E94410B0895E9E0B1
:1016A000F2E0A2A5B3A516968C9302A4F3A5E02DB3
:1016B0008181806281838FEC97E00197F1F700C010
:1016C000000008950E944F0B0895CF93DF93EC0123
:1016D0008881882331F021960E944F0B89918111D6
:1016E000FBCFDF91CF9108953F924F925F926F921F
:1016F0007F928F929F92AF92BF92CF92DF92EF92A2
:10170000FF920F931F93CF93DF93CDB7DEB7EE9782
:101710000FB6F894DEBF0FBECDBF7C015B016A013E
:1017200029013801E0911102F091120231A0832DBC
:101730008F7781A3CE0101960E9420048EE3FE01E3
:101740003196A9E0B2E001900D928A95E1F743E964
:1017500052E060E2CE0101960E948C0D8CE0FE0109
:101760003196A6E8B2E001900D928A95E1F7BB2090
:101770004CF4E0913302F091340282E08083C501A1
:101780009F7701C0C50109E012E0D8019A968D90BB
:101790009C909B97D896ED91FC91D9970995F4016F
:1017A00095838483D8019A96ED91FC919B9788E963
:1017B0008183B7E0CB16D104D9F158F4F5E0CF1608
:1017C000D10409F46BC086E0C816D10409F44BC0FB
:1017D00078C0A8E0CA16D104C1F0B9E0CB16D10494
:1017E00009F06FC0E9E0F2E0A2A5B3A511968C91D3
:1017F0001197846011968C9302A4F3A5E02D828149
:101800008660828369E070E06EC0E9E0F2E0A2A544
:10181000B3A511968C9111978B7F11968C9302A48E
:10182000F3A5E02D82818660828368E070E05BC072
:10183000E9E0F2E0A2A5B3A511968C9111978B7FF8
:1018400011968C93A2A5B3A512968C9112978460E1
:1018500012968C9302A4F3A5E02D82818D7F828362
:1018600067E070E040C0E9E0F2E0A2A5B3A5119600
:101870008C9111978B7F11968C93A2A5B3A512968C
:101880008C9112978B7F12968C9302A4F3A5E02D76
:1018900082818260828366E070E025C0E9E0F2E048
:1018A000A2A5B3A511968C9111978B7F11968C935D
:1018B00002A4F3A5E02D8281897F828365E070E038
:1018C00012C0E9E0F2E0A2A5B3A511968C911197A0
:1018D0008B7F11968C9302A4F3A5E02D8281866004
:1018E000828368E070E0E1E04E16510429F0F2E0F6
:1018F0004F16510459F014C0E0913302F0913402B4
:101900008281877F828341E050E013C0E0913302FF
:10191000F091340282818860828342E050E009C005
:10192000E0913302F09134028281877F828341E02B
:1019300050E082E06816710481F0A3E06A16710439
:10194000F9F0672839F5E0913302F0913402828191
:101950008F7C828320E030E026C0E9E0F2E0A2A59F
:10196000B3A512968C911297806212968C9302A462
:10197000F3A5E02D82818F7E828322E030E013C0C8
:10198000E0913302F091340282818063828323E00C
:1019900030E009C0E0913302F091340282818F7C03
:1019A000828320E030E0E0911102F0911202832D59
:1019B000806881A3F701B182A0827383628355831B
:1019C00044833783268381E49BE0918780878CE47E
:1019D0009BE09387828781E39BE09587848789E3F7
:1019E0009BE0978786878FE49BE0918B808B82E6D4
:1019F0009BE0938B828B85E69BE0958B848BC70164
:101A0000EE960FB6F894DEBF0FBECDBFDF91CF913B
:101A10001F910F91FF90EF90DF90CF90BF90AF900C
:101A20009F908F907F906F905F904F903F90089520
:101A30001F920F920FB60F9211242F933F934F9343
:101A40005F936F937F938F939F93AF93BF93EF9326
:101A5000FF93E0913302F09134028081887180938A
:101A60008502668160939202E0918C02F0918D0272
:101A700086E892E00995FF91EF91BF91AF919F9118
:101A80008F917F916F915F914F913F912F910F9027
:101A90000FBE0F901F9018951F920F920FB60F92C6
:101AA00011248F93EF93FF93E0913302F09134026E
:101AB00081818F7D8183FF91EF918F910F900FBE78
:101AC0000F901F9018956623C1F0DC011296ED91DE
:101AD000FC91139714962D913C911597E217F307FB
:101AE00029F4ED91FC91DF01119602C0DF011196FE
:101AF00060831C92FC01B383A2830895FC01808162
:101B000091810895DC01ED91FC9111971396FC935E
:101B1000EE93129710820895FC0151834083538302
:101B2000428370E061507109460F571F558344830B
:101B300083E69DE0978386838EE79DE0918780878B
:101B400082E89DE093878287CF010895CF92DF924C
:101B5000EF92FF920F931F93FC010081118122816C
:101B60003381FB01C080D180E280F380FC01C08220
:101B7000D182E282F382FB010083118322833383CB
:101B80001F910F91FF90EF90DF90CF900895FB0190
:101B90002081FC012083222339F0DB01119631964C
:101BA0009D9191939111FCCF0895CF93DF93EC0118
:101BB0009881992399F0FE01319620E030E0492F79
:101BC00050E04617570731F0DE01A20FB31F9C9378
:101BD0002F5F3F4F91919111F2CF02C020E030E092
:101BE000FE01E20FF31F1082DF91CF9108952F9233
:101BF0003F924F925F926F927F928F929F92AF929D
:101C0000BF92CF92DF92EF92FF920F931F93CF93E9
:101C1000DF9300D000D0CDB7DEB72C011B014B0104
:101C200077231CF42FEF821A920A95948794181444
:101C300019040CF451C06AC09601DD209CF1F50135
:101C400040815181F401608171816417750754F5F9
:101C50008C010A0D1B1DD401BC82AB82BA82A98201
:101C6000EB81FC817183608311965C934E932E19F6
:101C70003F09C2F0F80140815181E981FA81608118
:101C80007181080F191FE80FF91FFA83E983EB81AF
:101C9000FC81E80FF91FFC83EB83A80FB91F6417C1
:101CA0007507F4F2FFEFCF1ADF0A22E0A20EB11C93
:101CB000E2E08E0E911CC614D70409F0BDCF470197
:101CC000FF201CF4FFEF8F1A9F0A95948794181435
:101CD0001904E4F4740101C07401821493047CF7C4
:101CE0006401CE18DF085601AA0CBB1CA40CB51C5D
:101CF000880C991C840C951C31016E187F08C70153
:101D0000880F991F91958195910996CF0F900F900B
:101D10000F900F90DF91CF911F910F91FF90EF9057
:101D2000DF90CF90BF90AF909F908F907F906F90FB
:101D30005F904F903F902F900895861797070CF46F
:101D4000CB0108959B01672B11F408959A01B90105
:101D50000E94D51DAC01822F932F41155105B1F77B
:101D60000895FC01908180ED890F8A30D0F431967E
:101D700020E030E0A901440F551F220F331F220F2E
:101D8000331F220F331F420F531F292F30E02053E0
:101D90003109240F351F919180ED890F8A3050F35E
:101DA00002C020E030E0C90108958623089500971D
:101DB00039F020E030E02F5F3F4F82179307D9F7CB
:101DC000089587FF08C0919581959109992791956C
:101DD0008195910908958F779927089591FF08C0FB
:101DE00091958195910993709195819591090895A7
:101DF00091700895615021E030E002C0220F331F3E
:101E00006A95E2F7A90141505109B9016823792384
:101E1000672B29F084239523821B930B0895842339
:101E2000952308959DEC899F912D11249695969563
:101E30009695392F330F232F220F220F230F821B4A
:101E400020E1929F800D11240895982F92959F7004
:101E5000990F292F220F220F920F8F70890F08954B
:101E6000FC01DB01A056BE4F1C921616170614F596
:101E7000908191110CC017C0919191110DC015C0A6
:101E800081932F5F3F4F26173707D4F313C0A0EA83
:101E9000B1E0319620E030E09D932F5F3F4F621715
:101EA000730751F707C020E030E0F901E056FE4F1C
:101EB00080E2E6CF80EA91E008954F925F926F92C0
:101EC0007F92AF92BF92CF92DF92EF92FF920F93E9
:101ED0001F93CF93DF93CDB7DEB729013A019B0162
:101EE000AC01241935094609570989899A89AB89B2
:101EF000BC89BC01CD016A197B098C099D090E942E
:101F0000B11DA801970124193509460957090E94F6
:101F10000B1ECA01B9016A0D7B1D8C1D9D1DDF9131
:101F2000CF911F910F91FF90EF90DF90CF90BF90D6
:101F3000AF907F906F905F904F900895FC0120814B
:101F4000222341F0319680E090E001962191211109
:101F5000FCCF089580E090E00895CF93DF93EC01EB
:101F60000E949E0F9C012150310962F0FE01E80F92
:101F7000F91F9291903219F09950923018F4215033
:101F80003109B8F7C20FD31F1982C901DF91CF9170
:101F90000895CF93DF93EC010E949E0F9C01215086
:101FA00031091216130684F4DE01A80FB91FFE01D1
:101FB00080E090E040815E9151934C9301962150D6
:101FC000310982179307B4F3DF91CF9108958F926F
:101FD0009F92AF92BF92CF92DF92EF92FF920F93B8
:101FE0001F93CF93DF936B017C01DC01CB01FF20BA
:101FF0003CF488279927DC018C199D09AE09BF099B
:10200000BC01CD0110E00F2EFAE08F2E912CA12CF7
:10201000B12CF02D01C0102F01E0010FC12FD0E035
:10202000C056DE4FA50194010E940B1E605D6883BF
:10203000622F732F842F952F161617061806190670
:1020400054F3FF2044F4E02FF0E0E056FE4F8DE221
:10205000808302E0010FE02FF0E0E056FE4F108297
:1020600080EA91E00E94C90F80EA91E0DF91CF9170
:102070001F910F91FF90EF90DF90CF90BF90AF90A6
:102080009F908F9008950F931F93CF93DF93EC0150
:10209000992324F4882799278C1B9D0B20E00AE0C4
:1020A00010E001C0232F31E0320FE22FF0E0E056C4
:1020B000FE4FB8010E94D51D805D8083862F972F2B
:1020C000181619067CF3DD2344F4E32FF0E0E05604
:1020D000FE4F8DE2808332E0320FE32FF0E0E056D6
:1020E000FE4F108280EA91E00E94C90F80EA91E0E1
:1020F000DF91CF911F910F910895CF93AC019C0177
:10210000ADECBCEC0E94301E969587959695879510
:10211000969587959C01220F331F880F991F880F72
:10212000991F880F991F820F931F9A01281B390B43
:10213000C901805D8093A0019A010E94301EAC010C
:10214000569547955695479556954795411551058E
:1021500089F1E1E0C1E0CE0FF0E0E056FE4F9A01D8
:10216000ADECBCEC0E94301E9695879596958795B0
:10217000969587959C01220F331F880F991F880F12
:10218000991F880F991F820F931F9A01281B390BE3
:10219000C901805D80839A010E94301EAC01569572
:1021A00047955695479556954795EC2F41155105FE
:1021B00089F601C0C1E0EC2FF0E0E056FE4F10823E
:1021C00080EA91E00E94C90F80EA91E0CF910895E2
:1021D000982F92959F70990F292F220F220F920FFF
:1021E0008F70890F0895AC019C01ADECBCEC0E948E
:1021F000301E969587959695879596958795BC01FF
:10220000660F771F9C01220F331F220F331F220FEF
:10221000331F260F371F421B530B342F20E1829FA1
:10222000300D1124832F0895CF92DF92EF92FF9209
:10223000CF93DF93CDB7DEB728970FB6F894DEBF04
:102240000FBECDBF6B017C0169837A838B839C8336
:102250002D833E834F835887C216D306E406F506C6
:102260003CF4BE016B5F7F4FCE0101960E94A60D2C
:102270008D819E81AF81B885892B8A2B8B2B71F440
:1022800069817A818B819C8120E030E0A9010E94E4
:102290000B1E611571058105910529F46D817E8103
:1022A0008F81988505C06D837E838F839887F6CF55
:1022B00028960FB6F894DEBF0FBECDBFDF91CF9149
:1022C000FF90EF90DF90CF90089590E002C0959539
:1022D00087956A95E2F7817008959C012150310934
:1022E00081E090E002C0880F991F2A95E2F70097DD
:1022F000B1F0E0EAF1E020E030E0B0E3A1E3AB01CF
:1023000048235923452B11F0A08301C0B083969533
:1023100087952F5F3F4F3196009789F702C020E0E5
:1023200030E0F901E056FE4F108280EA91E0089516
:10233000AB01BC011092A001411551056105710569
:1023400009F442C021E0EFEFE20FDB01CA018F7018
:102350009927AA27B078BB2354F40197A109B109A2
:10236000806F9F6FAF6FBF6F0196A11DB11D8A3047
:102370009105A105B10534F4F0E0E056FE4F805D13
:10238000808305C0F0E0E056FE4F895C8083E22F39
:10239000F0E0E056FE4F1082DB01CA0177231CF407
:1023A0000F96A11DB11DAC01BD01689413F8759580
:1023B0006795579547951694D1F72F5F41155105AD
:1023C0006105710509F0BFCF80EA91E00E94C90F55
:1023D00080EA91E00895282F30E0322F2227A901CA
:1023E000492BCA010895292F30E0322F2227A90155
:1023F000482BCA010895282F892F922F08950895F8
:102400009827892798270895FB012081222339F0F6
:10241000A82FB92F31962D9321912111FCCF08952A
:10242000FF920F931F93CF93DF938C01EB01F42E58
:10243000642F70E080E090E00E940D1B9B01AC01D6
:1024400060E070E080E090E40E942C1C20E030E02E
:1024500040E85FE30E94F3190E94DE1A9E012623E2
:10246000372360237123CB01822793272823392325
:1024700002C0220F331FFA94E2F7822B932BDF91D5
:10248000CF911F910F91FF900895CF93DF93CDB718
:10249000DEB79E012B5F3F4FF901419151919F01A2
:1024A0006FE570E080EA91E00E945A1E99231CF0CB
:1024B00080EA91E002C080E090E0DF91CF91089542
:1024C000FC011092FF018EE99FE09183808389ECEB
:1024D0009FE09383828380E192E19583848386EAFF
:1024E0009DE09783868387EC9DE09187808785EDCB
:1024F0009DE09387828787EF9DE09587848783E4BB
:1025000090E1978786878DE790E1918B808B87EEAE
:102510009FE0938B828B8DEA9FE0958B848B8DE976
:102520009EE0978B868B82EA9EE0918F808F81EB75
:102530009EE0938F828F85ED9EE0958F848F87ED4F
:102540009EE0978F868F81EE9EE091A380A38EEE12
:102550009EE093A382A38AEF9EE095A384A382E1E9
:102560009FE097A386A385E29FE091A780A780E3E1
:102570009FE093A782A78DE59FE095A784A788EEAB
:1025800090E197A786A783EF90E191AB80AB84E1C0
:1025900091E193AB82AB85E691E195AB84AB8DE69F
:1025A00091E197AB86AB8EE593E191AF80AF88E97F
:1025B00091E193AF82AF8BEE91E195AF84AF83EF62
:1025C00091E197AF86AFDF01A05CBF4F8BEF91E148
:1025D00011969C938E9312968FEF91E111969C9396
:1025E0008E93129680E092E111969C938E931296B0
:1025F00085E492E111969C938E93129684E092E189
:102600008D939C93CF0108958F929F92AF92BF922A
:10261000EF92FF920F931F93CF93DF938A01D22FF4
:102620002AE030E040E050E00E940B1E605DF801BF
:102630006083622F732F842F952F161617061806A6
:102640001906FCF421E00F2EFAE08F2E912CA12C1C
:10265000B12CF02DC1E0C20F7801E20EF11CA501F2
:1026600094010E940B1E605DF7016083622F732F3F
:10267000842F952F2C2F161617061806190654F3BB
:1026800001C0C1E0CD1748F480E3F801EC0FF11D63
:102690008083CF5FDC13F9CF01C0DC2FF801ED0F91
:1026A000F11D10828D2FDF91CF911F910F91FF901F
:1026B000EF90BF90AF909F908F9008958F929F92D0
:1026C000AF92BF92CF92DF92EF92FF920F931F9340
:1026D000CF93DF936B017C01EA01022F20E030E011
:1026E000A9010E94601A88230CF06CC0F7FAF094DC
:1026F000F7F8F094C701B6010E94DE1A4B015C01A5
:102700000E940D1B9B01AC01C701B6010E94F31989
:102710006B017C01B401990C880B990B21E0AE018F
:102720000E94041311E0180FFE01E80FF11D8DE265
:1027300080835E01A10EB11CF5011082CE010E94C2
:10274000C90F8FEF800F863018F58EE2F501808378
:102750001F5F5E01A10EB11C602F70E080E090E071
:102760000E940D1B9B01AC0160E070E080E291E4EF
:102770000E942C1CA70196010E94BF1B0E94D71A21
:10278000202FA5010E940413C5010E94C90F3AC061
:102790008EE2F50180831F5FCE01810F911D8C01B8
:1027A00020E030E048EC52E4C701B6010E94BF1BB4
:1027B0000E94D71A22E0A8010E940413C8010E94B7
:1027C000C90F20C0C701B6010E94DE1A4B015C018F
:1027D0000E940D1B9B01AC01C701B6010E94F319B9
:1027E0006B017C01B401990C880B990B21E0AE01BF
:1027F0000E94041311E0180FFE01E80FF11D80E2A2
:10280000808397CFCE01DF91CF911F910F91FF90E1
:10281000EF90DF90CF90BF90AF909F908F900895F2
:10282000E091B402F091B50280818B7F8083E091CA
:10283000B402F091B50280818460808308950F9383
:102840001F93CF93C82F8B01E091B402F091B50292
:1028500080818D7F8083E091BD02F091BE028081F6
:102860008F608083672B41F0E091B402F091B50254
:1028700080818160808307C0E091B402F091B5024D
:1028800080818E7F808380E090E00E941014CC23B2
:1028900044F4E091BF02F091C0028081886080839F
:1028A00007C0E091BF02F091C0028081877F8083E2
:1028B000C6FF08C0E091BF02F091C0028081846031
:1028C000808307C0E091BF02F091C00280818B7FBE
:1028D0008083C5FF08C0E091BF02F091C0028081F3
:1028E0008260808307C0E091BF02F091C0028081C6
:1028F0008D7F8083C4FF08C0E091BF02F091C002C9
:1029000080818160808307C0E091BF02F091C002A6
:1029100080818E7F8083012B41F0E091B402F091A1
:10292000B50280818160808307C0E091B402F0919C
:10293000B50280818E7F808380E090E00E94101439
:10294000C3FF08C0E091BF02F091C002808188609F
:10295000808307C0E091BF02F091C0028081877F31
:102960008083C2FF08C0E091BF02F091C002808165
:102970008460808307C0E091BF02F091C002808133
:102980008B7F8083C1FF08C0E091BF02F091C0023D
:1029900080818260808307C0E091BF02F091C00215
:1029A00080818D7F8083C0FF08C0E091BF02F091DD
:1029B000C00280818160808307C0E091BF02F091F6
:1029C000C00280818E7F8083E091B402F091B502D5
:1029D00080818B7F8083CF911F910F91089560E05C
:1029E00070E081E00E941F1487EE97E10197F1F7F4
:1029F00000C0000008950F931F93CF938C01E091C6
:102A0000BD02F091BE028081807F8083E091BF0291
:102A1000F091C00280818F608083E091B402F091D8
:102A2000B5028081826080830115110541F0E0913B
:102A3000B402F091B50280818160808307C0E0918B
:102A4000B402F091B50280818E7F808380E090E0B7
:102A50000E941014E091B802F091B902808183FDC8
:102A600002C0C0E001C0C0E8808182FF02C0C06433
:102A700001C0CF7B808181FF02C0C06201C0CF7DD9
:102A8000808180FF02C0C06101C0CF7E012B41F078
:102A9000E091B402F091B50280818160808307C02B
:102AA000E091B402F091B50280818E7F808380E056
:102AB00090E00E941014E091B802F091B902808178
:102AC00083FF03C08C2F886002C08C2F877F90818A
:102AD00092FF02C0846001C08B7F908191FF02C091
:102AE000826001C08D7F908190FF02C0816001C033
:102AF0008E7FE091B402F091B50290819B7F90832C
:102B0000CF911F910F91089580E090E00E94FB14F7
:102B1000882354F480E090E00E94FB14882324F47E
:102B200080E090E00E94FB14089561E070E00E9454
:102B30001F140E9484150895CF93DF93EC018881C0
:102B4000882331F021960E94951589918111FBCF40
:102B5000DF91CF9108950F931F93CF93DF93FC01E3
:102B6000D62F8081882351F08F010F5F1F4F611195
:102B700009C017C0CF5FDC1730F401C0C0E0CD172B
:102B800050F00FC0C1E00E949515F80181918F01AE
:102B90008111F0CFF4CF80E20E949515CF5FCD1761
:102BA000D0F3DF91CF911F910F910895CF93C82F4C
:102BB000882329F080E20E949515C150D9F7CF9162
:102BC0000895262F8130910581F030F082309105F3
:102BD000A9F00397E1F0089560E070E080E8820FCB
:102BE0000E941F140E948415089560E070E080EC3C
:102BF000820F0E941F140E948415089560E070E007
:102C000084E9820F0E941F140E948415089560E0D9
:102C100070E084ED820F0E941F140E9484150895B5
:102C2000E091B602F091B70287E08083E091B402B0
:102C3000F091B50288E080832FEF83EF91E021507F
:102C400080409040E1F700C0000060E070E088E361
:102C50000E941F1420ED2A95F1F760E070E088E3F0
:102C60000E941F1480ED8A95F1F760E070E088E320
:102C70000E941F1490ED9A95F1F760E070E088E2F1
:102C80000E941F1425EC2A95F1F7000060E070E027
:102C900088E20E941F1485EC8A95F1F7000060E03D
:102CA00070E088E20E941F140E94841560E070E0CA
:102CB00088E20E941F140E94841560E070E08CE09E
:102CC0000E941F140E94841560E070E08CE00E9456
:102CD0001F140E94841560E070E081E00E941F14C0
:102CE0000E94841560E070E081E00E941F140E9441
:102CF000841560E070E086E00E941F140E94841535
:102D000060E070E086E00E941F140E94841560E07D
:102D100070E080E090E00E94E1150895CF92DF928C
:102D2000EF92FF920F931F93CF93DF93EC01709379
:102D3000B7026093B6025093BC024093BB0230933B
:102D4000B5022093B4021093BE020093BD02F0922C
:102D5000B902E092B802D092C002C092BF02FB0159
:102D60001082E091B402F091B5028FEF8083E09180
:102D7000BD02F091BE021082E091BF02F091C0024C
:102D80008083E091BB02F091BC02808188708093C7
:102D9000BA020E9410168FE194E1998388838BEF29
:102DA00094E19B838A8384E895E19D838C8385E904
:102DB00095E19F838E8383E197E1998788878CE9EA
:102DC00095E19B878A878BEA95E19D878C8786EDC5
:102DD00095E19F878E878FEE94E1998B888B81EEAA
:102DE00095E19B8B8A8B81E097E19D8B8C8BCE014B
:102DF000DF91CF911F910F91FF90EF90DF90CF90D7
:102E00000895CF93E091BB02F091BC02C081C870DD
:102E10008091BA028C278C2311F00E941016C09367
:102E2000BA02CF910895CF9381E090E00E94FB1405
:102E3000C82F0E9484158C2FCF910895CF93DF93D4
:102E4000CDB7DEB7C858D1090FB6F894DEBF0FBEB4
:102E5000CDBFEDEBF3E08CE493E09183808385E9D3
:102E600093E09187808780E593E09383828389E96B
:102E700093E09387828784E593E0958384838DE94B
:102E800093E09587848788E593E09783868381EA3A
:102E900093E097878687ECE4F3E02EE533E080E269
:102EA0008193E217F307E1F7E5E9F3E027EA33E07E
:102EB00080E281932E173F07E1F782E1809372034E
:102EC000ACE4B3E08AE050968C935097E5E9F3E0E8
:102ED000808B51961C92118ACE0101960E9420048B
:102EE0008EE3FE013196A9E0B2E001900D928A9541
:102EF000E1F7CE01CF960E9460128AE4FE01FF96B0
:102F0000ABECB2E001900D928A95E1F70F2EF8E25A
:102F1000CF2ED12CF02D0F2EF6E2EF2EF12CF02D2E
:102F200007E210E025E230E043E250E064E270E0C6
:102F3000CE0101960E948E1686E1FE013196A6E32F
:102F4000B3E001900D928A95E1F707E025E044E0B7
:102F50006BE270E08AE290E00E9459010F2EFAE6DF
:102F6000EF2EF3E0FF2EF02DD7012C9311963C931A
:102F7000119712964C93129713965C93139714968D
:102F80006C93149715967C93159716968C931697B9
:102F900017969C930F2EF9E0CF2EF2E0DF2EF02D46
:102FA000D6019C96ED91FC919D9700E010E021E008
:102FB00030E048E050E06CE070E0CE010196099509
:102FC00086E1FE013196A7EAB3E001900D928A9561
:102FD000E1F7D6019096ED91FC91919741E061E087
:102FE000CE01019609958CE0FE013196AEE5B3E085
:102FF00001900D928A95E1F7E0916603F0916703E5
:103000008FEF9FEF09951092940310929303D701CD
:103010001496ED91FC9115978FEF09950DEB13E048
:103020000F2EF3E1EF2EF3E0FF2EF02DD701ED91FF
:10303000FC9160E071E0D80118968D919C911997F0
:103040000995D701ED91FC9160E071E0D8011A96E5
:103050008D919C911B970995D701ED91FC9160E0B2
:1030600071E0D8011C968D919C911D970995D7010F
:10307000ED91FC9160E071E0D8011E968D919C91DC
:103080001F970995E0914A03F0914B0309951FEFB3
:103090000F2EF7EAAF2EF3E0BF2EF02D312C2224B5
:1030A00023940F2EFAE68F2EF3E09F2EF02D0F2E95
:1030B000FDEBCF2EF3E0DF2EF02D6894662465F84B
:1030C000712C11C0E0914A03F0914B030995442003
:1030D00051F0D5011E96ED91FC911F9709957092C4
:1030E000740360927303D5011C96ED91FC911D97BA
:1030F00009959093010280930002D5011A96ED91F3
:10310000FC911B9709958A3051F4609100027091EF
:10311000010283E793E00E94531E422C01C0432C1E
:10312000D4011496ED91FC911597812F0995E091AA
:103130004803F091490360E070E080E090E0099579
:10314000E0914203F091430367E084E091E0099548
:10315000E0914803F091490360E070E081E090E085
:103160000995E0914203F091430360E185E993E022
:1031700009956CE071E083E793E00E944A1E892B79
:10318000D9F410FF0DC01E7FD701ED91FC9164E1D1
:1031900071E0D60118968D919C91199709950CC0F4
:1031A0001160D701ED91FC9160E071E0D6011896B5
:1031B0008D919C911997099568E171E083E793E0FF
:1031C0000E944A1E892B61F41160D701ED91FC9198
:1031D00060E071E0D60118968D919C911997099540
:1031E00064E271E083E793E00E944A1E892BD9F4E0
:1031F00011FF0DC01D7FD701ED91FC9164E171E0DD
:10320000D6011A968D919C911B9709950CC012605E
:10321000D701ED91FC9160E071E0D6011A968D9195
:103220009C911B9709956CE271E083E793E00E9403
:103230004A1E892B61F41260D701ED91FC9160E088
:1032400071E0D6011A968D919C911B97099568E3C0
:1032500071E083E793E00E944A1E892BD9F412FFA4
:103260000DC01B7FD701ED91FC9164E171E0D601A7
:103270001C968D919C911D9709950CC01460D701E7
:10328000ED91FC9160E071E0D6011C968D919C91CE
:103290001D97099560E471E083E793E00E944A1E60
:1032A000892B61F41460D701ED91FC9160E071E02D
:1032B000D6011C968D919C911D9709956CE471E047
:1032C00083E793E00E944A1E892BD9F413FF0DC0B7
:1032D000177FD701ED91FC9164E171E0D6011E9654
:1032E0008D919C911F9709950CC01860D701ED91A5
:1032F000FC9160E071E0D6011E968D919C911F9724
:10330000099564E571E083E793E00E944A1E892BEA
:1033100061F41860D701ED91FC9160E071E0D60195
:103320001E968D919C911F97099560E671E083E749
:1033300093E00E944A1E892B69F5D701ED91FC911B
:1033400060E071E0D60118968D919C9119970995CE
:10335000D701ED91FC9160E071E0D6011A968D9154
:103360009C911B970995D701ED91FC9160E071E06C
:10337000D6011C968D919C911D970995D701ED91D1
:10338000FC9160E071E0D6011E968D919C911F9793
:1033900009951FEF6AE671E083E793E00E944A1EF9
:1033A000892B09F08FCED5015496ED91FC9155975C
:1033B00085E993E0099586CE1F920F920FB60F9282
:1033C00011248F939F93809193039091940301967E
:1033D00090939403809393039F918F910F900FBECE
:1033E0000F901F9018955058BB27AA270E940B1AC0
:1033F0000C94851B0E94771B38F00E947E1B20F0E6
:1034000039F49F3F19F426F40C94741B0EF4E095E4
:10341000E7FB0C946E1BE92F0E94961B58F3BA171A
:10342000620773078407950720F079F4A6F50C94DA
:10343000B81B0EF4E0950B2EBA2FA02D0B01B9018D
:1034400090010C01CA01A0011124FF27591B99F01A
:10345000593F50F4503E68F11A16F040A22F232F26
:10346000342F4427585FF3CF469537952795A79576
:10347000F0405395C9F77EF41F16BA0B620B730B1D
:10348000840BBAF09150A1F0FF0FBB1F661F771F8E
:10349000881FC2F70EC0BA0F621F731F841F48F443
:1034A000879577956795B795F7959E3F08F0B0CFCC
:1034B0009395880F08F09927EE0F979587950895B3
:1034C0000E944A1B08F481E008950E94791A0C9426
:1034D000851B0E947E1B58F00E94771B40F029F448
:1034E0005F3F29F00C946E1B51110C94B91B0C9486
:1034F000741B0E94961B68F39923B1F3552391F333
:10350000951B550BBB27AA2762177307840738F052
:103510009F5F5F4F220F331F441FAA1FA9F335D0AF
:103520000E2E3AF0E0E832D091505040E695001C63
:10353000CAF72BD0FE2F29D0660F771F881FBB1F1D
:10354000261737074807AB07B0E809F0BB0B802DFB
:10355000BF01FF2793585F4F3AF09E3F510578F027
:103560000C946E1B0C94B91B5F3FE4F3983ED4F3AC
:10357000869577956795B795F7959F5FC9F7880FFB
:10358000911D9695879597F90895E1E0660F771F4D
:10359000881FBB1F621773078407BA0720F0621BDE
:1035A000730B840BBA0BEE1F88F7E09508950E9409
:1035B000DE1A6894B1110C94B91B08950E949E1BE9
:1035C00088F09F5798F0B92F9927B751B0F0E1F0E4
:1035D000660F771F881F991F1AF0BA95C9F714C094
:1035E000B13091F00E94B81BB1E008950C94B81B63
:1035F000672F782F8827B85F39F0B93FCCF38695CD
:1036000077956795B395D9F73EF490958095709529
:1036100061957F4F8F4F9F4F0895E89409C097FBA6
:103620003EF490958095709561957F4F8F4F9F4F99
:103630009923A9F0F92F96E9BB279395F6958795DD
:1036400077956795B795F111F8CFFAF4BB0F11F4A0
:1036500060FF1BC06F5F7F4F8F4F9F4F16C0882347
:1036600011F096E911C0772321F09EE8872F762F7D
:1036700005C0662371F096E8862F70E060E02AF0BE
:103680009A95660F771F881FDAF7880F96958795AA
:1036900097F90895990F0008550FAA0BE0E8FEEF7F
:1036A00016161706E807F907C0F012161306E40706
:1036B000F50798F0621B730B840B950B39F40A26FF
:1036C00061F0232B242B252B21F408950A2609F4DD
:1036D000A140A6958FEF811D811D089597F99F67E1
:1036E00080E870E060E008959FEF80EC089500248A
:1036F0000A941616170618060906089500240A9457
:1037000012161306140605060895092E0394000CDC
:1037100011F4882352F0BB0F40F4BF2B11F460FF6B
:1037200004C06F5F7F4F8F4F9F4F089557FD905894
:10373000440F551F59F05F3F71F04795880F97FB75
:10374000991F61F09F3F79F087950895121613062F
:103750001406551FF2CF4695F1DF08C0161617065E
:103760001806991FF1CF8695710561050894089593
:10377000E894BB2766277727CB0197F908950E9425
:10378000D21B0C94851B0E94771B38F00E947E1B75
:1037900020F0952311F00C946E1B0C94741B1124D3
:1037A0000C94B91B0E94961B70F3959FC1F3950F63
:1037B00050E0551F629FF001729FBB27F00DB11DB5
:1037C000639FAA27F00DB11DAA1F649F6627B00D45
:1037D000A11D661F829F2227B00DA11D621F739F2E
:1037E000B00DA11D621F839FA00D611D221F749F3C
:1037F0003327A00D611D231F849F600D211D822F83
:10380000762F6A2F11249F5750409AF0F1F08823A9
:103810004AF0EE0FFF1FBB1F661F771F881F9150D6
:103820005040A9F79E3F510580F00C946E1B0C94FC
:10383000B91B5F3FE4F3983ED4F38695779567957F
:10384000B795F795E7959F5FC1F7FE2B880F911D00
:103850009695879597F90895FA01EE0FFF1F309618
:1038600021053105A1F16115710561F48038BFE3CF
:103870009B0749F168949038810561F08038BFEF6B
:103880009B0741F099234AF5FF3FE10531052105EA
:1038900019F1E8940894E795D901AA2329F4AB2FEC
:1038A000BE2FF85FD0F310C0FF5F70F4A695E0F76D
:1038B000F73950F019F0FF3A38F49F779F930DD005
:1038C0000F9007FC9058089546F00C94741B60E02C
:1038D00070E080E89FE308954FE79F775F934F93F1
:1038E0003F932F930E94271D2F913F914F915F91FE
:1038F0000E94BF1B0C94841C29F416F00C946E1BC0
:103900000C94B81B0C94741B0E949E1BA8F3963851
:10391000A0F707F80F92E8942BE33AEA48EB5FE749
:103920000E94D51B0F920F920F924DB75EB70F9268
:103930000E946F1DEAEAF0E00E94B61C4F915F9171
:10394000EF91FF91E595EE1FFF1F49F0FE57E068EC
:103950004427EE0F441FFA95E1F74195550B0E945D
:10396000E91C0F9007FE0C94DD1C0895DF93CF93A4
:103970001F930F93FF92EF92DF927B018C0168946B
:1039800006C0DA2EEF010E94D21BFE01E894A59139
:103990002591359145915591A6F3EF010E940B1A9F
:1039A000FE019701A801DA9469F7DF90EF90FF908C
:1039B0000F911F91CF91DF9108959B01AC0160E0C1
:1039C00070E080E89FE30C94651A0C946E1B0C94D5
:1039D000A31D0E949E1BD8F39923C9F3940F511D78
:1039E000A3F39150504094F059F0882332F0660FC1
:1039F000771F881F91505040C1F79E3F51052CF70B
:103A0000880F911D9695879597F908955F3FACF0C3
:103A1000983E9CF0BB27869577956795B79508F4F7
:103A2000B1609395C1F7BB0F58F711F460FFE8CF71
:103A30006F5F7F4F8F4F9F4FE3CF0C94B91B16F0F2
:103A40000C94A31D0C94741B68940C946E1B0E9420
:103A50009E1BA8F39923C1F3AEF3DF93CF931F937B
:103A60000F93FF92C92FDD2788232AF02197660F35
:103A7000771F881FDAF720E030E040E85FEB9FE334
:103A8000883920F0803E38F021968F770E94F41913
:103A9000E2EDF0E004C00E94F419EFEFF0E00E94C4
:103AA000B61C8B01BE01EC01FB2E6F577109759599
:103AB000771F880B990B0E940F1B28E132E741E327
:103AC0005FE30E94D21BAF2D9801AE01FF900F91D2
:103AD0001F91CF91DF910E940B1A0C94851BFA0164
:103AE000DC01AA0FBB1F9B01AC01BF5728F42227A2
:103AF00033274427507820C0B75190F4AB2F0024CF
:103B0000469537952795011CA395D2F3002071F0B7
:103B1000220F331F441FB395DAF30ED00C94F31920
:103B200061307105A0E88A07B94630F49B01AC0109
:103B30006627772788279078309621F02083318375
:103B40004283538308959F3F31F0915020F487952D
:103B500077956795B795880F911D9695879597F9F5
:103B60000895DB018F939F930E943F1EBF91AF91F9
:103B7000A29F800D911DA39F900DB29F900D1124C7
:103B80000895AA1BBB1B51E107C0AA1FBB1FA617A4
:103B9000B70710F0A61BB70B881F991F5A95A9F7F6
:103BA00080959095BC01CD01089597FB072E16F4E2
:103BB000009407D077FD09D00E94C11D07FC05D0F5
:103BC0003EF4909581959F4F0895709561957F4F34
:103BD0000895A1E21A2EAA1BBB1BFD010DC0AA1F4E
:103BE000BB1FEE1FFF1FA217B307E407F50720F066
:103BF000A21BB30BE40BF50B661F771F881F991FE1
:103C00001A9469F760957095809590959B01AC0129
:103C1000BD01CF010895052E97FB1EF400940E946C
:103C2000221E57FD07D00E94E91D07FC03D04EF469
:103C30000C94221E50954095309521953F4F4F4F43
:103C40005F4F089590958095709561957F4F8F4F48
:103C50009F4F0895EE0FFF1F0590F491E02D0994FA
:103C6000A29FB001B39FC001A39F700D811D1124BD
:103C7000911DB29F700D811D1124911D08950E9408
:103C8000301EA59F900DB49F900DA49F800D911D97
:103C900011240895FB01DC018D9101908019011020
:103CA000D9F3990B0895FB01DC0101900D920020DE
:103CB000E1F70895AEE0B0E0E0E6FEE10C942521E6
:103CC0008C01FA0186E08C831A83098377FF02C096
:103CD00060E070E8CB0101979E838D83A901BF014D
:103CE000CE0101960E94861E4D815E8157FD0AC05D
:103CF0002F813885421753070CF49A01F801E20F1F
:103D0000F31F10822E96E4E00C944121ABE0B0E06A
:103D1000ECE8FEE10C9417216C017B018A01FC01A7
:103D200017821682838181FFCCC1CE0101963C01AE
:103D3000F6019381F70193FD859193FF81917F01B6
:103D4000882309F4BAC1853239F493FD859193FF34
:103D500081917F01853229F4B60190E00E947D2097
:103D6000E7CF912C212C312CFFE1F315D8F08B32C9
:103D700079F038F4803279F08332A1F4232D206178
:103D80001DC08D3261F0803369F4232D216016C08F
:103D9000832D8260382EE32DE4603E2E2AC0F32D61
:103DA000F8601DC037FC2DC020ED280F2A3040F0F0
:103DB0008E32B9F436FC81C1232D2064322E19C015
:103DC00036FE06C08AE0989E200D1124922E11C066
:103DD000EAE02E9E200D1124222EF32DF0623F2EBC
:103DE00008C08C3621F4832D8068382E02C08836B6
:103DF00041F4F70193FD859193FF81917F0181113A
:103E0000B3CF982F9F7D9554933028F40C5F1F4FAC
:103E10009FE399830DC0833631F0833771F083358A
:103E200009F059C021C0F801808189830E5F1F4FBE
:103E300088248394912C530113C02801F2E04F0E83
:103E4000511CF801A080B18036FE03C0692D70E0DE
:103E500002C06FEF7FEFC5010E9472204C0182010A
:103E6000F32DFF773F2E16C0280122E0420E511C91
:103E7000F801A080B18036FE03C0692D70E002C059
:103E80006FEF7FEFC5010E9467204C01F32DF068B2
:103E90003F2E820133FC1BC0822D90E088169906CC
:103EA000B0F4B60180E290E00E947D202A94F4CF25
:103EB000F50137FC859137FE81915F01B60190E0F5
:103EC0000E947D2021102A9421E0821A91088114F9
:103ED000910471F7E8C0843611F0893641F5F80194
:103EE00037FE07C060817181828193810C5F1F4F13
:103EF00008C060817181072E000C880B990B0E5F42
:103F00001F4FF32DFF763F2E97FF09C090958095A8
:103F1000709561957F4F8F4F9F4FF0683F2E2AE03D
:103F200030E0A3010E94B920882E861845C085374D
:103F300031F4232D2F7EB22E2AE030E025C0932DC0
:103F4000997FB92E8F36C1F018F4883579F0B5C055
:103F5000803719F0883721F0B0C0E92FE061BE2E1C
:103F6000B4FE0DC0FB2DF460BF2E09C034FE0AC0A4
:103F7000292F2660B22E06C028E030E005C020E1DF
:103F800030E002C020E132E0F801B7FE07C06081F6
:103F90007181828193810C5F1F4F06C060817181A6
:103FA00080E090E00E5F1F4FA3010E94B920882E91
:103FB0008618FB2DFF773F2E36FE0DC0232D2E7F5A
:103FC000A22E891458F434FE0BC032FC09C0832D94
:103FD0008E7EA82E05C0B82CA32C03C0B82C01C01F
:103FE000B92CA4FE0FC0FE01E80DF11D80818033C5
:103FF00021F49A2D997EA92E09C0A2FE06C0B39481
:10400000B39404C08A2D867809F0B394A3FC11C040
:10401000A0FE06C0B21488F4280C922C9B180EC087
:10402000B21460F4B60180E290E00E947D20B39467
:10403000F7CFB21418F42B1802C0982C212CA4FE30
:1040400010C0B60180E390E00E947D20A2FE17C060
:10405000A1FC03C088E790E002C088E590E0B601CB
:104060000CC08A2D867859F0A1FE02C08BE201C0F7
:1040700080E2A7FC8DE2B60190E00E947D208914C9
:1040800038F4B60180E390E00E947D209A94F7CF47
:104090008A94F301E80DF11D8081B60190E00E9441
:1040A0007D208110F5CF222009F442CEB60180E2B6
:1040B00090E00E947D202A94F6CFF60186819781B8
:1040C00002C08FEF9FEF2B96E2E10C943321FC01AD
:1040D0000590615070400110D8F7809590958E0F33
:1040E0009F1F0895FC016150704001900110D8F7A6
:1040F000809590958E0F9F1F08950F931F93CF93D8
:10410000DF93FB01238121FD03C08FEF9FEF2CC0C4
:1041100022FF16C0468157812481358142175307FB
:1041200044F4A081B1819D012F5F3F4F31832083F3
:104130008C93268137812F5F3F4F3783268314C0AE
:104140008B01EC01FB010084F185E02D0995892BA1
:10415000E1F6D80116968D919C91179701961796C6
:104160009C938E931697CE01DF91CF911F910F9163
:104170000895FA01AA27283051F1203181F1E894FD
:104180006F936E7F6E5F7F4F8F4F9F4FAF4FB1E04A
:104190003ED0B4E03CD0670F781F891F9A1FA11D45
:1041A000680F791F8A1F911DA11D6A0F711D811D46
:1041B000911DA11D20D009F468943F912AE0269F0B
:1041C00011243019305D3193DEF6CF010895462F6A
:1041D0004770405D4193B3E00FD0C9F7F6CF462F4B
:1041E0004F70405D4A3318F0495D31FD40524193B4
:1041F00002D0A9F7EACFB4E0A69597958795779571
:104200006795BA95C9F700976105710508959B01F7
:10421000AC010A2E06945795479537952795BA9580
:10422000C9F7620F731F841F951FA01D08952F9259
:104230003F924F925F926F927F928F929F92AF9236
:10424000BF92CF92DF92EF92FF920F931F93CF9383
:10425000DF93CDB7DEB7CA1BDB0B0FB6F894DEBF1A
:104260000FBECDBF09942A88398848885F846E8440
:104270007D848C849B84AA84B984C884DF80EE808A
:10428000FD800C811B81AA81B981CE0FD11D0FB693
:10429000F894DEBF0FBECDBFED010895F894FFCFB7
:1042A0006F66660057656C636F6D65006C656420B2
:1042B000310D0A006F6E20006C65642031206F663E
:1042C000660D0A006C656420320D0A006C6564207E
:1042D00032206F66660D0A006C656420330D0A009B
:1042E0006C65642033206F66660D0A006C6564207F
:1042F000340D0A006C65642034206F66660D0A0078
:10430000616C6C206F66660D0A007374617475735E
:044310000D0A000092
:00000001FF
